:020000040800F2
:10000000F0160020E10100086F1C0008051A000826
:100010006D1C0008B1070008A520000800000000C2
:10002000000000000000000000000000490100087E
:10003000B3070008000000008D010008D51C00086F
:10004000FB010008FB010008FB010008FB010008A0
:10005000FB010008FB010008FB010008FB01000890
:10006000FB010008FB010008FB010008FB01000880
:10007000FB010008FB010008FB010008FB01000870
:10008000FB010008FB010008FB010008FB01000860
:10009000FB010008FB010008FB010008FB01000850
:1000A000FB010008611D0008FB010008FB010008BE
:1000B000FB010008FB010008FB010008FB01000830
:1000C000FB010008FB010008FB010008FB01000820
:1000D000FB010008812000088D20000899200008FD
:1000E000FB010008FB010008FB010008FB01000800
:1000F000FB010008FB010008FB010008FB010008F0
:10010000FB010008FB010008FB010008FB010008DF
:10011000FB010008FB010008FB010008FB010008CF
:10012000FB010008FB010008FB010008FB010008BF
:10013000DFF810D000F0ACFA00480047BD290008F5
:10014000AFF30080F0160020224B19680868B0E871
:10015000F00F80F30988BFF36F8F4FF0000080F33A
:1001600011884EF00D0E7047000000000648006830
:10017000006880F3088862B661B6BFF34F8FBFF3A3
:100180006F8F00DF00BF00BF08ED00E0EFF30980D4
:10019000BFF36F8F0F4B1A6820E9F00F106008B59E
:1001A0004FF0500080F31188BFF34F8FBFF36F8F74
:1001B00003F024F84FF0000080F31188BDE80840F8
:1001C00019680868B0E8F00F80F30988BFF36F8FF3
:1001D000704700BF28000020EFF305807047000043
:1001E0000648804706480047FEE7FEE7FEE7FEE7D1
:1001F000FEE7FEE7FEE7FEE7FEE7FEE75F1D00081D
:1002000031010008202A04DB203A21FA02F0002103
:10021000704721FA02F3D040C2F120029140084316
:100220001946704740EA01039B0703D009E008C95B
:10023000121F08C0042AFAD203E011F8013B00F8AB
:10024000013B521EF9D27047D2B201E000F8012BF7
:10025000491EFBD270470022F6E710B513460A4646
:1002600004461946FFF7F0FF204610BD30B505469D
:100270002A460B4612F8010B13F8014B08B1A042B5
:10028000F8D01CB1002802D06D1CF1E7284630BD23
:1002900030B50B46014600202022012409E021FA56
:1002A00002F59D4205D303FA02F5491B04FA02F553
:1002B0002844151EA2F10102F1DC30BD2DE9F05FEA
:1002C0000546002092469B468846064681464024C5
:1002D0001BE02846414647462246FFF793FF534618
:1002E0005A46C01A914110D311461846224600F0D2
:1002F000E1F92D1A67EB01084F4622460120002143
:1003000000F0D8F917EB00094E41201EA4F10104BA
:10031000DFDC484631462A464346BDE8F09F2DE9DA
:10032000FE4F804681EA0300C00F0C46009021F08A
:10033000004123F00045B8EB0200A94105D2404638
:10034000214690461C460B46024623F000401043CF
:1003500047D0270DC7F30A00C3F30A510290401A91
:10036000019040286BDAC3F3130040F4801B00981F
:10037000924620B10023D2EB030A63EB0B0B0198EA
:100380005946C0F14002504600F094F906460D4629
:1003900050465946019A00F09CF910EB0800614163
:1003A000002487EA115284EAE7731A4340D0009A86
:1003B00062B3019A012A4FEA075215DC001B61EB78
:1003C00002014FF0004202EA0752CDE90042001C50
:1003D00041F5801132462B4600F09CF903B0BDE890
:1003E000F08F40462146F9E7001B61EB0201001C3B
:1003F00041F5801300185B412018A2F5001747EB68
:10040000030140EAD570B6196D4111E06D084FEA5D
:10041000360645EAC0754FEA0752001B61EB020140
:10042000001C41F5801149084FEA30000019514184
:1004300032462B4603B0BDE8F04F00F05CB900989F
:10044000012240000023D0EB020263EBE07300982E
:1004500021464FEAE074B8EB000061EB0401E9E7E4
:1004600083F000435BE781F0004158E72DE9FE4F40
:1004700081EA030404F0004421F0004100944FF0AD
:10048000000B23F0004350EA01045ED052EA03045B
:100490005BD0C3F30A54C1F30A552C44A4F2F334DD
:1004A0000194A0FB0254C1F3130141F48011C3F382
:1004B000130343F4801301FB024400FB034E840A40
:1004C000970A44EA815447EA8357A4FB07680295D8
:1004D0008D0A05FB07854FEA932C04FB0C54270576
:1004E000029D4FEA065847EA1637B5EB08056EEB52
:1004F000070C870E920E47EA811742EA8312A7FB88
:100500000201B6EB0B0164EB00042B0D43EA0C3344
:100510005E1844EB1C50DA465146E7FB0201C5F376
:1005200013044FEA0B3343EA14534FEA0432019C9D
:1005300043EA0603A4F10C040294009CCDE900B444
:1005400000F0E8F803B0BDE8F08F00200146F9E7BD
:100550002DE9F04D81EA030404F0004B21F0004541
:1005600014464FF0000A23F0004150EA050220D063
:1005700054EA01021DD0C5F30A570246C5F313031E
:10058000C1F31300C1F30A5640F4801543F48013FD
:10059000A7EB0608101BD64608F2FD3873EB0500E2
:1005A00002D308F1010801E092185B41B8F1000F95
:1005B00003DA00200146BDE8F08D00204FF48011E1
:1005C000064684460EE0171B73EB050705D3121B86
:1005D00063EB050306434CEA010C49084FEA30007F
:1005E00092185B4150EA0107EDD152EA030012D0A4
:1005F00082EA040083EA0501084305D0101BAB41E1
:1006000006D20122002306E000224FF0004302E060
:100610006FF0010253101AEB06004CEB085110EB7F
:100620000A0041EB0B01BDE8F04D00F064B8C1F3E6
:100630000A52C1F3130140F2FF3341F480119A4290
:1006400002DA00200146704740F233439A42A2F298
:10065000334202DC5242FFF7D5BD00F02BB8000058
:1006600030B5041E71F1000404DB4FF00044404239
:1006700064EB0101141E73F1000405DB1C464FF00E
:100680000043524263EB0403994208BF904230BDDD
:10069000064C074D06E0E06840F0010394E80700CF
:1006A00098471034AC42F6D3FFF746FDE03500081A
:1006B00000360008202A04DB203A00FA02F100206C
:1006C00070479140C2F1200320FA03F31943904090
:1006D0007047202A06DBCB17203A41FA02F043EAA2
:1006E000E07306E041FA02F3D040C2F120029140EB
:1006F00008431946704710B5141E73F1000408DA58
:10070000401C41F1000192185B411A4301D120F0D5
:10071000010010BD2DE9F04D92469B4611B1B1FA92
:1007200081F202E0B0FA80F220329046FFF7C2FF79
:1007300004460F4640EA0A0041EA0B0153465A4676
:10074000084313D0114653EA010019D0C8F1400202
:100750005046FFF757FD05460E465046594642465D
:10076000FFF7A8FF084305D0012004E020463946E2
:10077000BDE8F08D0020054346EAE0762C43374380
:100780000A986305E40AA0EB08000022FD0A44EA87
:1007900047540A3002D500200146E9E70105101947
:1007A0006941DDE9084500196941BDE8F04DA2E75E
:1007B000FEE7704772B6FEE710B590F821100022F0
:1007C000022905D00421816380F82020012010BD7A
:1007D00001680B6823F00E030B6001680B6823F0BF
:1007E00001030B6090F84030C46B012101FA03F360
:1007F000636080F8211080F82020104610BD0000B2
:100800002DE9F05F90F821100024022903D0042183
:100810008163012485E001680A6822F00E020A6003
:1008200001680A6822F001020A603F4E3E4FB2158D
:10083000DFF8F4C0DFF8F090DFF8ECA0DFF8E8B004
:10084000DFF8E4E00168783F13011502ACF1640CB5
:10085000A9F15009AAF13C0AABF1280BAEF1140E34
:100860004FF48018B14227D9B9420ED0614512D059
:1008700049451DD0514518D0594518D0714501D171
:10088000424615E0294EB14201D1012210E0274E27
:100890001436B14201D110220AE0244E2836B1426A
:1008A00006D0224A3C32914201D11A4600E02A4643
:1008B0001E49091F0A602BE0B94213D0614517D0C9
:1008C000494522D051451DD059451DD0714501D112
:1008D00042461AE0B14202D14FF0807215E0134E49
:1008E000B14201D1012210E0104E1436B14201D1C3
:1008F00010220AE00D4E2836B14206D00B4A3C3297
:10090000914201D11A4600E02A46074980394A60DF
:10091000012180F82110002180F82010416B01B1E5
:1009200088472046BDE8F09F80000240080402404E
:1009300070B5054600F00AF94FEA000400F006F928
:10094000001BA842FAD370BD2DE9F84FDFF8C8911B
:100950000024A9F1040B23460F2709F1040AABF187
:10096000040ED1E00125A54006EA0502AA4276D18F
:10097000DFF8A8C14E68A6EB0C0866452BD00DDC4D
:10098000032E34D005DC36B3012E19D0022E2FD120
:100990001BE0112E16D0122E2AD119E0B8F5881FAF
:1009A00019D006DCB8F5803F15D0B8F5801F1FD1EF
:1009B00011E0B8F5001F0ED0B8F5041F18D10AE0F9
:1009C000CB6815E0CB681B1D12E0CB6808330FE045
:1009D000CB680C330CE08B682BB1012B4FF0080374
:1009E00003D0456104E0042302E0056100E0002338
:1009F000FF2A01D8064601E000F104064FEA84050B
:100A000001D9A5F12005D6F8008007FA05FC28EAEF
:100A10000C0803FA05F548EA0508C6F800804D6899
:100A2000ED0070D53E4DAE6946F00106AE61AD6990
:100A300024F0030605F0010500953A4D06EB050C80
:100A4000DCF80850A607360F07FA06F825EA08056D
:100A5000DFF8D480404503D14FF0000825E052E094
:100A6000DFF8C880404502D14FF001081DE0DFF8F3
:100A7000C080404502D14FF0020816E0DFF8B48094
:100A8000404502D14FF003080FE0DFF8AC8040454D
:100A900002D14FF0040808E0DFF8A080404502D101
:100AA0004FF0050801E04FF0060808FA06F848EA9A
:100AB0000508CCF808804D68D9F80060ED024D4675
:100AC00001D5164300E096432E604D68DAF80060C9
:100AD000AD02554601D5164300E096432E604D68A1
:100AE000DBF80060AD035D4601D5164300E0964398
:100AF0002E604D68DEF80060ED03754601D51643A3
:100B000000E096432E60641C0A681646E2407FF4BB
:100B100029AFBDE8F88F0000080401400000111063
:100B2000001002400000014000080140000C01409C
:100B3000001001400014014000180140001C014059
:100B40000AB1016170470904FBE7000001488068B1
:100B500070470000180000200248816802781144A4
:100B60008160704718000020074810B5016841F007
:100B700010010160032000F095F80F2000F006F846
:100B800000F03EF8002010BD0020024000B50146F4
:100B900087B00022192000F065F8192000F054F801
:100BA0001348816941F400618161806905A900F4FD
:100BB00000600690684600F01DF900F04BF90D4901
:100BC0000D4AB0FBF1F10D48491E0260416040F250
:100BD000E7320021C0E90321816000F003FB10B17E
:100BE000012007B000BD054800F02AFBF9E700002E
:100BF0000010024040420F00002C0140B4050020CC
:100C00000F4808B5816941F001018161816901F0F6
:100C100001010091C16941F08051C161C0690022A8
:100C200000F0805000900F21901E00F01BF8054846
:100C3000416821F0E06141F00071416008BD0000B1
:100C40000010024000000140002809DB00F01F02F4
:100C5000012191404009800000F1E020C0F800111E
:100C600070470000F0B40E4B1B680C46C3F3022320
:100C7000C3F10705042D00D90425191D072901D248
:100C8000002300E0DB1E012606FA05F1491E214083
:100C900099409E40761E16403143F0BC01F01EBACA
:100CA0000CED00E0064900F0070208684FF6FF036C
:100CB000184040EA0220034A1043086070470000D1
:100CC0000CED00E00000FA052DE9F0470F460500A5
:100CD00061D0434E306800F00700B84209D2306856
:100CE00020F0070038433060306800F00700B84259
:100CF00051D128683B4C810712D5400703D5606865
:100D000040F4E06060602878000703D5606840F434
:100D1000605060606068A96820F0F000084360607F
:100D20002878C00728D06868012810D021680228D8
:100D300010D0890700292EDA616821F003010143F0
:100D40006160FFF703FF804641F288390DE02168BA
:100D50008903EFE78901EDE7FFF7F8FEA0EB080153
:100D6000494502D90320BDE8F0876068696800F052
:100D70000C00B0EB810FEFD1306800F00700B842F3
:100D80000BD9306820F0070038433060306800F03D
:100D90000700B84201D00120E5E72878400705D5D3
:100DA0006068E96820F4E060084360602878000724
:100DB00006D56068296920F4605040EAC10060608F
:100DC00000F058F86168084AC1F30311515CC8404B
:100DD0000649086006480068FFF7D8FE0020C2E711
:100DE0000020024000100240A2350008240000202C
:100DF0001C0000200F2202600C4A536803F003031A
:100E00004360536803F0F0038360536803F4E063C6
:100E1000C36052684FF4E06303EAD20202610448FF
:100E2000006800F0070008607047000000100240F2
:100E3000002002400448054900684968044AC1F39B
:100E40000221515CC840704724000020001002407D
:100E5000B23500080448054900684968044AC1F3EE
:100E6000C221515CC840704724000020001002409D
:100E7000B23500080E4A51680E4801F00C03042BED
:100E800011D0082B0FD10C48C1F38343C903C05CB8
:100E90000AD55168084AC1F34041921E515C054A87
:100EA0005043B0FBF1F070470449484370470000DD
:100EB0000010024000127A009235000800093D003F
:100EC0002DE9F84F040070D02078C04DC00749D0FC
:100ED0006868C0F38100012807D06868C0F381000A
:100EE000022809D16868C00306D52868800339D56F
:100EF00060680028E7D035E06068B0F5803F0BD02F
:100F000010B1B0F5A02F11D0286820F480302860EF
:100F1000286820F4802002E0286840F480302860AF
:100F2000606890B1FFF712FE06460AE0286840F4B8
:100F300080202860F0E700BFFFF708FE801B6428D0
:100F400073D828688003F7D50CE0FFF7FFFD06464D
:100F500005E000BFFFF7FAFD801B6428F0D8286881
:100F60008003F7D420789A4E80074FF001094FF0A4
:100F7000000839D5686810F00C0F07D06868C0F316
:100F80008100022809D16868C00306D42868800758
:100F900014D52069012808D110E02069B0B1C6F845
:100FA0000090FFF7D3FD074605E00AE1FFF7CEFD0D
:100FB000C01B0228C4D828688007F7D52868616953
:100FC00020F0F80040EAC10028600DE0C6F800807B
:100FD000FFF7BCFD074604E0FFF7B8FDC01B022881
:100FE00023D828688007F7D4207800072CD57948C3
:100FF000A169D9B1C0F80090FFF7A8FD074604E049
:10100000FFF7A4FDC01B02280FD8686A8007F7D538
:1010100071484FF4FA510068B0FBF1F0009000BF46
:101020000098411E0091FAD20EE080E0C0F80080E6
:10103000FFF78CFD074604E0FFF788FDC01B022880
:1010400075D8686A8007F7D42078400760D5E869CA
:101050000027C00008D4E86940F08050E861E869E2
:10106000012700F0805000905C480168C90513D446
:101070000168834641F480710160FFF767FD824695
:1010800006E000BFFFF762FDA0EB0A0064284ED81F
:10109000DBF80000C005F5D5E06801280AD008B1EA
:1010A000052813D0286A20F001002862286A20F061
:1010B000040002E0286A40F001002862E06841F282
:1010C000883B98B1FFF742FD82460BE0286A40F06A
:1010D00004002862EEE700BFFFF738FDA0EB0A012D
:1010E00059455AD8286A8007F6D50CE0FFF72EFD3F
:1010F000824605E0FFF72AFDA0EB0A0159454CD8CE
:10110000286A8007F6D41FB1E86920F08050E861B2
:10111000E06988B36968C1F38101022944D00228DB
:10112000C6F8608004D0FFF711FD044638E034E0D3
:10113000FFF70CFD074604E0FFF708FDC01B02287F
:101140002BD828688001F7D4206AB0F5803F05D1FC
:101150006868A16820F4003008436860D4E9080199
:101160000843696821F4741108436860C6F8609008
:10117000FFF7ECFC044606E025E000BFFFF7E6FCC5
:10118000001B022809D828688001F7D51BE000BFA2
:10119000FFF7DCFC001B022802D90320BDE8F88F12
:1011A00028688001F4D40EE00128F7D06868226A2C
:1011B00000F48031914204D1616A00F470108842D9
:1011C00001D00120EAE70020E8E70000001002401B
:1011D000000042428004424224000020007000408F
:1011E0007047704710B5040003D094F83D0010B16B
:1011F00007E0012010BD002084F83C00204600F0EC
:101200001EF8022084F83D00211D206800F0AEFD8C
:10121000012084F8460084F83E0084F83F0084F8FA
:10122000400084F8410084F8420084F8430084F8C8
:10123000440084F8450084F83D00002010BD70474C
:1012400090F83D10012901D001207047022180F85B
:101250003D100168CA6842F00102CA6000680E4988
:1012600088420ED00D4988420BD0B0F1804F08D093
:101270000B49884205D00B49884202D00A4988426E
:1012800004D1816801F00701062903D0016841F00B
:101290000101016000207047002C01400034014032
:1012A0000004004000080040000C0040704770B58A
:1012B0000446006801694FF00005C943890715D449
:1012C000C168C943890711D4E91E01610120207753
:1012D000206880698007204602D0FFF7E7FF04E01E
:1012E00000F098F8204600F096F82577206801690C
:1012F000C943490717D4C168C943490713D46FF0DC
:1013000004010161022020772068806910F4407F89
:10131000204602D0FFF7CAFF04E000F07BF8204629
:1013200000F079F8257720680169C943090716D4C8
:10133000C168C943090712D46FF008010161042094
:1013400020772068C0698007204602D0FFF7AEFFF3
:1013500004E000F05FF8204600F05DF82577206893
:101360000169C943C90617D4C168C943C90613D462
:101370006FF010010161082020772068C06910F427
:10138000407F204602D0FFF791FF04E000F042F8D2
:10139000204600F040F8257720680169C943C90755
:1013A00008D1C168C943C90704D1891E016120461B
:1013B00000F032F820680169C943090609D4C16800
:1013C000C943090605D46FF0800101612046FFF78B
:1013D00007FF20680169C943490609D4C168C943A8
:1013E000490605D46FF040010161204600F01EF867
:1013F00020680169C94389060BD4C168C9438906BD
:1014000007D46FF0200101612046BDE87040FFF76E
:10141000E8BE70BD7047704700680349884201D13B
:10142000FFF79ABB70470000002C014070477047DF
:1014300070470000F8B5016804460868CA684B693F
:1014400010F00F0F4FF0000559D003F0010602F421
:101450009077374365D0C10705D0D10503D5616CBE
:1014600041F001016164410705D5D90703D0616CE2
:1014700041F002016164810705D5D90703D0616C91
:1014800041F004016164010707D502F020013143F6
:1014900003D0616C41F008016164616C00293AD0AD
:1014A000800604D5900602D5204600F0D4FC2068C2
:1014B0004069616CC0F38010090700D460B3204616
:1014C00000F0A2FC20684069400621D52068143055
:1014D00050E8001F21F0400140E80012002AF5D139
:1014E000E06BA8B16D494163E06BFFF789F9002813
:1014F00011D0E06B416B01B0BDE8F04008478306B6
:101500000FD593060DD52046BDE8F84000F0A3BCEA
:101510002046FFF78DFFF8BD2046FFF789FF656481
:10152000F8BD266B2023012E7CD1C6067AD5D606BF
:1015300078D508684868009048694FF00206400670
:1015400040D5E16B086840680004000CE8D0A28D2B
:101550008242E5D9E085886920282DD020680C30AA
:1015600050E8001F21F4807140E80012002AF5D1F4
:101570002068143050E8001F21F0010140E80012FB
:10158000002AF5D12068143050E8001F21F04001F6
:1015900040E80012002AF5D184F842302563206823
:1015A0000C3050E8001F21F0100140E80012002A22
:1015B000F5D1E06BFFF700F96663A08DE18D401A6D
:1015C00081B22AE0A08DE18D401A81B2E08D002821
:1015D000A6D00029A4D022680C3252E8000F20F4D3
:1015E000907042E80007002FF5D12068143050E8D1
:1015F000002F22F0010240E80027002FF5D184F8E7
:101600004230256320680C3050E8002F22F0100291
:1016100040E80023002BF5D166632046FFF707FF63
:10162000F8BDFFE705062BD5150629D594F841002E
:101630002128F5D1A068B0F5805F01D12069B0B153
:10164000206A411C2162216800784860E08C401EBD
:101650000004000CE084E3D12068C16821F080011F
:10166000C1602068C16841F04001C160D8E7206ACC
:101670000088C0F308004860206A801C2062E5E70B
:101680004006CDD55006CBD5CA68204622F0400290
:10169000CA6084F8413000F0B4F9C1E7F91D0008D0
:1016A00070B5040004D094F84100002510B106E0A4
:1016B000012070BD84F84050204600F023F824201B
:1016C00084F841002068C16821F40051C1602046BF
:1016D00000F022FC2068016921F49041016120683A
:1016E000416921F02A0141612068C16841F400513B
:1016F000C1606564202084F8410084F8420065637D
:10170000002070BDF0B585B00024009401940294CF
:1017100003940368424F022042490322424D46028D
:10172000BB4225D18B6943F480438B618B6903F401
:10173000804304938B6943F004038B6189690392AE
:1017400001F0040104910102CDE900106946284628
:10175000FFF7FAF8CDE90064694628460294FFF7DE
:10176000F3F8002205212520FFF77CFA252028E048
:101770002E4FBB4229D1CB6943F40033CB61CB69F7
:1017800003F4003304938B6943F004038B6189698C
:10179000039201F0040104910421CDE9001069468F
:1017A0002846FFF7D1F80820CDE90004694628460D
:1017B0000294FFF7C9F8002205212620FFF752FA0C
:1017C0002620FFF741FA05B0F0BD194DAB42FAD122
:1017D000CB6943F48023CB61CB6903F4802304936A
:1017E0008B6943F008038B618969124D01F0080190
:1017F000CDE90321CDE9006069462846FFF7A4F84A
:10180000E814CDE90004694628460294FFF79CF8E5
:10181000002205212720FFF725FA2720D1E7000025
:101820000038014000100240000801400044004020
:1018300000480040000C014090F84230202B01D0BD
:101840000220704721B11AB10023036300F0C0BB2E
:10185000012070472DE9F041054633490068002614
:101860008F15324C884232D131492078A2780A54FF
:10187000401CC0B22070084410F8011C0A2920D175
:1018800010F8020C0D281CD126702AA12848FEF75A
:10189000EDFC30B10120A080024620212748FFF74F
:1018A0004FF927A12248FEF7E1FC30B10220A080C9
:1018B000012220212448FFF743F939461C48FEF74E
:1018C000CAFC1A490122891C2048FFF7B5FF2049AC
:1018D0002868884225D11F496078E2780A54401C64
:1018E000C0B26070084410F8011C0A2910D110F829
:1018F000020C0D280CD1667017A11648FEF7B6FC35
:1019000017A11448FEF7B2FC39461248FEF7A3FCB3
:10191000BDE8F04105490D480122C91C4830FFF7D8
:101920008BBFBDE8F08100000038014010000020AE
:10193000DC0200206C6564310000000000180140EA
:101940006C65643200000000000C0140DC040020E3
:1019500000440040DC0300206F7564616661310063
:101960006F756461666132002DE9F843044690F8B2
:1019700041001F4616460D46202802D00220BDE831
:10198000F8837DB176B100206064212084F84100A5
:10199000FFF7DCF8A6848046E684A068B0F5805F97
:1019A00002D003E00120EAE7206910B12E460025AD
:1019B0000EE000260CE08021204600F024FBA0B9B8
:1019C000AEB116F8010B21684860E08C401EE0843F
:1019D000E08C43464FF0000200970028EBD14FF017
:1019E0004001204600F00FFB30B10320C7E735F877
:1019F000020BC0F30800E6E7202084F84100002035
:101A0000BDE77047FEE7000001F0CAFA0122054970
:101A10000548FFF711FF002001F05CFB01F0E0FA40
:101A2000F2E7000012000020DC0400201C4C1D4ED8
:101A3000DFF8749000274FF001084FF4FA753088F2
:101A4000012802D0022814D026E0C4F89471284658
:101A500000F0F4FFC4F89481284600F0EFFF13A0D3
:101A600001F042FA13A001F043FA14A001F044FA85
:101A700012E0012220214846FFF762F82846FEF7CF
:101A800057FF002220214846FFF75AF82846FEF764
:101A90004FFF0CA001F028FA012000F0CFFFCEE7A5
:101AA0000080214214000020001801406C65643160
:101AB0000D0A000032323232320D0A003333333332
:101AC000330D0A006C6564320D0A000010B596B043
:101AD0001C2211496846FEF7A5FB0021684600F06C
:101AE000B9FF0E4C0C491C2260601C3107A8FEF7A0
:101AF00099FB002107A800F0ADFF0749A0601C2258
:101B000038310EA8FEF78EFB00210EA800F0A2FFD0
:101B1000E06016B010BD00003C3500080000002059
:101B20002DE9F04385B000242348009401940294E9
:101B30000394816941F040018161816901F04001B4
:101B40000491816941F004018161816901F004011E
:101B50000491816941F0080181618069DFF85C804E
:101B600000F008000490002220214046FEF7E8FF24
:101B7000DFF84C90002220214846FEF7E1FF1C20B0
:101B800001258DE8310069464046FEF7DDFE20263E
:101B9000022703970096CDE9015469464046FEF7B7
:101BA000D3FE03970096CDE9015469464846FEF7F7
:101BB000CBFE05B0BDE8F0830010024000180140E4
:101BC000000C01400C4810B50A4901604FF4E131A6
:101BD0004160002181600C22C160C0E90412816172
:101BE000C161FFF75DFD002803D0BDE81040FEF79E
:101BF000E1BD10BD00380140DC0400200C4810B5E8
:101C00000A4901604FF4E1314160002181600C22FA
:101C1000C160C0E904128161C161FFF741FD002884
:101C200003D0BDE81040FEF7C5BD10BD0044004024
:101C3000240500200C4810B50A4901604FF4E13139
:101C40004160002181600C22C160C0E90412816101
:101C5000C161FFF725FD002803D0BDE81040FEF765
:101C6000A9BD10BD004800406C050020FEE7FEE75E
:101C7000154F164C164D4FF000084FF00209012683
:101C8000287828B1D4F8100160B1D4F80C0148B11B
:101C9000D4F810010128F3D1D4F80C010128EFD1B8
:101CA0002E70EDE70A2000F0C9FE85F80080D4F818
:101CB000100130B1D4F80C010028E1D1A7F8009050
:101CC000DEE73E80DCE70000140000200000234235
:101CD0000000002010B5502080F31188BFF34F8F13
:101CE000BFF36F8F01F064FB18B104494FF08050CF
:101CF0000860002080F3118810BD000004ED00E0B2
:101D000030B58FB028216846FEF7A5FA14210AA83D
:101D1000FEF7A1FA01210804CDE900100024029485
:101D200002250491CDE907504FF4E0100990684670
:101D3000FFF7C6F808B172B6FEE70F20CDE90A0535
:101D40004FF48060CDE90C4002210AA80E94FEF702
:101D5000BBFF002801D072B6FEE70FB030BD704760
:101D60000148FFF7A4BA0000B4050020F0B50268EE
:101D70001C4B1D4D1D4E1E4F1E4C4FF0804C98426B
:101D800009D0A04207D0604505D0A84203D0B04298
:101D900001D0B84204D122F0700E4A6842EA0E0225
:101DA000984209D0A04207D0604505D0A84203D090
:101DB000B04201D0B84203D122F44075CA682A4328
:101DC0004D6922F080022A4302608A68C2620A6872
:101DD0008262984201D0A04201D1096901630121C8
:101DE0004161F0BD002C01400004004000080040AB
:101DF000000C00400034014010B5406A0021C1854C
:101E0000C184FFF715FB10BD01680C3151E8002FAC
:101E100022F4907241E80023002BF5D101681431BF
:101E200051E8002F22F0010241E80023002BF5D1F8
:101E3000016B012909D101680C3151E8002F22F012
:101E4000100241E80023002BF5D1202180F8421038
:101E500000210163704708B590F84210222901D093
:101E6000022008BD82684FF480539A4201D1016973
:101E700021B1816A9A421BD04AB10AE00268816AA4
:101E80005268C2F308020A80816A891C08E002696C
:101E900072B10268526802F07F020A70816A491CBE
:101EA0008162C18D491E0904090CC18503D01BE064
:101EB00002685268F1E70168CA6822F02002CA602D
:101EC0000168CA6822F48072CA6001684A6922F017
:101ED00001024A61202180F8421000214163026B17
:101EE000012A03D0FFF7B6FC002008BD016301689A
:101EF0000C3151E8002F22F0100241E80023002BA2
:101F0000F5D101680A68D20602D50A6849680091CD
:101F1000818DFFF78CFAE7E770B504460068016928
:101F2000E26821F44051114301612169A06808432E
:101F3000616908432168CA6841F20C639A4302430D
:101F4000CA6020684169A26921F44071114341616E
:101F50001E492068884202D1FEF77CFF01E0FEF7AF
:101F600069FF00EBC00101EB001260686421800092
:101F7000B2FBF0F3B3FBF1F36FF018067343B2FB5F
:101F8000F0F5B2FBF0F605EB8305322303EB051504
:101F9000B5FBF1F5B6FBF1F605F0F00505EB06151E
:101FA000B2FBF0F6B2FBF0F0B0FBF1F06FF018020C
:101FB000504306EB800003EB0010B0FBF1F021680A
:101FC00000F00F002844886070BD00000038014018
:101FD00081628285C28500214164222180F84210FD
:101FE000016921B10168CA6842F48072CA6001685F
:101FF0004A6942F001024A610068C16841F020016B
:10200000C160002070472DE9F041984617460E4602
:102010000446069D27E0681C25D02DB1FEF796FDED
:10202000A0EB0800A8421ED920680C3050E8001F21
:1020300021F4D07140E80012002AF5D12068143054
:1020400050E8001F21F0010140E80012002AF5D1FC
:10205000202084F8410084F84200002084F84000E9
:102060000320BDE8F0812068006836EA000004D053
:102070000020B842CFD00020F3E70120F9E70000AC
:102080000148FFF7D7B90000DC0400200148FFF742
:10209000D1B90000240500200148FFF7CBB90000AA
:1020A0006C050020FEE700007CB50C001D461646BE
:1020B000014601D0601E00E00020CDE90010064B73
:1020C0006A462946304600F0EBF8002C02D0009A10
:1020D000002111707CBD0000A72900080907090E26
:1020E000002804DB00F1E02080F80014704700F0C5
:1020F0000F0000F1E02080F8141D704702E008C8CE
:10210000121F08C1002AFAD170477047002001E071
:1021100001C1121F002AFBD1704700002DE9FF5FAB
:1021200082B00021DDE90430020DDDF840B0034348
:1021300018D044F61050A2F2FF3242431514119801
:1021400001281FD0A5EB0B00401C5FEA000A4FF0EE
:1021500000064E4FDFF83891B046504615D5CAF10B
:10216000000413E0119801244AA3012801D16FEA69
:102170000B010298119AC0E90031C0E9024206B091
:10218000BDE8F09FCBF10000DFE704460021404AA4
:10219000491842EB0450CDE9001012E0E00707D0E7
:1021A00032463B4640464946FEF760F9804689463E
:1021B00032463B4610461946FEF758F906460F468A
:1021C0006410002CEAD1DDE90401DDE90023BAF155
:1021D000000F06DAFEF74AF942464B46FEF746F98B
:1021E00005E0FEF7B5F942464B46FEF7B1F9044665
:1021F0000E460022284BFEF733FA03D84FF0FF308B
:10220000014607E00022254B20463146FEF787F8BD
:10221000FEF70DFA102409E0002C0ADB0A22002345
:10222000FEF74CF8039B30321A55641E50EA010247
:10223000F2D1641C039AC4F111031444119A012AC7
:1022400003D0012208430DD10AE0084304D0002046
:102250004FF0110B119072E7A3EB0B056D1E0DE013
:102260005B4504DD4FF0000205F1010504E003DAEF
:102270004FF00002A5F10105002AECD00298119957
:10228000C0E90231C0E9004579E7000000001440D0
:102290000000F03F300000000000F0430000E03F8D
:1022A0002DE9FF4F95B09A46884606460025EEE197
:1022B000252877D100242746F94A0121039400E01C
:1022C000044316F8013F203B01FA03F01042F7D116
:1022D00030782A2811D06FF02F033078A0F1300227
:1022E000092A16D8039A44F0020402EB820203EB97
:1022F00042021044761C0390EFE758F8042B039237
:10230000002A03DA504244F40054039044F00204DB
:10231000761C30782E2816D116F8010F44F00404EC
:102320002A280DD06FF02F023078A0F13003092B4E
:1023300009D807EB870302EB4303C718761CF3E7C2
:1023400058F8047B761C30786C280FD006DC4C28BB
:1023500017D068280DD06A2814D104E0742810D052
:102360007A280FD10DE044F400140AE044F48014FC
:1023700001E044F440147278824202D104F58014E2
:10238000761C761C307866280BD013DC582877D062
:1023900009DC002875D04528F6D04628F4D0472817
:1023A0001AD193E118E0632835D0642879D06528E4
:1023B00012D18BE1702873D008DC6728F1D069282E
:1023C0006FD06E280DD06F2806D1ACE073282CD0CA
:1023D000752874D0782853D05246179990476D1CB1
:1023E00054E1C4F30250022809D003280DD0D8F8D4
:1023F000001004280DD00D6008F1040846E1D8F85B
:102400000010EA17C1E90052F6E7D8F800100D8075
:10241000F2E70D70F0E718F8041B8DF800100020AB
:102420008DF80100EB46012003E058F804BB4FF0A3
:10243000FF3061074FF0000102D40DE009F1010106
:102440008946B9420FDA8145F8DB1BF809100029EB
:10245000F4D108E009F1010189468142FADB1BF859
:1024600009100029F6D103985346A0EB090721462D
:102470003846179A00F080FA284400EB090507E077
:1024800044E008E10DE01BF8010B52461799904714
:10249000B9F10109F7D2534621463846179AF2E0BE
:1024A00039E00A21C4F302524FF0000B0091022AD6
:1024B00006D058F8040BC117032A09D00AE023E01C
:1024C00008F1070020F00702F2E80201904605E05B
:1024D00000B2C117042A01D140B2C117002906DA9F
:1024E0000A460021404261EB02012D2202E0220552
:1024F00004D52B228DF80420012203E0E20701D04D
:102500002022F7E7914657E00A2100E010214FF022
:10251000000B00910BE010214FF0000B44F004047D
:102520000827009103E008204FF0000B0090C4F34F
:102530000252022A05D058F8040B0021032A08D0C1
:1025400008E008F1070020F00702F2E802019046D7
:1025500003E080B2042A00D1C0B24FF00009220784
:102560002AD53278702A07D0DDF800C08CF0100C24
:102570005CEA0B0C05D00EE040228DF8042001220D
:1025800008E050EA010306D030238DF804308DF8BE
:10259000052002229146009B83F0080353EA0B03B7
:1025A0000AD150EA010201D1620705D530228DF827
:1025B00004204FF001097F1E3278582A04D039A236
:1025C0000C920CAA02920BE03BA2F9E75B46009A40
:1025D000FDF774FE0C9B9B5C029A521E02921370D4
:1025E00050EA0102F2D1029804A9081A00F1200B66
:1025F000600702D524F4803400E001275F4502DD46
:10260000A7EB0B0000E0002000EB0B01009003980B
:102610004944401A0390E00306D453462146179AD2
:10262000039800F0A9F90544002706E001A85246E6
:10263000C05D179990476D1C7F1C4F45F6DBE0038A
:102640000CD553462146179A039800F095F9054496
:1026500004E030205246179990476D1C0099481E9F
:1026600000900029F5DC08E00298029952460078B3
:10267000491C0291179990476D1CBBF10001ABF109
:10268000010BF1DC5BE100F065F90544761C307864
:1026900000287FF40DAE19B02846BDE8F08F000089
:1026A0000928010030313233343536373839616228
:1026B00063646566000000003031323334353637EC
:1026C000383941424344454600000000600700D4C9
:1026D000062708F1070020F00700F0E802238046F3
:1026E00003F0004C5FEA0C0001D097A009E0200540
:1026F00001D596A005E0E00701D095A001E0AFF27A
:102700004C001390307823F0004365280CD006DC91
:10271000452809D046281DD047287FD13BE06628B0
:1027200018D067287AD136E00021112F01DB112063
:1027300000E0781CCDE9000104A90CA8FFF7EEFC2D
:10274000DDE90D010C9A4FF0000B07F10109109221
:1027500000914EE04FF000400097CDE9011004A930
:102760000CA8FFF7DBFCDDE90D020C9B0F994FF085
:10277000000B91461093009211B9791C00EB0109EE
:10278000B7EB090003D4C0F1FF3B07F10109A9EB46
:102790000700019042E0012F00DA01270021112FEC
:1027A00001DD112000E03846CDE9000104A90CA8A4
:1027B000FFF7B4FCDDE90D010C9A00914FF0000B1E
:1027C000B946109221070FD4009A4A4503DA914680
:1027D00001E0A9F10109B9F1010F05DD109AA9F194
:1027E0000101515C3029F4D0B84202DA10F1040F33
:1027F00003DA0121CDE9011010E0002803DC834455
:10280000A9EB000102E0411C494500DD8946A0EB2F
:102810000B00401C01904FF000400290200705D4AF
:102820000198484502DB4FF0FF30019000208DF801
:102830004B0002980DF14B07B0F1004F25D002205C
:102840000C902B200D90029800280CDA4042029048
:102850002D200D9007E00A210298FDF719FD303177
:10286000029007F8011D0C99481E0C900029F2DC1B
:1028700002980028EFD1791E0D980870307800F08A
:10288000200040F0450007F8020D11A8C01BC01D34
:1028900002901398007800B1012000EB0901019823
:1028A00001EBE071029801440398401A401E039026
:1028B000E00306D453462146179A039800F05CF8CB
:1028C00005441398007818B15246179990476D1C2B
:1028D000E00323D553462146179A039800F04CF89D
:1028E00005441BE0BBF1000F07DB0098584504DDF1
:1028F0001098179910F80B0001E0179930205246F4
:10290000904701980BF1010B401E05F10105019064
:1029100004D12E205246179990476D1CB9F1000141
:10292000A9F10109DEDC05E017F8010B5246179901
:1029300090476D1C0299481E02900029F4DC534612
:102940002146179A03989EE62D0000002B000000F8
:10295000200000002DE9F041044600251E461746E0
:10296000880404D405E039462020B0476D1C641E5D
:10297000F9D52846BDE8F0812DE9F041044600254F
:102980001E469046C80301D5302700E02027880462
:1029900004D505E041463846B0476D1C641EF9D5A4
:1029A0002846BDE8F0814A68002A06D00A68531C10
:1029B0000B6010704868401E48607047FEF7D4F8FE
:1029C000FFF79EF9FFF7ACF8FFF7FCF8FFF716F9F1
:1029D000FFF730F9FFF77AF800F037F8FEE7014625
:1029E0000020842900D0C81C704700000FB44FF4A9
:1029F000007110B5ADF5007D044684AB6846839A3E
:102A0000FFF752FB82B24FF47A73012C06D0022CEE
:102A100008D0032C0BD16946074806E006486946F2
:102A2000903802E0044869464838FEF79DFF0DF5EE
:102A3000007D10BC5DF814FB6C05002010B500B9DA
:102A4000012000F021FB002010BD10B500F098FB24
:102A5000002010BD7FB50D4604464169B0F908005D
:102A600081B1A16971B1FFF7BAFFD4E905128DE810
:102A70000700D4E900102B46226900F06EFC039099
:102A800004B070BDFFF7ABFF03A9CDE90001208AB8
:102A90002B4682B2D4E9001000F032FC012801D0AC
:102AA0000020EDE70398EBE72DE9F041184C0F46C5
:102AB000054666692068001D00F022FA38B92068D2
:102AC00090F82C1001208840A1698143A161681C05
:102AD00007D137B12168BDE8F0410E48091D00F06B
:102AE00053BA20683544B5424560216805D2A068D4
:102AF000BDE8F041091D00F02FBA6068091D00F023
:102B00002BFA206B854200D22563BDE8F0810000DE
:102B100028000020D80600202DE9F041054600F0ED
:102B20003FFA2E4C2069401C206120682C4F10B1C8
:102B3000E06940B32DE025602069012829D10026F5
:102B400006EB860007EB800000F0F8F9761C072EF4
:102B5000F6D323488C3000F0F1F92148A03000F082
:102B6000EDF91F48B43000F0E9F91D48C83000F015
:102B7000E5F91B48DC3000F0E1F919488C30606061
:102B80001430A06005E02068E96AC06A884200D875
:102B90002560E06A401CE062E96A0120A269884081
:102BA0001043A06101EB810007EB8000291D00F0BC
:102BB000EBF900F015FAE06900280CD02068E96A0A
:102BC000C06A884207D207494FF080500860BFF3BF
:102BD0004F8FBFF36F8FBDE8F08100002800002009
:102BE000FC05002004ED00E010B5044690F851000B
:102BF00058B101280CD002280FD0502080F3118842
:102C0000BFF34F8FBFF36F8FFEE7206B00F0FCF92F
:102C10002046BDE8104000F0F7B910BD10484FF451
:102C20004061420706D0C01D0D4920F00700411A3F
:102C3000C1F540610B4A00230144C2E90003083991
:102C4000103A21F0070111604B600B600B1AC0E9CC
:102C5000001393604FF000405360D0607047000055
:102C6000EC06002074000020144E154CA6F1C80795
:102C70004FF08058DFF84C9012E000BF00F090F960
:102C8000F068C568281D00F03BF92069401E2061EE
:102C9000E068401EE06000F0A3F92846FFF7A4FFBB
:102CA000E0680028EAD138680128F9D9C9F800801D
:102CB000BFF34F8FBFF36F8FF2E70000C406002011
:102CC0002800002004ED00E02DE9F0479A46DDE9F8
:102CD000098481466FF00303206B03EB82021044EA
:102CE000089D20F00706700707D0502080F3118858
:102CF000BFF34F8FBFF36F8FFEE723180A5C83F893
:102D000034200A5C12B1401C1028F6D3002784F846
:102D10004370072D00D30625E562C4E91157201D35
:102D200000F017F904F1180000F013F92461C5F15F
:102D300007006462A061E76484F850705246494617
:102D4000304600F0BFF82060B8F1000F01D0C8F89D
:102D50000040BDE8F087000030B5114900E01146A1
:102D60000A688242FBD34B685C18844203D14068F6
:102D700018444860084643681C18944209D1084C1E
:102D8000103C2468A24209D052681A4442600A6882
:102D900012680260814200D0086030BD0460F9E72B
:102DA0007400002006484168096829B14168C96873
:102DB000C9684968016370474FF0FF31FAE70000C6
:102DC0002800002008484068401C4FF0500080F365
:102DD000118804D0BFF34F8FBFF36F8FFEE7BFF3AF
:102DE0004F8FBFF36F8FFEE77C0000202DE9F0418D
:102DF0000546002700F0FAF9314E306808B9FFF7B0
:102E00000DFFF06805424BD1C5B3083568070ED0F9
:102E100005F00700C0F108000544680707D05020FE
:102E200080F31188BFF34F8FBFF36F8FFEE72DB391
:102E30007068854234D82248103001460C6801E0A1
:102E400020460C466168A94202D221680029F7D1C8
:102E500031688C4224D007682168016060680837B7
:102E6000411B10290FD96019420708D0502080F368
:102E70001188BFF34F8FBFF36F8FFEE710E0416003
:102E80006560FFF769FF61687068401A7060B2683A
:102E9000904200D2B060F06801430020C4E9000114
:102EA00000F0EAFA780707D0502080F31188BFF3CA
:102EB0004F8FBFF36F8FFEE73846BDE8F08100000B
:102EC0006400002010B5031F4FF080741C601B1FAE
:102ED00021F001011960191F024B0B6014394038B1
:102EE0000A6010BDC52D000801460120FFF77EBD18
:102EF00001460220FFF77ABD01460320FFF776BDA9
:102F0000D0E9013201699A60D0E901235A604A6828
:102F1000824201D182684A60002202610868401E34
:102F20000860086870470000034B036003F1540019
:102F300008608020106070478800002000F10801C0
:102F40004FF0FF32C0E90112C16001610021016050
:102F5000704700210161704730B50B685A1C02D0E0
:102F600000F1080202E0026904E022465468256884
:102F70009D42FAD953684B6099608A60516008613C
:102F80000168491C016030BD42684A6093688B60EB
:102F900093685960916008610168491C016070473D
:102FA000502080F31188BFF34F8FBFF36F8F0A4912
:102FB0004868401C486001280CD10848006810F09F
:102FC000FF0F07D0502080F31188BFF34F8FBFF35E
:102FD0006F8FFEE7704700007C00002004ED00E0EA
:102FE0000849486828B1401E486001D180F3118823
:102FF0007047502080F31188BFF34F8FBFF36F8F5E
:10300000FEE700007C00002070B5002827D0144D9A
:10301000A0F108046168E868014207D1502080F3FC
:103020001188BFF34F8FBFF36F8FFEE722683AB16D
:10303000502080F31188BFF34F8FBFF36F8FFEE7EF
:103040008143616000F0D2F8606869680844686094
:103050002046FFF781FEBDE8704000F00DBA70BD5C
:10306000640000204FF0E0200021016181610549EA
:103070004FF47A720968B1FBF2F1491E41610721F0
:10308000016170472400002010B5020014D00F48E1
:10309000806B38B1502080F31188BFF34F8FBFF39E
:1030A0006F8FFEE700F0A2F800211046FFF7FCFC4E
:1030B00000F0E2F9002807D105494FF08050086080
:1030C000BFF34F8FBFF36F8F10BD000028000020AB
:1030D00004ED00E070B50546FFF762FF254C05B929
:1030E0002568281DFFF70CFF58B9E86A224A00EB53
:1030F000800152F8211021B901218140A069884343
:10310000A061A86A18B105F11800FFF7F9FEE06A9E
:10311000401CE0622068854208D11748291DC8304C
:10312000FFF732FFE068401CE06007E02069401EC6
:1031300020612846FFF758FDFFF734FEFFF750FFE8
:10314000E069002814D02068854211D1A06B38B105
:10315000502080F31188BFF34F8FBFF36F8FFEE7CE
:1031600006494FF080500860BFF34F8FBFF36F8F59
:1031700070BD000028000020FC05002004ED00E0E8
:1031800010B586B00024039405AA04A903A80494EA
:10319000FFF7CAFEDDE903010094CDE90110002329
:1031A0000EA11048059A00F0D8F80F49002848638E
:1031B00011D0502080F31188BFF34F8FBFF36F8F72
:1031C0004FF0FF3008630120C8614C6106B0BDE8D4
:1031D000104000F041B806B010BD000049444C4515
:1031E00000000000692C0008280000200248816BC4
:1031F000491C816370470000280000201448816B3F
:1032000011B1012141627047002141628169B1FA27
:1032100081F1C1F11F0101EB81020E4951F8223009
:103220006BB101EB820101F108034A6852684A6000
:103230009A4201D152684A60D168016070475020BB
:1032400080F31188BFF34F8FBFF36F8FFEE700004D
:1032500028000020FC0500201CB5264908780190B4
:10326000FF20087008788DF800009DF800009DF898
:10327000002000F0F000904207D0502080F3118829
:10328000BFF34F8FBFF36F8FFEE79DF800001A4B1F
:1032900000F0500018700720986005E09DF80020AD
:1032A00052008DF80020401E9DF800201206F5D433
:1032B0009860032807D0502080F31188BFF34F8F08
:1032C000BFF36F8FFEE74FF440709860019808706D
:1032D0000A48016841F470010160016841F07041E1
:1032E0000160FFF7BFFE00205860FCF73FFF0020A1
:1032F0001CBD000000E400E07C00002020ED00E0A8
:103300002DE9FF5F8346DDE90E87994616468A461A
:103310009000FFF76BFD05001CD05420FFF766FD01
:10332000040014D00020256384F85100CDE9024048
:10333000CDE900874B46324651465846FFF7C4FC5C
:103340002046FFF7E9FB012004B0BDE8F09F2846C6
:10335000FFF75AFE4FF0FF30F6E7F0B585B0DDE934
:103360000B640A9DA6B1DCB15427009726630226A0
:1033700084F85160002604AFCDE90246CDE900573C
:10338000FFF7A2FC2046FFF7C7FB049805B0F0BD8D
:10339000502080F31188BFF34F8FBFF36F8FFEE78C
:1033A000502080F31188BFF34F8FBFF36F8FFEE77C
:1033B0002DE9F0412E4C0027A06B40B1206A401C43
:1033C0002062606A00B101273846BDE8F081666975
:1033D000761C666113D16068006838B1502080F3B4
:1033E0001188BFF34F8FBFF36F8FFEE76068A1684E
:1033F0006160A060A06A401CA062FFF7D3FC206B54
:10340000DFF87080864209D36068006880B1606828
:10341000C068C568686886420DD220632068C06AAB
:1034200000EB800158F821000128CAD90127C8E71C
:103430004FF0FF30F1E7281DFFF762FDA86A18B1D1
:1034400005F11800FFF75CFDE86A0121A2698140DF
:103450001143A16100EB800108EB8100291DFFF7FA
:1034600093FDE86A2168C96A8842CDD30127CBE77A
:1034700028000020FC0500202DE9F0472C4D0024F9
:103480002746A86B38B1FFF78BFDA86B401EA863D9
:10349000A86B40B146E0502080F31188BFF34F8FF6
:1034A000BFF36F8FFEE72969224E0120D1B3A6F149
:1034B000B40980463068E8B1F068C46804F11800C7
:1034C000FFF71EFD201DFFF71BFDE06AAA6908FA41
:1034D00000F11143A96100EB800109EB8100211D7E
:1034E000FFF752FDE06A2968C96A8842E2D3C5F84D
:1034F0002480DFE70CB1FFF755FC2C6A44B1464647
:10350000FFF756FF00B16E62641EF9D100202862F9
:10351000686A38B10849012738070860BFF34F8F40
:10352000BFF36F8FFFF75CFD3846BDE8F087000002
:1035300028000020B006002004ED00E0D43500088B
:10354000091A0008020000000000000080000000CE
:103550000000000000000000C83500082D1A000817
:10356000FDFF00000000000000010000000000005E
:1035700000000000BC350008711C0008FDFF0000C1
:1035800000000000800000000000000000000000BB
:10359000010202030405060708090A0B0C0D0E0FB1
:1035A00010100000000000000000010203040607E4
:1035B0000809000000000102030400006D79546155
:1035C000736B4B45590000004C45445F5461736B6D
:1035D00000000000496E69745F5461736B00000065
:1035E000003600080000002088000000FC200008D1
:1035F0008836000888000020681600000C210008AA
:1036000001000000000000000000000000000000B9
:103610000000000000000000010000001000000099
:10362000000000000024F400000000000000000082
:10363000000000000000000000000000000000008A
:10364000000000000000000000000000000000007A
:10365000000000000000000000000000000000006A
:10366000000000000000000000000000000000005A
:10367000000000000000000000000000000000004A
:08368000AAAAAAAA000000009A
:0400000508000131BD
:00000001FF
