:020000040800F2
:1000000080060020CD010008770900084509000896
:1000100075090008D3020008E70900080000000085
:100020000000000000000000000000007B09000844
:10003000D502000800000000790900087D090008C9
:10004000E7010008E7010008E7010008E7010008F0
:10005000E7010008E7010008E7010008E7010008E0
:10006000E7010008E7010008E7010008E7010008D0
:10007000E7010008E7010008E7010008E7010008C0
:10008000E7010008E7010008E7010008E7010008B0
:10009000E7010008E7010008E7010008E7010008A0
:1000A000E7010008E7010008E7010008E701000890
:1000B000E7010008E7010008E7010008E701000880
:1000C000E7010008E7010008E7010008E701000870
:1000D000E7010008E7010008E7010008E701000860
:1000E000E7010008E7010008E7010008E701000850
:1000F000E7010008E7010008E7010008E701000840
:10010000E7010008E7010008E7010008E70100082F
:10011000E7010008E7010008E7010008E70100081F
:10012000E7010008E7010008E7010008E70100080F
:1001300000F002F800F03AF80AA090E8000C8244BF
:100140008344AAF10107DA4501D100F02FF8AFF29C
:10015000090EBAE80F0013F0010F18BFFB1A43F0A5
:1001600001031847D0080000F0080000103A24BF2F
:1001700078C878C1FAD8520724BF30C830C144BF0C
:1001800004680C607047000000230024002500264E
:10019000103A28BF78C1FBD8520728BF30C148BFEA
:1001A0000B6070471FB51FBD10B510BD00F058F8AB
:1001B0001146FFF7F7FF00F027FC00F076F803B4D4
:1001C000FFF7F2FF03BC00F07DF80000094880470C
:1001D00009480047FEE7FEE7FEE7FEE7FEE7FEE729
:1001E000FEE7FEE7FEE7FEE704480549054A064B41
:1001F00070470000E5090008310100088000002078
:100200008006002080020020800200204FF00002C3
:1002100000B5134694469646203922BFA0E80C50FC
:10022000A0E80C50B1F12001BFF4F7AF090728BFD7
:10023000A0E80C5048BF0CC05DF804EB890028BF53
:1002400040F8042B08BF704748BF20F8022B11F07C
:10025000804F18BF00F8012B7047704770477047F8
:10026000754600F02BF8AE4605006946534620F06F
:100270000700854618B020B5FFF7B6FFBDE820405F
:100280004FF000064FF000074FF000084FF0000B52
:1002900021F00701AC46ACE8C009ACE8C009ACE805
:1002A000C009ACE8C0098D46704710B50446AFF3ED
:1002B00000802046BDE81040FFF781BF004870472E
:1002C0001C00002001491820ABBEFEE726000200FA
:1002D0007047FEE7704772B6FEE70000014880688D
:1002E000704700000000002070B5040011D02168A4
:1002F0004CF6CC400860216845F255500860D4E9BE
:10030000000141602168A0688860FFF7E7FF0546AB
:100310000DE0012070BD00BFFFF7E0FF401B272864
:1003200005D92068C068800701D0032070BD20680F
:10033000C0688007F0D121684AF6AA200860002032
:1003400070BD00684AF6AA210160002070470000D5
:1003500002488168027811448160704700000020E3
:10036000074810B5016841F010010160032000F05A
:1003700067F80F2000F006F800F024F8002010BD08
:100380000020024070B50D4D04464FF47A71287874
:10039000B1FBF0F00A490968B1FBF0F000F0BEFAD9
:1003A00048B9102C07D200222146501E00F028F830
:1003B00000206C6070BD012070BD000000000020B6
:1003C0000C0000200C4808B5816941F001018161F1
:1003D000816901F001010091C16941F08051C16161
:1003E000C06900F0805000900448416821F0E0614D
:1003F00041F08061416008BD0010024000000140F2
:10040000F0B40E4B1B680C46C3F30223C3F107057F
:10041000042D00D90425191D072901D2002300E06D
:10042000DB1E012606FA05F1491E214099409E4037
:10043000761E16403143F0BC00F0D6BA0CED00E059
:10044000064900F0070208684FF6FF03184040EA2B
:100450000220034A10430860704700000CED00E0E2
:100460000000FA052DE9F0470F46050061D0434E24
:10047000306800F00700B84209D2306820F0070069
:1004800038433060306800F00700B84251D1286826
:100490003B4C810712D5400703D5606840F4E0600B
:1004A00060602878000703D5606840F460506060A1
:1004B0006068A96820F0F000084360602878C007F1
:1004C00028D06868012810D02168022810D0890738
:1004D00000292EDA616821F0030101436160FFF712
:1004E000FDFE804641F288390DE021688903EFE77F
:1004F0008901EDE7FFF7F2FEA0EB0801494502D9BB
:100500000320BDE8F0876068696800F00C00B0EB7C
:10051000810FEFD1306800F00700B8420BD9306886
:1005200020F0070038433060306800F00700B84220
:1005300001D00120E5E72878400705D56068E96823
:1005400020F4E060084360602878000706D5606802
:10055000296920F4605040EAC100606000F018F89A
:100560006168084AC1F30311515CC840064908603C
:1005700006480068FFF706FF0020C2E7002002409F
:1005800000100240240A00080C0000200400002093
:1005900012A185B00FC98DE80F0014A0144A00689D
:1005A00004905168134801F00C03042B10D0082B61
:1005B0000ED1C1F38343C9031DF803000AD5516866
:1005C00004AAC1F34041515C0A4A5043B0FBF1F028
:1005D00005B0704708494843FAE7000002030405E4
:1005E000060708090A0B0C0D0E0F1010010200007F
:1005F0000010024000127A0000093D002DE9F84F7A
:10060000040070D02078C04DC00749D06868C0F39E
:100610008100012807D06868C0F38100022809D151
:100620006868C00306D52868800339D5606800284B
:10063000E7D035E06068B0F5803F0BD010B1B0F581
:10064000A02F11D0286820F480302860286820F47A
:10065000802002E0286840F480302860606890B113
:10066000FFF73CFE06460AE0286840F48020286038
:10067000F0E700BFFFF732FE801B642873D82868BC
:100680008003F7D50CE0FFF729FE064605E000BF22
:10069000FFF724FE801B6428F0D828688003F7D475
:1006A00020789A4E80074FF001094FF0000839D5A5
:1006B000686810F00C0F07D06868C0F3810002284A
:1006C00009D16868C00306D42868800714D520695A
:1006D000012808D110E02069B0B1C6F80090FFF7FA
:1006E000FDFD074605E00AE1FFF7F8FDC01B022803
:1006F000C4D828688007F7D52868616920F0F80019
:1007000040EAC10028600DE0C6F80080FFF7E6FD72
:10071000074604E0FFF7E2FDC01B022823D8286843
:100720008007F7D4207800072CD57948A169D9B182
:10073000C0F80090FFF7D2FD074604E0FFF7CEFDBA
:10074000C01B02280FD8686A8007F7D571484FF49C
:10075000FA510068B0FBF1F0009000BF0098411E14
:100760000091FAD20EE080E0C0F80080FFF7B6FDFD
:10077000074604E0FFF7B2FDC01B022875D8686A7F
:100780008007F7D42078400760D5E8690027C000CB
:1007900008D4E86940F08050E861E869012700F07A
:1007A000805000905C480168C90513D401688346F5
:1007B00041F480710160FFF791FD824606E000BFC1
:1007C000FFF78CFDA0EB0A0064284ED8DBF8000090
:1007D000C005F5D5E06801280AD008B1052813D076
:1007E000286A20F001002862286A20F0040002E054
:1007F000286A40F001002862E06841F2883B98B125
:10080000FFF76CFD82460BE0286A40F00400286286
:10081000EEE700BFFFF762FDA0EB0A0159455AD889
:10082000286A8007F6D50CE0FFF758FD824605E000
:10083000FFF754FDA0EB0A0159454CD8286A800700
:10084000F6D41FB1E86920F08050E861E06988B310
:100850006968C1F38101022944D00228C6F860808A
:1008600004D0FFF73BFD044638E034E0FFF736FDE7
:10087000074604E0FFF732FDC01B02282BD828688A
:100880008001F7D4206AB0F5803F05D16868A1687F
:1008900020F4003008436860D4E90801084369681F
:1008A00021F4741108436860C6F86090FFF716FDE4
:1008B000044606E025E000BFFFF710FD001B0228FC
:1008C00009D828688001F7D51BE000BFFFF706FDB7
:1008D000001B022802D90320BDE8F88F2868800198
:1008E000F4D40EE00128F7D06868226A00F4803161
:1008F000914204D1616A00F47010884201D0012055
:10090000EAE70020E8E70000001002400000424251
:10091000800442420C0000200070004010B5401ED0
:10092000B0F1807F01D3012010BD4FF0E024606161
:100930000F21601700F058F80020A0610720206107
:10094000002010BDFEE77047094810B50749016057
:100950000021416040F6FF718160FFF7C5FC00286F
:1009600003D0BDE81040FFF7B6BC10BD003000401A
:1009700010000020FEE7FEE770477047FFF7E8BC75
:1009800030B58FB028216846FFF740FC14210AA833
:10099000FFF73CFC0920012100904FF48030002437
:1009A00004910691CDE901040225CDE907504FF4E9
:1009B000E01009906846FFF721FE08B172B6FEE725
:1009C0000F20CDE90A054FF48060CDE90C400221EB
:1009D0000AA80E94FFF746FD002801D072B6FEE784
:1009E0000FB030BD7047FEE70907090E002804DB91
:1009F00000F1E02080F80014704700F00F0000F1D3
:100A0000E02080F8141D7047FFF7AAFCFFF7B8FF3D
:100A1000FFF799FFFFF798FF0148FFF792FCFEE709
:100A2000100000200000000000000000010203048C
:100A300006070809540A0008000000201000000002
:100A40006C010008640A0008100000207006000015
:100A500088010008010000001000000000000000F4
:040A60000024F4007A
:0400000508000131BD
:00000001FF
