:020000040800F2
:100000003806002005010008151D000875190008B4
:10001000F51C0008C7010008DD24000800000000EE
:10002000000000000000000000000000D9200008CF
:10003000C901000800000000F91F0008DB200008CB
:100040001F0100081F0100081F0100081F01000810
:100050001F0100081F0100081F0100081F01000800
:100060001F0100081F0100081F0100081F010008F0
:100070001F0100081F0100081F0100081F010008E0
:100080001F0100081F0100081F0100081F010008D0
:100090001F0100081F0100081F0100081F010008C0
:1000A0001F0100081F0100081F0100081F010008B0
:1000B0001F0100081F0100081F0100081F010008A0
:1000C0001F0100081F0100081F0100081F01000890
:1000D0001F0100081F010008D12400081F010008AB
:1000E0001F0100081F0100081F010008DFF810D0E1
:1000F00000F02CF8004800471D250008AFF30080F1
:10010000380600200648804706480047FEE7FEE71D
:10011000FEE7FEE7FEE7FEE7FEE7FEE7FEE7FEE7B7
:1001200051210008ED000008D2B201E000F8012BD7
:10013000491EFBD270470022F6E710B513460A4667
:1001400004461946FFF7F0FF204610BD064C074D48
:1001500006E0E06840F0010394E807009847103497
:10016000AC42F6D3FFF7C6FF942D0008B42D00086B
:1001700070B5044600688168C943C90717D1816812
:1001800021F00101816000F0F1FA05460AE000BFAC
:1001900000F0ECFA401B022804D920688068C043B4
:1001A000C00706D020688068C043C007F0D0002098
:1001B00070BDA06A40F01000A062E06A40F001004B
:1001C000E062012070BDFEE7704700000C4910B5E9
:1001D0000968002048620B49096848623C210848C8
:1001E00001F091F83C21074801F08DF83C210448CA
:1001F00001F042F8BDE810403C21024801F03CB853
:10020000DC0000202401002072B6FEE7F8B50024CF
:10021000009490F824202546012A12D0012280F86B
:1002200024204A681F23072A0DD20668776B521EC6
:1002300002EB820293409F430B6893401F43776316
:1002400019E00220F8BD06680D2A0AD2376BD21FCA
:1002500002EB820293409F430B6893401F43376336
:1002600009E0F76A0D3A02EB820293409F430B6864
:1002700093401F43F7620A68072306680A2A0AD3D5
:10028000F7680A3A02EB420293409F438B6893401F
:100290001F43F76008E0376902EB420293409F4337
:1002A0008B6893401F4337610A68102A01D0112AD6
:1002B00020D1124B02689A4217D193681B0219D4BD
:1002C000936843F4000393600968102912D10C4924
:1002D0000C4A0968B1FBF2F101EB8101490000E031
:1002E000491E00910029FBD104E0816A41F0200100
:1002F0008162012480F824502046F8BD002401408A
:100300000C00002040420F002DE9F0414FF00007A3
:1003100004003D467ED0A06A002628B9E66284F833
:100320002460204600F07EF82046FFF721FFA16AF6
:10033000C90600D420B1A06A40F01000A06269E0B4
:10034000A16A21F4885141F00201A1626268E16969
:10035000237B0A4347EA43010A43A1684FF48077AD
:10036000B94209D0012907D05FF0000194F814C008
:10037000BCF1010F02D00AE03946F7E7F3B1A36AF6
:1003800043F02003A362E36A43F00103E3622368BE
:10039000D3F804C02CF4694C4CEA010CC3F804C037
:1003A00021688B68DFF870C003EA0C0313438B608D
:1003B000A168B9420BD0012909D00CE0DFF85CC07C
:1003C000A3690CEB43330B4343F40061DFE7218A5D
:1003D0000D05A5F580152168CB6A23F470032B4326
:1003E000CB62216889680E4B1940914208D1E662C0
:1003F000A16A21F0020141F00101A162BDE8F08192
:10040000A06A20F0020040F01000A062E06A40F014
:100410000100E0620120F1E7FDF7E1FF00E0FFFFEE
:10042000FE0E1FFF00B585B00021009101910291E1
:10043000039100680E49884218D10E48816941F441
:1004400000718161816901F400710491816941F059
:10045000080181618069694600F00800049001206C
:10046000009003200190044800F08AF805B000BD18
:100470000024014000100240000C014010B590F82B
:1004800021100022022905D00421816380F8202058
:10049000012010BD01680B6823F00E030B6001689A
:1004A0000B6823F001030B6090F84030C46B01210E
:1004B00001FA03F3636080F8211080F820201046D1
:1004C00010BD000010B590F821100024022903D0BF
:1004D0000421816301243DE001680A6822F00E02D4
:1004E0000A6001680A6822F001020A601A4A01687B
:1004F000914201D1012121E0174A1432914201D1E8
:1005000010211BE0144A2832914201D1891515E0CF
:10051000114A3C32914201D189140FE00E4A503207
:10052000914202D14FF4803108E00B4A643291428B
:1005300002D14FF4801101E04FF08071064A083A71
:100540005160012180F82110002180F82010416BBA
:1005500001B18847204610BD0800024070B504462E
:1005600000F004F90546601C02D0044800780444F9
:1005700000F0FCF8401BA042FAD370BD0000002040
:100580002DE9F84FDFF8B891002409F1040A0AF1C7
:10059000040B23460F270BF1040EC9E00125A540EB
:1005A0002A40AA427DD1674ED1F804C0ACEB0608C0
:1005B000B44532D014DCBCF1030F3AD009DCBCF1F5
:1005C000000F2AD0BCF1010F1CD0BCF1020F31D1B9
:1005D0001DE0BCF1110F17D0BCF1120F2AD119E0A8
:1005E000B8F5881F19D006DCB8F5803F15D0B8F5EE
:1005F000801F1FD111E0B8F5001F0ED0B8F5041F01
:1006000018D10AE0CB6815E0CB681B1D12E0CB685F
:1006100008330FE0CB680C330CE08B682BB1012B57
:100620004FF0080303D0456104E0042302E00561B4
:1006300000E00023FF2A01D8064601E000F104068D
:100640004FEA840501D9A5F12005D6F8008007FA04
:1006500005FC28EA0C0803FA05F548EA0508C6F87F
:1006600000804D68ED0062D5374DAE6946F0010659
:10067000AE61AD6924F0030605F001050095334D28
:1006800006EB050CDCF80850A607360F07FA06F84B
:1006900025EA0805DFF8B880404503D14FF000088F
:1006A00017E044E0DFF8AC80404502D14FF001088C
:1006B0000FE0DFF8A480404502D14FF0020808E0C7
:1006C000DFF89880404502D14FF0030801E04FF079
:1006D000040808FA06F848EA0508CCF808804D68CE
:1006E000D9F80060ED034D4601D5164300E096436E
:1006F0002E604D68DAF80060AD03554601D516430B
:1007000000E096432E604D68DBF80060ED025D4628
:1007100001D5164300E096432E604D68DEF8006078
:10072000AD02754601D5164300E096432E60641C69
:100730000D682A46E5407FF431AFBDE8F88F000030
:1007400000040140000011100010024000000140B0
:1007500000080140000C014000100140001401405D
:100760000AB1016170470904FBE700000148806895
:10077000704700000000002070B5040025D094F8F8
:100780003D00002520B984F83C50204600F0B8F820
:10079000242084F83D002068016821F001010160F7
:1007A0002068016841F4004101602068016821F47B
:1007B0000041016000F076FA4D4A6168914201D82B
:1007C0004C4900E04C49884201D2012070BD4B49A0
:1007D0002368B0FBF1F15E6826F03F060E435E60D1
:1007E0006368934206D94FF4967359434FF47A7372
:1007F000B1FBF3F12368491C1E6A26F03F06314322
:1008000019626168914210D84900401EB0FBF1F2B4
:10081000521CC2F30B02042A01D2042022E0B0FBD6
:10082000F1F0401CC0F30B001CE0A268F2B301EB36
:10083000C10303EB0116431EB3FBF6F35B1C43F449
:1008400080431B0549D092B301EBC10202EB0111B9
:10085000401EB0FBF1F0401CC0F30B0040F48040A0
:1008600040F400402168CA694CF6FF739A43104374
:10087000C861D4E9071001432068026822F0C00271
:1008800011430160D4E9030101432068826848F202
:10089000FF339A4311438160D4E90501084321687D
:1008A000CA6822F0FF021043C86001E00EE016E0C3
:1008B0002068016841F0010101602564202084F86E
:1008C0003D00256384F83E50002070BD01EB4106D9
:1008D000431EB3FBF6F35B1CB3E70120C2E701EB59
:1008E0004101401EB0FBF1F0401CC0F30B00B7E724
:1008F000A086010080841E0000093D0040420F00D8
:1009000010B586B000210091019102910391006819
:100910000F4988421AD10F4CA06940F00800A0612D
:10092000A069694600F008000490C02000901220E1
:100930000190032003900848FFF722FEE06940F48D
:100940000010E061E06900F40010049006B010BDF2
:100950000054004000100240000C01400248816831
:10096000027811448160704700000020074810B5EC
:10097000016841F010010160032000F075F80F20BC
:1009800000F006F800F024F8002010BD002002401E
:1009900070B50D4D04464FF47A712878B1FBF0F034
:1009A0000A490968B1FBF0F000F062FB48B9102C6D
:1009B00007D200222146501E00F036F800206C605D
:1009C00070BD012070BD0000000000200C00002060
:1009D0000C4808B5816941F001018161816901F02C
:1009E00001010091C16941F08051C161C06900F00D
:1009F000805000900448416821F0E06141F080613E
:100A0000416008BD0010024000000140002809DBE1
:100A100000F01F02012191404009800000F1E02018
:100A2000C0F8001170470000F0B40E4B1B680C4674
:100A3000C3F30223C3F10705042D00D90425191DB2
:100A4000072901D2002300E0DB1E012606FA05F18A
:100A5000491E214099409E40761E16403143F0BC0D
:100A600001F03DBD0CED00E0064900F0070208680A
:100A70004FF6FF03184040EA0220034A1043086083
:100A8000704700000CED00E00000FA052DE9F84386
:100A900005460078354CC00754D0E0690026C000F8
:100AA00008D4E06940F08050E061E069012600F080
:100AB000805000902E480168C90512D40168804614
:100AC00041F480710160FFF751FE074605E000BF69
:100AD000FFF74CFEC01B642823D8D8F80000C005DF
:100AE000F6D5206A10F4407021D0A98801F4407135
:100AF00081421CD0206A1F49012220F440700A6004
:100B000000220A602062C00711D0FFF72FFE0746BF
:100B100041F2883808E000BFFFF728FEC11B4145BD
:100B200002D90320BDE8F883206A8007F4D5206A43
:100B3000696820F44070084320621EB1E06920F02B
:100B40008050E0612878800705D56068A96820F4A6
:100B50004040084360602878C00605D56068E968B1
:100B600020F48000084360600020DBE700100240B2
:100B700000700040400442422DE9F0470F46050056
:100B800061D0434E306800F00700B84209D23068A7
:100B900020F0070038433060306800F00700B842AA
:100BA00051D128683B4C810712D5400703D56068B6
:100BB00040F4E06060602878000703D5606840F486
:100BC000605060606068A96820F0F00008436060D1
:100BD0002878C00728D06868012810D0216802282A
:100BE00010D0890700292EDA616821F00301014342
:100BF0006160FFF7BBFD804641F288390DE0216856
:100C00008903EFE78901EDE7FFF7B0FDA0EB0801ED
:100C1000494502D90320BDE8F0876068696800F0A3
:100C20000C00B0EB810FEFD1306800F00700B84244
:100C30000BD9306820F0070038433060306800F08E
:100C40000700B84201D00120E5E72878400705D524
:100C50006068E96820F4E060084360602878000775
:100C600006D56068296920F4605040EAC1006060E0
:100C700000F038F86168084AC1F30311515CC840BC
:100C80000649086006480068FFF782FE0020C2E7B8
:100C900000200240001002407C2D00080C000020C3
:100CA000040000200448054900684968044AC1F36B
:100CB0000221515CC84070470C0000200010024027
:100CC0008C2D00080448054900684968044AC1F3AE
:100CD000C221515CC84070470C0000200010024047
:100CE0008C2D000812A185B00FC98DE80F0014A04B
:100CF000144A006804905168134801F00C03042B57
:100D000010D0082B0ED1C1F38343C9031DF8030093
:100D10000AD5516804AAC1F34041515C0A4A5043C4
:100D2000B0FBF1F005B0704708494843FAE700000E
:100D300002030405060708090A0B0C0D0E0F10101C
:100D4000010200000010024000127A0000093D007C
:100D50002DE9F84F040070D02078C04DC00749D06D
:100D60006868C0F38100012807D06868C0F381007B
:100D7000022809D16868C00306D52868800339D5E0
:100D800060680028E7D035E06068B0F5803F0BD0A0
:100D900010B1B0F5A02F11D0286820F48030286061
:100DA000286820F4802002E0286840F48030286021
:100DB000606890B1FFF7DAFC06460AE0286840F464
:100DC00080202860F0E700BFFFF7D0FC801B64287C
:100DD00073D828688003F7D50CE0FFF7C7FC0646F8
:100DE00005E000BFFFF7C2FC801B6428F0D828682C
:100DF0008003F7D420789A4E80074FF001094FF016
:100E0000000839D5686810F00C0F07D06868C0F387
:100E10008100022809D16868C00306D428688007C9
:100E200014D52069012808D110E02069B0B1C6F8B6
:100E30000090FFF79BFC074605E00AE1FFF796FCF0
:100E4000C01B0228C4D828688007F7D528686169C4
:100E500020F0F80040EAC10028600DE0C6F80080EC
:100E6000FFF784FC074604E0FFF780FCC01B022864
:100E700023D828688007F7D4207800072CD5794834
:100E8000A169D9B1C0F80090FFF770FC074604E0F3
:100E9000FFF76CFCC01B02280FD8686A8007F7D5E3
:100EA00071484FF4FA510068B0FBF1F0009000BFB8
:100EB0000098411E0091FAD20EE080E0C0F8008058
:100EC000FFF754FC074604E0FFF750FCC01B022864
:100ED00075D8686A8007F7D42078400760D5E8693C
:100EE0000027C00008D4E86940F08050E861E86954
:100EF000012700F0805000905C480168C90513D4B8
:100F00000168834641F480710160FFF72FFC82463F
:100F100006E000BFFFF72AFCA0EB0A0064284ED8C9
:100F2000DBF80000C005F5D5E06801280AD008B15B
:100F3000052813D0286A20F001002862286A20F0D2
:100F4000040002E0286A40F001002862E06841F2F3
:100F5000883B98B1FFF70AFC82460BE0286A40F014
:100F600004002862EEE700BFFFF700FCA0EB0A01D7
:100F700059455AD8286A8007F6D50CE0FFF7F6FBEA
:100F8000824605E0FFF7F2FBA0EB0A0159454CD879
:100F9000286A8007F6D41FB1E86920F08050E86124
:100FA000E06988B36968C1F38101022944D002284D
:100FB000C6F8608004D0FFF7D9FB044638E034E07F
:100FC000FFF7D4FB074604E0FFF7D0FBC01B022865
:100FD0002BD828688001F7D4206AB0F5803F05D16E
:100FE0006868A16820F4003008436860D4E908010B
:100FF0000843696821F4741108436860C6F860907A
:10100000FFF7B4FB044606E025E000BFFFF7AEFBA8
:10101000001B022809D828688001F7D51BE000BF13
:10102000FFF7A4FB001B022802D90320BDE8F88FBC
:1010300028688001F4D40EE00128F7D06868226A9D
:1010400000F48031914204D1616A00F4701088424A
:1010500001D00120EAE70020E8E70000001002408C
:1010600000004242800442420C0000200070004018
:1010700010B5401EB0F1807F01D3012010BD4FF0AC
:10108000E02460610F21601701F029FA0020A061BF
:1010900007202061002010BD10B590F83C20012AE7
:1010A00022D0012280F83C20CA688C6822F4407269
:1010B00022434C6822F4806222430C6822F40062CE
:1010C00022430C6922F4805222434C6922F40052DC
:1010D0002243C969002322F480420A4301684A641A
:1010E00080F83C30002010BD022010BD70B590F893
:1010F0003C20012A26D0012480F83C40022280F8BE
:101100003D2003685A689D6822F070060A683243E1
:101110005A600D4B02689A4208D0B2F1804F05D058
:101120000A4B9A4202D00A4B9A4204D1496825F0F0
:1011300080031943916080F83D40002180F83C1005
:10114000084670BD022070BD002C01400004004024
:10115000000800402DE9F0410D46040003D094F84A
:101160003D0018B108E00120BDE8F081002084F8BE
:101170003C00204600F040F8022084F83D00206842
:10118000816844F2070291438160211D206800F0CC
:10119000E1FF226890689169166A2B68AF69034382
:1011A00040F20330814341EA0721A868EF69084310
:1011B0004FF6FC418843E96840EA0720014328696B
:1011C0002F6A000140EA0730084369686D6926F01C
:1011D000220646EA0515294393602268906154F877
:1011E000460B0162012004F81F09E0752076E076C5
:1011F0002077A0750020B7E700B585B000210091E9
:10120000019102910391026818491948B2F1804F87
:1012100019D0184B9A4214D1CA6942F00202CA612D
:10122000CA6902F0020204928A6942F004028A61E9
:10123000896901F004010491C02100916946FFF71A
:101240009FF905B000BDCA6942F00102CA61CA69CE
:1012500002F0010204928A6942F004028A618969FB
:1012600001F0040104910321E7E7000000100240AF
:10127000000801400004004070B590F83E6004464C
:1012800090F83F5090F8423090F84320022021B16E
:1012900004290ED0012E1BD114E0012E18D1012BF0
:1012A00016D184F83E0084F8420001220021206813
:1012B00020E0012D0CD1012A0AD184F83F0084F8E6
:1012C000430014E0012D03D1012B01D1012A01D0EB
:1012D000012070BD84F83E0084F83F0084F842008D
:1012E00084F8430001220021206800F069FF0122F8
:1012F0000421206800F064FF2068016841F00101CA
:101300000160002070BD70B590F83E60044690F812
:101310003F5090F8423090F84320022021B1042938
:1013200014D0012E25D11EE0012E22D1012B20D177
:1013300084F83E0084F8420001220021206800F079
:101340003FFF2068C16841F002012FE0012D10D15C
:10135000012A0ED184F83F0084F84300042120685C
:1013600000F02EFF1EE0012D03D1012B01D1012A37
:1013700001D0012070BD84F83E0084F83F0084F85D
:10138000420084F8430001220021206800F018FF89
:1013900001220421206800F013FF2068C16841F099
:1013A0000201C1602068C16841F00401C160206889
:1013B000016841F001010160002070BD00B585B0F9
:1013C0000021009101910291039100680B4988422C
:1013D00012D10B48816941F004018161806969463D
:1013E00000F0040004904FF410600090022001907F
:1013F00003900448FFF7C4F805B000BD002C01407D
:10140000001002400008014070B5044690F83C000E
:101410000D4601280AD0012084F83C0042B1042A7C
:1014200018D0082A2AD00C2A4DD139E0022070BDEC
:10143000206800F0D3FE2068816941F008018161D5
:101440002068816921F004018161206881692A692D
:10145000114311E0206800F0E9FE2068816941F441
:10146000006181612068816921F480618161206867
:1014700081692A6941EA0221816124E0206800F043
:1014800001FF2068C16941F00801C1612068C1699C
:1014900021F00401C1612068C1692A69114311E08A
:1014A000206800F01BFF2068C16941F40061C16140
:1014B0002068C16921F48061C1612068C1692A691D
:1014C00041EA0221C161002084F83C0070BD10B5E2
:1014D000040003D094F83D0010B107E0012010BDD6
:1014E000002084F83C00204600F01EF8022084F81A
:1014F0003D00211D206800F02DFE012084F84600EB
:1015000084F83E0084F83F0084F8400084F84100ED
:1015100084F8420084F8430084F8440084F84500CD
:1015200084F83D00002010BD08B5006806498842D7
:1015300008D10648816941F400618161806900F445
:101540000060009008BD0000002C01400010024027
:1015500010B50446022249B104290ED0082913D03F
:1015600094F84100012816D0012010BD94F83E00E7
:101570000128F9D184F83E200FE094F83F000128BB
:10158000F2D184F83F2008E094F840000128EBD124
:1015900084F8402001E084F841200122206800F016
:1015A0000FFE0F492068884203D1426C42F400428A
:1015B00042642068884208D0B0F1804F05D00949C4
:1015C000884202D00849884204D1816801F00701AD
:1015D000062903D0016841F001010160002010BD1F
:1015E000002C014000040040000800407047704794
:1015F000F8B5026804461068D168536910F00F0FFF
:101600004FF0000553D003F0010601F49077374303
:101610005FD0C20705D0CA0503D5226C42F0010293
:101620002264420705D5DA0703D0226C42F0020299
:101630002264820705D5DA0703D0226C42F0040247
:101640002264020707D501F02002324303D0226C46
:1016500042F008022264226C002A34D0800604D5AD
:10166000880602D5204600F07BFE20684069216C88
:10167000C0F38010090700D430B3204600F058FEB4
:101680002068416949061BD5416921F0400141614B
:10169000A06BA8B158494163A06BFEF713FF002867
:1016A00011D0A06B416B01B0BDE8F0400847830644
:1016B0000FD58B060DD52046BDE8F84000F050BE92
:1016C0002046FFF794FFF8BD2046FFF790FF256402
:1016D000F8BD266B2023012E52D1C60650D5CE066A
:1016E0004ED5106850680090506940062AD5A16B0D
:1016F000086840680004000CEAD0A68D8642E7D94D
:10170000E0858869202818D0D06820F48070D060E7
:101710002068416921F0010141612068416921F09F
:101720004001416184F83E3025632068C16821F0A2
:101730001001C160A06BFEF7A1FEA08DE18D401AE3
:1017400081B219E0A08DE18D401A81B2E08D0028B0
:10175000BED00029BCD0D06820F49070D060206842
:10176000426922F00102426184F83E30256320681C
:10177000C26822F01002C2602046FFF737FFF8BDB2
:1017800005062BD50D0629D594F83D002128F6D164
:10179000A068B0F5805F01D12069B0B1206A411C1A
:1017A0002162216800784860E08C401E0004000C33
:1017B000E084E4D12068C16821F08001C160206824
:1017C000C16841F04001C160F8BD206A0088C0F3E3
:1017D00008005060206A801C2062E5E74006F3D5CF
:1017E0004806F1D5D168204621F04001D16084F847
:1017F0003D3000F0BEF8F8BD2123000870B50400AC
:1018000004D094F83D00002510B106E0012070BD21
:1018100084F83C50204600F023F8242084F83D0052
:101820002068C16821F40051C160204600F0F4FD39
:101830002068016921F4904101612068416921F02B
:101840002A0141612068C16841F40051C1602564EA
:10185000202084F83D0084F83E00002070BD000088
:10186000F0B585B0002400940194029403940368B9
:10187000394F022039490322394D4602BB421AD161
:101880008B6943F480438B618B6903F48043049339
:101890008B6943F004038B618969039201F00401B1
:1018A00004910102CDE9001069462846FEF768FE62
:1018B000CDE900644AE02B4FBB4229D1CB6943F408
:1018C0000033CB61CB6903F4003304938B6943F09D
:1018D00004038B618969039201F0040104910421DE
:1018E000CDE9001069462846FEF74AFE0820CDE9FA
:1018F0000004694628460294FEF742FE0022114683
:101900002620FFF791F82620FFF780F805B0F0BDFC
:10191000154DAB42FAD1CB6943F48023CB61CB693F
:1019200003F4802304938B6943F008038B61896976
:101930000E4D01F00801CDE90321CDE900606946B3
:101940002846FEF71DFEE814CDE900046946284646
:101950000294FEF715FED9E700380140001002405E
:10196000000801400044004000480040000C0140D5
:1019700070477047FEE700003EB500241148009410
:10198000019402940E49846001600473047501257A
:1019900005614FF460214460C161FEF7B5FC08B1F8
:1019A000FEF732FC0820CDE900056946029405489F
:1019B000FEF72CFC002801D0FEF726FC3EBD0000FF
:1019C00000240140100000202DE9F04385B00024E0
:1019D0002A480094019402940394816941F0100113
:1019E0008161816901F010010491816941F0200158
:1019F0008161816901F020010491816941F0040154
:101A00008161816901F004010491816941F008015B
:101A100081618069DFF8688000F008004FF460455C
:101A20000490002229464046FEF79AFEDFF85490C3
:101A30004FF47347002239464846FEF791FE009561
:101A4000022601250396CDE9015469464046FEF77A
:101A500097FD00970396CDE9015469464846FEF785
:101A60008FFD202000900848CDE9010469464846D2
:101A7000FEF786FD05B0BDE8F083000000100240CF
:101A800000100140000C0140000011100D4810B57D
:101A90000B4901600C49416000214FF48042816094
:101AA000C0E9031241618161C1610162FEF764FE18
:101AB000002803D0BDE81040FEF7A6BB10BD000013
:101AC0000054004040000020A086010010B592B0F4
:101AD00000240F941C2168461094FEF72CFB202153
:101AE00007A8FEF728FB24482249C0E9001441F664
:101AF0001F41C0E90241046144618461FFF7E7FCD2
:101B000008B1FEF781FB0F940FA91B481094FFF753
:101B1000EDFA08B1FEF778FB6020CDE900040294ED
:101B20000394049405940022694613480694FFF731
:101B30006BFC08B1FEF768FB0C2269460E48FFF704
:101B400063FC08B1FEF760FB0794089409944FF416
:101B500000500A94CDE90B4007A907480E94FFF7FF
:101B60009BFA08B1FEF750FB0348FFF727FC12B0C1
:101B700010BD0000002C01409400002010B58CB076
:101B800024216846FEF7D7FA0024154809944FF03F
:101B900080410A94C0E900144FF6FF71C0E9024188
:101BA000046184610120CDE90004CDE902040A2129
:101BB0000491CDE90540CDE9074169460848FFF7A2
:101BC000C9FA08B1FEF720FB099409A904480A9450
:101BD000FFF78CFA002801D0FEF716FB0CB010BD01
:101BE000DC00002010B58CB024216846FEF7A3FA73
:101BF00000241548099413490A94C0E900144FF6CB
:101C0000FF71C0E90241046184610120CDE9000453
:101C1000CDE902040494CDE90540079469460A48D9
:101C20000894FFF797FA08B1FEF7EEFA099409A9AC
:101C300005480A94FFF75AFA002801D0FEF7E4FAA3
:101C40000CB010BD00040040240100200C4810B569
:101C50000A4901604FF4E1314160002181600C22AA
:101C6000C160C0E904128161C161FFF7C7FD0028AE
:101C700003D0BDE81040FEF7C7BA10BD00380140E0
:101C80006C0100200C4810B50A4901604FF4E131A5
:101C90004160002181600C22C160C0E904128161B1
:101CA000C161FFF7ABFD002803D0BDE81040FEF78F
:101CB000ABBA10BD00440040B00100200C4810B584
:101CC0000A4901604FF4E1314160002181600C223A
:101CD000C160C0E904128161C161FFF78FFD002876
:101CE00003D0BDE81040FEF78FBA10BD0048004099
:101CF000F4010020FEE7000010B500210448FFF7C2
:101D000027FCBDE810400C210148FFF721BC000072
:101D100094000020FEE770B50024002104F1B0001B
:101D200000F008F90021084600F004F90021102015
:101D300000F000F900250121002000F0FBF86D1CE7
:101D4000EDB2802DF7D3641CE4B2082CE5D370BD4E
:101D500070B501220B4D140221462846FEF700FD06
:101D60000122560231462846FEF7FAFC002231468F
:101D70002846FEF7F5FC21462846BDE870400022C3
:101D8000FEF7EEBC000C014070B5094C01221102B7
:101D90002046FEF7E5FC6515002229462046FEF7A1
:101DA000DFFC29462046BDE870400122FEF7D8BC82
:101DB000000C014070B50122064D14022146284650
:101DC000FEF7CEFC21462846BDE870400022FEF713
:101DD000C7BC0000000C014010B50A4604460021B3
:101DE00002F1B00000F0A6F8102040EA1410002123
:101DF00000F0A0F804F00F00BDE81040002100F052
:101E000099B800002DE9F041203A00240D468046A3
:101E1000D6B27F2803D900208D1C8046EDB2102B4E
:101E2000294610D0FFF7D8FF164906EB460001EB14
:101E300040050121285D00F07DF8641CE4B2062C09
:101E4000F7D3BDE8F081FFF7C7FF0F4F04EB061093
:101E50000121385C00F06EF8641CE4B2082CF5D364
:101E60006D1CE9B24046FFF7B7FF002404EB0610F3
:101E700038440121007A00F05DF8641CE4B2082CBB
:101E8000F4D3DEE7642500088C2700082DE9F04133
:101E90001F4616468846054600240AE03B46414652
:101EA0002846FFF7AFFF0835EDB2782D04D8641C43
:101EB000E4B2325D002AF1D1BDE8F08110B5002115
:101EC0000C2312A20846FFF7E1FF0C2311A2012107
:101ED0000020FFF7DBFF0C2310A201215A20FFF79F
:101EE000D5FF0C230EA202210020FFF7CFFF0C2309
:101EF0000EA203213C20FFF7C9FF0C230321BDE8FC
:101F000010400BA20120FFF7C1BF0000414E474C1B
:101F1000453A0000424154203A00000056000000BB
:101F200044697374616E63653A000000523A2000A0
:101F30004C3A2000C0B209B100F047B800F02EB80A
:101F40002DE9F041144F04464FF4807600223146CB
:101F50003846FEF705FC00254FF4007804F08000B9
:101F6000802816D0002241463846FEF7F9FB60066D
:101F7000040E012231463846FEF7F2FB00223146BC
:101F80003846FEF7EDFB6D1CEDB2082DE6D3BDE83B
:101F9000F0810122E7E70000000C014010B5044683
:101FA000FFF7D6FE7820FFF7CBFFFFF703FF0020F7
:101FB000FFF7C6FFFFF7FEFE2046FFF7C1FFFFF762
:101FC000F9FEBDE81040FFF7DFBE10B50446FFF78D
:101FD000BFFE7820FFF7B4FFFFF7ECFE4020FFF7CD
:101FE000AFFFFFF7E7FE2046FFF7AAFFFFF7E2FE8D
:101FF000BDE81040FFF7C8BE704710B50021AE2005
:10200000FFF798FF00210846FFF794FF00211020FA
:10201000FFF790FF00214020FFF78CFF0021B02048
:10202000FFF788FF00218120FFF784FF0021FF20B8
:10203000FFF780FF0021A120FFF77CFF0021A620F1
:10204000FFF778FF0021A820FFF774FF00213F2051
:10205000FFF770FF0021C820FFF76CFF0021D3209D
:10206000FFF768FF00210846FFF764FF0021D52035
:10207000FFF760FF00218020FFF75CFF0021D820E0
:10208000FFF758FF00210520FFF754FF0021D9205A
:10209000FFF750FF0021F120FFF74CFF0021DA206D
:1020A000FFF748FF00211220FFF744FF0021DB204B
:1020B000FFF740FF00213020FFF73CFF00218D207B
:1020C000FFF738FF00211420FFF734FF0021BDE89F
:1020D0001040AF20FFF72EBF7047FEF73FBC30B572
:1020E00093B028216846FEF726F814210AA8FEF7C7
:1020F00022F80024012108040F94109412940491F2
:10210000CDE90010CDE90804119402940225079549
:102110006846FEF71DFE08B172B6FEE70F20CDE956
:102120000A054FF48060CDE90C4000210AA80E9406
:10213000FEF722FD08B172B6FEE70FA80F951194C5
:10214000FEF7A4FC002801D072B6FEE713B030BD44
:1021500070470000F0B50268164B174C174D4FF052
:102160008047984205D0B84203D0A04201D0A8428F
:1021700003D122F070064A683243984205D0B84233
:1021800003D0A04201D0A84203D122F44074CA680F
:1021900022434C6922F08002224302608A68C262B4
:1021A0000A688262984201D1096901630121416193
:1021B000F0BD0000002C0140000400400008004079
:1021C00010B501F01F030121046A99408C43046299
:1021D000016A9A401143016210BD000030B5026AE5
:1021E00022F001020262026A4368846924F07305E6
:1021F0000C682C4322F002058A682A430A4DA84243
:102200000BD122F00805CA6823F440732A434D69B4
:1022100022F004021D438B692B43436084614968AB
:102220004163026230BD0000002C014030B5026AFB
:1022300022F010020262026A436884690D6824F485
:10224000E64444EA05248D6822F0200242EA0512A1
:102250000B4DA8420ED1CD6822F0800242EA051251
:102260004D6923F4406343EA85038D6922F04002FF
:1022700043EA85034360846149688163026230BD3B
:10228000002C014030B5026A22F480720262036AB7
:102290004268C46923F4007324F073050C682C436E
:1022A0008D6843EA05230C4DA8420ED1CD6823F476
:1022B000006343EA05234D6922F4405242EA0512C5
:1022C0008D6923F4806342EA05124260C461496863
:1022D000C163036230BD0000002C014030B5026ACA
:1022E00022F480520262046A4268C3690D6823F4D2
:1022F000E64343EA05238D6824F4005444EA053498
:10230000064DA84204D14D6922F4804242EA85126A
:102310004260C36149680164046230BD002C014021
:1023200010B5406A0021C185C184FFF760F910BD76
:102330000168CA6822F49072CA6001684A6922F092
:1023400001024A61016B012904D10168CA6822F0C7
:102350001002CA60202180F83E10002101637047FE
:1023600008B590F83E10222901D0022008BD8268ED
:102370004FF480539A4201D1016921B1816A9A4296
:102380001BD04AB10AE00268816A5268C2F30802AF
:102390000A80816A891C08E0026972B10268526889
:1023A00002F07F020A70816A491C8162C18D491E58
:1023B0000904090CC18503D019E002685268F1E7ED
:1023C0000168CA6822F02002CA600168CA6822F463
:1023D0008072CA6001684A6922F001024A612021C4
:1023E00080F83E10016B012903D0FFF7C1FA0020ED
:1023F00008BD002101630168CA6822F01002CA60AA
:1024000001680A68D20602D50A6849680091818D80
:10241000FFF7ECF8EBE7000070B5044600680169CF
:10242000E26821F44051114301612169A068084329
:10243000616908432168CA6841F20C639A43024308
:10244000CA6020684169A26921F440711143416169
:102450001E492068884202D1FEF734FC01E0FEF7F5
:1024600021FC00EBC00101EB0012606864218000D8
:10247000B2FBF0F3B3FBF1F36FF018067343B2FB5A
:10248000F0F5B2FBF0F605EB8305322303EB0515FF
:10249000B5FBF1F5B6FBF1F605F0F00505EB061519
:1024A000B2FBF0F6B2FBF0F0B0FBF1F06FF0180207
:1024B000504306EB800003EB0010B0FBF1F0216805
:1024C00000F00F002844886070BD00000038014013
:1024D0000148FFF78DB80000B0010020FEE70907B2
:1024E000090E002804DB00F1E02080F8001470479A
:1024F00000F00F0000F1E02080F8141D704702E0AA
:1025000008C8121F08C1002AFAD17047704700207E
:1025100001E001C1121F002AFBD17047FEF726FA25
:10252000FFF7DDFDFFF750FAFFF7B0FAFFF7CEFA3D
:10253000FFF724FBFFF756FBFFF788FBFFF7A2FB33
:10254000FFF7BCFBFFF718FAFFF7D6FBFDF73EFEDF
:10255000FFF753FD6420FEF701F8FFF7DCFBFFF700
:10256000ADFCFEE70000000000000000002F0000AE
:1025700000000700070000147F147F1400242A7F46
:102580002A120062640813230036495522500000C5
:102590000503000000001C224100000041221C0035
:1025A0000014083E08140008083E0808000000A0B7
:1025B00060000008080808080000606000000020B3
:1025C00010080402003E5149453E0000427F400091
:1025D000004261514946002141454B310018141217
:1025E0007F10002745454539003C4A4949300001E4
:1025F0007109050300364949493600064949291E33
:102600000000363600000000563600000008142294
:102610004100001414141414000041221408000294
:102620000151090600324959513E007C1211127CB9
:10263000007F49494936003E41414122007F4141E6
:10264000221C007F49494941007F09090901003ED8
:102650004149497A007F0808087F0000417F410016
:10266000002040413F01007F08142241007F40408C
:102670004040007F020C027F007F0408107F003E74
:102680004141413E007F09090906003E4151215E5A
:10269000007F091929460046494949310001017F57
:1026A0000101003F4040403F001F2040201F003FED
:1026B0004038403F0063140814630007087008079F
:1026C00000615149454300007F41410000552A55B2
:1026D0002A55000041417F0000040201020400402D
:1026E000404040400000010204000020545454784F
:1026F000007F48444438003844444420003844446F
:10270000487F00385454541800087E09010200180C
:10271000A4A4A47C007F080404780000447D400049
:10272000004080847D00007F102844000000417F2D
:102730004000007C04180478007C08040478003809
:102740004444443800FC242424180018242418FC91
:10275000007C0804040800485454542000043F44FA
:102760004020003C4040207C001C2040201C003CBD
:102770004030403C004428102844001CA0A0A07C0D
:10278000004464544C441414141414140000000045
:10279000000000000000000000000000000000F841
:1027A00000000000000000333000000000100C06A4
:1027B000100C0600000000000000000040C078403F
:1027C000C0784000043F04043F040400007088FC0B
:1027D00008300000001820FF211E0000F008F00063
:1027E000E018000000211C031E211E0000F00888D4
:1027F000700000001E2123241927211010160E003E
:10280000000000000000000000000000000000E0E8
:1028100018040200000000071820400000020418FD
:10282000E00000000040201807000000404080F059
:10283000804040000202010F01020200000000F08F
:10284000000000000101011F010101000000000063
:102850000000000080B070000000000000000000D8
:102860000000000000010101010101010000000061
:1028700000000000003030000000000000000000F8
:1028800080601804006018060100000000E01008D5
:102890000810E000000F102020100F00001010F8AA
:1028A000000000000020203F2020000000700808E9
:1028B0000888700000302824222130000030088869
:1028C000884830000018202020110E000000C02091
:1028D00010F8000000070424243F240000F80888B2
:1028E000880808000019212020110E0000E010883F
:1028F00088180000000F112020110E000038080871
:10290000C83808000000003F000000000070880880
:1029100008887000001C222121221C0000E0100801
:102920000810E0000000312222110F00000000C05A
:10293000C0000000000000303000000000000080F7
:1029400000000000000080600000000000008040E7
:102950002010080000010204081020004040404000
:102960004040400004040404040404000008102053
:102970004080000000201008040201000070480898
:102980000808F0000000003036010000C030C82800
:10299000E810E0000718272423140B000000C038BB
:1029A000E0000000203C23020227382008F8888835
:1029B00088700000203F202020110E00C030080841
:1029C00008083800071820202010080008F8080818
:1029D0000810E000203F202020100F0008F8888811
:1029E000E8081000203F20202320180008F88888DD
:1029F000E8081000203F200003000000C030080855
:102A00000838000007182020221E020008F80800DD
:102A10000008F808203F210101213F20000808F8A4
:102A2000080800000020203F2020000000000808C7
:102A3000F8080800C08080807F00000008F888C087
:102A400028180800203F20012638200008F8080038
:102A500000000000203F20202020300008F8F8006F
:102A6000F8F80800203F003F003F200008F830C081
:102A70000008F808203F200007183F00E010080871
:102A80000810E0000F10202020100F0008F80808A0
:102A90000808F000203F210101010000E0100808B3
:102AA0000810E0000F18242438504F0008F88888D8
:102AB00088887000203F2000030C302000708808B8
:102AC000080838000038202121221C00180808F8C6
:102AD000080818000000203F2000000008F8080047
:102AE0000008F808001F202020201F000878880018
:102AF00000C83808000007380E010000F80800F888
:102B00000008F800033C0700073C03000818688031
:102B10008068180820302C03032C30200838C800A7
:102B2000C83808000000203F2000000010080808F6
:102B3000C83808002038262120201800000000FE98
:102B4000020202000000007F40404000000C30C044
:102B500000000000000000010638C0000002020270
:102B6000FE000000004040407F0000000000040222
:102B7000020204000000000000000000000000004D
:102B8000000000008080808080808080000202043D
:102B90000000000000000000000000000000808035
:102BA000808000000019242222223F2008F80080A3
:102BB00080000000003F112020110E000000008066
:102BC00080800000000E11202020110000000080F5
:102BD0008088F800000E112020103F200000808027
:102BE00080800000001F222222221300008080F03B
:102BF000888888180020203F202000000000808066
:102C000080808000006B94949493600008F80080AA
:102C100080800000203F210000203F200080989805
:102C2000000000000020203F202000000000008065
:102C30009898000000C08080807F000008F80000A5
:102C400080808000203F24022D302000000808F8FA
:102C5000000000000020203F2020000080808080B5
:102C600080808000203F20003F20003F8080008047
:102C700080800000203F210000203F200000808055
:102C800080800000001F202020201F008080008006
:102C90008000000080FFA12020110E0000000080B5
:102CA00080808000000E112020A0FF8080808000A6
:102CB0008080800020203F212000010000008080D3
:102CC000808080000033242424241900008080E0C8
:102CD000808000000000001F202000008080000095
:102CE00000808000001F202020103F208080800076
:102CF0000080808000010E30080601008080008086
:102D0000008080800F300C030C300F0000808000AA
:102D1000808080000020312E0E31200080808000D5
:102D20000080808080818E70180601000080808085
:102D3000808080000021302C222130000000000023
:102D4000807C020200000000003F404000000000C4
:102D5000FF00000000000000FF0000000002027CF5
:102D6000800000000040403F00000000000601011C
:102D70000202040400000000000000000000000047
:102D8000000000000102030406070809000000001B
:102D900001020304B42D0008000000201000000010
:102DA000FE240008C42D00081000002028060000A2
:102DB0000E250008010000001000000000000000C7
:042DC0000024F400F7
:04000005080000ED02
:00000001FF
