:020000040800F2
:1000000080140020E1010008031F0008871D00087C
:10001000011F0008D9090008752100080000000030
:10002000000000000000000000000000490100087E
:10003000DB090008000000008D010008051F000812
:10004000FB010008FB010008FB010008FB010008A0
:10005000FB010008FB010008FB010008FB01000890
:10006000FB010008FB010008FB010008FB01000880
:10007000FB010008FB010008FB010008FB01000870
:10008000FB010008FB010008FB010008FB01000860
:10009000FB010008FB010008FB010008FB01000850
:1000A000FB010008AD1F0008FB010008FB01000870
:1000B000FB010008FB010008FB010008FB01000830
:1000C000FB010008FB010008FB010008FB01000820
:1000D000FB010008FB010008FB010008FB01000810
:1000E000FB010008FB010008FB010008FB01000800
:1000F000FB010008FB010008FB010008FB010008F0
:10010000FB010008FB010008FB010008FB010008DF
:10011000FB010008FB010008FB010008FB010008CF
:10012000FB010008FB010008FB010008FB010008BF
:10013000DFF810D000F034FB004800478D2A00089B
:10014000AFF3008080140020224B19680868B0E8E3
:10015000F00F80F30988BFF36F8F4FF0000080F33A
:1001600011884EF00D0E7047000000000648006830
:10017000006880F3088862B661B6BFF34F8FBFF3A3
:100180006F8F00DF00BF00BF08ED00E0EFF30980D4
:10019000BFF36F8F0F4B1A6820E9F00F106008B59E
:1001A0004FF0500080F31188BFF34F8FBFF36F8F74
:1001B00003F072F84FF0000080F31188BDE80840AA
:1001C00019680868B0E8F00F80F30988BFF36F8FF3
:1001D000704700BF1C000020EFF30580704700004F
:1001E0000648804706480047FEE7FEE7FEE7FEE7D1
:1001F000FEE7FEE7FEE7FEE7FEE7FEE7AB1F0008CF
:1002000031010008202A04DB203A21FA02F0002103
:10021000704721FA02F3D040C2F120029140084316
:100220001946704740EA01039B0703D009E008C95B
:10023000121F08C0042AFAD203E011F8013B00F8AB
:10024000013B521EF9D27047D2B201E000F8012BF7
:10025000491EFBD270470022F6E710B513460A4646
:1002600004461946FFF7F0FF204610BD2DE9FE4F6A
:1002700081EA030404F0004421F0004100944FF0AF
:10028000000B23F0004350EA01045ED052EA03045D
:100290005BD0C3F30A54C1F30A552C44A4F2F334DF
:1002A0000194A0FB0254C1F3130141F48011C3F384
:1002B000130343F4801301FB024400FB034E840A42
:1002C000970A44EA815447EA8357A4FB07680295DA
:1002D0008D0A05FB07854FEA932C04FB0C54270578
:1002E000029D4FEA065847EA1637B5EB08056EEB54
:1002F000070C870E920E47EA811742EA8312A7FB8A
:100300000201B6EB0B0164EB00042B0D43EA0C3346
:100310005E1844EB1C50DA465146E7FB0201C5F378
:1003200013044FEA0B3343EA14534FEA0432019C9F
:1003300043EA0603A4F10C040294009CCDE900B446
:1003400000F099F803B0BDE8F08F00200146F9E70E
:1003500070B521F0004303430CD0C1F30A550024CB
:10036000D5EB040564EB0403D617AD1AB34102DBE9
:100370000020014670BD201841EB025170BD0EB542
:1003800040F2334102910021CDE900110A460B46AB
:1003900000F071F803B000BDC1F30A5210B5C1F30B
:1003A000130140F2FF3341F480119A4201DA002038
:1003B00010BD40F233439A42A2F2334203DC524270
:1003C000FFF720FF10BD904010BD30B50B46014631
:1003D00000202022012409E021FA02F59D4205D3E4
:1003E00003FA02F5491B04FA02F52844151EA2F18E
:1003F0000102F1DC30BD2DE9F05F05460020924698
:100400009B4688460646814640241BE028464146D6
:1004100047462246FFF7F6FE53465A46C01A914118
:1004200010D311461846224600F0CCF92D1A67EB7E
:1004300001084F4622460120002100F0C3F917EBC6
:1004400000094E41201EA4F10104DFDC484631467C
:100450002A464346BDE8F09F10B5141E73F1000410
:1004600008DA401C41F1000192185B411A4301D1A6
:1004700020F0010010BD2DE9F04D92469B4611B1D0
:10048000B1FA81F202E0B0FA80F22032904600F038
:1004900099F904460F4640EA0A0041EA0B01534627
:1004A0005A46084313D0114653EA010019D0C8F147
:1004B00040025046FFF7A6FE05460E4650465946F6
:1004C000424600F07FF9084305D0012004E02046B1
:1004D0003946BDE8F08D0020054346EAE0762C431E
:1004E00037430A986305E40AA0EB08000022FD0ADE
:1004F00044EA47540A3002D500200146E9E70105E5
:1005000010196941DDE9084500196941BDE8F04D60
:10051000A2E72DE9FE4F804681EA0300C00F0C469A
:10052000009021F0004123F00045B8EB0200A94102
:1005300005D24046214690461C460B46024623F013
:100540000040104347D0270DC7F30A00C3F30A51F8
:100550000290401A019040286BDAC3F3130040F474
:10056000801B0098924620B10023D2EB030A63EB74
:100570000B0B01985946C0F14002504600F022F999
:1005800006460D4650465946019A00F02AF910EBEE
:1005900008006141002487EA115284EAE7731A4394
:1005A00040D0009A62B3019A012A4FEA075215DC43
:1005B000001B61EB02014FF0004202EA0752CDE955
:1005C0000042001C41F5801132462B46FFF753FFD5
:1005D00003B0BDE8F08F40462146F9E7001B61EB10
:1005E0000201001C41F5801300185B412018A2F5A0
:1005F000001747EB030140EAD570B6196D4111E0D1
:100600006D084FEA360645EAC0754FEA0752001BEF
:1006100061EB0201001C41F5801149084FEA3000EE
:100620000019514132462B4603B0BDE8F04FFFF7A9
:1006300013BF0098012240000023D0EB020263EBBD
:10064000E073009821464FEAE074B8EB000061EBDC
:100650000401E9E783F000435BE781F0004158E7DC
:100660002DE9F04D81EA030404F0004B21F0004530
:1006700014464FF0000A23F0004150EA050220D052
:1006800054EA01021DD0C5F30A570246C5F313030D
:10069000C1F31300C1F30A5640F4801543F48013EC
:1006A000A7EB0608101BD64608F2FD3873EB0500D1
:1006B00002D308F1010801E092185B41B8F1000F84
:1006C00003DA00200146BDE8F08D00204FF48011D0
:1006D000064684460EE0171B73EB050705D3121B75
:1006E00063EB050306434CEA010C49084FEA30006E
:1006F00092185B4150EA0107EDD152EA030012D093
:1007000082EA040083EA0501084305D0101BAB41CF
:1007100006D20122002306E000224FF0004302E04F
:100720006FF0010253101AEB06004CEB085110EB6E
:100730000A0041EB0B01BDE8F04DFFF78DBEC1F3A0
:100740000A52C1F3130140F2FF3341F480119A427F
:1007500002DA00200146704740F233439A42A2F287
:10076000334202DC5242FFF74DBD00F02BB80000CF
:1007700030B5041E71F1000404DB4FF00044404228
:1007800064EB0101141E73F1000405DB1C464FF0FD
:100790000043524263EB0403994208BF904230BDCC
:1007A000064C074D06E0E06840F0010394E80700BE
:1007B00098471034AC42F6D3FFF7BEFC8C360008E5
:1007C000AC360008202A04DB203A00FA02F10020AF
:1007D00070479140C2F1200320FA03F3194390407F
:1007E0007047202A06DBCB17203A41FA02F043EA91
:1007F000E07306E041FA02F3D040C2F120029140DA
:10080000084319467047000070B5044600688168C7
:10081000C943C90717D1816821F00101816000F047
:10082000B7FC05460AE000BF00F0B2FC401B0228FE
:1008300004D920688068C043C00706D0206880685B
:10084000C043C007F0D0002070BDA06A40F0100087
:10085000A062E06A40F00100E062012070BD00008B
:10086000F8B500260446009600688168C943C907A8
:100870002DD0816841F00101816016481649006859
:10088000B0FBF1F000E0401E00900028FBD100F02A
:100890007FFC054616E000BF00F07AFC401B0228F2
:1008A00010D920688068C043C0070BD0A06A40F010
:1008B0001000A062E06A40F00100E06284F8246069
:1008C0000120F8BD20688068C043C007E4D1002043
:1008D000F8BD00001800002040420F0008B5DFF806
:1008E0006480DFF864904FF4FA764FF066376FF06B
:1008F0000B0A6425304600F035FB012000F03AF881
:1009000080B2FFF73CFD3A464346FFF7AFFC0022BA
:100910004B46FFF7ABFC5246FFF71AFDFFF73CFDD5
:1009200084B2002000F026F8B4FBF5F1B4FBF5F238
:1009300080B205FB1143009004A1012002F0BCF835
:10094000D8E7000066660A4000005940B5E7D1B913
:10095000D6B5A3A84131A3A9A3BA25642E25642C3A
:10096000B2C9D1F9D6B5A3A84130293A25640D0AF8
:10097000000000003EB5012107280BD2DFE800F09F
:100980000406082123252700002002E0009101E051
:10099000022000900720CDE9011069460D4800F0C3
:1009A0008BF80C4800F064FA1E210A4800F0C2F9E6
:1009B000084800F0FFF80446064800F0B9FA20465F
:1009C0003EBD0320E5E70420E3E70520E1E706203C
:1009D000DFE70000D0020020FEE7704772B6FEE7B6
:1009E000F8B500250446009590F8240001280BD0A6
:1009F000012084F824002046FFF706FF2046FFF779
:100A00002FFF060002D050E00220F8BDA06A20F4BB
:100A1000885040F00200A062022000F077FC2549D7
:100A20000968B1FBF0F0400000E0401E0090002893
:100A3000FBD12068816841F00801816000F0A8FBCB
:100A4000074608E000F0A4FBC01B0A2803D9206871
:100A50008068000715D4206880680007F2D42068F9
:100A6000816841F00401816000F092FB074612E0CA
:100A700000F08EFBC01B0A280DD920688068400753
:100A800009D5A06A20F0020040F01000A06284F8AE
:100A900024500120F8BD206880684007E8D4A06A8F
:100AA00020F0020040F00100A06284F8245030469B
:100AB000F8BD000018000020F8B50024009490F85C
:100AC00024202546012A12D0012280F824204A68D9
:100AD0001F23072A0DD20668776B521E02EB820293
:100AE00093409F430B6893401F43776319E00220B4
:100AF000F8BD06680D2A0AD2376BD21F02EB8202BC
:100B000093409F430B6893401F43376309E0F76AA4
:100B10000D3A02EB820293409F430B6893401F43C0
:100B2000F7620A68072306680A2A0AD3F7680A3AAE
:100B300002EB420293409F438B6893401F43F76050
:100B400008E0376902EB420293409F438B68934071
:100B50001F4337610A68102A01D0112A20D1124B95
:100B600002689A4217D193681B0219D4936843F420
:100B7000000393600968102912D10C490C4A0968D6
:100B8000B1FBF2F101EB8101490000E0491E009147
:100B90000029FBD104E0816A41F020018162012437
:100BA00080F824502046F8BD0024014018000020A1
:100BB00040420F000068C06C704700002DE9F04112
:100BC00004004FF000057FD0A06A002628B9E66235
:100BD00084F82460204600F081F82046FFF714FED8
:100BE000A16AC90600D420B1A06A40F01000A0623A
:100BF0006AE0A16A21F4885141F00201A1623349FF
:100C000023688B42E16904D1B1F5402F01D14FF443
:100C10000021277B4FF4807C41EA470261680A4348
:100C2000A168614508D0012906D0002194F814E09C
:100C3000BEF1010F02D00AE06146F7E7C7B1A76A2B
:100C400047F02007A762E76A47F00107E7625F689D
:100C500027F469470F435F60236899681C4F394048
:100C600011439960A16861450BD0012909D00CE0BE
:100C7000DFF860E0A7690EEB47370F4347F40061E8
:100C8000E5E7218A0D05A5F580152168CB6A23F4D7
:100C900070032B43CB62216889680F4B1940914246
:100CA00008D1E662A16A21F0020141F00101A162CE
:100CB000BDE8F081A06A20F0020040F01000A062C0
:100CC000E06A40F00100E0620120F1E7003C0140F1
:100CD000FDF7E1FF00E0FFFFFE0E1FFF00B585B04E
:100CE0000021009101910291039100680E49884210
:100CF00018D10E48816941F400718161816901F464
:100D000000710491816941F0040181618069694643
:100D100000F0040004901F2000900320019004487C
:100D200000F02CF905B000BD002401400010024085
:100D3000000801402DE9F84300270D4604460097BE
:100D400000F026FA804620688168C90508D5A06AA7
:100D500040F02000A06284F824700120BDE8F883F0
:100D60004168C90503D4C06A10F4700F2AD002206C
:100D700000F0CCFA3B490968B1FBF0F62068036942
:100D800039490B424FEA61014FEAA1121FD1C368F2
:100D90004FEA611C13EA0C0F19D103690B4225D1EC
:100DA000C068104222D1142023E0681C0AD02DB163
:100DB00000F0EEF9A0EB0800A84203D92068006813
:100DC000800725D5206800688007EED52DE00369EF
:100DD0000B4202D1C168114206D0026923490A427E
:100DE00006D1C068084203D1542002E0292000E067
:100DF000FC204643009816E0681C11D02DB100F08D
:100E0000C7F9A0EB0800A8420AD90098B04207D25F
:100E1000A06A40F00400A06284F8247003209DE7DB
:100E20000098401C0090B042E6D321686FF0120099
:100E30000860A06A40F40070A06220688068C0F377
:100E4000424007280CD1207B50B9A06A20F4807062
:100E5000A062A06AC00403D4A06A40F00100A062AE
:100E600000207BE7180000202449922449922400A6
:100E700070B5044690F8240001280DD0012084F8B4
:100E800024002046FFF7ECFC02004FF0000005D0E4
:100E900084F82400104670BD022070BDA16A40F2A3
:100EA0000123994341F48071A1621F4D23681F49BA
:100EB000AB4218D10E6816F4702F14D0A66A46F40F
:100EC0008016A6620E68760505D5A66A26F4005639
:100ED00046F48056A662A66AF6040AD5E66A26F0AB
:100EE0000606E66206E0A66A26F48016A6625E683A
:100EF000E9E7E06284F824006FF0020018602068DF
:100F00008368C3F34243072B05D1A84208D109687F
:100F100011F4702F04D0816841F480118160B9E729
:100F2000816841F4A001F9E7002801400424014050
:100F300010B5044690F82400012807D0012084F859
:100F400024002046FFF760FC10B107E0022010BD2E
:100F5000A16A21F4885141F00101A162002184F8C5
:100F6000241010BD70B5054600F012F94FEA0004D8
:100F700000F00EF9001BA842FAD370BD2DE9F84F1E
:100F8000DFF8C8910024A9F1040B23460F2709F1CB
:100F9000040AABF1040ED1E00125A54006EA0502E2
:100FA000AA4276D1DFF8A8C14E68A6EB0C086645C8
:100FB0002BD00DDC032E34D005DC36B3012E19D036
:100FC000022E2FD11BE0112E16D0122E2AD119E09D
:100FD000B8F5881F19D006DCB8F5803F15D0B8F5F4
:100FE000801F1FD111E0B8F5001F0ED0B8F5041F07
:100FF00018D10AE0CB6815E0CB681B1D12E0CB6866
:1010000008330FE0CB680C330CE08B682BB1012B5D
:101010004FF0080303D0456104E0042302E00561BA
:1010200000E00023FF2A01D8064601E000F1040693
:101030004FEA840501D9A5F12005D6F8008007FA0A
:1010400005FC28EA0C0803FA05F548EA0508C6F885
:1010500000804D68ED0070D53E4DAE6946F001064A
:10106000AE61AD6924F0030605F0010500953A4D27
:1010700006EB050CDCF80850A607360F07FA06F851
:1010800025EA0805DFF8D480404503D14FF0000879
:1010900025E052E0DFF8C880404502D14FF001085A
:1010A0001DE0DFF8C080404502D14FF0020816E095
:1010B000DFF8B480404502D14FF003080FE0DFF8BD
:1010C000AC80404502D14FF0040808E0DFF8A08072
:1010D000404502D14FF0050801E04FF0060808FA3C
:1010E00006F848EA0508CCF808804D68D9F8006091
:1010F000ED024D4601D5164300E096432E604D6843
:10110000DAF80060AD02554601D5164300E096437B
:101110002E604D68DBF80060AD035D4601D51643D7
:1011200000E096432E604D68DEF80060ED037546E2
:1011300001D5164300E096432E60641C0A681646EB
:10114000E2407FF429AFBDE8F88F000008040140B9
:101150000000111000100240000001400008014092
:10116000000C014000100140001401400018014033
:10117000001C0140C26821EA02030A4043EA02411E
:10118000016170470AB1016170470904FBE7000083
:1011900001488068704700000C0000200248816808
:1011A00002781144816070470C000020074810B598
:1011B000016841F010010160032000F095F80F2054
:1011C00000F006F800F03EF8002010BD00200240BC
:1011D00000B5014687B00022192000F065F81920FB
:1011E00000F054F81348816941F40061816180691D
:1011F00005A900F400600690684600F0EFF900F0E1
:101200001DFA0D490D4AB0FBF1F10D48491E02606F
:10121000416040F2E7320021C0E90321816000F023
:10122000D5FB10B1012007B000BD054800F0FCFB64
:10123000F9E700000010024040420F00002C01407E
:10124000480300200F4808B5816941F00101816120
:10125000816901F001010091C16941F08051C161D2
:10126000C069002200F0805000900F21901E00F015
:101270001BF80548416821F0E06141F000714160D0
:1012800008BD00000010024000000140002809DBFA
:1012900000F01F02012191404009800000F1E02090
:1012A000C0F8001170470000F0B40E4B1B680C46EC
:1012B000C3F30223C3F10705042D00D90425191D2A
:1012C000072901D2002300E0DB1E012606FA05F102
:1012D000491E214099409E40761E16403143F0BC85
:1012E00000F064BF0CED00E0064900F0070208685A
:1012F0004FF6FF03184040EA0220034A10430860FB
:10130000704700000CED00E00000FA0510B5014642
:101310000020284C04292FD00BDC012930D00229D1
:1013200029D100F08BF96168C1F38131491C490072
:101330001FE0082920D010291DD161682268D20140
:1013400019D51D48C1F38342C903805C0AD5616881
:10135000194AC1F34041921E515C184AB2FBF1F1A7
:10136000484301E0164948436168490203D44000FC
:101370000321B0FBF1F010BDBDE8104000F06EB9E4
:10138000226AC2F30121012903D1920701D5C803C2
:1013900010BD022905D1626A920702D549F6404084
:1013A00010BD0329FCD121688903F9D54FF22440EF
:1013B00010BD0000001002404036000800127A0004
:1013C00000093D002DE9F84305460078354CC0077B
:1013D00054D0E0690026C00008D4E06940F0805095
:1013E000E061E069012600F0805000902E4801681D
:1013F000C90512D40168804641F480710160FFF78D
:10140000C7FE074605E000BFFFF7C2FEC01B642809
:1014100023D8D8F80000C005F6D5206A10F4407033
:1014200021D0A98801F4407181421CD0206A1F4953
:10143000012220F440700A6000220A602062C00786
:1014400011D0FFF7A5FE074641F2883808E000BF3B
:10145000FFF79EFEC11B414502D90320BDE8F8837A
:10146000206A8007F4D5206A696820F44070084338
:1014700020621EB1E06920F08050E061287880078A
:1014800005D56068A96820F440400843606028786A
:10149000C00605D56068696920F480000843606073
:1014A0000020DBE700100240007000404004424290
:1014B0002DE9F0470F46050061D0434E306800F03B
:1014C0000700B84209D2306820F007003843306086
:1014D000306800F00700B84251D128683B4C8107C2
:1014E00012D5400703D5606840F4E060606028785A
:1014F000000703D5606840F4605060606068A968C8
:1015000020F0F000084360602878C00728D06868A1
:10151000012810D02168022810D0890700292EDA6E
:10152000616821F0030101436160FFF731FE8046ED
:1015300041F288390DE021688903EFE78901EDE781
:10154000FFF726FEA0EB0801494502D90320BDE8BC
:10155000F0876068696800F00C00B0EB810FEFD194
:10156000306800F00700B8420BD9306820F007005F
:1015700038433060306800F00700B84201D00120E5
:10158000E5E72878400705D56068E96820F4E06061
:10159000084360602878000706D56068296920F450
:1015A000605040EAC100606000F058F86168084A85
:1015B000C1F30311515CC840064908600648006841
:1015C000FFF706FE0020C2E70020024000100240A4
:1015D0005036000818000020100000200F22026082
:1015E0000C4A536803F003034360536803F0F003AD
:1015F0008360536803F4E063C36052684FF4E063B0
:1016000003EAD20202610448006800F007000860A3
:1016100070470000001002400020024004480549C5
:1016200000684968044AC1F30221515CC840704710
:1016300018000020001002406036000804480549E8
:1016400000684968044AC1F3C221515CC840704730
:101650001800002000100240603600080E4A516851
:101660000E4801F00C03042B11D0082B0FD10C48AD
:10167000C1F38343C903C05C0AD55168084AC1F36A
:101680004041921E515C054A5043B0FBF1F0704757
:1016900004494843704700000010024000127A00DD
:1016A0002E36000800093D002DE9F84F040070D0E7
:1016B0002078C04DC00749D06868C0F38100012878
:1016C00007D06868C0F38100022809D16868C003A8
:1016D00006D52868800339D560680028E7D035E052
:1016E0006068B0F5803F0BD010B1B0F5A02F11D0DD
:1016F000286820F480302860286820F4802002E0E8
:10170000286840F480302860606890B1FFF740FDA1
:1017100006460AE0286840F480202860F0E700BF11
:10172000FFF736FD801B642873D828688003F7D53F
:101730000CE0FFF72DFD064605E000BFFFF728FD92
:10174000801B6428F0D828688003F7D420789A4E4C
:1017500080074FF001094FF0000839D5686810F094
:101760000C0F07D06868C0F38100022809D16868AF
:10177000C00306D42868800714D52069012808D141
:1017800010E02069B0B1C6F80090FFF701FD0746F0
:1017900005E00AE1FFF7FCFCC01B0228C4D828685A
:1017A0008007F7D52868616920F0F80040EAC10099
:1017B00028600DE0C6F80080FFF7EAFC074604E069
:1017C000FFF7E6FCC01B022823D828688007F7D45F
:1017D000207800072CD57948A169D9B1C0F80090CC
:1017E000FFF7D6FC074604E0FFF7D2FCC01B022837
:1017F0000FD8686A8007F7D571484FF4FA5100682E
:10180000B0FBF1F0009000BF0098411E0091FAD2A9
:101810000EE080E0C0F80080FFF7BAFC074604E065
:10182000FFF7B6FCC01B022875D8686A8007F7D49A
:101830002078400760D5E8690027C00008D4E8692F
:1018400040F08050E861E869012700F08050009086
:101850005C480168C90513D40168834641F480716E
:101860000160FFF795FC824606E000BFFFF790FCA1
:10187000A0EB0A0064284ED8DBF80000C005F5D5BF
:10188000E06801280AD008B1052813D0286A20F0A2
:1018900001002862286A20F0040002E0286A40F073
:1018A00001002862E06841F2883B98B1FFF770FCC4
:1018B00082460BE0286A40F004002862EEE700BF91
:1018C000FFF766FCA0EB0A0159455AD8286A800741
:1018D000F6D50CE0FFF75CFC824605E0FFF758FC0C
:1018E000A0EB0A0159454CD8286A8007F6D41FB1ED
:1018F000E86920F08050E861E06988B36968C1F365
:101900008101022944D00228C6F8608004D0FFF784
:101910003FFC044638E034E0FFF73AFC074604E0B9
:10192000FFF736FCC01B02282BD828688001F7D4AB
:10193000206AB0F5803F05D16868A16820F40030C6
:1019400008436860D4E908010843696821F4741108
:1019500008436860C6F86090FFF71AFC044606E08A
:1019600025E000BFFFF714FC001B022809D82868F7
:101970008001F7D51BE000BFFFF70AFC001B02281F
:1019800002D90320BDE8F88F28688001F4D40EE066
:101990000128F7D06868226A00F48031914204D1AE
:1019A000616A00F47010884201D00120EAE700204B
:1019B000E8E700000010024000004242800442427A
:1019C00018000020007000407047704710B50400F8
:1019D00003D094F83D0010B107E0012010BD0020B5
:1019E00084F83C00204600F01EF8022084F83D00F8
:1019F000211D206800F0E0FA012084F8460084F8F8
:101A00003E0084F83F0084F8400084F8410084F8E8
:101A1000420084F8430084F8440084F8450084F8C8
:101A20003D00002010BD704790F83D10012901D005
:101A300001207047022180F83D100168CA6842F019
:101A40000102CA6000680E4988420ED00D498842E2
:101A50000BD0B0F1804F08D00B49884205D00B491C
:101A6000884202D00A49884204D1816801F0070106
:101A7000062903D0016841F0010101600020704790
:101A8000002C0140003401400004004000080040E8
:101A9000000C0040704770B50446006801694FF0C3
:101AA0000005C943890715D4C168C943890711D402
:101AB000E91E0161012020772068806980072046A7
:101AC00002D0FFF7E7FF04E000F098F8204600F0AE
:101AD00096F8257720680169C943490717D4C1687A
:101AE000C943490713D46FF0040101610220207734
:101AF0002068806910F4407F204602D0FFF7CAFFBB
:101B000004E000F07BF8204600F079F825772068A3
:101B10000169C943090716D4C168C943090712D42A
:101B20006FF008010161042020772068C0698007F8
:101B3000204602D0FFF7AEFF04E000F05FF8204639
:101B400000F05DF8257720680169C943C90617D4FC
:101B5000C168C943C90613D46FF0100101610820A0
:101B600020772068C06910F4407F204602D0FFF73C
:101B700091FF04E000F042F8204600F040F825779D
:101B800020680169C943C90708D1C168C943C907A9
:101B900004D1891E0161204600F032F820680169F5
:101BA000C943090609D4C168C943090605D46FF0C1
:101BB000800101612046FFF707FF20680169C943E2
:101BC000490609D4C168C943490605D46FF04001EC
:101BD0000161204600F01EF820680169C9438906AA
:101BE0000BD4C168C943890607D46FF02001016195
:101BF0002046BDE87040FFF7E8BE70BD70477047F3
:101C000000680349884201D1FFF7C8BA7047000055
:101C1000002C0140704770B5040004D094F84100D6
:101C2000002510B106E0012070BD84F84050204628
:101C300000F024F8242084F841002068C16821F4D1
:101C40000051C160204600F0FDF92068016921F4CF
:101C5000904101612068416921F02A0141612068B9
:101C6000C16841F40051C1606564202084F84100DE
:101C700084F842006563002070BD000030B585B077
:101C8000002400940194029403940068144988424B
:101C900024D11448816941F480418161816901F452
:101CA00080410491816941F00401816180690E4D98
:101CB00000F0040004904FF40070009002200190A6
:101CC0000320039069462846FFF758F92815CDE907
:101CD0000004694628460294FFF750F905B030BD6C
:101CE0000038014000100240000801402DE9F8438F
:101CF000044690F841001F4616460D46202802D0A3
:101D00000220BDE8F8837DB176B100206064212017
:101D100084F84100FFF73CFAA6848046E684A06878
:101D2000B0F5805F02D003E00120EAE7206910B13E
:101D30002E4600250EE000260CE08021204600F013
:101D4000DDF9A0B9AEB116F8010B21684860E08C4E
:101D5000401EE084E08C43464FF0000200970028CC
:101D6000EBD14FF04001204600F0C8F930B103201C
:101D7000C7E735F8020BC0F30800E6E7202084F837
:101D800041000020BDE7FEE701F058F9002001F016
:101D9000EFF90448FEF724FE012000F0A9FE01F04F
:101DA0006DF9F1E7D0020020054C4FF416752021A3
:101DB0002046FFF7DFF92846FFF7D4F8F7E70000E1
:101DC000001801403EB5002411480094019402948B
:101DD0000E498460016004730475012505614FF4A8
:101DE00060214460C161FEF7E9FE08B1FEF7F6FD2F
:101DF00005200094CDE9015069460548FEF75CFED8
:101E0000002801D0FEF7EAFD3EBD0000002401409D
:101E1000D002002010B596B01C2211496846FEF78A
:101E200001FA0021684600F06FFE0E4C0C491C229E
:101E300020601C3107A8FEF7F5F9002107A800F083
:101E400063FE074960601C2238310EA8FEF7EAF9EC
:101E500000210EA800F058FEA06016B010BD0000D2
:101E6000D83500080000002030B585B000241448A3
:101E70000094019402940394816941F040018161CE
:101E8000816901F040010491816941F0040181619F
:101E900080690C4D00F004000490002220212846A7
:101EA000FFF770F9202000900120CDE90104022005
:101EB000039069462846FFF761F805B030BD000081
:101EC00000100240001801400C4810B50A4901609A
:101ED0004FF4E1314160002181600C22C160C0E912
:101EE00004128161C161FFF796FE002803D0BDE8AE
:101EF0001040FEF773BD10BD003801400003002004
:101F0000FEE7FEE710B5502080F31188BFF34F8F36
:101F1000BFF36F8F01F09AFA18B104494FF0805067
:101F20000860002080F3118810BD000004ED00E07F
:101F300030B595B028216846FEF78DF914210AA81E
:101F4000FEF789F918210FA8FEF785F90121080489
:101F5000CDE900100025029502240491CDE9074047
:101F60004FF4E01009906846FFF79EFB08B172B687
:101F7000FEE70AA90F2081E831004FF48060CDE927
:101F80000D0502210AA8FFF793FA08B172B6FEE721
:101F90004FF4004011900F940FA8FFF713FA002898
:101FA00001D072B6FEE715B030BD70470148FFF7AB
:101FB00072BD000048030020F0B502681C4B1D4DA7
:101FC0001D4E1E4F1E4C4FF0804C984209D0A0422F
:101FD00007D0604505D0A84203D0B04201D0B84236
:101FE00004D122F0700E4A6842EA0E02984209D0EB
:101FF000A04207D0604505D0A84203D0B04201D02E
:10200000B84203D122F44075CA682A434D6922F0D0
:1020100080022A4302608A68C2620A688262984229
:1020200001D0A04201D10969016301214161F0BDE4
:10203000002C01400004004000080040000C00405B
:102040000034014070B5044600680169E26821F47B
:102050004051114301612169A06808436169084347
:102060002168CA6841F20C639A430243CA6020683F
:102070004169A26921F44071114341611E49206800
:10208000884202D1FFF7DAFA01E0FFF7C7FA00EB66
:10209000C00101EB0012606864218000B2FBF0F324
:1020A000B3FBF1F36FF018067343B2FBF0F5B2FB2C
:1020B000F0F605EB8305322303EB0515B5FBF1F5CF
:1020C000B6FBF1F605F0F00505EB0615B2FBF0F6F0
:1020D000B2FBF0F0B0FBF1F06FF01802504306EBEA
:1020E000800003EB0010B0FBF1F0216800F00F005E
:1020F0002844886070BD0000003801402DE9F0419F
:10210000984617460E460446069D27E0681C25D0D3
:102110002DB1FFF73DF8A0EB0800A8421ED92068BA
:102120000C3050E8001F21F4D07140E80012002A62
:10213000F5D12068143050E8001F21F0010140E87B
:102140000012002AF5D1202084F8410084F84200D2
:10215000002084F840000320BDE8F081206800687A
:1021600036EA000004D00020B842CFD00020F3E7C8
:102170000120F9E7FEE700007CB50C001D4616467D
:10218000014601D0601E00E00020CDE90010064BA2
:102190006A462946304600F0EBF8002C02D0009A3F
:1021A000002111707CBD0000772A00080907090E84
:1021B000002804DB00F1E02080F80014704700F0F4
:1021C0000F0000F1E02080F8141D704702E008C8FD
:1021D000121F08C1002AFAD170477047002001E0A1
:1021E00001C1121F002AFBD1704700002DE9FF5FDB
:1021F00082B00021DDE90430020DDDF840B0034378
:1022000018D044F61050A2F2FF3242431514119830
:1022100001281FD0A5EB0B00401C5FEA000A4FF01D
:1022200000064E4FDFF83891B046504615D5CAF13A
:10223000000413E0119801244AA3012801D16FEA98
:102240000B010298119AC0E90031C0E9024206B0C0
:10225000BDE8F09FCBF10000DFE704460021404AD3
:10226000491842EB0450CDE9001012E0E00707D016
:1022700032463B4640464946FDF7F8FF80468946D0
:1022800032463B4610461946FDF7F0FF06460F461C
:102290006410002CEAD1DDE90401DDE90023BAF184
:1022A000000F06DAFDF7E2FF42464B46FDF7DEFF80
:1022B00005E0FEF7D5F942464B46FEF7D1F9044654
:1022C0000E460022284BFEF753FA03D84FF0FF309A
:1022D000014607E00022254B20463146FEF719F95A
:1022E000FEF72DFA102409E0002C0ADB0A22002355
:1022F000FEF781F8039B30321A55641E50EA010242
:10230000F2D1641C039AC4F111031444119A012AF6
:1023100003D0012208430DD10AE0084304D0002075
:102320004FF0110B119072E7A3EB0B056D1E0DE042
:102330005B4504DD4FF0000205F1010504E003DA1E
:102340004FF00002A5F10105002AECD00298119986
:10235000C0E90231C0E9004579E7000000001440FF
:102360000000F03F300000000000F0430000E03FBC
:102370002DE9FF4F95B09A46884606460025EEE1C6
:10238000252877D100242746F94A0121039400E04B
:10239000044316F8013F203B01FA03F01042F7D145
:1023A00030782A2811D06FF02F033078A0F1300256
:1023B000092A16D8039A44F0020402EB820203EBC6
:1023C00042021044761C0390EFE758F8042B039266
:1023D000002A03DA504244F40054039044F002040B
:1023E000761C30782E2816D116F8010F44F004041C
:1023F0002A280DD06FF02F023078A0F13003092B7E
:1024000009D807EB870302EB4303C718761CF3E7F1
:1024100058F8047B761C30786C280FD006DC4C28EA
:1024200017D068280DD06A2814D104E0742810D081
:102430007A280FD10DE044F400140AE044F480142B
:1024400001E044F440147278824202D104F5801411
:10245000761C761C307866280BD013DC582877D091
:1024600009DC002875D04528F6D04628F4D0472846
:102470001AD193E118E0632835D0642879D0652813
:1024800012D18BE1702873D008DC6728F1D069285D
:102490006FD06E280DD06F2806D1ACE073282CD0F9
:1024A000752874D0782853D05246179990476D1CE0
:1024B00054E1C4F30250022809D003280DD0D8F803
:1024C000001004280DD00D6008F1040846E1D8F88A
:1024D0000010EA17C1E90052F6E7D8F800100D80A5
:1024E000F2E70D70F0E718F8041B8DF800100020DB
:1024F0008DF80100EB46012003E058F804BB4FF0D3
:10250000FF3061074FF0000102D40DE009F1010135
:102510008946B9420FDA8145F8DB1BF8091000291A
:10252000F4D108E009F1010189468142FADB1BF888
:1025300009100029F6D103985346A0EB090721465C
:102540003846179A00F080FA284400EB090507E0A6
:1025500044E008E10DE01BF8010B52461799904743
:10256000B9F10109F7D2534621463846179AF2E0ED
:1025700039E00A21C4F302524FF0000B0091022A05
:1025800006D058F8040BC117032A09D00AE023E04B
:1025900008F1070020F00702F2E80201904605E08A
:1025A00000B2C117042A01D140B2C117002906DACE
:1025B0000A460021404261EB02012D2202E0220581
:1025C00004D52B228DF80420012203E0E20701D07C
:1025D0002022F7E7914657E00A2100E010214FF052
:1025E000000B00910BE010214FF0000B44F00404AD
:1025F0000827009103E008204FF0000B0090C4F37F
:102600000252022A05D058F8040B0021032A08D0F0
:1026100008E008F1070020F00702F2E80201904606
:1026200003E080B2042A00D1C0B24FF000092207B3
:102630002AD53278702A07D0DDF800C08CF0100C53
:102640005CEA0B0C05D00EE040228DF8042001223C
:1026500008E050EA010306D030238DF804308DF8ED
:10266000052002229146009B83F0080353EA0B03E6
:102670000AD150EA010201D1620705D530228DF856
:1026800004204FF001097F1E3278582A04D039A265
:102690000C920CAA02920BE03BA2F9E75B46009A6F
:1026A000FDF7A9FE0C9B9B5C029A521E02921370CE
:1026B00050EA0102F2D1029804A9081A00F1200B95
:1026C000600702D524F4803400E001275F4502DD75
:1026D000A7EB0B0000E0002000EB0B01009003983B
:1026E0004944401A0390E00306D453462146179A02
:1026F000039800F0A9F90544002706E001A8524616
:10270000C05D179990476D1C7F1C4F45F6DBE003B9
:102710000CD553462146179A039800F095F90544C5
:1027200004E030205246179990476D1C0099481ECE
:1027300000900029F5DC08E00298029952460078E2
:10274000491C0291179990476D1CBBF10001ABF138
:10275000010BF1DC5BE100F065F90544761C307893
:1027600000287FF40DAE19B02846BDE8F08F0000B8
:102770000928010030313233343536373839616257
:10278000636465660000000030313233343536371B
:10279000383941424344454600000000600700D4F8
:1027A000062708F1070020F00700F0E80223804622
:1027B00003F0004C5FEA0C0001D097A009E020056F
:1027C00001D596A005E0E00701D095A001E0AFF2A9
:1027D0004C001390307823F0004365280CD006DCC1
:1027E000452809D046281DD047287FD13BE06628E0
:1027F00018D067287AD136E00021112F01DB112093
:1028000000E0781CCDE9000104A90CA8FFF7EEFC5C
:10281000DDE90D010C9A4FF0000B07F10109109250
:1028200000914EE04FF000400097CDE9011004A95F
:102830000CA8FFF7DBFCDDE90D020C9B0F994FF0B4
:10284000000B91461093009211B9791C00EB01091D
:10285000B7EB090003D4C0F1FF3B07F10109A9EB75
:102860000700019042E0012F00DA01270021112F1B
:1028700001DD112000E03846CDE9000104A90CA8D3
:10288000FFF7B4FCDDE90D010C9A00914FF0000B4D
:10289000B946109221070FD4009A4A4503DA9146AF
:1028A00001E0A9F10109B9F1010F05DD109AA9F1C3
:1028B0000101515C3029F4D0B84202DA10F1040F62
:1028C00003DA0121CDE9011010E0002803DC834484
:1028D000A9EB000102E0411C494500DD8946A0EB5F
:1028E0000B00401C01904FF000400290200705D4DF
:1028F0000198484502DB4FF0FF30019000208DF831
:102900004B0002980DF14B07B0F1004F25D002208B
:102910000C902B200D90029800280CDA4042029077
:102920002D200D9007E00A210298FDF74EFD303171
:10293000029007F8011D0C99481E0C900029F2DC4A
:1029400002980028EFD1791E0D980870307800F0B9
:10295000200040F0450007F8020D11A8C01BC01D63
:1029600002901398007800B1012000EB0901019852
:1029700001EBE071029801440398401A401E039055
:10298000E00306D453462146179A039800F05CF8FA
:1029900005441398007818B15246179990476D1C5A
:1029A000E00323D553462146179A039800F04CF8CC
:1029B00005441BE0BBF1000F07DB0098584504DD20
:1029C0001098179910F80B0001E017993020524623
:1029D000904701980BF1010B401E05F10105019094
:1029E00004D12E205246179990476D1CB9F1000171
:1029F000A9F10109DEDC05E017F8010B5246179931
:102A000090476D1C0299481E02900029F4DC534641
:102A10002146179A03989EE62D0000002B00000027
:102A2000200000002DE9F041044600251E4617460F
:102A3000880404D405E039462020B0476D1C641E8C
:102A4000F9D52846BDE8F0812DE9F041044600257E
:102A50001E469046C80301D5302700E02027880491
:102A600004D505E041463846B0476D1C641EF9D5D3
:102A70002846BDE8F0814A68002A06D00A68531C3F
:102A80000B6010704868401E48607047FEF78EFB70
:102A9000FFF74EFAFFF7E8F9FFF794F9FFF714FA9A
:102AA000FFF7B8F900F02BF8FEE701460020842973
:102AB00000D0C81C704700000FB44FF4007110B56F
:102AC000ADF5007D044684AB6846839AFFF754FB5E
:102AD00082B2012C05D14FF47A7369460348FFF79F
:102AE00005F90DF5007D10BC5DF814FB0003002016
:102AF00010B500B9012000F015FB002010BD10B585
:102B000000F08CFB002010BD7FB50D4604464169E6
:102B1000B0F9080081B1A16971B1FFF7C6FFD4E92E
:102B200005128DE80700D4E900102B46226900F059
:102B300062FC039004B070BDFFF7B7FF03A9CDE9B5
:102B40000001208A2B4682B2D4E9001000F026FC56
:102B5000012801D00020EDE70398EBE72DE9F041D3
:102B6000184C0F46054666692068001D00F016FAED
:102B700038B9206890F82C1001208840A169814361
:102B8000A161681C07D137B12168BDE8F0410E484A
:102B9000091D00F047BA20683544B54245602168F8
:102BA00005D2A068BDE8F041091D00F023BA6068B5
:102BB000091D00F01FFA206B854200D22563BDE895
:102BC000F08100001C0000206C0400202DE9F04181
:102BD000054600F033FA2E4C2069401C2061206825
:102BE0002C4F10B1E06940B32DE025602069012829
:102BF00029D1002606EB860007EB800000F0ECF9F7
:102C0000761C072EF6D323488C3000F0E5F92148D6
:102C1000A03000F0E1F91F48B43000F0DDF91D48A4
:102C2000C83000F0D9F91B48DC3000F0D5F919485C
:102C30008C3060601430A06005E02068E96AC06AEA
:102C4000884200D82560E06A401CE062E96A012001
:102C5000A26988401043A06101EB810007EB80006E
:102C6000291D00F0DFF900F009FAE06900280CD016
:102C70002068E96AC06A884207D207494FF080504D
:102C80000860BFF34F8FBFF36F8FBDE8F081000086
:102C90001C0000209003002004ED00E010B5044665
:102CA00090F8510058B101280CD002280FD05020C4
:102CB00080F31188BFF34F8FBFF36F8FFEE7206B58
:102CC00000F0F0F92046BDE8104000F0EBB910BD6F
:102CD00010484FF44061420706D0C01D0D4920F056
:102CE0000700411AC1F540610B4A00230144C2E9C3
:102CF00000030839103A21F0070111604B600B60A6
:102D00000B1AC0E9001393604FF000405360D0608D
:102D1000704700008004002068000020144E154C0D
:102D2000A6F1C8074FF08058DFF84C9012E000BFC2
:102D300000F084F9F068C568281D00F02FF92069BB
:102D4000401E2061E068401EE06000F097F92846D0
:102D5000FFF7A4FFE0680028EAD138680128F9D914
:102D6000C9F80080BFF34F8FBFF36F8FF2E7000009
:102D7000580400201C00002004ED00E02DE9F0477D
:102D80009A46DDE9098481466FF00303206B03EB6B
:102D900082021044089D20F00706700707D05020DB
:102DA00080F31188BFF34F8FBFF36F8FFEE72318B7
:102DB0000A5C83F834200A5C12B1401C1028F6D358
:102DC000002784F84370072D00D30625E562C4E987
:102DD0001157201D00F00BF904F1180000F007F95D
:102DE0002461C5F107006462A061E76484F8507053
:102DF00052464946304600F0BFF82060B8F1000F57
:102E000001D0C8F80040BDE8F087000030B5114996
:102E100000E011460A688242FBD34B685C1884428A
:102E200003D1406818444860084643681C1894421F
:102E300009D1084C103C2468A24209D052681A44B7
:102E400042600A6812680260814200D0086030BDAA
:102E50000460F9E76800002006484168096829B164
:102E60004168C968C9684968016370474FF0FF311C
:102E7000FAE700001C00002008484068401C4FF0A2
:102E8000500080F3118804D0BFF34F8FBFF36F8FD2
:102E9000FEE7BFF34F8FBFF36F8FFEE77000002098
:102EA0002DE9F0410546002700F0EEF9314E30687B
:102EB00008B9FFF70DFFF06805424BD1C5B30835DF
:102EC00068070ED005F00700C0F108000544680748
:102ED00007D0502080F31188BFF34F8FBFF36F8F5F
:102EE000FEE72DB37068854234D822481030014681
:102EF0000C6801E020460C466168A94202D22168B4
:102F00000029F7D131688C4224D00768216801601C
:102F100060680837411B10290FD96019420708D093
:102F2000502080F31188BFF34F8FBFF36F8FFEE700
:102F300010E041606560FFF769FF61687068401AE2
:102F40007060B268904200D2B060F0680143002027
:102F5000C4E9000100F0DEFA780707D0502080F3C2
:102F60001188BFF34F8FBFF36F8FFEE73846BDE880
:102F7000F08100005800002010B5031F4FF080744E
:102F80001C601B1F21F001011960191F024B0B600F
:102F9000143940380A6010BD792E0008D0E901329A
:102FA00001699A60D0E901235A604A68824201D1DE
:102FB00082684A60002202610868401E0860086852
:102FC00070470000034B036003F154000860802049
:102FD000106070477C00002000F108014FF0FF32C4
:102FE000C0E90112C1600161002101607047002148
:102FF0000161704730B50B685A1C02D000F108021D
:1030000002E0026904E02246546825689D42FAD92C
:1030100053684B6099608A60516008610168491C7F
:10302000016030BD42684A6093688B609368596064
:10303000916008610168491C01607047502080F36D
:103040001188BFF34F8FBFF36F8F0A494868401C48
:10305000486001280CD10848006810F0FF0F07D025
:10306000502080F31188BFF34F8FBFF36F8FFEE7BF
:10307000704700007000002004ED00E00849486837
:1030800028B1401E486001D180F31188704750205C
:1030900080F31188BFF34F8FBFF36F8FFEE70000FF
:1030A0007000002070B5002827D0144DA0F108044E
:1030B0006168E868014207D1502080F31188BFF3AE
:1030C0004F8FBFF36F8FFEE722683AB1502080F335
:1030D0001188BFF34F8FBFF36F8FFEE781436160AD
:1030E00000F0D2F860686968084468602046FFF71D
:1030F0008DFEBDE8704000F00DBA70BD5800002094
:103100004FF0E02000210161816105494FF47A729E
:103110000968B1FBF2F1491E416107210161704765
:103120001800002010B5020014D00F48806B38B191
:10313000502080F31188BFF34F8FBFF36F8FFEE7EE
:1031400000F0A2F800211046FFF708FD00F0E2F9B8
:10315000002807D105494FF080500860BFF34F8F1A
:10316000BFF36F8F10BD00001C00002004ED00E0D5
:1031700070B50546FFF762FF254C05B92568281D87
:10318000FFF70CFF58B9E86A224A00EB800152F8B9
:10319000211021B901218140A0698843A061A86A5A
:1031A00018B105F11800FFF7F9FEE06A401CE06273
:1031B0002068854208D11748291DC830FFF732FF23
:1031C000E068401CE06007E02069401E206128465E
:1031D000FFF764FDFFF740FEFFF750FFE0690028AE
:1031E00014D02068854211D1A06B38B1502080F3F3
:1031F0001188BFF34F8FBFF36F8FFEE706494FF083
:1032000080500860BFF34F8FBFF36F8F70BD000019
:103210001C0000209003002004ED00E010B586B0F3
:103220000024039405AA04A903A80494FFF7CAFE86
:10323000DDE903010094CDE9011000230EA110483F
:10324000059A00F0D8F80F490028486311D05020A3
:1032500080F31188BFF34F8FBFF36F8F4FF0FF30B4
:1032600008630120C8614C6106B0BDE8104000F061
:1032700041B806B010BD000049444C4500000000B4
:103280001D2D00081C0000200248816B491C816331
:10329000704700001C0000201448816B11B101210F
:1032A00041627047002141628169B1FA81F1C1F147
:1032B0001F0101EB81020E4951F822306BB101EB85
:1032C000820101F108034A6852684A609A4201D1BA
:1032D00052684A60D16801607047502080F31188BD
:1032E000BFF34F8FBFF36F8FFEE700001C0000207D
:1032F000900300201CB5264908780190FF20087033
:1033000008788DF800009DF800009DF8002000F07E
:10331000F000904207D0502080F31188BFF34F8F08
:10332000BFF36F8FFEE79DF800001A4B00F05000CE
:1033300018700720986005E09DF8002052008DF875
:103340000020401E9DF800201206F5D49860032846
:1033500007D0502080F31188BFF34F8FBFF36F8FDA
:10336000FEE74FF440709860019808700A480168C1
:1033700041F470010160016841F070410160FFF7A4
:10338000BFFE00205860FCF7F1FE00201CBD0000CD
:1033900000E400E07000002020ED00E02DE9FF5F78
:1033A0008346DDE90E87994616468A469000FFF768
:1033B00077FD05001CD05420FFF772FD040014D0E7
:1033C0000020256384F85100CDE90240CDE9008753
:1033D0004B46324651465846FFF7D0FC2046FFF791
:1033E000F5FB012004B0BDE8F09F2846FFF75AFE28
:1033F0004FF0FF30F6E7F0B585B0DDE90B640A9DCC
:10340000A6B1DCB1542700972663022684F85160E8
:10341000002604AFCDE90246CDE90057FFF7AEFC28
:103420002046FFF7D3FB049805B0F0BD502080F391
:103430001188BFF34F8FBFF36F8FFEE7502080F3EB
:103440001188BFF34F8FBFF36F8FFEE72DE9F04177
:103450002E4C0027A06B40B1206A401C2062606A9D
:1034600000B101273846BDE8F0816669761C6661C7
:1034700013D16068006838B1502080F31188BFF321
:103480004F8FBFF36F8FFEE76068A1686160A06037
:10349000A06A401CA062FFF7DFFC206BDFF87080A1
:1034A000864209D36068006880B16068C068C568FA
:1034B000686886420DD220632068C06A00EB8001F4
:1034C00058F821000128CAD90127C8E74FF0FF307A
:1034D000F1E7281DFFF762FDA86A18B105F1180091
:1034E000FFF75CFDE86A0121A26981401143A161F7
:1034F00000EB800108EB8100291DFFF793FDE86ACE
:103500002168C96A8842CDD30127CBE71C0000207F
:10351000900300202DE9F0472C4D00242746A86B8E
:1035200038B1FFF78BFDA86B401EA863A86B40B1B4
:1035300046E0502080F31188BFF34F8FBFF36F8FA9
:10354000FEE72969224E0120D1B3A6F1B4098046D5
:103550003068E8B1F068C46804F11800FFF71EFD98
:10356000201DFFF71BFDE06AAA6908FA00F111436C
:10357000A96100EB800109EB8100211DFFF752FDDD
:10358000E06A2968C96A8842E2D3C5F82480DFE787
:103590000CB1FFF761FC2C6A44B14646FFF756FFB9
:1035A00000B16E62641EF9D100202862686A38B1E9
:1035B0000849012738070860BFF34F8FBFF36F8FAB
:1035C000FFF75CFD3846BDE8F08700001C000020D6
:1035D0004404002004ED00E068360008DD0800081F
:1035E00000000000000000000001000000000000DA
:1035F0000000000080360008891D0008020000005D
:10360000000000008000000000000000000000003A
:1036100074360008A91D0008FDFF0000000000002E
:103620008000000000000000000000000102020312
:103630000405060708090A0B0C0D0E0F10100102F5
:1036400002030405060708090A0B0C0D0E0F1010E3
:103650000000000000000000010203040607080942
:1036600000000000010203044144435F5461736B96
:10367000000000004C45445F5461736B0000000083
:10368000496E69745F5461736B000000AC360008CA
:10369000000000207C000000CC2100082837000832
:1036A0007C00002004140000DC2100080000000061
:1036B00000000000000000000100000010000000F9
:1036C000000000000024F4000000000000000000E2
:1036D00000000000000000000000000000000000EA
:1036E00000000000000000000000000000000000DA
:1036F00000000000000000000000000000000000CA
:1037000000000000000000000000000000000000B9
:1037100000000000000000000000000000000000A9
:08372000AAAAAAAA00000000F9
:0400000508000131BD
:00000001FF
