:020000040800F2
:1000000068180020E1010008A52C0008D926000886
:100010001D2C0008F30900085134000800000000FE
:10002000000000000000000000000000490100087E
:10003000F5090008000000008D010008A52D00084A
:10004000FB010008FB010008FB010008FB010008A0
:10005000FB010008FB010008FB010008FB01000890
:10006000FB010008FB010008FB010008FB01000880
:10007000FB010008FB010008FB010008FB01000870
:10008000FB010008FB010008FB010008FB01000860
:10009000FB010008FB010008FB010008FB01000850
:1000A000FB010008FB010008FB010008FB01000840
:1000B000312E00083D2E0008492E0008FB010008E3
:1000C000FB010008FB010008FB010008FB01000820
:1000D000FB010008813300088D33000899330008C4
:1000E000FB010008FB010008FB010008FB01000800
:1000F000552E0008FB010008FB010008FB01000869
:10010000FB010008FB010008FB010008FB010008DF
:10011000FB010008FB010008FB010008FB010008CF
:10012000FB010008FB010008FB010008FB010008BF
:10013000DFF810D000F02AFC004800476D3E0008B0
:10014000AFF3008068180020224B19680868B0E8F7
:10015000F00F80F30988BFF36F8F4FF0000080F33A
:1001600011884EF00D0E7047000000000648006830
:10017000006880F3088862B661B6BFF34F8FBFF3A3
:100180006F8F00DF00BF00BF08ED00E0EFF30980D4
:10019000BFF36F8F0F4B1A6820E9F00F106008B59E
:1001A0004FF0500080F31188BFF34F8FBFF36F8F74
:1001B00004F078FA4FF0000080F31188BDE80840A1
:1001C00019680868B0E8F00F80F30988BFF36F8FF3
:1001D000704700BF24000020EFF305807047000047
:1001E0000648804706480047FEE7FEE7FEE7FEE7D1
:1001F000FEE7FEE7FEE7FEE7FEE7FEE72F2E00083C
:1002000031010008202A04DB203A21FA02F0002103
:10021000704721FA02F3D040C2F120029140084316
:100220001946704740EA01039B0703D009E008C95B
:10023000121F08C0042AFAD203E011F8013B00F8AB
:10024000013B521EF9D27047D2B201E000F8012BF7
:10025000491EFBD270470022F6E710B513460A4646
:1002600004461946FFF7F0FF204610BD30B505469D
:100270002A460B4612F8010B13F8014B08B1A042B5
:10028000F8D01CB1002802D06D1CF1E7284630BD23
:10029000F0B480EA0102D40F4200B2EB410F02D267
:1002A0000246084611464A0042D0C30DDDB2C1F3F2
:1002B000C752AD1A202D35DAC1F3160141F4000200
:1002C00004B15242C5F1200602FA06F12A41104457
:1002D000B3EBD05F23D0C4B1012DA0EBC35009DC38
:1002E000F0BC4FF0004202EAC352DBB200F500005E
:1002F00000F0E9B9400000F1807000EBC350A0F1BC
:10030000807040EAD170490009E0490841EAC071B3
:10031000A0EBC35000F50000400800EBC350F0BC58
:1003200000F0C8B96142012202EB4101001BF6E76F
:10033000F0BC704781F00041AAE780F00040A7E7D9
:1003400080EA010210B502F00043400022D04A00CA
:100350001FD0010E01EB1261C0F35600C2F356022A
:1003600040F4000042F40002A0FB022000047F39A8
:10037000140400D0401C50EA124001D44000491E31
:10038000C2B20C0604EBD010401C4008802A02D0F8
:1003900003E0002010BD20F00100002900DA002059
:1003A000184310BD420005D0C0F3C75252429142DB
:1003B00001DC0020704700EBC15070472DE9FE4F73
:1003C00081EA030404F0004421F0004100944FF05E
:1003D000000B23F0004350EA01045ED052EA03040C
:1003E0005BD0C3F30A54C1F30A552C44A4F2F3348E
:1003F0000194A0FB0254C1F3130141F48011C3F333
:10040000130343F4801301FB024400FB034E840AF0
:10041000970A44EA815447EA8357A4FB0768029588
:100420008D0A05FB07854FEA932C04FB0C54270526
:10043000029D4FEA065847EA1637B5EB08056EEB02
:10044000070C870E920E47EA811742EA8312A7FB38
:100450000201B6EB0B0164EB00042B0D43EA0C33F5
:100460005E1844EB1C50DA465146E7FB0201C5F327
:1004700013044FEA0B3343EA14534FEA0432019C4E
:1004800043EA0603A4F10C040294009CCDE900B4F5
:1004900000F056F903B0BDE8F08F00200146F9E7FF
:1004A0002DE9F04D81EA030404F0004B21F00045F2
:1004B00014464FF0000A23F0004150EA050220D014
:1004C00054EA01021DD0C5F30A570246C5F31303CF
:1004D000C1F31300C1F30A5640F4801543F48013AE
:1004E000A7EB0608101BD64608F2FD3873EB050093
:1004F00002D308F1010801E092185B41B8F1000F46
:1005000003DA00200146BDE8F08D00204FF4801191
:10051000064684460EE0171B73EB050705D3121B36
:1005200063EB050306434CEA010C49084FEA30002F
:1005300092185B4150EA0107EDD152EA030012D054
:1005400082EA040083EA0501084305D0101BAB4191
:1005500006D20122002306E000224FF0004302E011
:100560006FF0010253101AEB06004CEB085110EB30
:100570000A0041EB0B01BDE8F04D00F0D2B8C10F0D
:1005800080EAE0700844CA079623002100F09BB877
:1005900000F0004220F00040C10DC0F3160040F40E
:1005A00000007F2901DA00207047962903DCC1F1A1
:1005B0009601C84001E096398840002AF4D04042B4
:1005C000704770B5C1F30A5201F000450024C1F331
:1005D000130140F2FF3341F480119A4201DA002006
:1005E00070BD40F233439A42A2F2334203DC5242DE
:1005F000FFF708FE00E090402C43F1D0404270BD70
:1006000000F0004230F000400AD0C10D01F56071E9
:10061000C0F3160042EA0151C20840071143704777
:1006200000200146704730B50B46014600202022CD
:10063000012409E021FA02F59D4205D303FA02F5EF
:10064000491B04FA02F52844151EA2F10102F1DC4F
:1006500030BD2DE9F05F0546002092469B46884656
:100660000646814640241BE028464146474622462E
:10067000FFF7C8FD53465A46C01A914110D31146A0
:100680001846224600F094F92D1A67EB01084F46F0
:1006900022460120002100F08BF917EB00094E41A2
:1006A000201EA4F10104DFDC484631462A464346B9
:1006B000BDE8F09F0029A8BF7047401C490008BF53
:1006C00020F00100704710B4B0FA80FC00FA0CF082
:1006D00050EA010404BF10BC704749B1CCF12004BA
:1006E00021FA04F411FA0CF118BF01212143084347
:1006F000A3EB0C01CB1D4FEA00614FEA102042BF73
:10070000002010BC704700EBC35010440029A4BF68
:1007100010BC7047401C490008BF20F0010010BC0D
:10072000704710B5141E73F1000408DA401C41F143
:10073000000192185B411A4301D120F0010010BD65
:100740002DE9F04D92469B4611B1B1FA81F202E0DB
:10075000B0FA80F22032904600F02AF904460F46A3
:1007600040EA0A0041EA0B0153465A46084313D0B7
:10077000114653EA010019D0C8F140025046FFF774
:1007800041FD05460E4650465946424600F010F9D6
:10079000084305D0012004E020463946BDE8F08D2D
:1007A0000020054346EAE0762C4337430A98630568
:1007B000E40AA0EB08000022FD0A44EA47540A308C
:1007C00002D500200146E9E7010510196941DDE97C
:1007D000084500196941BDE8F04DA2E72DE9FE4F3B
:1007E000804681EA0300C00F0C46009021F00041D2
:1007F00023F00045B8EB0200A94105D2404621464E
:1008000090461C460B46024623F00040104347D05A
:10081000270DC7F30A00C3F30A510290401A019052
:1008200040286BDAC3F3130040F4801B0098924613
:1008300020B10023D2EB030A63EB0B0B019859465E
:10084000C0F14002504600F0B3F806460D4650464F
:100850005946019A00F0BBF810EB080061410024F2
:1008600087EA115284EAE7731A4340D0009A62B3D0
:10087000019A012A4FEA075215DC001B61EB0201C5
:100880004FF0004202EA0752CDE90042001C41F558
:10089000801132462B46FFF753FF03B0BDE8F08FBF
:1008A00040462146F9E7001B61EB0201001C41F5BF
:1008B000801300185B412018A2F5001747EB0301D5
:1008C00040EAD570B6196D4111E06D084FEA360661
:1008D00045EAC0754FEA0752001B61EB0201001C9C
:1008E00041F5801149084FEA300000195141324664
:1008F0002B4603B0BDE8F04FFFF713BF009801226D
:1009000040000023D0EB020263EBE0730098214625
:100910004FEAE074B8EB000061EB0401E9E783F013
:1009200000435BE781F0004158E7C1F30A52C1F38D
:10093000130140F2FF3341F480119A4202DA0020A1
:100940000146704740F233439A42A2F2334202DC3E
:100950005242FFF757BC00F02BB8000030B5041E20
:1009600071F1000404DB4FF00044404264EB0101EC
:10097000141E73F1000405DB1C464FF00043524285
:1009800063EB0403994208BF904230BD064C074D0B
:1009900006E0E06840F0010394E80700984710344F
:1009A000AC42F6D3FFF7C8FB884A0008A84A000803
:1009B000202A04DB203A00FA02F10020704791401F
:1009C000C2F1200320FA03F3194390407047202A14
:1009D00006DBCB17203A41FA02F043EAE07306E067
:1009E00041FA02F3D040C2F1200291400843194677
:1009F0007047FEE7704700000C4910B509680020F9
:100A000048620B49096848623C21084801F0DBF85C
:100A10003C21074801F0D7F83C21044801F08CF84C
:100A2000BDE810403C21024801F086B84003002098
:100A30008803002072B6FEE7002800DC40427047C1
:100A40002DE9F05F00248C4A2346254620462146A6
:100A5000565C3D2E02D0212E0AD001E04C1CE4B29F
:100A6000491CC9B2C829F3D3115D2D2903D005E073
:100A7000491ECBB2F8E7641CE4B20125191B491CDE
:100A8000C9B27E4EDFF8F891062906D0072936D084
:100A9000082970D009296DD0E7E0171992467879B6
:100AA0003038FFF76CFD3146FFF74AFC06463879CF
:100AB0003038FFF764FD4946FFF742FC8146F8787D
:100AC0003038FFF75CFD6F49FFF73AFC8046B87895
:100AD0003038FFF754FD6C49FFF732FC07461AF82F
:100AE00004003038FFF74BFD3946FFF7D1FB414694
:100AF000FFF7CEFB4946FFF7CBFB3146B3E01719B2
:100B00009346B8793038FFF73AFD3146FFF718FCC5
:100B1000804678793038FFF732FD4946FFF710FC00
:100B2000824638793038FFF72AFD5649FFF708FC2E
:100B30008146F8783038FFF722FD5349FFF700FC73
:100B400006461BF804007978303800EB80006FF01F
:100B50002F0202EB40000844FFF711FD3146FFF77A
:100B600097FB4946FFF794FB5146FFF791FB41463F
:100B700079E000E033E017199346F8793038FFF751
:100B8000FEFC3146FFF7DCFB8246B8793038FFF7D0
:100B9000F6FC4946FFF7D4FB814678793038FFF7F9
:100BA000EEFC3849FFF7CCFB804638793038FFF748
:100BB000E6FC3549FFF7C4FB06461BF80400B9788C
:100BC000303800EBC00202EB001001EB80007978B6
:100BD0002E4A01EB810102EB4101084437E017196D
:100BE0009346387A3038FFF7CAFC3146FFF7A8FB46
:100BF0008246F8793038FFF7C2FC4946FFF7A0FB80
:100C00008146B8793038FFF7BAFC1E49FFF798FBE8
:100C1000804678793038FFF7B2FC1B49FFF790FB2C
:100C200006461BF80400F978303800EB4002C2EBAE
:100C3000C01001EBC001787864225043BA7802EB0F
:100C4000820200EB42000844A0F5A050D038FFF724
:100C500096FC3146FFF71CFB4146FFF719FB49465E
:100C6000FFF716FB5146FFF713FB002D01D080F074
:100C70000040BDE8F09F00001804002017B7D138ED
:100C80006F12833A0AD7233CCDCCCC3DF0FDFFFF59
:100C900010B590F821100022022905D004218163AB
:100CA00080F82020012010BD01680B6823F00E039E
:100CB0000B6001680B6823F001030B6090F8403073
:100CC000C46B012101FA03F3636080F8211080F8FE
:100CD0002020104610BD00002DE9F05F90F8211093
:100CE0000024022903D004218163012485E00168E6
:100CF0000A6822F00E020A6001680A6822F0010206
:100D00000A603F4E3E4FB215DFF8F4C0DFF8F090B6
:100D1000DFF8ECA0DFF8E8B0DFF8E4E00168783F46
:100D200013011502ACF1640CA9F15009AAF13C0AB7
:100D3000ABF1280BAEF1140E4FF48018B14227D955
:100D4000B9420ED0614512D049451DD0514518D049
:100D5000594518D0714501D1424615E0294EB1429E
:100D600001D1012210E0274E1436B14201D11022E8
:100D70000AE0244E2836B14206D0224A3C32914243
:100D800001D11A4600E02A461E49091F0A602BE0DD
:100D9000B94213D0614517D0494522D051451DD0E5
:100DA00059451DD0714501D142461AE0B14202D1E8
:100DB0004FF0807215E0134EB14201D1012210E0D4
:100DC000104E1436B14201D110220AE00D4E2836E1
:100DD000B14206D00B4A3C32914201D11A4600E0A2
:100DE0002A46074980394A60012180F821100021F4
:100DF00080F82010416B01B188472046BDE8F09F84
:100E0000800002400804024070B5044600F010F96A
:100E10000546601C02D004480078044400F008F93C
:100E2000401BA042FAD370BD140000202DE9F84FFA
:100E3000DFF8C8910024A9F1040B23460F2709F11C
:100E4000040AABF1040ED1E00125A54006EA050233
:100E5000AA4276D1DFF8A8C14E68A6EB0C08664519
:100E60002BD00DDC032E34D005DC36B3012E19D087
:100E7000022E2FD11BE0112E16D0122E2AD119E0EE
:100E8000B8F5881F19D006DCB8F5803F15D0B8F545
:100E9000801F1FD111E0B8F5001F0ED0B8F5041F58
:100EA00018D10AE0CB6815E0CB681B1D12E0CB68B7
:100EB00008330FE0CB680C330CE08B682BB1012BAF
:100EC0004FF0080303D0456104E0042302E005610C
:100ED00000E00023FF2A01D8064601E000F10406E5
:100EE0004FEA840501D9A5F12005D6F8008007FA5C
:100EF00005FC28EA0C0803FA05F548EA0508C6F8D7
:100F000000804D68ED0070D53E4DAE6946F001069B
:100F1000AE61AD6924F0030605F0010500953A4D78
:100F200006EB050CDCF80850A607360F07FA06F8A2
:100F300025EA0805DFF8D480404503D14FF00008CA
:100F400025E052E0DFF8C880404502D14FF00108AB
:100F50001DE0DFF8C080404502D14FF0020816E0E6
:100F6000DFF8B480404502D14FF003080FE0DFF80E
:100F7000AC80404502D14FF0040808E0DFF8A080C3
:100F8000404502D14FF0050801E04FF0060808FA8D
:100F900006F848EA0508CCF808804D68D9F80060E2
:100FA000ED024D4601D5164300E096432E604D6894
:100FB000DAF80060AD02554601D5164300E09643CD
:100FC0002E604D68DBF80060AD035D4601D5164329
:100FD00000E096432E604D68DEF80060ED03754634
:100FE00001D5164300E096432E60641C0A6816463D
:100FF000E2407FF429AFBDE8F88F0000080401400B
:1010000000001110001002400000014000080140E3
:10101000000C014000100140001401400018014084
:10102000001C01400AB1016170470904FBE70000A0
:101030000148806870470000140000200248816861
:10104000027811448160704714000020074810B5F1
:10105000016841F010010160032000F095F80F20B5
:1010600000F006F800F03EF8002010BD002002401D
:1010700000B5014687B000222C2000F065F82C2036
:1010800000F054F81348816941F40051816180698E
:1010900005A900F400500690684600F02FF900F012
:1010A0005DF90D490D4AB0FBF1F10D48491E026092
:1010B000416040F2E7320021C0E90321816000F085
:1010C0007DFB10B1012007B000BD054800F0CEFB4C
:1010D000F9E700000010024040420F0000340140D8
:1010E000F00600200F4808B5816941F001018161D7
:1010F000816901F001010091C16941F08051C16134
:10110000C069002200F0805000900F21901E00F076
:101110001BF80548416821F0E06141F00071416031
:1011200008BD00000010024000000140002809DB5B
:1011300000F01F02012191404009800000F1E020F1
:10114000C0F8001170470000F0B40E4B1B680C464D
:10115000C3F30223C3F10705042D00D90425191D8B
:10116000072901D2002300E0DB1E012606FA05F163
:10117000491E214099409E40761E16403143F0BCE6
:1011800002F094B90CED00E0064900F0070208688F
:101190004FF6FF03184040EA0220034A104308605C
:1011A000704700000CED00E00000FA05BFF34F8F20
:1011B00005480168054A01F4E06111430160BFF38D
:1011C0004F8F00BFFDE700000CED00E00400FA05C2
:1011D0002DE9F0470F46050061D0434E306800F01E
:1011E0000700B84209D2306820F007003843306069
:1011F000306800F00700B84251D128683B4C8107A5
:1012000012D5400703D5606840F4E060606028783C
:10121000000703D5606840F4605060606068A968AA
:1012200020F0F000084360602878C00728D0686884
:10123000012810D02168022810D0890700292EDA51
:10124000616821F0030101436160FFF7F1FE804610
:1012500041F288390DE021688903EFE78901EDE764
:10126000FFF7E6FEA0EB0801494502D90320BDE8DF
:10127000F0876068696800F00C00B0EB810FEFD177
:10128000306800F00700B8420BD9306820F0070042
:1012900038433060306800F00700B84201D00120C8
:1012A000E5E72878400705D56068E96820F4E06044
:1012B000084360602878000706D56068296920F433
:1012C000605040EAC100606000F058F86168084A68
:1012D000C1F30311515CC840064908600648006824
:1012E000FFF7C6FE0020C2E70020024000100240C7
:1012F0004A4A000820000020180000200F22026047
:101300000C4A536803F003034360536803F0F0038F
:101310008360536803F4E063C36052684FF4E06392
:1013200003EAD20202610448006800F00700086086
:1013300070470000001002400020024004480549A8
:1013400000684968044AC1F30221515CC8407047F3
:1013500020000020001002405A4A000804480549B5
:1013600000684968044AC1F3C221515CC840704713
:1013700020000020001002405A4A00080E4A51681E
:101380000E4801F00C03042B11D0082B0FD10C4890
:10139000C1F38343C903C05C0AD55168084AC1F34D
:1013A0004041921E515C054A5043B0FBF1F070473A
:1013B00004494843704700000010024000127A00C0
:1013C0003A4A000800093D002DE9F84F040070D0AA
:1013D0002078C04DC00749D06868C0F3810001285B
:1013E00007D06868C0F38100022809D16868C0038B
:1013F00006D52868800339D560680028E7D035E035
:101400006068B0F5803F0BD010B1B0F5A02F11D0BF
:10141000286820F480302860286820F4802002E0CA
:10142000286840F480302860606890B1FFF700FEC3
:1014300006460AE0286840F480202860F0E700BFF4
:10144000FFF7F6FD801B642873D828688003F7D562
:101450000CE0FFF7EDFD064605E000BFFFF7E8FDF5
:10146000801B6428F0D828688003F7D420789A4E2F
:1014700080074FF001094FF0000839D5686810F077
:101480000C0F07D06868C0F38100022809D1686892
:10149000C00306D42868800714D52069012808D124
:1014A00010E02069B0B1C6F80090FFF7C1FD074613
:1014B00005E00AE1FFF7BCFDC01B0228C4D828687C
:1014C0008007F7D52868616920F0F80040EAC1007C
:1014D00028600DE0C6F80080FFF7AAFD074604E08B
:1014E000FFF7A6FDC01B022823D828688007F7D481
:1014F000207800072CD57948A169D9B1C0F80090AF
:10150000FFF796FD074604E0FFF792FDC01B022897
:101510000FD8686A8007F7D571484FF4FA51006810
:10152000B0FBF1F0009000BF0098411E0091FAD28C
:101530000EE080E0C0F80080FFF77AFD074604E087
:10154000FFF776FDC01B022875D8686A8007F7D4BC
:101550002078400760D5E8690027C00008D4E86912
:1015600040F08050E861E869012700F08050009069
:101570005C480168C90513D40168834641F4807151
:101580000160FFF755FD824606E000BFFFF750FD02
:10159000A0EB0A0064284ED8DBF80000C005F5D5A2
:1015A000E06801280AD008B1052813D0286A20F085
:1015B00001002862286A20F0040002E0286A40F056
:1015C00001002862E06841F2883B98B1FFF730FDE6
:1015D00082460BE0286A40F004002862EEE700BF74
:1015E000FFF726FDA0EB0A0159455AD8286A800763
:1015F000F6D50CE0FFF71CFD824605E0FFF718FD6D
:10160000A0EB0A0159454CD8286A8007F6D41FB1CF
:10161000E86920F08050E861E06988B36968C1F347
:101620008101022944D00228C6F8608004D0FFF767
:10163000FFFC044638E034E0FFF7FAFC074604E01C
:10164000FFF7F6FCC01B02282BD828688001F7D4CE
:10165000206AB0F5803F05D16868A16820F40030A9
:1016600008436860D4E908010843696821F47411EB
:1016700008436860C6F86090FFF7DAFC044606E0AD
:1016800025E000BFFFF7D4FC001B022809D828681A
:101690008001F7D51BE000BFFFF7CAFC001B022842
:1016A00002D90320BDE8F88F28688001F4D40EE049
:1016B0000128F7D06868226A00F48031914204D191
:1016C000616A00F47010884201D00120EAE700202E
:1016D000E8E700000010024000004242800442425D
:1016E00020000020007000407047704710B590F84F
:1016F0003C20012A22D0012280F83C20CA688C6854
:1017000022F4407222434C6822F4806222430C6827
:1017100022F4006222430C6922F4805222434C6975
:1017200022F400522243C969002322F480420A4372
:1017300001684A6480F83C30002010BD022010BDD2
:1017400070B590F83C20012A2CD0012480F83C4050
:10175000022280F83D2003685A689D6822F07006D6
:101760000A6832435A60104B02689A420ED00F4BFF
:101770009A420BD0B2F1804F08D00D4B9A4205D05F
:101780000C4B9A4202D00C4B9A4204D1496825F086
:1017900080031943916080F83D40002180F83C109F
:1017A000084670BD022070BD002C0140003401408D
:1017B0000004004000080040000C004010B5040088
:1017C00003D094F83D0010B107E0012010BD0020C7
:1017D00084F83C00204600F01FF8022084F83D0009
:1017E000211D206801F03CFB012084F8460084F8AC
:1017F0003E0084F83F0084F8400084F8410084F8FB
:10180000420084F8430084F8440084F8450084F8DA
:101810003D00002010BD000008B5114A01681148C4
:10182000914208D1816941F400618161806900F4CD
:101830000060009008BD0C4A9142FBD1C16941F0A3
:101840000401C161C069002200F00400009005217C
:101850001E20FFF779FCBDE808401E20FFF766BC9C
:10186000002C0140001002400008004090F83D109C
:10187000012901D001207047022180F83D10016844
:10188000CA6842F00102CA6000680E4988420ED060
:101890000D4988420BD0B0F1804F08D00B498842E7
:1018A00005D00B49884202D00A49884204D1816898
:1018B00001F00701062903D0016841F00101016030
:1018C00000207047002C014000340140000400401B
:1018D00000080040000C004070B5044690F83C0041
:1018E0000025012817D0012684F83C60022084F8E6
:1018F0003D002068826822F0770222F47F428260F5
:101900000868502838D00DDC20284FD005DC90B373
:10191000102811D14AE0022070BD302846D040285E
:101920000AD13BE060282FD070280DD0B0F5805F41
:1019300003D0B0F5005F12D0012584F83D6000208F
:1019400084F83C00284670BDCB68D1E901212068AD
:1019500001F0D9FA2068816841F0770109E0CB688D
:10196000D1E90121206801F0CEFA2068816841F4B4
:1019700080418160E1E719E0CA684968206801F0A8
:1019800097FB5021206806E0CA684968206801F08A
:10199000A0FB6021206801F0C0FACEE7CA68496860
:1019A000206801F085FB40212068F4E722680146A9
:1019B0001046F0E72DE9F0410D46040003D094F8FD
:1019C0003D0018B108E00120BDE8F081002084F856
:1019D0003C00204600F040F8022084F83D002068DA
:1019E000816844F2070291438160211D206801F063
:1019F00037FA226890689169166A2B68AF690343C9
:101A000040F20330814341EA0721A868EF690843A7
:101A10004FF6FC418843E96840EA07200143286902
:101A20002F6A000140EA0730084369686D6926F0B3
:101A3000220646EA0515294393602268906154F80E
:101A4000460B0162012004F81F09E0752076E0765C
:101A50002077A0750020B7E710B586B00024009469
:101A600001940294039402682E492F48B2F1804FEA
:101A700022D02E4B9A421DD1CA6942F00202CA619D
:101A8000CA6902F0020204928A6942F004028A6181
:101A9000896901F004010491C02100916946FFF7B2
:101AA000C5F9002205211D20FFF74EFB5FF01D0048
:101AB000FFF73CFB06B010BDCA6942F00102CA61E3
:101AC000CA6902F0010204928A6942F004028A6142
:101AD0008A6902F0040204928A6942F008028A616B
:101AE000896901F0080104914FF4004100916946B1
:101AF000FFF79CF90820CDE9000469460C480294E0
:101B0000FFF794F90B48416821F4407141F0E0611E
:101B100041F480714160002205211C20FFF714FB75
:101B20001C20C5E7001002400008014000040040EE
:101B3000000C01400000014070B590F83E60044682
:101B400090F83F5090F8423090F84320022021B1A5
:101B500004290ED0012E1BD114E0012E18D1012B27
:101B600016D184F83E0084F842000122002120684A
:101B700020E0012D0CD1012A0AD184F83F0084F81D
:101B8000430014E0012D03D1012B01D1012A01D022
:101B9000012070BD84F83E0084F83F0084F84200C4
:101BA00084F8430001220021206801F09FF90122FE
:101BB0000421206801F09AF92068016841F00101D0
:101BC0000160002070BD70B590F83E60044690F84A
:101BD0003F5090F8423090F84320022021B1042970
:101BE00014D0012E25D11EE0012E22D1012B20D1AF
:101BF00084F83E0084F8420001220021206801F0B0
:101C000075F92068C16841F002012FE0012D10D163
:101C1000012A0ED184F83F0084F843000421206893
:101C200001F064F91EE0012D03D1012B01D1012A3D
:101C300001D0012070BD84F83E0084F83F0084F894
:101C4000420084F8430001220021206801F04EF98F
:101C500001220421206801F049F92068C16841F09F
:101C60000201C1602068C16841F00401C1602068C0
:101C7000016841F001010160002070BD704770B53E
:101C80000446006801694FF00005C943890715D46F
:101C9000C168C943890711D4E91E01610120207779
:101CA000206880698007204602D0FFF7E7FF04E044
:101CB00000F0BEF8204600F050F925772068016951
:101CC000C943490717D4C168C943490713D46FF002
:101CD00004010161022020772068806910F4407FB0
:101CE000204602D0FFF7CAFF04E000F0A1F820462A
:101CF00000F033F9257720680169C943090716D434
:101D0000C168C943090712D46FF0080101610420BA
:101D100020772068C0698007204602D0FFF7AEFF19
:101D200004E000F085F8204600F017F925772068D8
:101D30000169C943C90617D4C168C943C90613D488
:101D40006FF010010161082020772068C06910F44D
:101D5000407F204602D0FFF791FF04E000F068F8D2
:101D6000204600F0FAF8257720680169C943C907C1
:101D700008D1C168C943C90704D1891E0161204641
:101D800000F046F920680169C943090609D4C16811
:101D9000C943090605D46FF0800101612046FFF7B1
:101DA000A3FC20680169C943490609D4C168C94335
:101DB000490605D46FF040010161204600F0C2F9E8
:101DC00020680169C94389060BD4C168C9438906E3
:101DD00007D46FF0200101612046BDE87040FFF795
:101DE00084BC70BD00B585B00021009101910291C5
:101DF000039100680B49884212D10B48816941F078
:101E0000040181618069694600F0040004904FF488
:101E1000106000900220019003900448FFF706F83C
:101E200005B000BD002C0140001002400008014038
:101E3000704770B5044690F83C0000260D46012816
:101E40000FD0012084F83C006AB1042A1DD0082A72
:101E50002FD00C2A3FD00126002084F83C003046C9
:101E600070BD022070BD206801F060F820688169B3
:101E700041F0080181612068816921F004018161DC
:101E8000206881692A69114311E0206801F07EF819
:101E90002068816941F4006181612068816921F4D1
:101EA00080618161206881692A6941EA022181613A
:101EB000D2E7206801F0A0F82068C16941F008016C
:101EC000C1612068C16921F00401C1612068C16954
:101ED0002A69114311E0206801F0C2F82068C16945
:101EE00041F40061C1612068C16921F48061C16170
:101EF0002068C1692A6941EA0221C161ACE710B5D5
:101F0000040003D094F83D0010B107E0012010BD9B
:101F1000002084F83C00204600F01EF8022084F8DF
:101F20003D00211D206800F09BFF012084F8460041
:101F300084F83E0084F83F0084F8400084F84100B3
:101F400084F8420084F8430084F8440084F8450093
:101F500084F83D00002010BD7047704710B504465E
:101F6000022249B104290ED0082913D094F8410067
:101F7000012816D0012010BD94F83E000128F9D1A7
:101F800084F83E200FE094F83F000128F2D184F855
:101F90003F2008E094F840000128EBD184F840206D
:101FA00001E084F841200122206800F09FFF1349DE
:101FB0002068134A884201D0904203D1436C43F415
:101FC00000434364206888420DD090420BD0B0F1AA
:101FD000804F08D00B49884205D00B49884202D077
:101FE0000A49884204D1816801F00701062903D01B
:101FF000016841F001010160002010BD002C01408A
:10200000003401400004004000080040000C004083
:102010002DE9F041044600683A4986B0884201D172
:10202000FFF70CF838492068884267D1022000F099
:1020300075FE364C40422060032000F06FFE3449AC
:10204000DFF8D0800860D8F80010226846461144B6
:10205000314AC8F800101368184410600846FEF7AB
:102060008EFA01F0CDFEFEF793FA2C4D2D49286033
:102070002B480268284601F0ECF93068FEF77FFA39
:10208000294F3968FEF756F9FEF782FAFEF7D4FCBD
:10209000264E032802DA0021084612E02868FEF7DF
:1020A0006EFA30602068FEF76AFA01F075FEFEF7FE
:1020B0006FFA28601B49194800F0AAFB194801680B
:1020C000286800F0ADFD3868FEF79AFA07460D461D
:1020D0003068FEF795FA0246D8F800000297CDE97D
:1020E000035020680B46009011A1012001F0DEFE94
:1020F00005481030016821F00101016006B0BDE81B
:10210000F0810000002C01400008004090000020F9
:1021100094000020880000208C00002098000020FF
:10212000A00000209C00002028140020481400205B
:10213000252E32662C25642C252E32662C25640A29
:10214000000000007047704770470000F8B5016854
:1021500004460868CA684B6910F00F0F4FF000057D
:1021600059D003F0010602F49077374365D0C107D8
:1021700005D0D10503D5616C41F0010161644107CF
:1021800005D5D90703D0616C41F002016164810774
:1021900005D5D90703D0616C41F0040161640107E2
:1021A00007D502F02001314303D0616C41F00801F2
:1021B0006164616C00293AD0800604D5900602D58E
:1021C000204600F0C7FF20684069616CC0F38010B2
:1021D000090700D460B3204600F095FF20684069ED
:1021E000400621D52068143050E8001F21F040013E
:1021F00040E80012002AF5D1E06BA8B16D494163B7
:10220000E06BFEF769FD002811D0E06B416B01B077
:10221000BDE8F040084783060FD593060DD520464C
:10222000BDE8F84000F096BF2046FFF78DFFF8BDEF
:102230002046FFF789FF6564F8BD266B2023012E39
:102240007CD1C6067AD5D60678D50868486800904D
:1022500048694FF00206400640D5E16B08684068C7
:102260000004000CE8D0A28D8242E5D9E08588699F
:1022700020282DD020680C3050E8001F21F48071F8
:1022800040E80012002AF5D12068143050E8001F01
:1022900021F0010140E80012002AF5D12068143035
:1022A00050E8001F21F0400140E80012002AF5D15B
:1022B00084F84230256320680C3050E8001F21F07C
:1022C000100140E80012002AF5D1E06BFEF7E0FCB7
:1022D0006663A08DE18D401A81B22AE0A08DE18D68
:1022E000401A81B2E08D0028A6D00029A4D022682F
:1022F0000C3252E8000F20F4907042E80007002FE3
:10230000F5D12068143050E8002F22F0010240E897
:102310000027002FF5D184F84230256320680C3067
:1023200050E8002F22F0100240E80023002BF5D1E6
:1023300066632046FFF707FFF8BDFFE705062BD5CC
:10234000150629D594F841002128F5D1A068B0F5EB
:10235000805F01D12069B0B1206A411C21622168EF
:1023600000784860E08C401E0004000CE084E3D15B
:102370002068C16821F08001C1602068C16841F017
:102380004001C160D8E7206A0088C0F308004860B7
:10239000206A801C2062E5E74006CDD55006CBD5EB
:1023A000CA68204622F04002CA6084F8413000F03A
:1023B00092F9C1E7F730000870B5040004D094F832
:1023C0004100002510B106E0012070BD84F84050A6
:1023D000204600F023F8242084F841002068C168DA
:1023E00021F40051C160204600F016FF2068016909
:1023F00021F4904101612068416921F02A01416185
:102400002068C16841F40051C1606564202084F8EF
:10241000410084F842006563002070BDF0B585B0CE
:10242000002400940194029403940368424F022014
:1024300042490322424D4602BB4225D18B6943F4F7
:1024400080438B618B6903F4804304938B6943F071
:1024500004038B618969039201F004010491010274
:10246000CDE9001069462846FEF7E0FCCDE900649E
:10247000694628460294FEF7D9FC00220521252052
:10248000FEF762FE252028E02E4FBB4229D1CB6902
:1024900043F40033CB61CB6903F4003304938B69BD
:1024A00043F004038B618969039201F004010491F4
:1024B0000421CDE9001069462846FEF7B7FC082044
:1024C000CDE90004694628460294FEF7AFFC0022DD
:1024D00005212620FEF738FE2620FEF727FE05B050
:1024E000F0BD194DAB42FAD1CB6943F48023CB61E7
:1024F000CB6903F4802304938B6943F008038B6159
:102500008969124D01F00801CDE90321CDE9006090
:1025100069462846FEF78AFCE814CDE900046946BE
:1025200028460294FEF782FC002205212720FEF7B0
:102530000BFE2720D1E700000038014000100240C8
:10254000000801400044004000480040000C0140E9
:1025500090F84230202B01D00220704721B11AB1EF
:102560000023036300F0B4BE012070472DE9F04161
:1025700005462849006800268F15274C88421CD143
:1025800026492078A2780A54401CC0B22070084422
:1025900010F8011C0A290AD110F8020C0D2806D1E6
:1025A000267000F0FFFE39461C48FDF754FE1A491C
:1025B0000122891C1A48FFF7CBFF1A492868884274
:1025C00025D119496078E2780A54401CC0B2607085
:1025D000084410F8011C0A2910D110F8020C0D282B
:1025E0000CD1667011A11048FDF740FE11A10E48F4
:1025F000FDF73CFE39460C48FDF72DFEBDE8F041E5
:10260000054907480122C91C4830FFF7A1BFBDE8B2
:10261000F0810000003801400C0000201804002068
:102620001806002000440040180500206F75646102
:10263000666131006F756461666132002DE9F843AF
:10264000044690F841001F4616460D46202802D049
:102650000220BDE8F8837DB176B1002060642120BE
:1026600084F84100FEF7E4FCA6848046E684A06876
:10267000B0F5805F02D003E00120EAE7206910B1E5
:102680002E4600250EE000260CE08021204600F0BA
:102690003AFEA0B9AEB116F8010B21684860E08C93
:1026A000401EE084E08C43464FF000020097002873
:1026B000EBD14FF04001204600F025FE30B1032061
:1026C000C7E735F8020BC0F30800E6E7202084F8DE
:1026D00041000020BDE77047FEE70000124C134F99
:1026E000134D4FF0804600BF01F0AEFE01221149AC
:1026F0001148FFF72DFF00F0EBFA304600F022FB07
:102700002060384600F0D0FAFDF739FF286000F06D
:10271000BBFAFEF771F901F039FB002001F02EFF42
:1027200001F0B2FEE0E70000A00000200000A040A1
:10273000281400200E0000201806002070B5194D46
:10274000194C287840B1D4F8100150B1D4F80C01DC
:1027500038B1D4F8080120B1D4F81001012815D0FF
:102760001DE00A20FEF750FB00202870D4F810016D
:1027700030B1D4F80C0128B1D4F8080120B10EE032
:10278000012070BD022070BD032070BDD4F80C0183
:10279000012804D1D4F80801012800D128700020B4
:1027A00070BD00008400002000002342154C164E2E
:1027B000DFF8589000274FF001084FF4FA75308881
:1027C000012802D0022808D017E0C4F894712846E6
:1027D00001F094FBC4F894810CE0012220214846CA
:1027E000FEF720FC284601F089FB00222021484604
:1027F000FEF718FC284601F081FB012001F07EFB6A
:10280000DDE7000000802142100000200018014098
:1028100010B54FF4E15304685A429C4201DD036055
:1028200002E0944200DA02600868984201DD0B6021
:1028300010BD9042FCDA0A6010BD000010B596B0E1
:102840001C2211496846FDF7EDFC0021684601F0A5
:1028500061FB0E4C0C491C2220601C3107A8FDF7BF
:10286000E1FC002107A801F055FB074960601C222C
:1028700038310EA8FDF7D6FC00210EA801F04AFB66
:10288000A06016B010BD0000E44900080000002060
:102890002DE9F04385B000242D4800940194029462
:1028A0000394816941F040018161816901F0400137
:1028B0000491816941F004018161816901F00401A1
:1028C0000491816941F0080181618069DFF88480A9
:1028D00000F008000490002220214046FEF7A2FBF1
:1028E000DFF8749000224FF220014846FEF79AFB71
:1028F0000420CDE90004694640460294FEF796FAAA
:10290000182001258DE8310069464046FEF78EFA11
:102910002026022703970096CDE9015469464046D8
:10292000FEF784FA4FF47040CDE900056946484649
:10293000CDE90245FEF77AFA03970096CDE90154F6
:1029400069464846FEF772FA05B0BDE8F08300001C
:102950000010024000180140000C014010B596B074
:1029600000240F9410941194129413941C2168461F
:102970001494FDF770FC202107A8FDF76CFC2C488F
:102980002A49C0E9001441F61F41C0E9024104612F
:1029900044618461FEF712FF08B1FEF74BF84FF473
:1029A00080500F900FA92248FEF796FF08B1FEF75E
:1029B00041F81F48FFF7A3FA08B1FEF73BF813945C
:1029C00013A91B481494FEF7BBFE08B1FEF732F8BA
:1029D0006020CDE90004029403940494059400223D
:1029E000694613480694FFF724FA08B1FEF722F867
:1029F0000C2269460E48FFF71CFA08B1FEF71AF8D8
:102A00000794089409944FF400500A94CDE90B40C0
:102A100007A907480E94FEF769FE08B1FEF70AF809
:102A20000348FFF7DFF916B010BD0000002C01408D
:102A3000F802002010B58CB024216846FDF70BFC8D
:102A40000024164809944FF080410A94C0E900140C
:102A50004FF6FF71C0E90241046184610320CDE9B2
:102A600000040120CDE902040A210491CDE90540CA
:102A7000CDE9074169460948FEF79CFF08B1FDF71B
:102A8000D9FF099409A905480A94FEF759FE0028C0
:102A900001D0FDF7CFFF0CB010BD000040030020B7
:102AA00010B58CB024216846FDF7D5FB00241648EC
:102AB000099414490A94C0E900144FF6FF71C0E963
:102AC0000241046184610320CDE900040120CDE9C5
:102AD00002040A210491CDE90540CDE90741694688
:102AE0000948FEF767FF08B1FDF7A4FF099409A99B
:102AF00005480A94FEF724FE002801D0FDF79AFF4E
:102B00000CB010BD000400408803002010B586B052
:102B100000241748009401940294039404941349E8
:102B2000059401606321C0E9011441F61F41C0E929
:102B300003148461FEF742FE08B1FDF77BFF4FF4FA
:102B40008050009069460A48FEF7C6FE08B1FDF7BE
:102B500071FF049404A906480594FEF7F1FD0028CE
:102B600001D0FDF767FF06B010BD0000000800406F
:102B7000D00300200C4810B50A4901604FF4E13140
:102B80004160002181600C22C160C0E904128161B2
:102B9000C161FFF711FC002803D0BDE81040FDF72C
:102BA00049BF10BD00380140180600200C4810B580
:102BB0000A4901604FF4E1314160002181600C223B
:102BC000C160C0E904128161C161FFF7F5FB002813
:102BD00003D0BDE81040FDF72DBF10BD00440040FC
:102BE000600600200C4810B50A4901604FF4E1313D
:102BF0004160002181600C22C160C0E90412816142
:102C0000C161FFF7D9FB002803D0BDE81040FDF7F4
:102C100011BF10BD00480040A8060020FEE70000DC
:102C200070B50124164A174D0023002804DDC2F8B0
:102C3000B041C2F8B43104E0C2F8B031C2F8B441D6
:102C400005D0FDF7F9FE2E68B430706301E0286806
:102C50004363002904DDC2F8B841C2F8BC3104E086
:102C6000C2F8B831C2F8BC4106D00846FDF7E4FE10
:102C70002968B430086470BD2868036470BD000022
:102C800000802142F802002010B500210448FFF71F
:102C900065F9BDE810400C210148FFF75FB900005D
:102CA000F8020020FEE7000010B5FDF7A9FC0022A5
:102CB000054BFDF783FB0022044BFDF77FFBBDE8CE
:102CC0001040FDF77EBC00000000464000003E4082
:102CD0000C4900200C4A086048608860C1E9030282
:102CE0000A4AC1E906200A4A4A612031094A0860B5
:102CF000486088600861C860C8610748C1E905206C
:102D00007047000028140020CDCC8C3F6F12833A0E
:102D10000AD7233C00009643000060410246002091
:102D20000146022A07D0032A04D104480268506AE7
:102D3000516200B270470248F8E7000088030020A3
:102D40004003002010B5FDF75BFC0022074BFDF7A8
:102D500035FB0022064BFDF731FB0022054BFDF74A
:102D60009FFBBDE81040FDF72CBC00000000464072
:102D700000003E40000059400125094C5FF002066A
:102D8000FFF7DCFC38B1012802D0022802D002E0B3
:102D9000258000E02680012001F0B0F8F0E7000077
:102DA0001000002010B5502080F31188BFF34F8F22
:102DB000BFF36F8F01F050FD18B104494FF0805000
:102DC0000860002080F3118810BD000004ED00E0D1
:102DD00030B58FB028216846FDF73DFA14210AA8C6
:102DE000FDF739FA01210804CDE90010002402940E
:102DF00002250491CDE907504FF4E0100990684690
:102E0000FEF7E2FA08B172B6FEE70F20CDE90A0537
:102E10004FF48060CDE90C4002210AA80E94FEF721
:102E2000D7F9002801D072B6FEE70FB030BD704769
:102E30000148FEF724BF0000400300200148FEF7D0
:102E40001EBF0000880300200148FEF718BF0000E5
:102E5000D00300200148FEF712BF0000F00600205A
:102E6000F0B502681C4B1D4D1D4E1E4F1E4C4FF001
:102E7000804C984209D0A04207D0604505D0A842B6
:102E800003D0B04201D0B84204D122F0700E4A689B
:102E900042EA0E02984209D0A04207D0604505D010
:102EA000A84203D0B04201D0B84203D122F4407509
:102EB000CA682A434D6922F080022A4302608A6868
:102EC000C2620A688262984201D0A04201D10969B7
:102ED000016301214161F0BD002C0140000400406C
:102EE00000080040000C00400034014010B501F023
:102EF0001F030121046A99408C430462016A9A40CD
:102F00001143016210BD10B5846842EA032224F423
:102F10007F440A432243826010BD826822F070021F
:102F20000A4342F00701816070470000F0B5036A70
:102F3000026A22F00102026242688469124E24F0A1
:102F400073050C682C4323F002058B682B430D4D51
:102F5000A84201D0B04205D123F00807CB683B431B
:102F600023F00403A84201D0B04205D14D6922F4F8
:102F7000407215438A692A4342608461496841630B
:102F80000362F0BD002C014000340140F0B5026A3C
:102F9000036A23F010030362436884690D6824F414
:102FA000E64444EA05248D6822F0200242EA051234
:102FB0000F4D104EA84201D0B04206D1CF6822F08A
:102FC000800242EA071222F04002A84201D0B04239
:102FD00007D14D6923F4406343EA85038D6943EAD1
:102FE000850343608461496881630262F0BD00002B
:102FF000002C014000340140F0B5026A036A23F45A
:10300000807303624368C46922F4007224F073057C
:103010000C68124E2C438D6842EA05220E4DA842E0
:1030200001D0B04206D1CF6822F4006242EA072202
:1030300022F48062A84201D0B04207D14D6923F446
:10304000405343EA05138D6943EA05134360C461A5
:103050004968C1630262F0BD002C014000340140A8
:1030600030B5046A026A22F4805202624268C3697F
:103070000D6823F4E64343EA05238D6824F40054E5
:1030800044EA0534084DA84202D0084DA84204D1B4
:103090004D6922F4804242EA85124260C361496868
:1030A0000164046230BD0000002C01400034014086
:1030B00010B5036A046A24F001040462846924F0F0
:1030C000F00444EA021423F00A020A438461026213
:1030D00010BD10B5036A046A24F010040462846908
:1030E00023F0A00324F4704444EA023243EA0111BD
:1030F0008261016210BD10B5406A0021C185C184A2
:10310000FFF722F810BD01680C3151E8002F22F4BE
:10311000907241E80023002BF5D10168143151E889
:10312000002F22F0010241E80023002BF5D1016BB2
:10313000012909D101680C3151E8002F22F0100259
:1031400041E80023002BF5D1202180F84210002116
:103150000163704708B590F84210222901D002207F
:1031600008BD82684FF480539A4201D1016921B1B0
:10317000816A9A421BD04AB10AE00268816A5268A9
:10318000C2F308020A80816A891C08E0026972B1F0
:103190000268526802F07F020A70816A491C8162EB
:1031A000C18D491E0904090CC18503D01BE00268CA
:1031B0005268F1E70168CA6822F02002CA6001681B
:1031C000CA6822F48072CA6001684A6922F001026A
:1031D0004A61202180F8421000214163026B012ADC
:1031E00003D0FFF7C3F9002008BD016301680C316B
:1031F00051E8002F22F0100241E80023002BF5D106
:1032000001680A68D20602D50A6849680091818D72
:10321000FEF799FFE7E7000070B504460068016912
:10322000E26821F44051114301612169A06808431B
:10323000616908432168CA6841F20C639A430243FA
:10324000CA6020684169A26921F44071114341615B
:103250001E492068884202D1FEF780F801E0FEF79F
:103260006DF800EBC00101EB001260686421800082
:10327000B2FBF0F3B3FBF1F36FF018067343B2FB4C
:10328000F0F5B2FBF0F605EB8305322303EB0515F1
:10329000B5FBF1F5B6FBF1F605F0F00505EB06150B
:1032A000B2FBF0F6B2FBF0F0B0FBF1F06FF01802F9
:1032B000504306EB800003EB0010B0FBF1F02168F7
:1032C00000F00F002844886070BD00000038014005
:1032D00081628285C28500214164222180F84210EA
:1032E000016921B10168CA6842F48072CA6001684C
:1032F0004A6942F001024A610068C16841F0200158
:10330000C160002070472DE9F041984617460E46EF
:103310000446069D27E0681C25D02DB1FDF788FEE8
:10332000A0EB0800A8421ED920680C3050E8001F0E
:1033300021F4D07140E80012002AF5D12068143041
:1033400050E8001F21F0010140E80012002AF5D1E9
:10335000202084F8410084F84200002084F84000D6
:103360000320BDE8F0812068006836EA000004D040
:103370000020B842CFD00020F3E70120F9E7000099
:103380000148FEF7E3BE0000180600200148FEF7E2
:10339000DDBE0000600600200148FEF7D7BE000039
:1033A000A806002010B5FDF74BFB2649264C274BFD
:1033B0000A78502A19D0492A27D0442A2FD0532AD4
:1033C00035D0502A14D0492A22D0442A2AD0502A53
:1033D00011D0522A16D14878452813D1887853281D
:1033E00010D1BDE81040FDF7E1BE4A78312A0AD07D
:1033F0004A78322A23D04A786F2A03D189787329F0
:1034000000D1186010BD206110BD4A78312A04D067
:1034100049783229F8D1986110BD606110BD4A78B1
:10342000312AFAD049783229F8D1D86110BD4A78CA
:10343000702AFBD189786529F8D1206010BD5861C8
:1034400010BD00001804002028140020481400209B
:10345000FEE710B50368934200DD02600468534242
:103460009C4200DA03600868904200DD0A60086848
:10347000984200DA0B6010BD7CB50C001D46164664
:10348000014601D0601E00E00020CDE90010064B8F
:103490006A462946304600F0EBF8002C02D0009A2C
:1034A000002111707CBD0000773D00080907090E5E
:1034B000002804DB00F1E02080F80014704700F0E1
:1034C0000F0000F1E02080F8141D704702E008C8EA
:1034D000121F08C1002AFAD170477047002001E08E
:1034E00001C1121F002AFBD1704700002DE9FF5FC8
:1034F00082B00021DDE90430020DDDF840B0034365
:1035000018D044F61050A2F2FF324243151411981D
:1035100001281FD0A5EB0B00401C5FEA000A4FF00A
:1035200000064E4FDFF83891B046504615D5CAF127
:10353000000413E0119801244AA3012801D16FEA85
:103540000B010298119AC0E90031C0E9024206B0AD
:10355000BDE8F09FCBF10000DFE704460021404AC0
:10356000491842EB0450CDE9001012E0E00707D003
:1035700032463B4640464946FCF720FF8046894696
:1035800032463B4610461946FCF718FF06460F46E2
:103590006410002CEAD1DDE90401DDE90023BAF171
:1035A000000F06DAFCF70AFF42464B46FCF706FF1F
:1035B00005E0FCF775FF42464B46FCF771FF0446F9
:1035C0000E460022284BFDF7C9F903D84FF0FF3013
:1035D000014607E00022254B20463146FDF7FEF864
:1035E000FDF7A3F9102409E0002C0ADB0A220023CE
:1035F000FDF72FF8039B30321A55641E50EA010282
:10360000F2D1641C039AC4F111031444119A012AE3
:1036100003D0012208430DD10AE0084304D0002062
:103620004FF0110B119072E7A3EB0B056D1E0DE02F
:103630005B4504DD4FF0000205F1010504E003DA0B
:103640004FF00002A5F10105002AECD00298119973
:10365000C0E90231C0E9004579E7000000001440EC
:103660000000F03F300000000000F0430000E03FA9
:103670002DE9FF4F95B09A46884606460025EEE1B3
:10368000252877D100242746F94A0121039400E038
:10369000044316F8013F203B01FA03F01042F7D132
:1036A00030782A2811D06FF02F033078A0F1300243
:1036B000092A16D8039A44F0020402EB820203EBB3
:1036C00042021044761C0390EFE758F8042B039253
:1036D000002A03DA504244F40054039044F00204F8
:1036E000761C30782E2816D116F8010F44F0040409
:1036F0002A280DD06FF02F023078A0F13003092B6B
:1037000009D807EB870302EB4303C718761CF3E7DE
:1037100058F8047B761C30786C280FD006DC4C28D7
:1037200017D068280DD06A2814D104E0742810D06E
:103730007A280FD10DE044F400140AE044F4801418
:1037400001E044F440147278824202D104F58014FE
:10375000761C761C307866280BD013DC582877D07E
:1037600009DC002875D04528F6D04628F4D0472833
:103770001AD193E118E0632835D0642879D0652800
:1037800012D18BE1702873D008DC6728F1D069284A
:103790006FD06E280DD06F2806D1ACE073282CD0E6
:1037A000752874D0782853D05246179990476D1CCD
:1037B00054E1C4F30250022809D003280DD0D8F8F0
:1037C000001004280DD00D6008F1040846E1D8F877
:1037D0000010EA17C1E90052F6E7D8F800100D8092
:1037E000F2E70D70F0E718F8041B8DF800100020C8
:1037F0008DF80100EB46012003E058F804BB4FF0C0
:10380000FF3061074FF0000102D40DE009F1010122
:103810008946B9420FDA8145F8DB1BF80910002907
:10382000F4D108E009F1010189468142FADB1BF875
:1038300009100029F6D103985346A0EB0907214649
:103840003846179A00F080FA284400EB090507E093
:1038500044E008E10DE01BF8010B52461799904730
:10386000B9F10109F7D2534621463846179AF2E0DA
:1038700039E00A21C4F302524FF0000B0091022AF2
:1038800006D058F8040BC117032A09D00AE023E038
:1038900008F1070020F00702F2E80201904605E077
:1038A00000B2C117042A01D140B2C117002906DABB
:1038B0000A460021404261EB02012D2202E022056E
:1038C00004D52B228DF80420012203E0E20701D069
:1038D0002022F7E7914657E00A2100E010214FF03F
:1038E000000B00910BE010214FF0000B44F004049A
:1038F0000827009103E008204FF0000B0090C4F36C
:103900000252022A05D058F8040B0021032A08D0DD
:1039100008E008F1070020F00702F2E802019046F3
:1039200003E080B2042A00D1C0B24FF000092207A0
:103930002AD53278702A07D0DDF800C08CF0100C40
:103940005CEA0B0C05D00EE040228DF80420012229
:1039500008E050EA010306D030238DF804308DF8DA
:10396000052002229146009B83F0080353EA0B03D3
:103970000AD150EA010201D1620705D530228DF843
:1039800004204FF001097F1E3278582A04D039A252
:103990000C920CAA02920BE03BA2F9E75B46009A5C
:1039A000FCF757FE0C9B9B5C029A521E029213700E
:1039B00050EA0102F2D1029804A9081A00F1200B82
:1039C000600702D524F4803400E001275F4502DD62
:1039D000A7EB0B0000E0002000EB0B010090039828
:1039E0004944401A0390E00306D453462146179AEF
:1039F000039800F0A9F90544002706E001A8524603
:103A0000C05D179990476D1C7F1C4F45F6DBE003A6
:103A10000CD553462146179A039800F095F90544B2
:103A200004E030205246179990476D1C0099481EBB
:103A300000900029F5DC08E00298029952460078CF
:103A4000491C0291179990476D1CBBF10001ABF125
:103A5000010BF1DC5BE100F065F90544761C307880
:103A600000287FF40DAE19B02846BDE8F08F0000A5
:103A70000928010030313233343536373839616244
:103A80006364656600000000303132333435363708
:103A9000383941424344454600000000600700D4E5
:103AA000062708F1070020F00700F0E8022380460F
:103AB00003F0004C5FEA0C0001D097A009E020055C
:103AC00001D596A005E0E00701D095A001E0AFF296
:103AD0004C001390307823F0004365280CD006DCAE
:103AE000452809D046281DD047287FD13BE06628CD
:103AF00018D067287AD136E00021112F01DB112080
:103B000000E0781CCDE9000104A90CA8FFF7EEFC49
:103B1000DDE90D010C9A4FF0000B07F1010910923D
:103B200000914EE04FF000400097CDE9011004A94C
:103B30000CA8FFF7DBFCDDE90D020C9B0F994FF0A1
:103B4000000B91461093009211B9791C00EB01090A
:103B5000B7EB090003D4C0F1FF3B07F10109A9EB62
:103B60000700019042E0012F00DA01270021112F08
:103B700001DD112000E03846CDE9000104A90CA8C0
:103B8000FFF7B4FCDDE90D010C9A00914FF0000B3A
:103B9000B946109221070FD4009A4A4503DA91469C
:103BA00001E0A9F10109B9F1010F05DD109AA9F1B0
:103BB0000101515C3029F4D0B84202DA10F1040F4F
:103BC00003DA0121CDE9011010E0002803DC834471
:103BD000A9EB000102E0411C494500DD8946A0EB4C
:103BE0000B00401C01904FF000400290200705D4CC
:103BF0000198484502DB4FF0FF30019000208DF81E
:103C00004B0002980DF14B07B0F1004F25D0022078
:103C10000C902B200D90029800280CDA4042029064
:103C20002D200D9007E00A210298FCF7FCFC3031B2
:103C3000029007F8011D0C99481E0C900029F2DC37
:103C400002980028EFD1791E0D980870307800F0A6
:103C5000200040F0450007F8020D11A8C01BC01D50
:103C600002901398007800B1012000EB090101983F
:103C700001EBE071029801440398401A401E039042
:103C8000E00306D453462146179A039800F05CF8E7
:103C900005441398007818B15246179990476D1C47
:103CA000E00323D553462146179A039800F04CF8B9
:103CB00005441BE0BBF1000F07DB0098584504DD0D
:103CC0001098179910F80B0001E017993020524610
:103CD000904701980BF1010B401E05F10105019081
:103CE00004D12E205246179990476D1CB9F100015E
:103CF000A9F10109DEDC05E017F8010B524617991E
:103D000090476D1C0299481E02900029F4DC53462E
:103D10002146179A03989EE62D0000002B00000014
:103D2000200000002DE9F041044600251E461746FC
:103D3000880404D405E039462020B0476D1C641E79
:103D4000F9D52846BDE8F0812DE9F041044600256B
:103D50001E469046C80301D5302700E0202788047E
:103D600004D505E041463846B0476D1C641EF9D5C0
:103D70002846BDE8F0814A68002A06D00A68531C2C
:103D80000B6010704868401E486070470148FDF79E
:103D90006DBD0000D00300202DE9F041174C2168D3
:103DA000FCF7CBFAA060E568064601212846FCF73F
:103DB000F9FA3146FCF7C1FA2169FCF769FAE169C1
:103DC000FCF7BEFA07463146A069FCF7B9FA80460F
:103DD00029463046FCF7AEFA6169FCF7B1FA414674
:103DE000FCF756FA3946FCF753FA01466068FCF7CF
:103DF0004FFA6060C4E90365BDE8F0814814002013
:103E00002DE9F041164C2168FCF797FAA060E269B1
:103E1000054601461046FCF73BFA1249E06188422C
:103E200002DA1149884200D3E1612846E168FCF7D3
:103E300081FAA169FCF784FA0646E1696069FCF73A
:103E40007FFA074629462069FCF77AFA3946FCF7DB
:103E50001FFA3146FCF71CFAE5606060BDE8F081AE
:103E6000281400200000E1450000E1C5FDF7EEF850
:103E7000FEF7AEFFFEF70CFDFEF77CFEFEF796FEAA
:103E8000FEF7B0FEFEF7D6FDFEF70AFEFEF73EFE99
:103E9000FEF764FDFEF7D2FC00F037F8FEE70146BE
:103EA0000020842900D0C81C704700000FB44FF4D4
:103EB000007110B5ADF5007D044684AB6846839A69
:103EC000FFF7DAFA82B24FF47A73012C06D0022C93
:103ED00008D0032C0BD16946074806E0064869461E
:103EE000903802E0044869464838FEF7A7FB0DF514
:103EF000007D10BC5DF814FBA806002010B500B9C9
:103F0000012000F015FB002010BD10B500F08CFB67
:103F1000002010BD7FB50D4604464169B0F9080088
:103F200081B1A16971B1FFF7BAFFD4E905128DE83B
:103F30000700D4E900102B46226900F062FC0390D0
:103F400004B070BDFFF7ABFF03A9CDE90001208AE3
:103F50002B4682B2D4E9001000F026FC012801D0E3
:103F60000020EDE70398EBE72DE9F041184C0F46F0
:103F7000054666692068001D00F016FA38B9206809
:103F800090F82C1001208840A1698143A161681C30
:103F900007D137B12168BDE8F0410E48091D00F096
:103FA00047BA20683544B5424560216805D2A0680B
:103FB000BDE8F041091D00F023BA6068091D00F05A
:103FC0001FFA206B854200D22563BDE8F081000016
:103FD00024000020140800202DE9F041054600F0DF
:103FE00033FA2E4C2069401C206120682C4F10B100
:103FF000E06940B32DE025602069012829D1002621
:1040000006EB860007EB800000F0ECF9761C072E2B
:10401000F6D323488C3000F0E5F92148A03000F0B9
:10402000E1F91F48B43000F0DDF91D48C83000F058
:10403000D9F91B48DC3000F0D5F919488C306060A4
:104040001430A06005E02068E96AC06A884200D8A0
:104050002560E06A401CE062E96A0120A2698840AC
:104060001043A06101EB810007EB8000291D00F0E7
:10407000DFF900F009FAE06900280CD02068E96A4D
:10408000C06A884207D207494FF080500860BFF3EA
:104090004F8FBFF36F8FBDE8F08100002400002038
:1040A0003807002004ED00E010B5044690F85100F8
:1040B00058B101280CD002280FD0502080F311886D
:1040C000BFF34F8FBFF36F8FFEE7206B00F0F0F967
:1040D0002046BDE8104000F0EBB910BD10484FF489
:1040E0004061420706D0C01D0D4920F00700411A6B
:1040F000C1F540610B4A00230144C2E900030839BD
:10410000103A21F0070111604B600B600B1AC0E9F7
:10411000001393604FF000405360D0607047000080
:104120002808002070000020144E154CA6F1C80786
:104130004FF08058DFF84C9012E000BF00F084F997
:10414000F068C568281D00F02FF92069401E206125
:10415000E068401EE06000F097F92846FFF7A4FFF2
:10416000E0680028EAD138680128F9D9C9F8008048
:10417000BFF34F8FBFF36F8FF2E7000000080020FE
:104180002400002004ED00E02DE9F0479A46DDE927
:10419000098481466FF00303206B03EB8202104415
:1041A000089D20F00706700707D0502080F3118883
:1041B000BFF34F8FBFF36F8FFEE723180A5C83F8BE
:1041C00034200A5C12B1401C1028F6D3002784F872
:1041D0004370072D00D30625E562C4E91157201D61
:1041E00000F00BF904F1180000F007F92461C5F1A3
:1041F00007006462A061E76484F850705246494643
:10420000304600F0BFF82060B8F1000F01D0C8F8C8
:104210000040BDE8F087000030B5114900E01146CC
:104220000A688242FBD34B685C18844203D1406821
:1042300018444860084643681C18944209D1084C49
:10424000103C2468A24209D052681A4442600A68AD
:1042500012680260814200D0086030BD0460F9E756
:104260007000002006484168096829B14168C968A2
:10427000C9684968016370474FF0FF31FAE70000F1
:104280002400002008484068401C4FF0500080F394
:10429000118804D0BFF34F8FBFF36F8FFEE7BFF3DA
:1042A0004F8FBFF36F8FFEE7780000202DE9F041BC
:1042B0000546002700F0EEF9314E306808B9FFF7E7
:1042C0000DFFF06805424BD1C5B3083568070ED025
:1042D00005F00700C0F108000544680707D050202A
:1042E00080F31188BFF34F8FBFF36F8FFEE72DB3BD
:1042F0007068854234D82248103001460C6801E0CD
:1043000020460C466168A94202D221680029F7D1F3
:1043100031688C4224D007682168016060680837E2
:10432000411B10290FD96019420708D0502080F393
:104330001188BFF34F8FBFF36F8FFEE710E041602E
:104340006560FFF769FF61687068401A7060B26865
:10435000904200D2B060F06801430020C4E900013F
:1043600000F0DEFA780707D0502080F31188BFF301
:104370004F8FBFF36F8FFEE73846BDE8F081000036
:104380006000002010B5031F4FF080741C601B1FDD
:1043900021F001011960191F024B0B6014394038DC
:1043A0000A6010BD85420008D0E9013201699A60B7
:1043B000D0E901235A604A68824201D182684A608A
:1043C000002202610868401E08600868704700000B
:1043D000034B036003F154000860802010607047B5
:1043E000A400002000F108014FF0FF32C0E90112E3
:1043F000C1600161002101607047002101617047C7
:1044000030B50B685A1C02D000F1080202E00269C4
:1044100004E02246546825689D42FAD953684B60EF
:1044200099608A60516008610168491C016030BD73
:1044300042684A6093688B60936859609160086134
:104440000168491C01607047502080F31188BFF358
:104450004F8FBFF36F8F0A494868401C486001289E
:104460000CD10848006810F0FF0F07D0502080F3EF
:104470001188BFF34F8FBFF36F8FFEE770470000C7
:104480007800002004ED00E00849486828B1401E8B
:10449000486001D180F311887047502080F3118863
:1044A000BFF34F8FBFF36F8FFEE70000780000204F
:1044B00070B5002827D0144DA0F108046168E868A1
:1044C000014207D1502080F31188BFF34F8FBFF313
:1044D0006F8FFEE722683AB1502080F31188BFF356
:1044E0004F8FBFF36F8FFEE78143616000F0D2F81A
:1044F00060686968084468602046FFF78DFEBDE883
:10450000704000F00DBA70BD600000204FF0E02058
:1045100000210161816105494FF47A720968B1FB9C
:10452000F2F1491E4161072101617047200000201E
:1045300010B5020014D00F48806B38B1502080F3C2
:104540001188BFF34F8FBFF36F8FFEE700F0A2F823
:1045500000211046FFF708FD00F0E2F9002807D11E
:1045600005494FF080500860BFF34F8FBFF36F8F46
:1045700010BD00002400002004ED00E070B50546E9
:10458000FFF762FF254C05B92568281DFFF70CFFD2
:1045900058B9E86A224A00EB800152F8211021B98B
:1045A00001218140A0698843A061A86A18B105F182
:1045B0001800FFF7F9FEE06A401CE06220688542BF
:1045C00008D11748291DC830FFF732FFE068401CAA
:1045D000E06007E02069401E20612846FFF764FD87
:1045E000FFF740FEFFF750FFE069002814D0206875
:1045F000854211D1A06B38B1502080F31188BFF3F0
:104600004F8FBFF36F8FFEE706494FF08050086071
:10461000BFF34F8FBFF36F8F70BD000024000020E9
:104620003807002004ED00E010B586B000240394A4
:1046300005AA04A903A80494FFF7CAFEDDE9030153
:104640000094CDE9011000230EA11048059A00F056
:10465000D8F80F490028486311D0502080F3118802
:10466000BFF34F8FBFF36F8F4FF0FF300863012010
:10467000C8614C6106B0BDE8104000F041B806B01A
:1046800010BD000049444C450000000029410008CD
:10469000240000200248816B491C816370470000A0
:1046A000240000201448816B11B101214162704740
:1046B000002141628169B1FA81F1C1F11F0101EB71
:1046C00081020E4951F822306BB101EB820101F1F8
:1046D00008034A6852684A609A4201D152684A60A7
:1046E000D16801607047502080F31188BFF34F8F6D
:1046F000BFF36F8FFEE70000240000203807002082
:104700001CB5264908780190FF20087008788DF8BC
:1047100000009DF800009DF8002000F0F00090429D
:1047200007D0502080F31188BFF34F8FBFF36F8FF6
:10473000FEE79DF800001A4B00F0500018700720AB
:10474000986005E09DF8002052008DF80020401E82
:104750009DF800201206F5D49860032807D0502059
:1047600080F31188BFF34F8FBFF36F8FFEE74FF4D5
:1047700040709860019808700A48016841F470011F
:104780000160016841F070410160FFF7BFFE002049
:104790005860FBF7EBFC00201CBD000000E400E0CB
:1047A0007800002020ED00E02DE9FF5F8346DDE981
:1047B0000E87994616468A469000FFF777FD05005A
:1047C0001CD05420FFF772FD040014D00020256394
:1047D00084F85100CDE90240CDE900874B463246CE
:1047E00051465846FFF7D0FC2046FFF7F5FB012065
:1047F00004B0BDE8F09F2846FFF75AFE4FF0FF30A7
:10480000F6E7F0B585B0DDE90B640A9DA6B1DCB131
:10481000542700972663022684F85160002604AFCF
:10482000CDE90246CDE90057FFF7AEFC2046FFF781
:10483000D3FB049805B0F0BD502080F31188BFF37E
:104840004F8FBFF36F8FFEE7502080F31188BFF3C7
:104850004F8FBFF36F8FFEE72DE9F0412E4C0027FD
:10486000A06B40B1206A401C2062606A00B1012741
:104870003846BDE8F0816669761C666113D16068D0
:10488000006838B1502080F31188BFF34F8FBFF319
:104890006F8FFEE76068A1686160A060A06A401C3D
:1048A000A062FFF7DFFC206BDFF87080864209D33F
:1048B0006068006880B16068C068C56868688642E2
:1048C0000DD220632068C06A00EB800158F82100F7
:1048D0000128CAD90127C8E74FF0FF30F1E7281DAA
:1048E000FFF762FDA86A18B105F11800FFF75CFD3B
:1048F000E86A0121A26981401143A16100EB8001B6
:1049000008EB8100291DFFF793FDE86A2168C96A59
:104910008842CDD30127CBE72400002038070020B0
:104920002DE9F0472C4D00242746A86B38B1FFF73E
:104930008BFDA86B401EA863A86B40B146E05020D9
:1049400080F31188BFF34F8FBFF36F8FFEE72969A4
:10495000224E0120D1B3A6F1B40980463068E8B1F7
:10496000F068C46804F11800FFF71EFD201DFFF772
:104970001BFDE06AAA6908FA00F11143A96100EB86
:10498000800109EB8100211DFFF752FDE06A2968D3
:10499000C96A8842E2D3C5F82480DFE70CB1FFF78B
:1049A00061FC2C6A44B14646FFF756FF00B16E62C7
:1049B000641EF9D100202862686A38B108490127CD
:1049C00038070860BFF34F8FBFF36F8FFFF75CFDB1
:1049D0003846BDE8F087000024000020EC070020E6
:1049E00004ED00E07C4A0008DD260008000000001D
:1049F0000000000080000000000000000000000037
:104A0000704A0008AD270008FDFF0000000000000C
:104A1000000100000000000000000000644A0008DF
:104A2000792D0008FDFF00000000000000010000DB
:104A30000000000000000000010202030405060758
:104A400008090A0B0C0D0E0F1010000000000000EA
:104A5000000001020304060708090000000001022B
:104A6000030400006D795461736B4B4559000000DD
:104A70004C45445F5461736B00000000496E6974DB
:104A80005F5461736B000000A84A0008000000201A
:104A9000A4000000CC3400084C4B0008A400002007
:104AA000C4170000DC340008000000000000000013
:104AB00000000000000000000000000001000000F5
:104AC00010000000000000000024F40000000000BE
:104AD00000000000000000000000000000000000D6
:104AE00000000000000000000000000000000000C6
:104AF00000000000000000000000000000000000B6
:104B000000000000000000000000000000000000A5
:104B10000000000000000000000000000000000095
:104B200000000000AAAAAAAA0000000001000000DC
:104B30000000000000000000000000000000000075
:0C4B400000000000000000000000000069
:0400000508000131BD
:00000001FF
