:020000040800F2
:1000000010050020490100083B2000081B1F0008C4
:1000100039200008110A00085D22000800000000D5
:10002000000000000000000000000000BF200008E9
:100030004B0A000800000000BD200008C120000895
:100040006301000863010008630100086301000800
:1000500063010008630100086301000863010008F0
:10006000630100086301000863010008150A000825
:1000700063010008630100086301000863010008D0
:1000800063010008630100086301000863010008C0
:1000900063010008630100086301000863010008B0
:1000A00063010008630100086301000863010008A0
:1000B0006301000863010008630100086301000890
:1000C0006301000863010008630100086301000880
:1000D0006301000863010008630100086301000870
:1000E0006301000863010008630100086301000860
:1000F0006301000863010008630100086301000850
:10010000630100086301000863010008630100083F
:10011000630100086301000863010008630100082F
:10012000630100086301000863010008630100081F
:10013000DFF810D000F096FB00480047652B000860
:10014000AFF30080100500200648804706480047AE
:10015000FEE7FEE7FEE7FEE7FEE7FEE7FEE7FEE777
:10016000FEE7FEE73F21000831010008202A04DBFA
:10017000203A21FA02F00021704721FA02F3D04020
:10018000C2F120029140084319467047D2B201E003
:1001900000F8012B491EFBD270470022F6E710B58C
:1001A00013460A4604461946FFF7F0FF204610BDE5
:1001B000F0B480EA0102D40F4200B2EB410F02D248
:1001C0000246084611464A0042D0C30DDDB2C1F3D3
:1001D000C752AD1A202D35DAC1F3160141F40002E1
:1001E00004B15242C5F1200602FA06F12A41104438
:1001F000B3EBD05F23D0C4B1012DA0EBC35009DC19
:10020000F0BC4FF0004202EAC352DBB200F500003E
:1002100000F057B9400000F1807000EBC350A0F12E
:10022000807040EAD170490009E0490841EAC07194
:10023000A0EBC35000F50000400800EBC350F0BC39
:1002400000F036B96142012202EB4101001BF6E7E2
:10025000F0BC704781F00041AAE780F00040A7E7BA
:1002600080EA010210B502F00043400022D04A00AB
:100270001FD0010E01EB1261C0F35600C2F356020B
:1002800040F4000042F40002A0FB022000047F3989
:10029000140400D0401C50EA124001D44000491E12
:1002A000C2B20C0604EBD010401C4008802A02D0D9
:1002B00003E0002010BD20F00100002900DA00203A
:1002C000184310BD2DE9FE4F81EA030404F00044F9
:1002D00021F0004100944FF0000B23F0004350EA5E
:1002E00001045ED052EA03045BD0C3F30A54C1F3A5
:1002F0000A552C44A4F2F3340194A0FB0254C1F338
:10030000130141F48011C3F3130343F4801301FB81
:10031000024400FB034E840A970A44EA815447EAE8
:100320008357A4FB076802958D0A05FB07854FEAF2
:10033000932C04FB0C542705029D4FEA065847EA0C
:100340001637B5EB08056EEB070C870E920E47EAE1
:10035000811742EA8312A7FB0201B6EB0B0164EBA3
:1003600000042B0D43EA0C335E1844EB1C50DA46B4
:100370005146E7FB0201C5F313044FEA0B3343EA8E
:1003800014534FEA0432019C43EA0603A4F10C041F
:100390000294009CCDE900B400F0D0F803B0BDE8B1
:1003A000F08F00200146F9E770B521F000430343C8
:1003B0000CD0C1F30A550024D5EB040564EB04030B
:1003C000D617AD1AB34102DB0020014670BD2018DC
:1003D00041EB025170BD96230022114600F071B826
:1003E0000EB540F2334102910021CDE900110A46D9
:1003F0000B4600F0A3F803B000BD20F00040C10D93
:10040000C0F3160040F400007F2901DA0020704795
:10041000962903DCC1F19601C8407047963988409F
:10042000704730B50B46014600202022012409E028
:1004300021FA02F59D4205D303FA02F5491B04FA9D
:1004400002F52844151EA2F10102F1DC30BD2DE9B0
:10045000F05F0546002092469B4688460646814648
:1004600040241BE02846414647462246FFF77EFED1
:1004700053465A46C01A914110D311461846224697
:1004800000F002FA2D1A67EB01084F4622460120C0
:10049000002100F0F9F917EB00094E41201EA4F1EC
:1004A0000104DFDC484631462A464346BDE8F09F5A
:1004B0000029A8BF7047401C490008BF20F0010078
:1004C000704710B4B0FA80FC00FA0CF050EA010456
:1004D00004BF10BC704749B1CCF1200421FA04F4E8
:1004E00011FA0CF118BF012121430843A3EB0C01C1
:1004F000CB1D4FEA00614FEA102042BF002010BC24
:10050000704700EBC35010440029A4BF10BC7047D3
:10051000401C490008BF20F0010010BC704710B516
:10052000141E73F1000408DA401C41F10001921816
:100530005B411A4301D120F0010010BD2DE9F04DBF
:1005400092469B4611B1B1FA81F202E0B0FA80F214
:100550002032904600F098F904460F4640EA0A001F
:1005600041EA0B0153465A46084313D0114653EA59
:10057000010019D0C8F140025046FFF7F7FD0546CB
:100580000E4650465946424600F07EF9084305D0D3
:10059000012004E020463946BDE8F08D00200543E7
:1005A00046EAE0762C4337430A986305E40AA0EB59
:1005B00008000022FD0A44EA47540A3002D5002010
:1005C0000146E9E7010510196941DDE9084500190F
:1005D0006941BDE8F04DA2E72DE9FE4F804681EA72
:1005E0000300C00F0C46009021F0004123F00045AD
:1005F000B8EB0200A94105D24046214690461C4670
:100600000B46024623F00040104347D0270DC7F3A6
:100610000A00C3F30A510290401A019040286BDA95
:10062000C3F3130040F4801B0098924620B10023CE
:10063000D2EB030A63EB0B0B01985946C0F1400261
:10064000504600F021F906460D4650465946019A9B
:1006500000F029F910EB08006141002487EA1152EB
:1006600084EAE7731A4340D0009A62B3019A012AE0
:100670004FEA075215DC001B61EB02014FF000420C
:1006800002EA0752CDE90042001C41F580113246D2
:100690002B46FFF753FF03B0BDE8F08F40462146DD
:1006A000F9E7001B61EB0201001C41F58013001803
:1006B0005B412018A2F5001747EB030140EAD57013
:1006C000B6196D4111E06D084FEA360645EAC0756E
:1006D0004FEA0752001B61EB0201001C41F580113B
:1006E00049084FEA30000019514132462B4603B009
:1006F000BDE8F04FFFF713BF009801224000002330
:10070000D0EB020263EBE073009821464FEAE074FD
:10071000B8EB000061EB0401E9E783F000435BE71D
:1007200081F0004158E72DE9F04D81EA030404F01F
:10073000004B21F0004514464FF0000A23F0004121
:1007400050EA050220D054EA01021DD0C5F30A5731
:100750000246C5F31303C1F31300C1F30A5640F474
:10076000801543F48013A7EB0608101BD64608F249
:10077000FD3873EB050002D308F1010801E092187F
:100780005B41B8F1000F03DA00200146BDE8F08DAF
:1007900000204FF48011064684460EE0171B73EBD1
:1007A000050705D3121B63EB050306434CEA010C56
:1007B00049084FEA300092185B4150EA0107EDD139
:1007C00052EA030012D082EA040083EA05010843DA
:1007D00005D0101BAB4106D20122002306E0002207
:1007E0004FF0004302E06FF0010253101AEB0600D5
:1007F0004CEB085110EB0A0041EB0B01BDE8F04D4A
:10080000FFF78DBEC1F30A52C1F3130140F2FF336B
:1008100041F480119A4202DA00200146704740F20A
:1008200033439A42A2F2334202DC5242FFF79EBCAB
:1008300000F02AB830B5041E71F1000404DB4FF05B
:100840000044404264EB0101141E73F1000405DB17
:100850001C464FF00043524263EB0403994208BF29
:10086000904230BD064C074D06E0E06840F00103C1
:1008700094E8070098471034AC42F6D3FFF75CFCCD
:10088000382C0008582C0008202A04DB203A00FAF3
:1008900002F1002070479140C2F1200320FA03F3D7
:1008A000194390407047202A06DBCB17203A41FAC3
:1008B00002F043EAE07306E041FA02F3D040C2F1ED
:1008C00020029140084319467047000070B5044665
:1008D00000688168C943C90717D1816821F0010107
:1008E000816000F049FE05460AE000BF00F044FECA
:1008F000401B022804D920688068C043C00706D086
:1009000020688068C043C007F0D0002070BDA06A96
:1009100040F01000A062E06A40F00100E0620120B7
:1009200070BD10B50146406A826A12F0500F05D0C2
:10093000006A026BBDE8104008461047816A41F426
:100940000071816201688968C1F3424107290CD1B5
:10095000017B51B9816A21F480718162816AC90485
:1009600003D4816A41F00101816200F05BF910BD9E
:1009700010B5406A816A41F040018162C16A41F06C
:100980000401C16200F050F910BD10B5406A00F0DA
:100990004AF910BDF8B50026044600960068816843
:1009A000C943C9072DD0816841F001018160164813
:1009B00016490068B0FBF1F000E0401E00900028EE
:1009C000FBD100F0D9FD054616E000BF00F0D4FDD4
:1009D000401B022810D920688068C043C0070BD094
:1009E000A06A40F01000A062E06A40F00100E062FE
:1009F00084F824600120F8BD20688068C043C007E7
:100A0000E4D10020F8BD00001400002040420F0097
:100A1000FEE70000014800F007BB00007400002062
:100A200030B590F840500124AC40C56B6C60046850
:100A300063604368102B036803D099600068C2604C
:100A400030BD9A600068C16030BD704772B6FEE785
:100A5000F8B500250446009590F82400012808D038
:100A6000012084F824002046FFF730FF060002D062
:100A700053E00220F8BDA06A20F4885040F0020044
:100A8000A062022000F016FE26490968B1FBF0F0D2
:100A9000400000E0401E00900028FBD12046FFF7F8
:100AA00079FF2068816841F00801816000F064FDF1
:100AB000074608E000F060FDC01B0A2803D9206843
:100AC0008068000715D4206880680007F2D4206889
:100AD000816841F00401816000F04EFD074612E09C
:100AE00000F04AFDC01B0A280DD920688068400725
:100AF00009D5A06A20F0020040F01000A06284F83E
:100B000024500120F8BD206880684007E8D4A06A1E
:100B100020F0020040F00100A06284F8245030462A
:100B2000F8BD000014000020F8B50024009490F8EF
:100B300024202546012A12D0012280F824204A6868
:100B40001F23072A0DD20668776B521E02EB820222
:100B500093409F430B6893401F43776319E0022043
:100B6000F8BD06680D2A0AD2376BD21F02EB82024B
:100B700093409F430B6893401F43376309E0F76A34
:100B80000D3A02EB820293409F430B6893401F4350
:100B9000F7620A68072306680A2A0AD3F7680A3A3E
:100BA00002EB420293409F438B6893401F43F760E0
:100BB00008E0376902EB420293409F438B68934001
:100BC0001F4337610A68102A01D0112A20D1124B25
:100BD00002689A4217D193681B0219D4936843F4B0
:100BE000000393600968102912D10C490C4A096866
:100BF000B1FBF2F101EB8101490000E0491E0091D7
:100C00000029FBD104E0816A41F0200181620124C6
:100C100080F824502046F8BD002401401400002034
:100C200040420F0070477047704700002DE9F041C7
:100C300004004FF000057FD0A06A002628B9E662C4
:100C400084F82460204600F081F82046FFF73EFE3D
:100C5000A16AC90600D420B1A06A40F01000A062C9
:100C60006AE0A16A21F4885141F00201A16233498E
:100C700023688B42E16904D1B1F5402F01D14FF4D3
:100C80000021277B4FF4807C41EA470261680A43D8
:100C9000A168614508D0012906D0002194F814E02C
:100CA000BEF1010F02D00AE06146F7E7C7B1A76ABB
:100CB00047F02007A762E76A47F00107E7625F682D
:100CC00027F469470F435F60236899681C4F3940D8
:100CD00011439960A16861450BD0012909D00CE04E
:100CE000DFF860E0A7690EEB47370F4347F4006178
:100CF000E5E7218A0D05A5F580152168CB6A23F467
:100D000070032B43CB62216889680F4B19409142D5
:100D100008D1E662A16A21F0020141F00101A1625D
:100D2000BDE8F081A06A20F0020040F01000A0624F
:100D3000E06A40F00100E0620120F1E7003C014080
:100D4000FDF7E1FF00E0FFFFFE0E1FFF70B586B06C
:100D500000260546009601960296039600681A49F9
:100D600088422FD11949886940F4007088618869E8
:100D700000F400700490886940F00400886188697C
:100D8000694600F0040004900120009003200190C7
:100D90000F4800F0F5FA104C0E48C4E90006802018
:100DA000C4E9026040002061800060612020A061F1
:100DB0000002E061204600F05BFA08B1FFF746FE52
:100DC0002C62656206B070BD002401400010024034
:100DD0000008014008000240740000202DE9F0479F
:100DE000894604463B4900683B4F0E1D90468842A9
:100DF00001D0B84207D1306810F4702F03D001251C
:100E00002846BDE8F08794F8240001280CD0012082
:100E100084F824002046FFF7BDFD05004FF00000D8
:100E200004D084F82400EBE70220EAE7A16A40F648
:100E30000162914341F48071A1622168B94218D1E5
:100E4000326812F4702F14D0A16A41F48011A162AB
:100E50003168490505D5A16A21F4005141F480515A
:100E6000A162A16AC9040AD5E16A21F00601E16222
:100E700006E0A26A22F48012A2624968E9E7E06211
:100E800084F82400216A15488862216A1448C862DF
:100E9000216A1448086321686FF002000860206826
:100EA000816841F480718160216843464A464C3133
:100EB000206A00F01BFA20688168C1F342410729CB
:100EC000816803D041F48011816099E741F4A00169
:100ED000FAE700000024014000280140230900082F
:100EE0008B0900087109000870B54379012B1CD0EB
:100EF000012646710223037105682B6802F0100475
:100F000040F6FE72A2409343D1E900210A43A24079
:100F10001A432A6001680A68C023A3409A430A6002
:100F2000067100214171084670BD022070BD70B588
:100F3000040003D02079002510B105E0012070BD28
:100F40006571204600F008F802202071256101201B
:100F50002071002070BD000000B585B00021009117
:100F600001910291039100680E49884218D10E4800
:100F7000C16941F00051C161C16901F000510491A2
:100F8000816941F0040181618069694600F00400D3
:100F900004901020009003200190044800F0F0F924
:100FA00005B000BD00740040001002400008014080
:100FB00018B5046800940068104421B11430009002
:100FC0000360002018BD0830F9E770B54279012AA6
:100FD0001ED001224271022303710468266801F0C9
:100FE000100302FA03F52E4326600029016811D090
:100FF0000C6804F470153C249C40A54203D14B6856
:1010000043F002034B60027100214171084670BD3C
:10101000022070BD0B68C3F383030F2BF3D14B6821
:1010200043F00103EEE700002DE9F05FC16B0A68B1
:1010300001680B68046C4FF0040808FA04F8844D4A
:10104000844E854FDFF814C2DFF81492DFF814A243
:10105000DFF814B2DFF814E218EA020F65D05FEA95
:10106000437862D50A68920603D40A6822F0040223
:101070000A60DFF8F0814FF48062016808F114081B
:1010800013011402414524D9A9420DD0B1420FD019
:10109000B9421AD0614515D0494515D0514501D105
:1010A000120312E0594501D104220EE0714501D12D
:1010B00040220AE06D4D1435A94206D06B4A283211
:1010C000914201D11A4600E022466749091F0A6091
:1010D00029E0A94213D0B14215D0B94220D06145D0
:1010E0001BD049451BD0514502D14FF4800217E077
:1010F000414502D14FF0806212E0594501D10422EE
:101100000EE0714501D140220AE0584D1435A94244
:1011100006D0564A2832914201D11A4600E02246B2
:101120004B4908394A60C16A71E04FF0020808FA79
:1011300004F818EA020F70D05FEA83786DD50A6868
:10114000920606D40A6822F00A020A60012180F899
:101150002110DFF810814FF40072016808F11408C3
:1011600013011402414524D9A9420DD0B1420FD038
:10117000B9421AD0614515D0494515D0514501D124
:10118000120312E0594501D102220EE0714501D14E
:1011900020220AE0354D1435A94206D0334A2832C0
:1011A000914201D11A4600E022462F49091F0A60E8
:1011B00029E0A94213D0B14215D0B94220D06145EF
:1011C0001BD049451BD0514502D14FF4001217E006
:1011D000414502D14FF0007212E0594501D102227F
:1011E0000EE0714501D120220AE0204D1435A942BC
:1011F00006D01E4A2832914201D11A4600E022460A
:10120000134908394A60002180F82010816A0029BA
:101210001CD0BDE8F05F0847FFE70825A540154250
:1012200014D01A0712D50A6822F00E020A6090F84C
:101230004020C36B012101FA02F25A60816380F8F9
:101240002110002180F82010016BE0E7BDE8F09F3D
:10125000080002401C0002403000024044000240EE
:10126000580002406C000240080402401C04024086
:1012700030B560B11A4B026814219A4209D2194B59
:101280001344B3FBF1F18900016417490AE001201E
:1012900030BD134B5B421344B3FBF1F18900016491
:1012A0000F490839C163022180F82110136843F601
:1012B000F0718B43F0E901142143D0E902452C433E
:1012C000214304692143446921438469214319432B
:1012D000116000214163012242770177084630BD49
:1012E00008040240F8FFFDBF0000024070B504464C
:1012F00090F82000002501280CD0012084F820005F
:1013000094F821600020012E06D084F820000225E8
:10131000284670BD022070BD022684F82160A063BB
:101320002068066826F0010606602046FFF778FB75
:10133000E06A00282068016802D041F00E0106E052
:1013400021F0040101602068016841F00A01016098
:101350002068016841F001010160D9E770B50446D9
:1013600000F00AF90546601C02D0044800780444E5
:1013700000F002F9401BA042FAD370BD0800002023
:101380002DE9F84FDFF8C891002409F1040A0AF1A9
:10139000040B23460F270BF1040ED1E00125A540D5
:1013A00006EA0502AA4276D1DFF8A8C14E68A6EB8C
:1013B0000C0866452BD00DDC032E34D005DC36B38B
:1013C000012E19D0022E2FD11BE0112E16D0122E75
:1013D0002AD119E0B8F5881F19D006DCB8F5803F8E
:1013E00015D0B8F5801F1FD111E0B8F5001F0ED041
:1013F000B8F5041F18D10AE0CB6815E0CB681B1DB7
:1014000012E0CB6808330FE0CB680C330CE08B683C
:101410002BB1012B4FF0080303D0456104E00423F6
:1014200002E0056100E00023FF2A01D8064601E042
:1014300000F104064FEA840501D9A5F12005D6F88C
:10144000008007FA05FC28EA0C0803FA05F548EACB
:101450000508C6F800804D68ED0070D53E4DAE69B8
:1014600046F00106AE61AD6924F0030605F0010502
:1014700000953A4D06EB050CDCF80850A607360F30
:1014800007FA06F825EA0805DFF8D480404503D1BD
:101490004FF0000825E052E0DFF8C880404502D157
:1014A0004FF001081DE0DFF8C080404502D14FF049
:1014B000020816E0DFF8B480404502D14FF003087F
:1014C0000FE0DFF8AC80404502D14FF0040808E09F
:1014D000DFF8A080404502D14FF0050801E04FF051
:1014E000060808FA06F848EA0508CCF808804D68AE
:1014F000D9F80060ED034D4601D5164300E0964350
:101500002E604D68DAF80060AD03554601D51643EC
:1015100000E096432E604D68DBF80060ED025D460A
:1015200001D5164300E096432E604D68DEF800605A
:10153000AD02754601D5164300E096432E60641C4B
:101540000A681646E2407FF429AFBDE8F88F000034
:101550000004014000001110001002400000014092
:1015600000080140000C014000100140001401403F
:1015700000180140001C01400148806870470000CD
:101580000800002002488168027811448160704799
:1015900008000020074810B5016841F01001016003
:1015A000032000F075F80F2000F006F800F024F892
:1015B000002010BD0020024070B50D4D04464FF4D0
:1015C0007A712878B1FBF0F00A490968B1FBF0F0B4
:1015D00000F0CCFB48B9102C07D200222146501E47
:1015E00000F036F800206C6070BD012070BD000076
:1015F00008000020140000200C4808B5816941F063
:1016000001018161816901F001010091C16941F02D
:101610008051C161C06900F0805000900448416869
:1016200021F0E06141F00071416008BD001002400E
:1016300000000140002809DB00F01F020121914059
:101640004009800000F1E020C0F800117047000060
:10165000F0B40E4B1B680C46C3F30223C3F107051D
:10166000042D00D90425191D072901D2002300E00B
:10167000DB1E012606FA05F1491E214099409E40D5
:10168000761E16403143F0BC00F0FABD0CED00E0D0
:10169000064900F0070208684FF6FF03184040EAC9
:1016A0000220034A10430860704700000CED00E080
:1016B0000000FA0510B52CA401461DCC86B08DE8BB
:1016C0001D002DA02D4C00680490002004292FD06F
:1016D0000BDC01292FD0022928D100F071F96168B3
:1016E000C1F38131491C49001EE0082920D010298E
:1016F0001CD161682268D20118D5C1F38342C903A5
:101700001DF8020009D5616804AAC1F34041515C8B
:101710001B4AB2FBF1F1484301E01A4948436168B2
:10172000490203D440000321B0FBF1F006B010BD24
:1017300000F056F9FAE7226AC2F30121012903D128
:10174000920701D5C803F1E7022905D1626A920721
:1017500002D549F64040E9E70329E7D1216889032A
:10176000E4D54FF22440E1E7020304050607080927
:101770000A0B0C0D0E0F10100102000000100240A9
:1017800000127A0000093D002DE9F8430546007873
:10179000354CC00754D0E0690026C00008D4E06989
:1017A00040F08050E061E069012600F08050009038
:1017B0002E480168C90512D40168804641F4807141
:1017C0000160FFF7D9FE074605E000BFFFF7D4FE32
:1017D000C01B642823D8D8F80000C005F6D5206ABD
:1017E00010F4407021D0A98801F4407181421CD0CE
:1017F000206A1F49012220F440700A6000220A601A
:101800002062C00711D0FFF7B7FE074641F28838C3
:1018100008E000BFFFF7B0FEC11B414502D903201D
:10182000BDE8F883206A8007F4D5206A696820F44F
:101830004070084320621EB1E06920F08050E061F2
:101840002878800705D56068A96820F440400843DF
:1018500060602878C00605D56068696920F480005A
:10186000084360600020DBE7001002400070004089
:10187000400442422DE9F0470F46050061D0434E37
:10188000306800F00700B84209D2306820F0070045
:1018900038433060306800F00700B84251D1286802
:1018A0003B4C810712D5400703D5606840F4E060E7
:1018B00060602878000703D5606840F4605060607D
:1018C0006068A96820F0F000084360602878C007CD
:1018D00028D06868012810D02168022810D0890714
:1018E00000292EDA616821F0030101436160FFF7EE
:1018F00043FE804641F288390DE021688903EFE715
:101900008901EDE7FFF738FEA0EB0801494502D950
:101910000320BDE8F0876068696800F00C00B0EB58
:10192000810FEFD1306800F00700B8420BD9306862
:1019300020F0070038433060306800F00700B842FC
:1019400001D00120E5E72878400705D56068E968FF
:1019500020F4E060084360602878000706D56068DE
:10196000296920F4605040EAC100606000F038F856
:101970006168084AC1F30311515CC8400649086018
:1019800006480068FFF718FE0020C2E7002002406A
:1019900000100240202C0008140000200C00002041
:1019A0000448054900684968044AC1F30221515CB2
:1019B000C84070471400002000100240302C00087E
:1019C0000448054900684968044AC1F3C221515CD2
:1019D000C84070471400002000100240302C00085E
:1019E00012A185B00FC98DE80F0014A0144A006839
:1019F00004905168134801F00C03042B10D0082BFD
:101A00000ED1C1F38343C9031DF803000AD5516801
:101A100004AAC1F34041515C0A4A5043B0FBF1F0C3
:101A200005B0704708494843FAE70000020304057F
:101A3000060708090A0B0C0D0E0F1010010200001A
:101A40000010024000127A0000093D002DE9F84F15
:101A5000040070D02078C04DC00749D06868C0F33A
:101A60008100012807D06868C0F38100022809D1ED
:101A70006868C00306D52868800339D560680028E7
:101A8000E7D035E06068B0F5803F0BD010B1B0F51D
:101A9000A02F11D0286820F480302860286820F416
:101AA000802002E0286840F480302860606890B1AF
:101AB000FFF762FD06460AE0286840F480202860AF
:101AC000F0E700BFFFF758FD801B642873D8286833
:101AD0008003F7D50CE0FFF74FFD064605E000BF99
:101AE000FFF74AFD801B6428F0D828688003F7D4EC
:101AF00020789A4E80074FF001094FF0000839D541
:101B0000686810F00C0F07D06868C0F381000228E5
:101B100009D16868C00306D42868800714D52069F5
:101B2000012808D110E02069B0B1C6F80090FFF795
:101B300023FD074605E00AE1FFF71EFDC01B022852
:101B4000C4D828688007F7D52868616920F0F800B4
:101B500040EAC10028600DE0C6F80080FFF70CFDE8
:101B6000074604E0FFF708FDC01B022823D82868B9
:101B70008007F7D4207800072CD57948A169D9B11E
:101B8000C0F80090FFF7F8FC074604E0FFF7F4FC0C
:101B9000C01B02280FD8686A8007F7D571484FF438
:101BA000FA510068B0FBF1F0009000BF0098411EB0
:101BB0000091FAD20EE080E0C0F80080FFF7DCFC74
:101BC000074604E0FFF7D8FCC01B022875D8686AF6
:101BD0008007F7D42078400760D5E8690027C00067
:101BE00008D4E86940F08050E861E869012700F016
:101BF000805000905C480168C90513D40168834691
:101C000041F480710160FFF7B7FC824606E000BF37
:101C1000FFF7B2FCA0EB0A0064284ED8DBF8000006
:101C2000C005F5D5E06801280AD008B1052813D011
:101C3000286A20F001002862286A20F0040002E0EF
:101C4000286A40F001002862E06841F2883B98B1C0
:101C5000FFF792FC82460BE0286A40F004002862FD
:101C6000EEE700BFFFF788FCA0EB0A0159455AD800
:101C7000286A8007F6D50CE0FFF77EFC824605E077
:101C8000FFF77AFCA0EB0A0159454CD8286A800777
:101C9000F6D41FB1E86920F08050E861E06988B3AC
:101CA0006968C1F38101022944D00228C6F8608026
:101CB00004D0FFF761FC044638E034E0FFF75CFC39
:101CC000074604E0FFF758FCC01B02282BD8286801
:101CD0008001F7D4206AB0F5803F05D16868A1681B
:101CE00020F4003008436860D4E9080108436968BB
:101CF00021F4741108436860C6F86090FFF73CFC5B
:101D0000044606E025E000BFFFF736FC001B022872
:101D100009D828688001F7D51BE000BFFFF72CFC2D
:101D2000001B022802D90320BDE8F88F2868800133
:101D3000F4D40EE00128F7D06868226A00F48031FC
:101D4000914204D1616A00F47010884201D00120F0
:101D5000EAE70020E8E700000010024000004242ED
:101D600080044242140000200070004010B5401E64
:101D7000B0F1807F01D3012010BD4FF0E0246061FD
:101D80000F21601700F07CFA0020A061072020617D
:101D9000002010BD70B5040004D094F83D0000256B
:101DA00010B106E0012070BD84F83C50204600F0E0
:101DB00023F8242084F83D002068C16821F40051F4
:101DC000C160204600F0BCF92068016921F490410F
:101DD00001612068416921F02A0141612068C168E0
:101DE00041F40051C1602564202084F83D0084F84E
:101DF0003E00002070BD000030B585B00024009486
:101E000001940294039400681449884224D1144830
:101E1000816941F480418161816901F480410491CB
:101E2000816941F00401816180690E4D00F0040078
:101E300004904FF400700090022001900320039062
:101E400069462846FFF79CFA2815CDE90004694643
:101E500028460294FFF794FA05B030BD00380140DF
:101E600000100240000801402DE9F843044690F8B4
:101E70003D001F4616460D4620284CD1C5B1BEB1C7
:101E800094F83C00012846D0012084F83C004FF033
:101E90000008C4F84080212084F83D00FFF76CFB67
:101EA000A6848146E684A068B0F5805F03D004E094
:101EB0000120BDE8F883206928B12E465FF00005B7
:101EC00084F83C800EE00026FAE78021204600F0EE
:101ED00093F9A0B9AEB116F8010B21684860E08C07
:101EE000401EE084E08C4B464FF000020097002833
:101EF000EBD14FF04001204600F07EF930B10320D5
:101F0000D7E735F8020BC0F30800E6E7202084F895
:101F10003D000020CDE70220CBE7FEE73EB50024E0
:101F200011480094019402940E49846001600125D7
:101F30000573047505614FF460214460C161FEF7CB
:101F400075FE08B1FEF782FD05200094CDE9015031
:101F500069460548FEF7E8FD002801D0FEF776FD4A
:101F60003EBD000000240140440000201CB50024B8
:101F70000C4900940A48019408600846FEF7D7FF10
:101F800008B1FEF763FD00940022694605480194FC
:101F9000FEF7AAFF002801D0FEF758FD1CBD000087
:101FA00000740040B8000020094808B5416941F0BC
:101FB000010141614069002200F0010000901146DA
:101FC0000B20FFF745FBBDE808400B20FFF732BBB5
:101FD00000100240094808B5816941F02001816183
:101FE000816901F020010091816941F00401816162
:101FF000806900F00400009008BD0000001002405D
:102000000C4810B50A4901604FF4FA3141600021D3
:1020100081600C22C160C0E904128161C161FFF7D7
:10202000B9FE002803D0BDE81040FEF70FBD10BD7B
:1020300000380140CC000020FEE7FEE70648002102
:10204000074A016041608160C160016241620349E9
:10205000C0E90412816170471C000020CDCCCC3E49
:102060000AD7A33C2DE9F041134CC4E90001FEF767
:10207000F1F80546A0602946606AFEF799F86062AB
:1020800007462846E168FEF7E5F8A169FEF7E8F89B
:10209000064639466069FEF7E3F807462946206997
:1020A000FEF7DEF83946FEF783F83146FEF780F892
:1020B000E560E061BDE8F0811C00002070477047DA
:1020C000FFF760BA30B595B028216846FEF765F88D
:1020D00014210AA8FEF761F818210FA8FEF75DF891
:1020E00001210804CDE90010002502950224049185
:1020F000CDE907404FF4E01009906846FFF7A6FCD1
:1021000008B172B6FEE70AA90F2081E831004FF44A
:102110008060CDE90D0502210AA8FFF7ABFB08B1ED
:1021200072B6FEE74FF4004011900F940FA8FFF72E
:102130002BFB002801D072B6FEE715B030BD70470A
:1021400070B5044600680169E26821F4405111430A
:1021500001612169A0680843616908432168CA6870
:1021600041F20C639A430243CA6020684169A26944
:1021700021F44071114341611E492068884202D117
:10218000FFF71EFC01E0FFF70BFC00EBC00101EBC9
:102190000012606864218000B2FBF0F3B3FBF1F33E
:1021A0006FF018067343B2FBF0F5B2FBF0F605EBE7
:1021B0008305322303EB0515B5FBF1F5B6FBF1F60C
:1021C00005F0F00505EB0615B2FBF0F6B2FBF0F0FA
:1021D000B0FBF1F06FF01802504306EB800003EB08
:1021E0000010B0FBF1F0216800F00F002844886077
:1021F00070BD0000003801402DE9F04198461746B7
:102200000E460446069D1DE0681C1BD02DB1FFF74D
:10221000B3F9A0EB0800A84214D92068C16821F4E2
:10222000D071C1602068416921F001014161202025
:1022300084F83D0084F83E00002084F83C00032030
:10224000BDE8F0812068006836EA000004D0002074
:10225000B842D9D00020F3E70120F9E7FEE70000FB
:102260000FB4054B10B503A9044A029800F0EAF830
:1022700010BC5DF814FB00004D2B00081800002076
:102280000907090E002804DB00F1E02080F80014A3
:10229000704700F00F0000F1E02080F8141D704737
:1022A00002E008C8121F08C1002AFAD1704770471F
:1022B000002001E001C1121F002AFBD1704700007D
:1022C0002DE9FF5F82B00021DDE90430020DDDF869
:1022D00040B0034318D044F61050A2F2FF324243FC
:1022E0001514119801281FD0A5EB0B00401C5FEAC4
:1022F000000A4FF000064E4FDFF83891B0465046C6
:1023000015D5CAF1000413E0119801244AA301284D
:1023100001D16FEA0B010298119AC0E90031C0E9BE
:10232000024206B0BDE8F09FCBF10000DFE70446B3
:102330000021404A491842EB0450CDE9001012E058
:10234000E00707D032463B4640464946FDF7BAFF14
:102350008046894632463B4610461946FDF7B2FF95
:1023600006460F466410002CEAD1DDE90401DDE9E0
:102370000023BAF1000F06DAFDF7A4FF42464B46F0
:10238000FDF7A0FF05E0FEF7CEF942464B46FEF70B
:10239000CAF904460E460022284BFEF74BFA03D832
:1023A0004FF0FF30014607E00022254B2046314622
:1023B000FEF712F9FEF726FA102409E0002C0ADBDA
:1023C0000A220023FEF743F8039B30321A55641E9D
:1023D00050EA0102F2D1641C039AC4F111031444BF
:1023E000119A012A03D0012208430DD10AE00843C3
:1023F00004D000204FF0110B119072E7A3EB0B05F6
:102400006D1E0DE05B4504DD4FF0000205F1010596
:1024100004E003DA4FF00002A5F10105002AECD038
:1024200002981199C0E90231C0E9004579E700003E
:10243000000014400000F03F300000000000F043B6
:102440000000E03F2DE9FF4F95B09A4688460646CA
:102450000025EEE1252877D100242746F94A0121FD
:10246000039400E0044316F8013F203B01FA03F017
:102470001042F7D130782A2811D06FF02F0330782E
:10248000A0F13002092A16D8039A44F0020402EBA4
:10249000820203EB42021044761C0390EFE758F8E7
:1024A000042B0392002A03DA504244F400540390B0
:1024B00044F00204761C30782E2816D116F8010F4D
:1024C00044F004042A280DD06FF02F023078A0F1D8
:1024D0003003092B09D807EB870302EB4303C71826
:1024E000761CF3E758F8047B761C30786C280FD004
:1024F00006DC4C2817D068280DD06A2814D104E0D7
:10250000742810D07A280FD10DE044F400140AE0AA
:1025100044F4801401E044F440147278824202D101
:1025200004F58014761C761C307866280BD013DCFA
:10253000582877D009DC002875D04528F6D04628E1
:10254000F4D047281AD193E118E0632835D06428E5
:1025500079D0652812D18BE1702873D008DC672808
:10256000F1D069286FD06E280DD06F2806D1ACE06D
:1025700073282CD0752874D0782853D052461799D8
:1025800090476D1C54E1C4F30250022809D003287F
:102590000DD0D8F8001004280DD00D6008F1040803
:1025A00046E1D8F80010EA17C1E90052F6E7D8F87A
:1025B00000100D80F2E70D70F0E718F8041B8DF89D
:1025C000001000208DF80100EB46012003E058F8D0
:1025D00004BB4FF0FF3061074FF0000102D40DE063
:1025E00009F101018946B9420FDA8145F8DB1BF890
:1025F00009100029F4D108E009F10101894681425E
:10260000FADB1BF809100029F6D103985346A0EB1A
:10261000090721463846179A00F080FA284400EB53
:10262000090507E044E008E10DE01BF8010B524604
:1026300017999047B9F10109F7D253462146384618
:10264000179AF2E039E00A21C4F302524FF0000B6E
:102650000091022A06D058F8040BC117032A09D0AA
:102660000AE023E008F1070020F00702F2E8020187
:10267000904605E000B2C117042A01D140B2C1174B
:10268000002906DA0A460021404261EB02012D22B0
:1026900002E0220504D52B228DF80420012203E05C
:1026A000E20701D02022F7E7914657E00A2100E037
:1026B00010214FF0000B00910BE010214FF0000BA8
:1026C00044F004040827009103E008204FF0000BB9
:1026D0000090C4F30252022A05D058F8040B0021DE
:1026E000032A08D008E008F1070020F00702F2E80A
:1026F0000201904603E080B2042A00D1C0B24FF03C
:10270000000922072AD53278702A07D0DDF800C0E8
:102710008CF0100C5CEA0B0C05D00EE040228DF81A
:102720000420012208E050EA010306D030238DF88E
:1027300004308DF8052002229146009B83F00803A7
:1027400053EA0B030AD150EA010201D1620705D511
:1027500030228DF804204FF001097F1E3278582A6C
:1027600004D039A20C920CAA02920BE03BA2F9E72A
:102770005B46009AFDF76BFE0C9B9B5C029A521E17
:102780000292137050EA0102F2D1029804A9081AC9
:1027900000F1200B600702D524F4803400E001270B
:1027A0005F4502DDA7EB0B0000E0002000EB0B0112
:1027B000009003984944401A0390E00306D453461E
:1027C0002146179A039800F0A9F90544002706E06E
:1027D00001A85246C05D179990476D1C7F1C4F455C
:1027E000F6DBE0030CD553462146179A039800F018
:1027F00095F9054404E030205246179990476D1C26
:102800000099481E00900029F5DC08E00298029922
:1028100052460078491C0291179990476D1CBBF1F4
:102820000001ABF1010BF1DC5BE100F065F905445F
:10283000761C307800287FF40DAE19B02846BDE82C
:10284000F08F00000928010030313233343536373B
:1028500038396162636465660000000030313233EC
:10286000343536373839414243444546000000008C
:10287000600700D4062708F1070020F00700F0E801
:102880000223804603F0004C5FEA0C0001D097A0C1
:1028900009E0200501D596A005E0E00701D095A04C
:1028A00001E0AFF24C001390307823F0004365282C
:1028B0000CD006DC452809D046281DD047287FD1FA
:1028C0003BE0662818D067287AD136E00021112F26
:1028D00001DB112000E0781CCDE9000104A90CA85F
:1028E000FFF7EEFCDDE90D010C9A4FF0000B07F14C
:1028F0000109109200914EE04FF000400097CDE9A1
:10290000011004A90CA8FFF7DBFCDDE90D020C9B0C
:102910000F994FF0000B91461093009211B9791C5A
:1029200000EB0109B7EB090003D4C0F1FF3B07F14D
:102930000109A9EB0700019042E0012F00DA01270D
:102940000021112F01DD112000E03846CDE9000102
:1029500004A90CA8FFF7B4FCDDE90D010C9A009165
:102960004FF0000BB946109221070FD4009A4A4548
:1029700003DA914601E0A9F10109B9F1010F05DD82
:10298000109AA9F10101515C3029F4D0B84202DA61
:1029900010F1040F03DA0121CDE9011010E0002845
:1029A00003DC8344A9EB000102E0411C494500DD42
:1029B0008946A0EB0B00401C01904FF000400290B4
:1029C000200705D40198484502DB4FF0FF30019005
:1029D00000208DF84B0002980DF14B07B0F1004F2D
:1029E00025D002200C902B200D90029800280CDAA4
:1029F000404202902D200D9007E00A210298FDF739
:102A000010FD3031029007F8011D0C99481E0C9002
:102A10000029F2DC02980028EFD1791E0D98087089
:102A2000307800F0200040F0450007F8020D11A8B2
:102A3000C01BC01D02901398007800B1012000EB6C
:102A40000901019801EBE071029801440398401AD2
:102A5000401E0390E00306D453462146179A03987C
:102A600000F05CF805441398007818B152461799A5
:102A700090476D1CE00323D553462146179A0398CF
:102A800000F04CF805441BE0BBF1000F07DB009899
:102A9000584504DD1098179910F80B0001E01799BC
:102AA00030205246904701980BF1010B401E05F172
:102AB0000105019004D12E205246179990476D1CB4
:102AC000B9F10001A9F10109DEDC05E017F8010BFD
:102AD0005246179990476D1C0299481E0290002992
:102AE000F4DC53462146179A03989EE62D00000019
:102AF0002B000000200000002DE9F04104460025D5
:102B00001E461746880404D405E039462020B04705
:102B10006D1C641EF9D52846BDE8F0812DE9F04111
:102B2000044600251E469046C80301D5302700E024
:102B30002027880404D505E041463846B0476D1C7F
:102B4000641EF9D52846BDE8F081000013B54FF6A4
:102B5000FF73012269460248FFF786F900981CBD01
:102B6000CC000020FEF716FDFFF7ACFAFFF732FAB3
:102B7000FFF71AFAFFF7D2F9FFF7F8F9FFF740FA73
:102B80002148FDF765FF022220491F48FEF726F97C
:102B9000FFF754FA1D4EDFF87880341F4FF0663788
:102BA0006FF00B094FF08A4A0022638811461948DA
:102BB000FEF7FEF900211748FEF707FA308820805B
:102BC000FDF70EFC3A464346FDF77CFB4A46FDF70F
:102BD000EBFB02460B4610A0FFF742FB2088FDF7F7
:102BE000FAFB01465046FFF73DFA05466088FDF7BF
:102BF000F2FB2946FDF7DCFAFDF7FFFB608064205D
:102C0000FEF7ACFBD0E700004400002004000020E9
:102C100066660A40B800002025302E32660D0A0094
:102C2000000000000000000001020304060708097C
:102C30000000000001020304582C000800000020DE
:102C40001C000000A0220008742C00081C000020BA
:102C5000F4040000B02200080000000000000000A2
:102C60000100000010000000000000000024F4003B
:042C70000000000060
:0400000508000131BD
:00000001FF
