:020000040800F2
:1000000010130020CD010008931400084D0F0008C4
:1000100091140008D30200086516000800000000D3
:100020000000000000000000000000007115000842
:10003000D5020008000000009514000873150008A0
:10004000E7010008E7010008E7010008E7010008F0
:10005000E7010008E7010008E7010008E7010008E0
:10006000E7010008E7010008E7010008E7010008D0
:10007000E7010008E7010008E7010008E7010008C0
:10008000E7010008E7010008E7010008E7010008B0
:10009000E7010008E7010008E7010008E7010008A0
:1000A000E7010008E7010008E7010008E701000890
:1000B000E7010008E7010008E7010008E701000880
:1000C000E7010008E7010008E7010008E701000870
:1000D000E7010008E7010008E7010008E701000860
:1000E000E7010008E7010008E7010008E701000850
:1000F000E7010008E7010008E7010008E701000840
:10010000E7010008E7010008E7010008E70100082F
:10011000E7010008E7010008E7010008E70100081F
:10012000E7010008E7010008E7010008E70100080F
:1001300000F002F800F03AF80AA090E8000C8244BF
:100140008344AAF10107DA4501D100F02FF8AFF29C
:10015000090EBAE80F0013F0010F18BFFB1A43F0A5
:100160000103184784490000A4490000103A24BF45
:1001700078C878C1FAD8520724BF30C830C144BF0C
:1001800004680C607047000000230024002500264E
:10019000103A28BF78C1FBD8520728BF30C148BFEA
:1001A0000B6070471FB51FBD10B510BD00F058F8AB
:1001B0001146FFF7F7FF01F067FA00F076F803B495
:1001C000FFF7F2FF03BC00F07DF80000094880470C
:1001D00009480047FEE7FEE7FEE7FEE7FEE7FEE729
:1001E000FEE7FEE7FEE7FEE704480549054A064B41
:1001F00070470000D51500083101000810010020EB
:100200001013002010030020100300204FF0000204
:1002100000B5134694469646203922BFA0E80C50FC
:10022000A0E80C50B1F12001BFF4F7AF090728BFD7
:10023000A0E80C5048BF0CC05DF804EB890028BF53
:1002400040F8042B08BF704748BF20F8022B11F07C
:10025000804F18BF00F8012B7047704770477047F8
:10026000754600F02BF8AE4605006946534620F06F
:100270000700854618B020B5FFF7B6FFBDE820405F
:100280004FF000064FF000074FF000084FF0000B52
:1002900021F00701AC46ACE8C009ACE8C009ACE805
:1002A000C009ACE8C0098D46704710B50446AFF3ED
:1002B00000802046BDE81040FFF781BF004870472E
:1002C000B000002001491820ABBEFEE72600020066
:1002D0007047FEE7704700002DE9FF4F83B090465E
:1002E0000E460746002514464FE000BF381BA6EB1C
:1002F000050902901FFA89F180B2069A00F046FEC5
:10030000381901901FFA89F180B2069A00F03EFE7A
:10031000301981B2A7EB050900901FFA89F0069AFF
:1003200000F034FEA6EB040B1FFA8BF11FFA89F0E4
:10033000069A00F02BFE019806EB050A1FFA8AF1D7
:1003400080B2069A00F022FE07EB05091FFA8BF136
:100350001FFA89F0069A00F019FE0098069A81B2F9
:100360001FFA89F000F012FE02981FFA8AF180B29B
:10037000069A00F00BFE6D1C05FB05F004FB040162
:1003800008FB08F0814200DD641EA542AEDD07B027
:10039000BDE8F08F72B6FEE770B5044600F010F9C4
:1003A0000546601C02D004480078044400F008F9B7
:1003B000401BA042FAD370BD000000202DE9F84F89
:1003C000DFF8C891002409F1040A0AF1040B23465E
:1003D0000F270BF1040ED1E00125A54006EA050226
:1003E000AA4276D1DFF8A8C14E68A6EB0C08664594
:1003F0002BD00DDC032E34D005DC36B3012E19D002
:10040000022E2FD11BE0112E16D0122E2AD119E068
:10041000B8F5881F19D006DCB8F5803F15D0B8F5BF
:10042000801F1FD111E0B8F5001F0ED0B8F5041FD2
:1004300018D10AE0CB6815E0CB681B1D12E0CB6831
:1004400008330FE0CB680C330CE08B682BB1012B29
:100450004FF0080303D0456104E0042302E0056186
:1004600000E00023FF2A01D8064601E000F104065F
:100470004FEA840501D9A5F12005D6F8008007FAD6
:1004800005FC28EA0C0803FA05F548EA0508C6F851
:1004900000804D68ED0070D53E4DAE6946F0010616
:1004A000AE61AD6924F0030605F0010500953A4DF3
:1004B00006EB050CDCF80850A607360F07FA06F81D
:1004C00025EA0805DFF8D480404503D14FF0000845
:1004D00025E052E0DFF8C880404502D14FF0010826
:1004E0001DE0DFF8C080404502D14FF0020816E061
:1004F000DFF8B480404502D14FF003080FE0DFF889
:10050000AC80404502D14FF0040808E0DFF8A0803D
:10051000404502D14FF0050801E04FF0060808FA07
:1005200006F848EA0508CCF808804D68D9F800605C
:10053000ED034D4601D5164300E096432E604D680D
:10054000DAF80060AD03554601D5164300E0964346
:100550002E604D68DBF80060ED025D4601D5164364
:1005600000E096432E604D68DEF80060AD027546EF
:1005700001D5164300E096432E60641C0A681646B7
:10058000E2407FF429AFBDE8F88F0000000401408D
:10059000000011100010024000000140000801405E
:1005A000000C0140001001400014014000180140FF
:1005B000001C01400AB1016170470904FBE700001B
:1005C00001488068704700000000002002488168F0
:1005D000027811448160704700000020074810B580
:1005E000016841F010010160032000F067F80F205E
:1005F00000F006F800F024F8002010BD00200240B2
:1006000070B50D4D04464FF47A712878B1FBF0F0C7
:100610000A490968B1FBF0F000F003FC48B9102C5E
:1006200007D200222146501E00F028F800206C60FE
:1006300070BD012070BD0000000000200C000020F3
:100640000C4808B5816941F001018161816901F0BF
:1006500001010091C16941F08051C161C06900F0A0
:10066000805000900448416821F0E06141F0007141
:10067000416008BD0010024000000140F0B40E4B84
:100680001B680C46C3F30223C3F10705042D00D9F0
:100690000425191D072901D2002300E0DB1E0126D5
:1006A00006FA05F1491E214099409E40761E1640EB
:1006B0003143F0BC00F0D7BF0CED00E0064900F07C
:1006C000070208684FF6FF03184040EA0220034A79
:1006D00010430860704700000CED00E00000FA05D0
:1006E0002DE9F0470F46050061D0434E306800F019
:1006F0000700B84209D2306820F007003843306064
:10070000306800F00700B84251D128683B4C81079F
:1007100012D5400703D5606840F4E0606060287837
:10072000000703D5606840F4605060606068A968A5
:1007300020F0F000084360602878C00728D068687F
:10074000012810D02168022810D0890700292EDA4C
:10075000616821F0030101436160FFF731FF8046CA
:1007600041F288390DE021688903EFE78901EDE75F
:10077000FFF726FFA0EB0801494502D90320BDE899
:10078000F0876068696800F00C00B0EB810FEFD172
:10079000306800F00700B8420BD9306820F007003D
:1007A00038433060306800F00700B84201D00120C3
:1007B000E5E72878400705D56068E96820F4E0603F
:1007C000084360602878000706D56068296920F42E
:1007D000605040EAC100606000F018F86168084AA3
:1007E000C1F30311515CC84006490860064800681F
:1007F000FFF706FF0020C2E7002002400010024081
:10080000D84A00080C0000200400002012A185B086
:100810000FC98DE80F0014A0144A006804905168B5
:10082000134801F00C03042B10D0082B0ED1C1F398
:100830008343C9031DF803000AD5516804AAC1F314
:100840004041515C0A4A5043B0FBF1F005B070479B
:1008500008494843FAE700000203040506070809AF
:100860000A0B0C0D0E0F10100102000000100240C8
:1008700000127A0000093D002DE9F84F040070D005
:100880002078C04DC00749D06868C0F381000128B6
:1008900007D06868C0F38100022809D16868C003E6
:1008A00006D52868800339D560680028E7D035E090
:1008B0006068B0F5803F0BD010B1B0F5A02F11D01B
:1008C000286820F480302860286820F4802002E026
:1008D000286840F480302860606890B1FFF770FEAF
:1008E00006460AE0286840F480202860F0E700BF50
:1008F000FFF766FE801B642873D828688003F7D54D
:100900000CE0FFF75DFE064605E000BFFFF758FE6E
:10091000801B6428F0D828688003F7D420789A4E8A
:1009200080074FF001094FF0000839D5686810F0D2
:100930000C0F07D06868C0F38100022809D16868ED
:10094000C00306D42868800714D52069012808D17F
:1009500010E02069B0B1C6F80090FFF731FE0746FD
:1009600005E00AE1FFF72CFEC01B0228C4D8286866
:100970008007F7D52868616920F0F80040EAC100D7
:1009800028600DE0C6F80080FFF71AFE074604E075
:10099000FFF716FEC01B022823D828688007F7D46B
:1009A000207800072CD57948A169D9B1C0F800900A
:1009B000FFF706FE074604E0FFF702FEC01B022811
:1009C0000FD8686A8007F7D571484FF4FA5100686C
:1009D000B0FBF1F0009000BF0098411E0091FAD2E8
:1009E0000EE080E0C0F80080FFF7EAFD074604E073
:1009F000FFF7E6FDC01B022875D8686A8007F7D4A8
:100A00002078400760D5E8690027C00008D4E8696D
:100A100040F08050E861E869012700F080500090C4
:100A20005C480168C90513D40168834641F48071AC
:100A30000160FFF7C5FD824606E000BFFFF7C0FD7D
:100A4000A0EB0A0064284ED8DBF80000C005F5D5FD
:100A5000E06801280AD008B1052813D0286A20F0E0
:100A600001002862286A20F0040002E0286A40F0B1
:100A700001002862E06841F2883B98B1FFF7A0FDD1
:100A800082460BE0286A40F004002862EEE700BFCF
:100A9000FFF796FDA0EB0A0159455AD8286A80074E
:100AA000F6D50CE0FFF78CFD824605E0FFF788FDE8
:100AB000A0EB0A0159454CD8286A8007F6D41FB12B
:100AC000E86920F08050E861E06988B36968C1F3A3
:100AD0008101022944D00228C6F8608004D0FFF7C3
:100AE0006FFD044638E034E0FFF76AFD074604E096
:100AF000FFF766FDC01B02282BD828688001F7D4B9
:100B0000206AB0F5803F05D16868A16820F4003004
:100B100008436860D4E908010843696821F4741146
:100B200008436860C6F86090FFF74AFD044606E097
:100B300025E000BFFFF744FD001B022809D8286804
:100B40008001F7D51BE000BFFFF73AFD001B02282C
:100B500002D90320BDE8F88F28688001F4D40EE0A4
:100B60000128F7D06868226A00F48031914204D1EC
:100B7000616A00F47010884201D00120EAE7002089
:100B8000E8E70000001002400000424280044242B8
:100B90000C0000200070004070B5040009D0606AAD
:100BA000002540B125616561A56294F8510040B10E
:100BB0000CE0012070BD6068B0F5827FF4D0E56183
:100BC000F2E784F85050204600F040F8022084F804
:100BD00051002068016821F040010160A08821894E
:100BE00000F4827001F404410843A18901F400611A
:100BF0000843217C01F002010843217D01F001013D
:100C00000843218B01F400710843217F01F0380172
:100C1000084394F8201001F080010843218D01F46D
:100C20000051084321680860A069042101EA1040CE
:100C3000216848602068C16921F40061C16165656F
:100C4000012084F85100002070BD000030B585B04F
:100C5000002400940194029403940068144988428B
:100C600023D11448816941F480518161816901F483
:100C700080510491816941F00401816180690E4DC8
:100C800000F004000490A0200090022001900320B6
:100C9000039069462846FFF791FB4020CDE9000408
:100CA000694628460294FFF789FB05B030BD000075
:100CB0000030014000100240000801402DE9F84FCB
:100CC000044690F8500000271D4616468946012824
:100CD0000DD04FF0010B84F850B0FFF771FC804647
:100CE00094F85100BA46012804D0022793E002206C
:100CF000BDE8F88FB9F1000F73D0002E71D003203A
:100D000084F85100C4F854A0C4F83090A686E68652
:100D1000C4F838A0A4F83CA0A4F83EA0C4F844A0AD
:100D2000C4F840A0A068B0F5004F09D12068016860
:100D300021F0400101602068016841F480410160B8
:100D400020680168490603D4016841F04001016050
:100D5000E068B0F5006F606803D030B3012E24D096
:100D600041E008B1012E1CD1206B21680088C860C9
:100D700006E020688168890709D5216B0988C16070
:100D8000206B801C2063E08E401EE08609E0FFF7A8
:100D900017FCA0EB0800A84202D3681C01D031E088
:100DA0007DB3E08E0028E4D120E0206B216800783C
:100DB000087306E020688168890709D5216B0978E6
:100DC0000173206B401C2063E08E401EE0860AE029
:100DD000FFF7F6FBA0EB0800A84203D3681C02D083
:100DE00010E017E06DB1E08E0028E3D142462946BD
:100DF000204600F050FB08B120206065A06818B1C3
:100E000006E0FFE7032706E02068C16880680090DD
:100E1000606D00B1012784F851B084F850A03846C5
:100E200066E710B5401EB0F1807F01D3012010BDF0
:100E30004FF0E02460610F21601700F014FC0020E7
:100E4000A06107202061002010BD000070B590F85F
:100E50003C20012A2CD0012480F83C40022280F85A
:100E60003D2003685A689D6822F070060A68324384
:100E70005A60104B02689A420ED00F4B9A420BD028
:100E8000B2F1804F08D00D4B9A4205D00C4B9A42DC
:100E900002D00C4B9A4204D1496825F080031943D3
:100EA000916080F83D40002180F83C10084670BDFC
:100EB000022070BD002C01400034014000040040BD
:100EC00000080040000C004010B5040003D094F866
:100ED0003D0010B107E0012010BD002084F83C0067
:100EE000204600F01FF8022084F83D00211D2068F4
:100EF00000F072FB012084F8460084F83E0084F87C
:100F00003F0084F8400084F8410084F8420084F8EF
:100F1000430084F8440084F8450084F83D00002034
:100F200010BD000008B500680649884208D106488F
:100F3000C16941F01001C161C06900F0100000906A
:100F400008BD00000010004000100240FEE72DE93F
:100F5000F04105461E4614460F462A2000F0EAF9E5
:100F60002235A8B200F0C6F92234A0B200F0C2F9CE
:100F70002B2000F0DFF9384600F0BCF9304600F0D5
:100F8000B9F9BDE8F0412C2000F0D4B910B51446F1
:100F90000B460246FFF7DBFF2046BDE8104000F09D
:100FA000A9B92DE9F04780461F46581E83B2164660
:100FB000501E82B20C464046DDF82090FFF7C7FF76
:100FC0000AE0454604E0484600F094F96D1CADB2D5
:100FD000B542F8D3641CA4B2BC42F2D3BDE8F0879A
:100FE00070B5714D4FF40064002221462846FFF78A
:100FF000E1FA002201212846FFF7DCFA3220FFF750
:10100000CBF9012211462846FFF7D4FA3220FFF728
:10101000C3F9012221462846FFF7CCFA112000F03F
:1010200089F90A20FFF7B8F9362000F083F900208B
:1010300000F072F93A2000F07DF9052000F06CF91B
:10104000B22000F077F90C2000F066F90C2000F0D7
:1010500063F9002000F060F9332000F05DF93320DF
:1010600000F05AF9B72000F065F9352000F054F986
:10107000BB2000F05FF9352000F04EF9C02000F0F1
:1010800059F92C2000F048F9C22000F053F9012052
:1010900000F042F9C32000F04DF9132000F03CF9B4
:1010A000C42000F047F9202000F036F9C62000F0F7
:1010B00041F90F2000F030F9D02000F03BF9A420D6
:1010C00000F02AF9A12000F027F9D62000F032F92B
:1010D000A12000F021F9E02000F02CF9F02000F030
:1010E0001BF9002000F018F9042000F015F9042085
:1010F00000F012F9042000F00FF9052000F00CF9BF
:10110000292000F009F9332000F006F93E2000F014
:1011100003F9382000F000F9122000F0FDF8122049
:1011200000F0FAF8282000F0F7F8302000F0F4F88A
:10113000E12000F0FFF8F02000F0EEF8072000F0CA
:10114000EBF80A2000F0E8F80D2000F0E5F80B209D
:1011500000F0E2F8072000F0DFF8282000F0DCF8CB
:10116000332000F0D9F83E2000F0D6F8362000F009
:10117000D3F8142000F0D0F8142000F0CDF8292086
:1011800000F0CAF8322000F0C7F8212000F0D2F8B1
:10119000112000F0CFF87820FFF7FEF8BDE870408E
:1011A000292000F0C7B80000000C01402DE9FF4FD6
:1011B00081B00446DDF83C9000904FEA59074FF0AB
:1011C0000008780700D0012000EBD70000FB09FBE6
:1011D000203AD0B20390029802994844401E83B24C
:1011E000E019401E82B22046FFF7B1FE002553E011
:1011F000B9F10C0F2AD0B9F1100F2ED0B9F1180F98
:101200002ED0B9F1200F49D12749039801EB801066
:10121000002610F805A0109800284FF0010000FAF1
:1012200006F000EA0A0022D020B12046049A029972
:10123000FFF7ACFE641C0098A4B2201AB84225D176
:101240000298009C401C80B2029023E0039817494A
:1012500000EB400001EB8000DAE71549039803E05A
:101260000398144900EB400001EB0010D0E708B1EF
:10127000049800E00E9800F03DF808F10100C0B2BB
:10128000B0FBF7F1804607FB118050B1761CF6B237
:10129000082EC0D36D1CADB25D45A9D305B0BDE825
:1012A000F08F4FF00008F5E718330008E416000847
:1012B000581B0008482100082DE9FE4F9946DDE93A
:1012C0000D6714468A460546DDF830800CE0CDF8FF
:1012D00000804B4651462846CDE90167FFF766FF7F
:1012E00005EB560085B2641C2278002AEFD1BDE8D8
:1012F000FE8F000010B50446012202210548FFF7C9
:1013000059F9200A00F02AF8E0B2BDE8104000F0D8
:1013100025B80000000C014010B50446012202214E
:101320000348FFF747F92046BDE8104000F016B823
:10133000000C014070B5084C0546002202212046F1
:10134000FFF738F9284600F009F82046BDE870405C
:1013500001220221FFF72EB9000C014031B50A4DE0
:101360004FF48064002221462846FFF723F94FF608
:10137000FF73012269460548FFF7A0FC01222146C0
:101380002846FFF717F938BD000C01401000002077
:1013900070B586B000241848009401940294039418
:1013A000816941F020018161816901F0200104918E
:1013B000816941F004018161816901F004010491B6
:1013C000816941F00801816180690C4E00F00800DC
:1013D00040F207450490002229463046FFF7EAF81C
:1013E00001200095CDE901040220039069463046B2
:1013F000FEF7E4FF06B070BD00100240000C014093
:10140000104810B50E4901604FF48271416000210F
:101410008160C1604FF400720161C0E905120822C9
:10142000C0E90721416281620A21C162FFF7B4FB72
:10143000002803D0BDE81040FEF7ACBF10BD00008F
:1014400000300140100000201CB500240F4800941B
:101450000D49019401604721C0E9011440F2E731D0
:10146000C16080218161FFF72FFD08B1FEF792FF77
:101470000094694605480194FFF7E8FC002801D074
:10148000FEF788FF1CBD000000100040680000202F
:10149000FEE7FEE7704738B50B460092044600228F
:1014A000802100F009F8002804D0606D40F0200091
:1014B0006065032038BD00002DE9F8431E469146C3
:1014C00088460446089DFFF77BF8401B351AFFF756
:1014D00077F8074625480068C0F3CB30684338E00A
:1014E000701C37D0FFF76CF8C01BA84203D215B1AF
:1014F000009860B32CE02068416821F0E001416071
:101500006068B0F5827F0BD1A068B0F5004F02D0C3
:10151000B0F5806F04D12068016821F040010160BE
:10152000A06AB0F5005F09D12068016821F400517C
:1015300001602068016841F400510160012084F8D5
:101540005100002084F850000320BDE8F8830025F6
:10155000401E00902068816838EA010004D0002114
:101560004945BDD10020F0E70121F9E70C0000203A
:101570007047FFF72BB830B58FB028216846FEF7CB
:1015800045FE14210AA8FEF741FE01210804CDE919
:1015900000100024029402250491CDE907504FF475
:1015A000E01009906846FFF767F908B172B6FEE7E8
:1015B0000F20CDE90A054FF48060CDE90C400221EF
:1015C0000AA80E94FFF78CF8002801D072B6FEE747
:1015D0000FB030BD70470000F0B502681C4B1D4DC8
:1015E0001D4E1E4F1E4C4FF0804C984209D0A04219
:1015F00007D0604505D0A84203D0B04201D0B84220
:1016000004D122F0700E4A6842EA0E02984209D0D4
:10161000A04207D0604505D0A84203D0B04201D017
:10162000B84203D122F44075CA682A434D6922F0BA
:1016300080022A4302608A68C2620A688262984213
:1016400001D0A04201D10969016301214161F0BDCE
:10165000002C01400004004000080040000C004045
:1016600000340140FEE70907090E002804DB00F101
:10167000E02080F80014704700F00F0000F1E02037
:1016800080F8141D704700000EB5FEF7A7FFFFF7A6
:1016900072FFFFF77DFEFFF7B3FEFFF7D5FEFFF702
:1016A0009FFC1F20F023002100901A460846FFF7F8
:1016B00078FC32214FF6FF7305220846FEF70CFE38
:1016C000002220214FF4FC608DE807000A214FF62C
:1016D000E07302A20846FFF7EFFDFEE754455354BE
:1016E00000000000000000000000000000000000FA
:1016F00000000404040404000004000014140A00A0
:10170000000000000000000000000A0A1F0A0A1F73
:101710000A0A000000040E1505060C14150E04003C
:10172000000012150D152E2C2A1200000000040ACC
:101730000A361515291600000202010000000000FB
:101740000000000010080804040404040808100045
:101750000204040808080808040402000000000449
:10176000150E0E150400000000000008083E0808D1
:101770000000000000000000000000000202010064
:1017800000000000003F000000000000000000001A
:1017900000000000000200000020101008080404EF
:1017A0000202010000000E1111111111110E0000B2
:1017B0000000040604040404040E000000000E11DE
:1017C00011080402011F000000000E11100C10107F
:1017D000110E00000000080C0C0A091F081C000074
:1017E00000001F01010F1110110E000000000C126B
:1017F000010D1311110E000000001E100808040452
:101800000404000000000E11110E1111110E000051
:1018100000000E111119161009060000000000004A
:1018200004000000000400000000000000040000AC
:101830000004040000001008040202040810000064
:10184000000000003F003F00000000000000020414
:10185000081010080402000000000E111108040412
:101860000004000000001C22292D2D1D221C000058
:10187000000004040C0A0A1E1233000000000F12BC
:10188000120E1212120F000000001E1101010101C0
:10189000110E000000000F1212121212120F00009F
:1018A00000001F120A0E0A02121F000000001F1281
:1018B0000A0E0A020207000000001C120101391181
:1018C000120C000000003312121E1212123300001C
:1018D00000001F0404040404041F000000003E086C
:1018E0000808080808080907000037120A060A1243
:1018F000123700000000070202020202223F00002D
:1019000000003B1B1B1B15151535000000003B128A
:1019100016161A1A1217000000000E1111111111DB
:10192000110E000000000F12120E0202020700004A
:1019300000000E1111111117190E180000000F12DE
:10194000120E0A121237000000001E1101060810C4
:10195000110F000000001F1504040404040E000011
:101960000000331212121212120C00000000331287
:10197000120A0A0C040400000000151515150E0AC1
:101980000A0A000000001B0A0A04040A0A1B0000DD
:1019900000001B0A0A0A0404040E000000001F09CC
:1019A00008040402121F00001C04040404040404BC
:1019B00004041C00000202040404080808101000BB
:1019C0000E0808080808080808080E00040A0000A5
:1019D0000000000000000000000000000000000007
:1019E0000000003F020400000000000000000000B2
:1019F00000000000000C121C123C00000003020258
:101A0000020E1212120E000000000000001C120252
:101A1000120C000000181010101C1212123C0000D2
:101A200000000000000C121E021C0000001824041C
:101A3000041E0404041E000000000000003C120C00
:101A4000021C221C00030202020E121212370000B6
:101A50000004040000060404040E0000000808004E
:101A6000000C08080808080700030202021A0A0608
:101A70000A1300000007040404040404041F000007
:101A800000000000000F15151515000000000000F3
:101A9000000F12121237000000000000000C12129A
:101AA000120C000000000000000F1212120E0207BC
:101AB00000000000001C1212121C10380000000070
:101AC000001B06020207000000000000001E020CBE
:101AD000101E000000000004041E0404041C00008A
:101AE00000000000001B1212123C00000000000069
:101AF000001B0A0A04040000000000000015150E77
:101B00000A0A000000000000001B0A040A1B000073
:101B100000000000003312120C0804030000000053
:101B2000001E0804041E000018080808080C080815
:101B3000080818000808080808080808080808081D
:101B40000604040404080404040406001609000042
:101B50000000000000000000000000000000000085
:101B6000000000000000000000000008080808084D
:101B7000080800001818000000486C24120000003B
:101B800000000000000000000000002424247F1258
:101B900012127F12121200000000081C2A2A0A0CDE
:101BA0001828282A2A1C08080000002225151515C7
:101BB0002A585454542200000000000C1212120A39
:101BC00076252911916E000000060604030000002E
:101BD000000000000000000000402010100808086D
:101BE0000808081010204000000204080810101017
:101BF00010101008080402000000000008086B1C08
:101C00001C6B08080000000000000000080808081D
:101C10007F08080808000000000000000000000025
:101C200000000000060604030000000000000000A1
:101C3000FE000000000000000000000000000000A6
:101C40000000000006060000000080404020201038
:101C50001008080404020200000000182442424256
:101C60004242424224180000000000080E08080802
:101C700008080808083E00000000003C42424220DC
:101C800020100804427E00000000003C4242201860
:101C900020404042221C0000000000203028242464
:101CA00022227E20207800000000007E0202021A1C
:101CB00026404042221C0000000000382402021A84
:101CC00026424242241800000000007E222210100A
:101CD00008080808080800000000003C42424224AE
:101CE00018244242423C00000000001824424242B4
:101CF00064584040241C0000000000000000181838
:101D0000000000001818000000000000000000089B
:101D10000000000000080804000000402010080433
:101D200002040810204000000000000000007F00B6
:101D300000007F00000000000000000204081020E6
:101D400040201008040200000000003C42424640CF
:101D500020101000181800000000001C225A5555D1
:101D600055552D42221C00000000000808181414CC
:101D7000243C224242E700000000001F2222221ED3
:101D800022424242221F00000000007C4242010128
:101D900001010142221C00000000001F22424242B9
:101DA00042424242221F00000000003F4212121E27
:101DB00012120242423F00000000003F4212121E77
:101DC00012120202020700000000003C2222010160
:101DD00001712122221C0000000000E74242424221
:101DE0007E42424242E700000000003E0808080828
:101DF00008080808083E00000000007C10101010C1
:101E0000101010101010110F0000007722120A0E8F
:101E10000A121222227700000000000702020202CA
:101E200002020202427F000000000077363636369A
:101E30002A2A2A2A2A6B0000000000E346464A4A62
:101E400052525262624700000000001C2241414190
:101E500041414141221C00000000003F42424242F9
:101E60003E020202020700000000001C2241414124
:101E700041414D53321C60000000003F4242423E4F
:101E80001212222242C700000000007C42420204DB
:101E900018204042423E00000000007F4908080828
:101EA00008080808081C0000000000E742424242FF
:101EB00042424242423C0000000000E742422224EB
:101EC00024141418080800000000006B494949490F
:101ED0005555362222220000000000E74224241833
:101EE0001818242442E7000000000077222214146E
:101EF00008080808081C00000000007E21201010BF
:101F000008040442423F0000007808080808080856
:101F100008080808080878000000020204040808FD
:101F20000810102020204040001E1010101010102B
:101F30001010101010101E000038440000000000A7
:101F40000000000000000000000000000000000091
:101F500000000000000000FF000608000000000074
:101F60000000000000000000000000000000003C35
:101F70004278444242FC0000000000030202021AC0
:101F800026424242261A00000000000000000038ED
:101F900044020202443800000000006040404078E3
:101FA0004442424264D80000000000000000003CAF
:101FB000427E0202423C0000000000F08808087ED9
:101FC00008080808083E0000000000000000007C2F
:101FD00022221C023C42423C000000030202023A60
:101FE0004642424242E700000000000C0C00000E96
:101FF00008080808083E00000000003030000038E3
:10200000202020202020221E000000030202027255
:10201000120A1612227700000000000E08080808B5
:1020200008080808083E0000000000000000007FCB
:102030009292929292B70000000000000000003BD4
:102040004642424242E70000000000000000003C1F
:1020500042424242423C0000000000000000001BDF
:1020600026424242221E02070000000000000078C3
:1020700044424242447840E0000000000000007703
:102080004C040404041F0000000000000000007C59
:1020900042023C40423E0000000000000008083EB2
:1020A0000808080808300000000000000000006375
:1020B0004242424262DC000000000000000000E7F3
:1020C000422424140808000000000000000000EB77
:1020D000494955552222000000000000000000760A
:1020E00024181818246E000000000000000000E70B
:1020F0004224241418080807000000000000007E95
:1021000022100808447E000000C02020202020105B
:10211000202020202020C0001010101010101010BF
:1021200010101010101010100006080808080810F1
:1021300008080808080806000C32C2000000000069
:10214000000000000000000000000000000000008F
:10215000000000000000000000000000000000007F
:10216000000000000000000000000000000000006F
:10217000000000000000000000000000000000005F
:10218000600060006000600060006000600040006F
:10219000200020002000000000000000600060001F
:1021A0006000000000000000000000006006600603
:1021B0003003980188004400000000000000000087
:1021C000000000000000000000000000000000000F
:1021D00000000000000000000000000000000000FF
:1021E0001002100210021002FE07FE07080208018A
:1021F000080108010801FE07FE07040104010401AB
:102200000401000000000000000000000000400089
:102210004000F00158034C03CC034C005800700000
:10222000E000C001C00140034C035C034C034801C3
:10223000F00040004000000000000000000000002E
:102240000E010A01910091009100510051003A00E5
:10225000AE03A00250045004480448044804840219
:1022600084030000000000000000000000000000E7
:1022700038006C006C006C006C006C002C0098073F
:102280001C011A01330133016301E300C308C609CD
:102290003C07000000000000000000000C001C00D3
:1022A0001000100008000400000000000000000002
:1022B000000000000000000000000000000000001E
:1022C0000000000000000000000000000004000208
:1022D000000180008000400040002000200020001D
:1022E00020002000200020004000400080008000EE
:1022F00000010002000400000000000002000400D1
:1023000008001000100020002000400040004000A5
:10231000400040004000400020002000100010005D
:10232000080004000200000000000000000000009F
:10233000000000004000C0004000460C4E0FD001DD
:10234000F0015E0F460C400040004000000000001D
:10235000000000000000000000000000000000007D
:10236000000000000000400040004000400040002D
:10237000FE0F400040004000400040000000000010
:10238000000000000000000000000000000000004D
:10239000000000000000000000000000000000003D
:1023A0000000000000000000000000000C001C0005
:1023B00010001000080004000000000000000000F1
:1023C000000000000000000000000000000000000D
:1023D000FE070000000000000000000000000000F8
:1023E00000000000000000000000000000000000ED
:1023F00000000000000000000000000000000000DD
:102400000000000000000000000000001C001C0094
:102410001C00000000000000000000000004000696
:102420000002000300010001800080004000400025
:1024300060002000200010001000080008000C00C0
:102440000400060002000000000000000000000080
:102450000000F00098010C030C03060606060606B1
:10246000060606060606060606060C030C03980179
:10247000F00000000000000000000000000000006C
:10248000000040007C0060006000600060006000B0
:10249000600060006000600060006000600060003C
:1024A000FC0300000000000000000000000000002D
:1024B0000000F80084010203060306030003000184
:1024C0008001C00060002000100008020402060223
:1024D000FE030000000000000000000000000000FB
:1024E00000007800C6008601860180018001C000DE
:1024F000700080010001000300030603060386014B
:10250000F8000000000000000000000000000000D3
:10251000000080018001C001A001A001900188019C
:10252000880184018201FE0F800180018001800109
:10253000E0070000000000000000000000000000B4
:102540000000FC0304000400040004000400F40084
:102550008C010403000300030603060382018401C7
:10256000F800000000000000000000000000000073
:102570000000E00118030C030C0004000600E60153
:1025800016030E0606060606060604060C021803C7
:10259000F00000000000000000000000000000004B
:1025A0000000F8070C06040204010001000180008D
:1025B000800040004000400060006000600060005B
:1025C00060000000000000000000000000000000AB
:1025D0000000F8010C030606060606060C021C03A2
:1025E000F000C8010C0306060606060606060C03E4
:1025F000F0010000000000000000000000000000EA
:102600000000F0000C010C03060206060606060692
:1026100006078C0678060006000300030C018C01F7
:102620007800000000000000000000000000000032
:10263000000000000000000000000000E000E000DA
:10264000E00000000000000000000000E000E000EA
:10265000E00000000000000000000000000000009A
:1026600000000000000000000000000060006000AA
:1026700000000000000000000000000000006000FA
:10268000600040002000200000000000000000006A
:10269000000400020001800040002000100008003B
:1026A000040008001000200040008000000100022B
:1026B0000004000000000000000000000000000016
:1026C000000000000000000000000000FE07000005
:1026D00000000000FE0700000000000000000000F5
:1026E00000000000000000000000000000000000EA
:1026F00004000800100020004000800000010002DB
:1027000000040002000180004000200010000800CA
:1027100004000000000000000000000000000000B5
:102720000000E0031806040C040C0C0C0C0C000751
:10273000800140004000400000000000E000E00098
:10274000E0000000000000000000000000000000A9
:10275000E00018030C02CC0564056605A605B60466
:10276000B604B604B604B602E4010C040C02180365
:10277000F000000000000000000000000000000069
:102780000000600060005000D000900090008800C1
:1027900088010801F801040304030402020202068E
:1027A0000F0F00000000000000000000000000000B
:1027B0000000FE008C030C030C030C030C038C01C3
:1027C000FC000C030C020C060C060C060C060C0399
:1027D000FE010000000000000000000000000000FA
:1027E0000000E00318030C060C04040406000600B5
:1027F000060006000600060006040C040C0218037E
:10280000F0000000000000000000000000000000D8
:1028100000007F008C010C030C030C060C060C0658
:102820000C060C060C060C060C060C030C038C01A3
:102830007F00000000000000000000000000000019
:102840000000FF0306030604060406008600860057
:10285000FE008600860086000600060406040602C6
:10286000FF03000000000000000000000000000066
:102870000000FF0306030604060406008600860027
:10288000FE008600860086000600060006000600A0
:102890001F00000000000000000000000000000019
:1028A0000000F00018010C020C02040206000600F1
:1028B00006000600C60F060306030C030C031803EC
:1028C000F000000000000000000000000000000018
:1028D00000000F0F06060606060606060606060692
:1028E000FE0706060606060606060606060606068F
:1028F0000F0F0000000000000000000000000000BA
:102900000000FC0360006000600060006000600088
:1029100060006000600060006000600060006000B7
:10292000FC030000000000000000000000000000A8
:102930000000F807C000C000C000C000C000C00018
:10294000C000C000C000C000C000C000C000C00087
:10295000C000C60066003C0000000000000000004F
:102960000000CF038601C600460026001600360090
:102970002E006E004600C600860086010601060392
:102980008F070000000000000000000000000000B1
:1029900000001F00060006000600060006000600F4
:1029A00006000600060006000600060406040602ED
:1029B000FF03000000000000000000000000000015
:1029C00000000707860386038E038E034E034E0323
:1029D0004A035A035A033A033203320332031203FF
:1029E0008707000000000000000000000000000059
:1029F00000008E0F0C021C021C023402340264021E
:102A000064024402C40284028403840304030403B2
:102A10001F02000000000000000000000000000095
:102A20000000F00098010C030C02060606060606DC
:102A3000060606060606060606060C020C039801A4
:102A4000F000000000000000000000000000000096
:102A50000000FF0006030606060606060606060632
:102A60008603FE00060006000600060006000600BB
:102A70001F00000000000000000000000000000037
:102A80000000F00098010C030C020606060606067C
:102A9000060606060606060676064C02CC039801D4
:102AA000F0008007000300000000000000000000AC
:102AB0000000FF01060306060606060606060603D4
:102AC000FE004600C60086008601060306030606D1
:102AD0000F0E0000000000000000000000000000D9
:102AE0000000F8020C030602060206000E003C007D
:102AF000F800E003800300070206020606060C0346
:102B0000F0010000000000000000000000000000D4
:102B10000000FE0762046108610860006000600058
:102B200060006000600060006000600060006000A5
:102B3000F80100000000000000000000000000009C
:102B400000001E070C020C020C020C020C020C020C
:102B50000C020C020C020C020C020C020C021801FA
:102B6000F000000000000000000000000000000075
:102B700000000F070602040104010C010C0188008B
:102B8000880098009800500050007000300020002D
:102B90002000000000000000000000000000000015
:102BA0000000F70E62044204460446046402640214
:102BB000E402E4029C029C019801980188018800CB
:102BC000880000000000000000000000000000007D
:102BD00000009E070C01080118019000B000600081
:102BE000200060006000D00090008801080104030C
:102BF0008E07000000000000000000000000000040
:102C000000000F0F060404020C0208011801B800AE
:102C1000B000700060006000600060006000600054
:102C2000F8010000000000000000000000000000AB
:102C30000000FC070C020603020180018000400036
:102C40004000200020001000180008040C040402BA
:102C5000FE0300000000000000000000E003200070
:102C60002000200020002000200020002000200064
:102C70002000200020002000200020002000200054
:102C800020002000E0030000000000000000000021
:102C900004000400080008001000100010002000CC
:102CA000200040004000C0008000800000010001C2
:102CB0000002000200020004000000007C0040004E
:102CC0004000400040004000400040004000400004
:102CD00040004000400040004000400040004000F4
:102CE000400040007C0000000000600090000801EF
:102CF00000000000000000000000000000000000D4
:102D000000000000000000000000000000000000C3
:102D100000000000000000000000000000000000B3
:102D200000000000000000000000000000000000A3
:102D30000000000000000000000000000000000093
:102D4000000000000000FF0F0000000018006000FD
:102D50000000000000000000000000000000000073
:102D60000000000000000000000000000000000063
:102D70000000000000000000000000000000000053
:102D8000000000000000000000000000F0010C0343
:102D90000C030003E0031C030E03060306038E0B63
:102DA0007C0E000000000000000000000000000099
:102DB00008000E000C000C000C000C00CC013C03C1
:102DC0001C060C060C060C060C060C060C021C035A
:102DD000E40100000000000000000000000000000E
:102DE000000000000000000000000000F0008C0166
:102DF0008C01860106000600060006020C020C018A
:102E0000F0000000000000000000000000000000D2
:102E10000002C003000300030003000378038C03D7
:102E20000C030603060306030603060304038C07CC
:102E30007801000000000000000000000000000019
:102E4000000000000000000000000000E001180386
:102E500008020C060C06FC070C000C0018041802F3
:102E6000E001000000000000000000000000000081
:102E70000000C0036006300630003000FE01300064
:102E800030003000300030003000300030003000C2
:102E9000FC01000000000000000000000000000035
:102EA000000000000000000000000000F007D8064D
:102EB0008C018C018C019801F8000C00FC00CC0303
:102EC000060306038E03F800000000000000000067
:102ED00008000E000C000C000C000C00EC011C03A0
:102EE0000C030C030C030C030C030C030C030C036A
:102EF0009E0700000000000000000000000000002D
:102F00000000600060000000000040007C006000E5
:102F100060006000600060006000600060006000B1
:102F2000FC030000000000000000000000000000A2
:102F30000000C001C001000000000001F00180019C
:102F40008001800180018001800180018001800179
:102F500080018001CC007C00000000000000000027
:102F600008000E000C000C000C000C008C038C0000
:102F70008C004C006C005C008C008C010C010C037C
:102F80009E0700000000000000000000000000009C
:102F900040007C0060006000600060006000600035
:102FA0006000600060006000600060006000600021
:102FB000FC03000000000000000000000000000012
:102FC0000000000000000000000000003707EE06CF
:102FD0006606660666066606660666066606660691
:102FE000FF0F0000000000000000000000000000D3
:102FF000000000000000000000000000EE011C03C3
:103000000C030C030C030C030C030C030C030C0348
:103010009E0700000000000000000000000000000B
:10302000000000000000000000000000F000980117
:103030000C03060606060606060606060C030C0327
:10304000F000000000000000000000000000000090
:10305000000000000000000000000000EE011C0362
:103060000C060C060C060C060C060C060C031C03C6
:10307000EC010C000C003E0000000000000000000D
:1030800000000000000000000000000078028C0337
:103090000C030603060306030603060304038C035E
:1030A000780300030003C0070000000000000000D8
:1030B0000000000000000000000000009F03580610
:1030C000380618001800180018001800180018001A
:1030D000FF000000000000000000000000000000F1
:1030E000000000000000000000000000F0031C03CE
:1030F0000C020C023800F000C003040304038C032C
:10310000FC010000000000000000000000000000C2
:10311000000000002000200030003000FE013000E0
:10312000300030003000300030003000300230021B
:10313000E0010000000000000000000000000000AE
:103140000000000000000000000008028E030C03D5
:103150000C030C030C030C030C030C030C039C0763
:1031600078010000000000000000000000000000E6
:103170000000000000000000000000001E070C021C
:103180000801080118019000B000B0006000600064
:10319000200000000000000000000000000000000F
:1031A000000000000000000000000000F70E6204B4
:1031B000460464026402EC029C01980198019801A3
:1031C00008000000000000000000000000000000F7
:1031D000000000000000000000000000BC07180113
:1031E0001001B00060006000E000900008010803DA
:1031F0009E0700000000000000000000000000002A
:103200000000000000000000000000009E07080110
:103210000801080190009000B000600060006000AC
:103220002000200024001C0000000000000000001E
:10323000000000000000000000000000FC0184010C
:10324000C4004400600020003000180208020C0393
:10325000FC010000000000000000000000038000EE
:10326000800080008000800080008000800040009E
:1032700020004000800080008000800080008000EE
:10328000800080000003000040004000400040003B
:10329000400040004000400040004000400040002E
:1032A000400040004000400040004000400040001E
:1032B0004000400040004000000000000C001000F2
:1032C000100010001000100010001000100020006E
:1032D000400020001000100010001000100010002E
:1032E000100010000C00000000001C002204C204AA
:1032F000800300000000000000000000000000004B
:1033000000000000000000000000000000000000BD
:1033100000000000000000000000000000000000AD
:10332000000000000000000000000000000000009D
:10333000000000000000000000000000000000008D
:10334000000000000000000000000000000000007D
:10335000000000000000000000000000000000006D
:103360000000C001C001C001C001C001C001C00116
:1033700080008000800080008000800080000000CD
:103380000000000000008001C003C00380010000B5
:103390000000000000000000000000000000E01C31
:1033A000E01CF01E700E38071803080184000000AE
:1033B000000000000000000000000000000000000D
:1033C00000000000000000000000000000000000FD
:1033D00000000000000000000000000000000000ED
:1033E0000000000020102010201020102010FE7F70
:1033F000FE7F1008100810081008100810081008A8
:10340000FE7FFE7F08040804080408040804000086
:1034100000000000000000000000000000000000AC
:1034200000010001C007601910311831183918392E
:1034300038017001E001C0038007000F001D003952
:1034400000311C311C310C310C11180DE00700014A
:10345000000100010000000000000000000000006A
:10346000000000001C1036186308630C630463043A
:10347000630263026301361D9C37802280634063D0
:10348000406320632063306310221836081C00005C
:10349000000000000000000000000000000000002C
:1034A00000000000F00098018C018C018C018C015F
:1034B0008C00CC007800183E1C08360832086304E3
:1034C0006304C304C303834306438E26781C0000B1
:1034D00000000000000000000000000000001C00D0
:1034E0003C003C003000300010000C0006000000E2
:1034F00000000000000000000000000000000000CC
:1035000000000000000000000000000000000000BB
:10351000000000000000000000000000000000406B
:10352000002000100008000C000400060003000347
:103530000003800180018001800180018001800101
:10354000800100030003000300060006000C0008D1
:1035500000100020004000000000000000000200F9
:10356000040008001000300020006000C000C0000F
:10357000C000800180018001800180018001800104
:103580008001C000C000C00060006000300010007A
:10359000080004000200000000000000000000001D
:1035A0000000000000000000000180038003000113
:1035B0001C713C79783DC0070001C007783D3C791B
:1035C0001C710001800380038001000000000000E6
:1035D00000000000000000000000000000000000EB
:1035E00000000000000000000000000100010001D8
:1035F0000001000100010001FC7F00010001000149
:1036000000010001000100010000000000000000B6
:1036100000000000000000000000000000000000AA
:10362000000000000000000000000000000000009A
:10363000000000000000000000000000000000008A
:1036400000000000000000001C003C003C003000B6
:10365000300010000C000600000000000000000018
:10366000000000000000000000000000000000005A
:103670000000000000000000FE7F000000000000CD
:10368000000000000000000000000000000000003A
:10369000000000000000000000000000000000002A
:1036A000000000000000000000000000000000001A
:1036B000000000000000000000000000000000000A
:1036C00000000000000018003C003C001800000052
:1036D00000000000000000000000000000000040AA
:1036E000006000200030001000180008000C0004EA
:1036F000000600020003000180018000C0004000BD
:103700006000200030001000180008000C000400C9
:1037100006000200000000000000000000000000A1
:1037200000000000C007600C301818301830182056
:103730000C600C600C600C600C600C600C600C6029
:103740000C601820183018303018600CC0070000CA
:103750000000000000000000000000000000000069
:103760000000000000018001F8018001800180015B
:103770008001800180018001800180018001800141
:1037800080018001800180018001C003F81F0000DA
:103790000000000000000000000000000000000029
:1037A00000000000E007101C0818043004300C3042
:1037B0000C300030001800080004000200018000F6
:1037C00040002020102008200430FC1FFC1F0000B7
:1037D00000000000000000000000000000000000E9
:1037E00000000000E003180E0C0C0C180C180C184C
:1037F0000018000C0006C003000E00180010003076
:1038000000300C300C300C100C18180CE0030000C9
:1038100000000000000000000000000000000000A8
:1038200000000000000C000E000E000F800E800E45
:10383000400E600E200E100E100E080E040E040E28
:10384000FE7F000E000E000E000E000E000EC07F68
:103850000000000000000000000000000000000068
:1038600000000000F03FF03F1000100010000800C2
:103870000800C807280C1818081000300030003065
:1038800000300C300C3004180418080CF003000051
:103890000000000000000000000000000000000028
:1038A00000000000800FC0102030103018001800F9
:1038B00008000C008C0F6C183C301C600C600C6015
:1038C0000C600C601860182030306018C0070000D1
:1038D00000000000000000000000000000000000E8
:1038E00000000000F83FF83F1C100C080408040416
:1038F00000040002000200010001000180008000BD
:103900008000C000C000C000C000C000C0000000B7
:1039100000000000000000000000000000000000A7
:1039200000000000E007300C18180C300C300C3090
:103930001C3038187008E007B007180E0C1C063849
:1039400006300630063006300C18180CE003000074
:103950000000000000000000000000000000000067
:1039600000000000E00318040C080C1806100630D4
:1039700006300630063006380C3C1836F031003080
:103980000018001800180C0C0C060C03F0010000C5
:103990000000000000000000000000000000000027
:1039A0000000000000000000000000000000000017
:1039B00000008001C003C00380010000000000007F
:1039C0000000000000008001C003C003800100006F
:1039D00000000000000000000000000000000000E7
:1039E00000000000000000000000000000000000D7
:1039F0000000C000C0000000000000000000000047
:103A000000000000000000000000C000C0008000B6
:103A100080004000400000000000000000000000A6
:103A200000000020001000080004000600038001D0
:103A3000C0006000300018000C001800300060006A
:103A4000C0008001000300060004000800100020F0
:103A50000000000000000000000000000000000066
:103A60000000000000000000000000000000000056
:103A70000000FE7F00000000000000000000FE7F4C
:103A80000000000000000000000000000000000036
:103A90000000000000000000000000000000000026
:103AA000000004000800100020006000C000800139
:103AB00000030006000C001800300018000C00067F
:103AC00000038001C0006000200010000800040016
:103AD00000000000000000000000000000000000E6
:103AE0000000C0073018083008600C601C601C60C3
:103AF0001C600030001C0006000180008000800077
:103B00008000000000008001C003C00380010000AD
:103B100000000000000000000000000000000000A5
:103B200000000000C0076018103018200C2F8C4DCA
:103B3000864CC64CC64C664C664466446626662671
:103B40006615CC1C0C40082018303018C007000047
:103B50000000000000000000000000000000000065
:103B600000000001C001C001C0014001600320034A
:103B7000200320033006100610061006F80F080C6C
:103B8000080C080C0C0C0418041806181F7C000004
:103B90000000000000000000000000000000000025
:103BA00000000000FE07181C1838183018301830B4
:103BB00018301818180CF807181818301820186042
:103BC000186018601860186018301818FE0F000090
:103BD00000000000000000000000000000000000E5
:103BE00000000000C0276038103018200C400C4046
:103BF0000400060006000600060006000600060097
:103C000006000C400C400C2018303018C007000093
:103C100000000000000000000000000000000000A4
:103C200000000000FE03180E181818301830183065
:103C300018601860186018601860186018601860C4
:103C400018601830183018101818180EFE030000ED
:103C50000000000000000000000000000000000064
:103C600000000000FE3F18301820186018401800AF
:103C700018081808180CF80F180C1808180818005D
:103C8000180018001840184018201830FE3F000097
:103C90000000000000000000000000000000000024
:103CA00000000000FE7F1870184018C0188018002F
:103CB000181018101818F81F1818181018101800D5
:103CC0001800180018001800180018007E000000E6
:103CD00000000000000000000000000000000000E4
:103CE00000000000C013701C101018100C200C20D5
:103CF00004000600060006000600060006FC06306A
:103D000006300C300C30183018303008C007000076
:103D100000000000000000000000000000000000A3
:103D2000000000003F7E0C180C180C180C180C1822
:103D30000C180C180C180C18FC1F0C180C180C186C
:103D40000C180C180C180C180C180C183F7E0000DE
:103D50000000000000000000000000000000000063
:103D600000000000F81F80018001800180018001B7
:103D7000800180018001800180018001800180013B
:103D8000800180018001800180018001F81F000016
:103D90000000000000000000000000000000000023
:103DA00000000000E07F0006000600060006000696
:103DB00000060006000600060006000600060006D3
:103DC00000060006000600060006000600060006C3
:103DD0000E060E038E01FC00000000000000000033
:103DE000000000007E7C1818180818041806180235
:103DF000180198019801D801B8033803180718066C
:103E0000180E180C181C1818183018307EFC0000FA
:103E100000000000000000000000000000000000A2
:103E2000000000007E00180018001800180018009C
:103E300018001800180018001800180018001800C2
:103E4000180018001840184018201830FE3F0000D5
:103E50000000000000000000000000000000000062
:103E6000000000001FF81C381C381C381C3C34347F
:103E7000343434343436743264326432643264310B
:103E8000C431C431C431C430C43084309FFC00001C
:103E90000000000000000000000000000000000022
:103EA000000000001F7C1C103C10341034107410F3
:103EB0006410E410C410C411841184130413041793
:103EC0000416041E041C041C041C04181F18000003
:103ED00000000000000000000000000000000000E2
:103EE00000000000C003300C181808100C300C3013
:103EF0000660066006600660066006600660066092
:103F000006600C200C3008101818300CC00300009C
:103F100000000000000000000000000000000000A1
:103F200000000000FE0F18181830186018601860A4
:103F30001860186018301818F80F180018001800CA
:103F40001800180018001800180018007E00000063
:103F50000000000000000000000000000000000061
:103F600000000000C003300C18180C100C300C209E
:103F70000660066006600660066006600660066011
:103F80000660E4612C331C321816300EC007004C5A
:103F9000007C00380000000000000000000000006D
:103FA00000000000FE07181C1838183018301830B0
:103FB00018301818180CF807980318031807180673
:103FC0001806180E180C180C181C18187E7800000B
:103FD00000000000000000000000000000000000E1
:103FE00000000000E027303818300C200C200C00B6
:103FF0000C0018007800E003800F001E00380070ED
:10400000006004600460086018303818C80F0000B1
:1040100000000000000000000000000000000000A0
:1040200000000000FC3F8C218461824182418001BC
:104030008001800180018001800180018001800178
:10404000800180018001800180018001E007000083
:104050000000000000000000000000000000000060
:10406000000000003F7C0C100C100C100C100C1009
:104070000C100C100C100C100C100C100C100C1060
:104080000C100C100C100C1008083804E003000091
:104090000000000000000000000000000000000020
:1040A000000000003EF818201820182030103010B2
:1040B00030103010600860086008E00CC004C004D4
:1040C000C00480038003800380030001000100001E
:1040D00000000000000000000000000000000000E0
:1040E00000000000DFF38661862186218C210C21EF
:1040F0008C238C138C138C134C1358125816580E97
:10410000380E380E380E300C100410041004000065
:10411000000000000000000000000000000000009F
:10412000000000007E3E1808380830043004700299
:104130006002E001C001C00180018003400340072C
:1041400020062006100C100C081808183E7C0000F1
:10415000000000000000000000000000000000005F
:10416000000000007E7C1C10181018083008300C6D
:10417000700460046002C002C002C00180018001BE
:10418000800180018001800180018001E007000042
:10419000000000000000000000000000000000001F
:1041A00000000000F83F18180818040C040E000660
:1041B0000007000380038001C001C000E000600030
:1041C00070003000382018201C100C18FE1F000052
:1041D0000000000000000000000000000000C03FE0
:1041E00040004000400040004000400040004000CF
:1041F00040004000400040004000400040004000BF
:1042000040004000400040004000400040004000AE
:104210004000C03F0000000000000000000000005F
:104220000000080018001800100030002000600096
:1042300060004000C0008000800180010001000398
:104240000002000600060004000C00080018001818
:104250000010003000200000000000000000FC03FF
:10426000000200020002000200020002000200023E
:10427000000200020002000200020002000200022E
:10428000000200020002000200020002000200021E
:104290000002FC0300000000000000000000800796
:1042A000C006200810100000000000000000000000
:1042B00000000000000000000000000000000000FE
:1042C00000000000000000000000000000000000EE
:1042D00000000000000000000000000000000000DE
:1042E00000000000000000000000000000000000CE
:1042F00000000000000000000000000000000000BE
:1043000000000000000000000000000000000000AD
:10431000000000000000FFFF000000000000780027
:10432000C0000001000000000000000000000000CC
:10433000000000000000000000000000000000007D
:10434000000000000000000000000000000000006D
:10435000000000000000000000000000000000005D
:10436000000000000000000000000000000000004D
:104370000000F00318060C0C0C0C000C800F700CE5
:104380001C0C0C0C060C060C064C0C4FF8380000EC
:10439000000000000000000000000000000000001D
:1043A000000010001E001800180018001800180067
:1043B0001800180FD8183830386018601860186066
:1043C000186018601860182038307818C807000086
:1043D00000000000000000000000000000000000DD
:1043E00000000000000000000000000000000000CD
:1043F0000000C007700C181818180C180C000C00DE
:104400000C000C000C20182018103008C007000009
:10441000000000000000000000000000000000009C
:1044200000000010001E00180018001800180018E6
:104430000018E01B301C181818180C180C180C1851
:104440000C180C180C180818181C307AE009000019
:10445000000000000000000000000000000000005C
:10446000000000000000000000000000000000004C
:104470000000C007300C181808100C300C30FC3F3E
:104480000C000C000C00182018107018C007000059
:10449000000000000000000000000000000000001C
:1044A00000000000003E80C380C0C0C0C000C0004B
:1044B000C000FC1FC000C000C000C000C000C000A1
:1044C000C000C000C000C000C000C000F80F000065
:1044D00000000000000000000000000000000000DC
:1044E00000000000000000000000000000000000CC
:1044F0000000C077306C1018181818181818101809
:10450000300CF00718001800F00FF03F08700C6036
:104510000C600C603838E00F000000000000000064
:10452000000010001E0018001800180018001800E5
:104530001800980FD8183830183018301830183044
:104540001830183018301830183018307EFC000041
:10455000000000000000000000000000000000005B
:1045600000000000800380038003000000000000C2
:104570000001F8018001800180018001800180013B
:10458000800180018001800180018001F81F00000E
:10459000000000000000000000000000000000001B
:1045A0000000000000380038003800000000000063
:1045B0000010801F001800180018001800180018BC
:1045C000001800180018001800180018001800182B
:1045D0000018180C1806F00300000000000000008E
:1045E000000010001E001800180018001800180025
:1045F0001800183E180C1806180318019801D80165
:10460000380318071806180C181C18187E7C0000B0
:10461000000000000000000000000000000000009A
:1046200000000001F801800180018001800180010B
:104630008001800180018001800180018001800172
:10464000800180018001800180018001F81F00004D
:10465000000000000000000000000000000000005A
:10466000000000000000000000000000000000004A
:104670000800EE1C9C338C318C318C318C318C31A8
:104680008C318C318C318C318C318C31DE7B000063
:10469000000000000000000000000000000000001A
:1046A000000000000000000000000000000000000A
:1046B00010001E0FD8183830183018301830183045
:1046C0001830183018301830183018307EFC0000C0
:1046D00000000000000000000000000000000000DA
:1046E00000000000000000000000000000000000CA
:1046F0000000C007701C103018300C600C600C609B
:104700000C600C600C60183018303018C0070000C6
:104710000000000000000000000000000000000099
:104720000000000000000000000000000000000089
:1047300010009E0F58183830182018601860186044
:10474000186018601860183038307818980718000A
:104750001800180018007E00000000000000000093
:104760000000000000000000000000000000000049
:104770000000C023303C183818300C300C300C309E
:104780000C300C300C3008301838303CE03300303E
:1047900000300030003000FC00000000000000008D
:1047A0000000000000000000000000000000000009
:1047B00060007E3C60666061E000E00060006000D8
:1047C000600060006000600060006000FE070000A4
:1047D00000000000000000000000000000000000D9
:1047E00000000000000000000000000000000000C9
:1047F0000000E02730381830182018007000E0035F
:10480000800F001C043004300C301C18EC0F00002A
:104810000000000000000000000000000000000098
:104820000000000000000000800080008000C00048
:10483000E000FC1FC000C000C000C000C000C000FD
:10484000C000C000C000C020C0208011000F0000C8
:104850000000000000000000000000000000000058
:104860000000000000000000000000000000000048
:1048700010201E3C183018301830183018301830FE
:104880001830183018301830183830F4E0130000A1
:104890000000000000000000000000000000000018
:1048A0000000000000000000000000000000000008
:1048B00000007E3C181818083808300430047002D4
:1048C00060026002E001C001C001C0008000000081
:1048D00000000000000000000000000000000000D8
:1048E00000000000000000000000000000000000C8
:1048F0000000DFF78E630C238C238C23981398130E
:1049000058165816700E700E700E20042004000009
:104910000000000000000000000000000000000097
:104920000000000000000000000000000000000087
:104930000000FC3E70087004E004C002C001800367
:10494000800340076006200C100C18183E7E000003
:104950000000000000000000000000000000000057
:104960000000000000000000000000000000000047
:1049700000007E7C181818083008300830046004E5
:104980006004C002C002C00280018001800180007A
:10499000800080004C003C0000000000000000008F
:1049A0000000000000000000000000000000000007
:1049B0000000FC1F0C0C040E0406000380038001A1
:1049C000C000E0007020302038301C18FC1F0000B0
:1049D00000000000000000000000000000000030A7
:1049E00000080004000400040004000400040004A3
:1049F000000400040004000280010002000400041E
:104A00000004000400040004000400040004000486
:104A10000004000800300000000100010001000156
:104A2000000100010001000100010001000100017E
:104A3000000100010001000100010001000100016E
:104A4000000100010001000100010001000100015E
:104A500000010001000100010000000000000C0046
:104A60001000200020002000200020002000200056
:104A70002000200020004000800140002000200095
:104A80002000200020002000200020002000200026
:104A9000200010000C00000000003800C400864018
:104AA00002610022001C0000000000000000000065
:104AB00000000000000000000000000000000000F6
:104AC00000000000000000000000000000000000E6
:104AD00000000000000000000000000000000000D6
:104AE0000102030406070809084B00080000002023
:104AF000100000006C010008184B00081000002096
:104B000000130000880100080100000010000000F0
:084B1000000000000024F40085
:0400000508000131BD
:00000001FF
