:020000040800F2
:10000000D0350020490100082B4200085D37000868
:1000100029420008711B00082D680008000000003C
:100020000000000000000000000000002F42000857
:10003000AB1B0008000000002D4200083142000800
:100040006301000863010008630100086301000800
:1000500063010008630100086301000863010008F0
:1000600063010008AD1B0008B31B0008751B0008E6
:1000700063010008630100086301000863010008D0
:1000800063010008630100086301000863010008C0
:1000900063010008630100086301000863010008B0
:1000A00063010008B16500086301000863010008EE
:1000B0006301000863010008630100086301000890
:1000C0006301000863010008630100086301000880
:1000D000630100082168000863010008630100084B
:1000E0006301000863010008630100086301000860
:1000F0006301000863010008630100086301000850
:10010000630100086301000863010008630100083F
:10011000630100086301000863010008630100082F
:10012000630100086301000863010008630100081F
:10013000DFF810D001F068FC00480047CD690008E6
:10014000AFF30080D03500200648804706480047BE
:10015000FEE7FEE7FEE7FEE7FEE7FEE7FEE7FEE777
:10016000FEE7FEE7AD420008310100082DE9F04F3F
:100170004FF0000C4FF0000301EB9C5EBEF9025003
:10018000BEF900400EF5806EBEF90290BEF9008007
:100190000EF5806EBEF90270BEF900600EF5806E3D
:1001A000BEF902B0BEF900A00EF5806ED044D9446D
:1001B000A8EB4A0AA9EB4B0B4FEAA4044FEAA505AA
:1001C00004EBA60405EBA705A4EB6606A5EB670701
:1001D00004EBA80405EBA905A4EB6808A5EB6909E5
:1001E00006EBAB06A7EBAA07A6EB6B0B07EB6A0ABD
:1001F000458020F8044B478020F8046BA0F802905B
:1002000020F8048BA0F802A020F804BB03F101033E
:1002100093FAA3FCB3F5807FAED1A0EB82014FF03F
:10022000100312090FF2341000F1000006B403EBC2
:10023000430C6144A2F5803202EB8332B1F90250E3
:10024000B1F90040A1EB0301B0F902B0B0F900A090
:1002500000F10400A5EB040E0EFB0BFC0AEB4B0EA9
:1002600005FB0ACB04FB0ECAB1F90250B1F90040FC
:10027000A1EB0301B0F90290B0F9008000F1040095
:10028000A5EB040E0EFB09FC08EB490E05FB08C9A3
:1002900004FB0EC8B1F90250B1F90040A1EB030113
:1002A000B0F90270B0F9006000F10400A5EB040E93
:1002B0000EFB07FC06EB470E05FB06C704FB0EC64C
:1002C000B1F90250B1F9004001F10001D044D94424
:1002D000A8EB4A0AA9EB4B0B4FEAA4044FEAA50589
:1002E00004EB264405EB2745A4EBE636A5EBE73700
:1002F00004EB284405EB2945A4EBE838A5EBE939E4
:1003000006EB2B46A7EB2A47A6EBEB3B07EBEA3ABB
:100310004D800C8019444F800E801944A1F8029042
:10032000A1F800801944A1F802A021F804BBB2F59D
:10033000803283DA03EB430C6144A2F101025FEAED
:10034000024E18BFA0EB0C007FF476AF06BC4FEA5C
:10035000830392087FF46AAFBDE8F08F004000008D
:1003600000400000004000005DDD213BA3227E181C
:100370000000412D7EA5412D0000412D00C0004010
:100380005DDD82E75DDD213B7EA5412D0040000063
:100390000040000000400000AA2A94126B39460673
:1003A00049327C0CA8118E2349327C0CA3227E1882
:1003B00021F77931AA2A9412A8118E235DDD213B01
:1003C000A3227E180000412D95C6B13F461A2B1E70
:1003D00058EE3735BEB4C53EA8118E235DDD213BF6
:1003E00063A97138DF089A28B7CDC53E7EA5412D97
:1003F0000000412D00C0004063A92B1E21F7793178
:10040000BEB4C53EBEB47C0C58EE373561AC213B62
:1004100095C6BAF9BAE571383BA737355DDD82E795
:100420005DDD213B7EA5412D21F766D756D53F3DA9
:100430003BA78E23A811C9CAB7CDC53E61AC7E18B3
:10044000AA2AC1C295C6B13FBEB47C0C00400000D0
:1004500000400000004000001E3BB504693E9201D0
:10046000C83C2403EB356409C83C24036B394606B9
:100470006C30060E1E3BB504EB356409AA2A9412B3
:100480006B39460649327C0CAE240917AF37D607C4
:10049000882E8D0F7E1E5D1BEB356409AA2A9412EF
:1004A00024188C1F1E34F10AB3269015A8118E2330
:1004B00049327C0CA3227E18140B60276C30060E88
:1004C0007E1E5D1B7104FB2A882E8D0F461A2B1E83
:1004D000C7FD5A2E9D2C1211FE15E72021F7793108
:1004E000AA2A9412A8118E2387F05334B228131429
:1004F000480D202602EAE536B3269015DF089A2833
:100500009CE32B39AE2409177104FB2A5DDD213BE6
:10051000A3227E180000412D4ED7C53C9320EF1931
:100520008FFB6C2F78D1153E7E1E5D1B21F7793134
:10053000E2CB0F3F641CC61CB8F2683395C6B13FCE
:10054000461A2B1E58EE373597C1FB3F24188C1FD7
:1005500002EAE536F0BCEC3FFE15E720BAE571385B
:10056000A6B8853FD5133D2282E1DB39BEB4C53E36
:10057000A8118E235DDD213B40B1AF3D790FDA2418
:100580004DD9423C2EAE423C480D202656D53F3D2B
:100590008EAB823A140B602778D1153E63A971386F
:1005A000DF089A28B7CDC53EB1A71236A906CE29D5
:1005B00015CA4F3F78A668337104FB2A95C6B13F30
:1005C000BCA576303902212C38C3EC3F7EA5412DE5
:1005D0000000412D00C00040BCA5CE29C7FD5A2E09
:1005E000F0BCEC3F78A620268FFB6C2F09BAB13FF8
:1005F000B1A73D2257F976304DB74F3F63A92B1E67
:1006000021F77931BEB4C53E8EABEF19ECF47432EC
:100610005EB2153E2EAE9015B8F268332DB03F3D58
:1006200040B1121187F053342EAE423CBEB47C0C64
:1006300058EE373561AC213BA6B8D6072BEC123605
:10064000C8AADB39F0BC240302EAE53663A9713895
:1006500097C16EFEDCE7B03734A8E53695C6BAF927
:10066000BAE571383BA73735E2CB0FF59CE32B3960
:1006700078A6683378D173F082E1DB39EDA5793162
:100680004ED7EDEB6DDF823A99A56C2F5DDD82E7E9
:100690005DDD213B7EA5412D9CE33AE352DBB63B79
:1006A00099A5FB2A02EA19DF4DD9423CEDA59A280B
:1006B00087F026DB4ED7C53C78A6202621F766D7E3
:1006C00056D53F3D3BA78E23C7FDDFD363D3AF3D58
:1006D00034A8E720710494D078D1153E63A92B1E6D
:1006E000140B8CCD94CF723EC8AA5D1BA811C9CA49
:1006F000B7CDC53E61AC7E18241850C8E2CB0F3F81
:100700002EAE90157E1E25C615CA4F3F2DB09412F1
:10071000AE244AC451C8853F5EB28D0FAA2AC1C219
:1007200095C6B13FBEB47C0C6C308EC1E2C4D43FE0
:100730004DB76409EB35B1C038C3EC3F09BA460682
:100740001E3B2CC097C1FB3FF0BC240300400000BF
:100750000040000000400000D03E2E019B3F65009D
:10076000363FC9009A3D5B02363FC900693E92019F
:100770005F3C8803D03E2E019A3D5B021E3BB504D0
:10078000693E9201C83C2403D939E205023EF701D3
:10079000F43BED038E380E079A3D5B021E3BB50419
:1007A0003F373908313DC002463A7E05EB356409D2
:1007B000C83C24036B39460692348E0A5F3C88039A
:1007C0008E380E073433B70BF43BED03AF37D60743
:1007D000D231DF0C8A3B5104CE369D086C30060EB8
:1007E0001E3BB504EB356409022F2B0FB23A1A05F4
:1007F00005352B0A932D5010463A7E051E34F10A1A
:10080000212C7311D939E2053433B70BAA2A94127B
:100810006B39460649327C0C3129B413FD38AA06DF
:100820005B31410DB327D2148E380E076C30060EA3
:100830003226EE151F3872077B2FCA0EAE24091719
:10084000AF37D607882E8D0F262321183F3739085A
:10085000932D50109C213719CE369D089D2C1211D6
:100860000E204B1A5D360109A42BD3117E1E5D1B91
:10087000EB356409AA2A9412EB1C6C1C7835C70965
:10088000AF295413561B791D05352B0AB2281314B2
:10089000BE19841E92348E0AB327D21424188C1FDA
:1008A0001E34F10AB326901588169120A933540BF3
:1008B000B1254C16EA1493213433B70BAE24091733
:1008C0004A139222BF321A0CA923C417A8118E23EF
:1008D00049327C0CA3227E1805108824D231DF0C0B
:1008E0009C213719610E7E255B31410D9320EF1954
:1008F000BB0C7126E430A40D891FA71A140B6027C6
:100900006C30060E7E1E5D1B6D094C28F42F680EA0
:10091000721D121CC40735297B2FCA0E641CC61C0D
:100920001B061A2A022F2B0F561B791D7104FB2A56
:10093000882E8D0F461A2B1EC702D82B0E2EEE0FB7
:100940003519DC1E1C01B22C932D501024188C1F5D
:1009500072FF882D182DB11011173A20C7FD5A2E9D
:100960009D2C1211FE15E7201DFC282F212C731140
:10097000EA14932173FAF22FA42BD311D5133D223D
:10098000CAF8B830282B3412BF12E72221F7793188
:10099000AA2A9412A8118E2379F536322D2AF41240
:1009A00091103524D2F3EF32AF295413790FDA24A2
:1009B0002CF2A3333129B413610E7E2587F0533412
:1009C000B2281314480D2026E3EEFF3433287314A5
:1009D0002E0CC12641EDA535B327D214140B602788
:1009E000A1EB483633273115FA09FE2702EAE5362E
:1009F000B3269015DF089A2865E87E373226EE1573
:100A0000C4073529CBE61238B1254C16A906CE29E4
:100A100032E5A1382F25AB168D05652A9CE32B39CD
:100A2000AE2409177104FB2A08E2B0392B2466179B
:100A300055038F2B77E0303AA923C4173902212CB4
:100A4000E9DEAB3A262321181C01B22C5DDD213BE7
:100A5000A3227E180000412DD5DB923B1F22DB181C
:100A6000E4FECF2D4FDAFD3B9C213719C7FD5A2EEE
:100A7000CDD8643C17219319ABFCE42E4ED7C53C6E
:100A80009320EF198FFB6C2FD3D5213D0E204B1AED
:100A900073FAF22F5CD4783D891FA71A57F9763084
:100AA000E8D2C93D041F021B3CF8F93078D1153E4D
:100AB0007E1E5D1B21F779310CD05C3EF81DB81B02
:100AC00006F6F831A5CE9D3E721D121CECF4743270
:100AD00041CDD83EEB1C6C1CD2F3EF32E2CB0F3F82
:100AE000641CC61CB8F2683388CA403FDD1B201D59
:100AF0009FF1DF3332C96B3F561B791D87F05334AA
:100B0000E1C7913FCE1AD31D6FEFC63495C6B13FF2
:100B1000461A2B1E58EE37354EC5CC3FBE19841EE3
:100B200041EDA5350CC4E13F3519DC1E2BEC123626
:100B3000CFC2F13FAD18341F16EB7D3697C1FB3F96
:100B400024188C1F02EAE53665C000409B17E31F9E
:100B5000EFE84B3738BFFF3F11173A20DCE7B037DB
:100B600011BEF83F88169120CBE61238F0BCEC3F5E
:100B7000FE15E720BAE57138D4BBDB3F74153D2183
:100B8000AAE4CF38BFBAC43FEA1493219CE32B39BF
:100B9000AFB9A73F5F14E8218EE28439A6B8853F3C
:100BA000D5133D2282E1DB39A2B75D3F4A13922281
:100BB00077E0303AA5B6303FBF12E7226DDF823AC8
:100BC000AFB5FD3E34123B2364DED33ABEB4C53E1E
:100BD000A8118E235DDD213BD5B3883E1D11E22394
:100BE00057DC6D3BF2B2453E9110352452DBB63BEB
:100BF00015B2FC3D051088244FDAFD3B40B1AF3DF6
:100C0000790FDA244DD9423C71B05B3DED0E2C25B5
:100C10004DD8853CA9AF033D610E7E254ED7C53C1E
:100C2000E8AEA53CD40DCF2551D6033D2EAE423CB7
:100C3000480D202656D53F3D7BADDA3BBB0C7126D7
:100C40005CD4783DD0AC6D3B2E0CC12663D3AF3D58
:100C50002BACFA3AA10B11276DD2E33D8EAB823A51
:100C6000140B602778D1153EF8AA063A870AAF27F9
:100C700085D0453E6AAA8439FA09FE2794CF723E90
:100C8000E3A9FD386D094C28A5CE9D3E63A97138B6
:100C9000DF089A28B7CDC53EEBA8E1375208E72810
:100CA000CCCCEB3E7BA84B37C4073529E2CB0F3FBA
:100CB00012A8B13636078129FBCA303FB1A71236D8
:100CC000A906CE2915CA4F3F57A76E351B061A2A0B
:100CD00032C96B3F05A7C6348D05652A51C8853FCB
:100CE000BBA61934FF04B02A72C79C3F78A66833AC
:100CF0007104FB2A95C6B13F3EA6B232E303452BF1
:100D0000BAC5C43F0BA6F83155038F2BE2C4D43FBC
:100D1000E0A53931C702D82B0CC4E13FBCA5763021
:100D20003902212C38C3EC3FA1A5AF2FAA016A2CB0
:100D300066C2F53F8DA5E42E1C01B22C97C1FB3F86
:100D400081A5152E8E00FA2CCAC0FF3F7EA5412D2D
:100D50000000412D00C0004081A56A2C72FF882D43
:100D600038BFFF3F8DA58F2BE4FECF2D73BEFB3F19
:100D7000A1A5B02A56FE152EB0BDF53FBCA5CE29C3
:100D8000C7FD5A2EF0BCEC3FE0A5E72839FD9F2EA9
:100D900032BCE13F0BA6FE27ABFCE42E77BBD43F71
:100DA0003EA611271DFC282FBFBAC43F78A62026D7
:100DB0008FFB6C2F09BAB13FBBA62C2501FBAF2FCF
:100DC00056B99C3F05A7352473FAF22FA6B8853F84
:100DD00057A73B23E5F93430F8B76B3FB1A73D2265
:100DE00057F976304DB74F3F12A83D21CAF8B830B9
:100DF000A5B6303F7BA83A203CF8F93000B60F3F4B
:100E0000EBA8341FAEF739315EB5EB3E63A92B1E5C
:100E100021F77931BEB4C53EE3A9201D93F6B9315F
:100E200022B49D3E6AAA121C06F6F83188B3723EBF
:100E3000F8AA021B79F53632F2B2453E8EABEF19B5
:100E4000ECF474325EB2153E2BACDB185FF4B232B8
:100E5000CDB1E33DD0ACC417D2F3EF3240B1AF3DDA
:100E60007BADAB1645F32C33B5B0783D2EAE901567
:100E7000B8F268332DB03F3DE8AE73142CF2A333C3
:100E8000A9AF033DA9AF54139FF1DF3328AFC53C91
:100E900071B0341213F11934A9AE853C40B112116E
:100EA00087F053342EAE423C15B2EE0FFBEF8D347B
:100EB000B6ADFD3BF2B2CA0E6FEFC63441ADB63BE4
:100EC000D5B3A40DE3EEFF34D0AC6D3BBEB47C0CC7
:100ED00058EE373561AC213BAFB5540BCCED6E35D8
:100EE000F6ABD33AA5B62B0A41EDA5358EAB823AC7
:100EF000A2B70109B6ECDC3529AB303AA6B8D60763
:100F00002BEC1236C8AADB39AFB9AA06A1EB4836DA
:100F10006AAA8439BFBA7E0516EB7D360FAA2B3933
:100F2000D4BB51048CEAB136B7A9CF38F0BC240346
:100F300002EAE53663A9713811BEF70178E918377E
:100F400012A9123838BFC900EFE84B37C5A8B0372F
:100F500065C09BFF65E87E377BA84B3797C16EFE67
:100F6000DCE7B03734A8E536CFC240FD53E7E137C0
:100F7000F1A77D360CC413FCCBE61238B1A71236AC
:100F80004EC5E6FA42E6423874A7A53595C6BAF9C9
:100F9000BAE571383BA73735E1C78EF832E5A1389D
:100FA00005A7C63432C963F7AAE4CF38D3A65334B1
:100FB00088CA39F623E4FD38A4A6DF33E2CB0FF567
:100FC0009CE32B3978A6683341CDE6F315E3583915
:100FD00050A6EF32A5CEBFF28EE284392CA6743231
:100FE0000CD098F108E2B0390BA6F83178D173F043
:100FF00082E1DB39EDA57931E8D24FEFFCE0063A2A
:10100000D3A5F9305CD42DEE77E0303ABCA576302C
:10101000D3D50CEDF2DF593AA9A5F22F4ED7EDEB5F
:101020006DDF823A99A56C2FCDD8CFEAE9DEAB3AD5
:101030008DA5E42E4FDAB4E964DED33A85A55A2EA5
:10104000D5DB9AE8E1DDFA3A7FA5CF2D5DDD82E7B9
:101050005DDD213B7EA5412DE9DE6DE6DADC473B17
:101060007FA5B22C77E059E557DC6D3B85A5212C97
:1010700008E248E4D5DB923B8DA58F2B9CE33AE355
:1010800052DBB63B99A5FB2A32E52DE2D1DADA3BF9
:10109000A9A5652ACBE624E14FDAFD3BBCA5CE2904
:1010A00065E81DE0CED9203CD3A5352902EA19DF39
:1010B0004DD9423CEDA59A28A1EB18DECDD8643C71
:1010C0000BA6FE2741ED19DD4DD8853C2CA66027E7
:1010D000E3EE1EDCCDD7A53C50A6C12687F026DB6B
:1010E0004ED7C53C78A620262CF231DACFD6E43C88
:1010F000A4A67E25D2F33FD951D6033DD3A6DA2448
:1011000079F551D8D3D5213D05A7352421F766D7E8
:1011100056D53F3D3BA78E23CAF87FD6D8D45B3D3A
:1011200074A7E72273FA9BD55CD4783DB1A73D2222
:101130001DFCBBD4DFD3933DF1A79321C7FDDFD3C3
:1011400063D3AF3D34A8E72072FF06D3E8D2C93D90
:101150007BA83A201C0131D26DD2E33DC5A88C1F7B
:10116000C70261D1F2D1FC3D12A9DC1E710494D0FA
:1011700078D1153E63A92B1E1B06CCCFFED02D3E89
:10118000B7A9791DC40707CF85D0453E0FAAC61C55
:101190006D0947CE0CD05C3E6AAA121C140B8CCD94
:1011A00094CF723EC8AA5D1BBB0CD4CC1CCF883E2A
:1011B00029ABA71A610E21CCA5CE9D3E8EABEF19AF
:1011C000051073CB2ECEB13EF6AB3719A811C9CAA4
:1011D000B7CDC53E61AC7E184A1324CA41CDD83E76
:1011E000D0ACC417EA1483C9CCCCEB3E41AD09178F
:1011F0008816E8C857CCFD3EB6AD4C16241850C82A
:10120000E2CB0F3F2EAE9015BE19BEC76ECB203F6E
:10121000A9AED214561B31C7FBCA303F28AF1314F6
:10122000EB1CA8C688CA403FA9AF54137E1E25C632
:1012300015CA4F3F2DB094120E20A7C5A3C95D3F1C
:10124000B5B0D3119C212DC532C96B3F40B11211ED
:101250002623B9C4C1C8783FCDB15010AE244AC4CA
:1012600051C8853F5EB28D0F3226E0C3E1C7913F82
:10127000F2B2CA0EB3277BC372C79C3F88B3060E77
:1012800031291CC303C7A73F22B4410DAA2AC1C2FA
:1012900095C6B13FBEB47C0C212C6DC227C6BB3FA6
:1012A0005EB5B70B932D1DC2BAC5C43F00B6F10A97
:1012B000022FD3C14EC5CC3FA5B62B0A6C308EC1D0
:1012C000E2C4D43F4DB76409D2314FC176C4DB3F8D
:1012D000F8B79D08343315C10CC4E13FA6B8D60752
:1012E0009234E0C0A1C3E73F56B90E07EB35B1C059
:1012F00038C3EC3F09BA46063F3788C0CFC2F13F3A
:10130000BFBA7E058E3864C066C2F53F77BBB504B0
:10131000D93945C0FEC1F83F32BCED031E3B2CC09D
:1013200097C1FB3FF0BC24035F3C19C030C1FD3FB7
:10133000B0BD5B029A3D0BC0CAC0FF3F73BE9201B5
:10134000D03E03C065C0004038BFC900202A04DB7E
:10135000203A21FA02F00021704721FA02F3D0402E
:10136000C2F120029140084319467047D2B201E011
:1013700000F8012B491EFBD270470022F6E710B59A
:1013800013460A4604461946FFF7F0FF204610BDF3
:10139000F0B480EA0102D40F4200B2EB410F02D256
:1013A0000246084611464A0042D0C30DDDB2C1F3E1
:1013B000C752AD1A202D35DAC1F3160141F40002EF
:1013C00004B15242C5F1200602FA06F12A41104446
:1013D000B3EBD05F23D0C4B1012DA0EBC35009DC27
:1013E000F0BC4FF0004202EAC352DBB200F500004D
:1013F00000F02EBA400000F1807000EBC350A0F165
:10140000807040EAD170490009E0490841EAC071A2
:10141000A0EBC35000F50000400800EBC350F0BC47
:1014200000F00DBA6142012202EB4101001BF6E718
:10143000F0BC704781F00041AAE780F00040A7E7C8
:1014400080EA010210B502F00043400022D04A00B9
:101450001FD0010E01EB1261C0F35600C2F3560219
:1014600040F4000042F40002A0FB022000047F3997
:10147000140400D0401C50EA124001D44000491E20
:10148000C2B20C0604EBD010401C4008802A02D0E7
:1014900003E0002010BD20F00100002900DA002048
:1014A000184310BD2DE9FE4F804681EA0300C00FAE
:1014B0000C46009021F0004123F00045B8EB0200FB
:1014C000A94105D24046214690461C460B4602469D
:1014D00023F00040104347D0270DC7F30A00C3F3A1
:1014E0000A510290401A019040286BDAC3F31300AE
:1014F00040F4801B0098924620B10023D2EB030AEF
:1015000063EB0B0B01985946C0F14002504600F0C6
:1015100075F906460D4650465946019A00F07DF988
:1015200010EB08006141002487EA115284EAE77356
:101530001A4340D0009A62B3019A012A4FEA075237
:1015400015DC001B61EB02014FF0004202EA07527A
:10155000CDE90042001C41F5801132462B4600F0D7
:10156000B4F903B0BDE8F08F40462146F9E7001B0F
:1015700061EB0201001C41F5801300185B4120184B
:10158000A2F5001747EB030140EAD570B6196D418B
:1015900011E06D084FEA360645EAC0754FEA07527A
:1015A000001B61EB0201001C41F5801149084FEA64
:1015B00030000019514132462B4603B0BDE8F04FD0
:1015C00000F074B90098012240000023D0EB020221
:1015D00063EBE073009821464FEAE074B8EB00003B
:1015E00061EB0401E9E783F000435BE781F0004130
:1015F00058E72DE9FE4F81EA030404F0004421F08E
:10160000004100944FF0000B23F0004350EA010426
:101610005ED052EA03045BD0C3F30A54C1F30A5507
:101620002C44A4F2F3340194A0FB0254C1F313013F
:1016300041F48011C3F3130343F4801301FB02440C
:1016400000FB034E840A970A44EA815447EA835711
:10165000A4FB076802958D0A05FB07854FEA932CCA
:1016600004FB0C542705029D4FEA065847EA16373B
:10167000B5EB08056EEB070C870E920E47EA811753
:1016800042EA8312A7FB0201B6EB0B0164EB0004F4
:101690002B0D43EA0C335E1844EB1C50DA465146DE
:1016A000E7FB0201C5F313044FEA0B3343EA14537B
:1016B0004FEA0432019C43EA0603A4F10C040294AD
:1016C000009CCDE900B400F000F903B0BDE8F08F54
:1016D00000200146F9E770B521F0004303430CD028
:1016E000C1F30A550024D5EB040564EB0403D617B7
:1016F000AD1AB34102DB0020014670BD201841EB5A
:10170000025170BDC10F80EAE0700844CA079623F9
:10171000002100F09DB80EB540F233410291002146
:10172000CDE900110A460B4600F0CFF803B000BD2A
:1017300020F00040C10DC0F3160040F400007F29E6
:1017400001DA00207047962903DCC1F19601C840F8
:101750007047963988407047C1F30A5210B5C1F3FB
:10176000130140F2FF3341F480119A4201DA002064
:1017700010BD40F233439A42A2F2334203DC52429C
:10178000FFF7E4FD10BD904010BD00F0004230F0C6
:1017900000400AD0C10D01F56071C0F3160042EAA5
:1017A0000151C208400711437047002001467047AD
:1017B00001F0004330B421F0004150EA010206D0AC
:1017C0000A0DA2F56072C1F31301002A02DC30BCDD
:1017D00000207047440F44EAC104C100E01830BC47
:1017E00000EBC25000F02BB8002801DBC0F1004034
:1017F000002901DBC1F1004188427047202A04DB47
:10180000203A00FA02F1002070479140C2F1200313
:1018100020FA03F3194390407047202A06DBCB17C8
:10182000203A41FA02F043EAE07306E041FA02F39B
:10183000D040C2F120029140084319467047002968
:10184000A8BF7047401C490008BF20F00100704746
:1018500010B4B0FA80FC00FA0CF050EA010404BFA6
:1018600010BC704749B1CCF1200421FA04F411FAFC
:101870000CF118BF012121430843A3EB0C01CB1D40
:101880004FEA00614FEA102042BF002010BC7047B1
:1018900000EBC35010440029A4BF10BC7047401C8B
:1018A000490008BF20F0010010BC704710B5141E9D
:1018B00073F1000408DA401C41F1000192185B4109
:1018C0001A4301D120F0010010BD2DE9F04D9246E0
:1018D0009B4611B1B1FA81F202E0B0FA80F22032F7
:1018E0009046FFF78BFF04460F4640EA0A0041EAA4
:1018F0000B0153465A46084313D0114653EA0100E0
:1019000019D0C8F140025046FFF720FD05460E46AB
:10191000504659464246FFF771FF084305D0012063
:1019200004E020463946BDE8F08D0020054346EA34
:10193000E0762C4337430A986305E40AA0EB0800DD
:101940000022FD0A44EA47540A3002D5002001462D
:10195000E9E7010510196941DDE908450019694108
:10196000BDE8F04DA2E72DE9F04D00231A461B1A01
:101970008A4103DB00200146BDE8F08DC1F30A5225
:10198000C1F3130141F480154FF0000BD10702D1D0
:1019900000186D41521E0027044640F2FF113846E0
:1019A00001EB620A3E468046024600204FF4801159
:1019B000FFF7CCFCC2197141BB1846EB0100B4EB38
:1019C000030C75EB000C04D3E41A65EB0005174615
:1019D0000E46241908F101006D4180463428E3DDEC
:1019E000F91946EB0600091BA84103D24FF0FF325C
:1019F000134601E0002213461BEB070046EB0A5199
:101A0000BDE8F04DFFF752BF064C074D06E0E06819
:101A100040F0010394E8070098471034AC42F6D335
:101A2000FEF78AFBE0B4000800B5000870B5044674
:101A300000688168C943C90717D1816821F0010195
:101A4000816000F0C9FF05460AE000BF00F0C4FF56
:101A5000401B022804D920688068C043C00706D014
:101A600020688068C043C007F0D0002070BDA06A25
:101A700040F01000A062E06A40F00100E062012046
:101A800070BD10B50146406A826A12F0500F05D051
:101A9000006A026BBDE8104008461047816A41F4B5
:101AA0000071816201688968C1F3424107290CD144
:101AB000017B51B9816A21F480718162816AC90414
:101AC00003D4816A41F00101816200F0C9F910BDBF
:101AD00010B5406A816A41F040018162C16A41F0FB
:101AE0000401C16200F0C7F910BD10B5406A00F0F2
:101AF000C1F910BDF8B5002604460096006881685B
:101B0000C943C9072DD0816841F0010181601648A1
:101B100016490068B0FBF1F000E0401E009000287C
:101B2000FBD100F059FF054616E000BF00F054FF5E
:101B3000401B022810D920688068C043C0070BD022
:101B4000A06A40F01000A062E06A40F00100E0628C
:101B500084F824600120F8BD20688068C043C00775
:101B6000E4D10020F8BD00005800002040420F00E2
:101B7000FEE70000014800F02BBC0000A030002070
:101B800030B590F840500124AC40C56B6C600468DF
:101B900063604368102B036803D099600068C260DB
:101BA00030BD9A600068C16030BD7047082000F009
:101BB000FDBD102000F0FABD72B6FEE730B5B3F5FA
:101BC000804F05D06FF0704140F82210002030BDEA
:101BD0008C690B688D6823434C688989240144EA29
:101BE0000524234343EA014150F82230014C2340AD
:101BF0001943E9E70000F0CF10B50A6850F8223029
:101C000023F0010340F822308C68082C23D00023F5
:101C10004A682243CC681C430B6922431A434B6930
:101C20000E4C1A43CB691A430B6A1A434B6A1A4388
:101C30008B6A1A43CB6A1A430B6B1A438B691343A3
:101C40004A6B09681A4350F82130A343134340F804
:101C50002130002010BD4023DAE700007FFF0F0095
:101C600030B5D1E9003443EA04138C688D8924022D
:101C700044EA054423430C8A094D00EB820005EB3E
:101C8000045423430C7D6D0105EB046489692343EF
:101C90000B43416801F040410B434360002030BDDD
:101CA0000000F0FF2DE9F84F2B494FF4806201F559
:101CB0008050FEF75BFADFF8A480294D0124A8F5D7
:101CC000C0594FF4007A00BF58F8247038B2FFF7BB
:101CD00019FD06463814FFF715FD0146FFF7B0FB66
:101CE000074631460846FFF7ABFB3946FFF750FB86
:101CF000FFF74BFD04F00EFFFFF75AFD0646FFF716
:101D000017FD49F8240059463046FFF76DFD01D212
:101D1000B3462C81641CA4B25445D5D3A869FFF7FF
:101D2000FAFC6FF00902FFF7D6FC06460C4628893C
:101D3000FFF7F1FC32462346FFF75BFCFFF70CFD93
:101D400082B2EA81102000900523B4214FF4827002
:101D500002F07EF8BDE8F88F7008002070180020AF
:101D600008000020F8B50024009490F824202546AF
:101D7000012A12D0012280F824204A681F23072A52
:101D80000DD20668776B521E02EB820293409F438E
:101D90000B6893401F43776319E00220F8BD066883
:101DA0000D2A0AD2376BD21F02EB820293409F4367
:101DB0000B6893401F43376309E0F76A0D3A02EB63
:101DC000820293409F430B6893401F43F7620A6867
:101DD000072306680A2A0AD3F7680A3A02EB420286
:101DE00093409F438B6893401F43F76008E0376937
:101DF00002EB420293409F438B6893401F4337613D
:101E00000A68102A01D0112A20D1124B02689A4286
:101E100017D193681B0219D4936843F400039360AD
:101E20000968102912D10C490C4A0968B1FBF2F17A
:101E300001EB8101490000E0491E00910029FBD11E
:101E400004E0816A41F020018162012480F824507D
:101E50002046F8BD002401405800002040420F00F9
:101E6000024901200870024800F064B9080000200F
:101E700070300020704770472DE9F04104004FF0AA
:101E800000057FD0A06A002628B9E66284F82460A5
:101E9000204600F081F82046FFF7C8FDA16AC90678
:101EA00000D420B1A06A40F01000A0626AE0A16AEC
:101EB00021F4885141F00201A162334923688B4229
:101EC000E16904D1B1F5402F01D14FF40021277B06
:101ED0004FF4807C41EA470261680A43A16861458A
:101EE00008D0012906D0002194F814E0BEF1010FBA
:101EF00002D00AE06146F7E7C7B1A76A47F02007BA
:101F0000A762E76A47F00107E7625F6827F469475D
:101F10000F435F60236899681C4F394011439960F3
:101F2000A16861450BD0012909D00CE0DFF860E021
:101F3000A7690EEB47370F4347F40061E5E7218AB5
:101F40000D05A5F580152168CB6A23F470032B439A
:101F5000CB62216889680F4B1940914208D1E66233
:101F6000A16A21F0020141F00101A162BDE8F08106
:101F7000A06A20F0020040F01000A062E06A40F089
:101F80000100E0620120F1E7003C0140FDF7E1FFC4
:101F900000E0FFFFFE0E1FFF70B586B0002605466D
:101FA000009601960296039600681A4988422FD13E
:101FB0001949886940F400708861886900F40070EC
:101FC0000490886940F0040088618869694600F0DF
:101FD000040004900F200090032001900F4800F0AF
:101FE000F1FB104C0E48C4E900068020C4E90260F1
:101FF00040002061800060612020A061C001E0619C
:10200000204600F009FB08B1FFF7D6FD2C6265629F
:1020100006B070BD002401400010024000080140DD
:1020200008000240A03000202DE9F0478946044610
:102030003B4900683B4F0E1D9046884201D0B84294
:1020400007D1306810F4702F03D001252846BDE871
:10205000F08794F8240001280CD0012084F8240093
:102060002046FFF747FD05004FF0000004D084F83C
:102070002400EBE70220EAE7A16A40F601629143FF
:1020800041F48071A1622168B94218D1326812F41A
:10209000702F14D0A16A41F48011A1623168490502
:1020A00005D5A16A21F4005141F48051A162A16AD1
:1020B000C9040AD5E16A21F00601E16206E0A26ADC
:1020C00022F48012A2624968E9E7E06284F8240001
:1020D000216A15488862216A1448C862216A144836
:1020E000086321686FF0020008602068816841F48D
:1020F00080718160216843464A464C31206A00F075
:10210000C9FA20688168C1F342410729816803D078
:1021100041F48011816099E741F4A001FAE70000E1
:102120000024014000280140831A0008EB1A00082F
:10213000D11A000810B5044690F82400012807D0F1
:10214000012084F824002046FFF770FC10B113E052
:10215000022010BD21688A6822F480728A60216A98
:1021600091F82120022A07D1084600F075F8A16AEB
:1021700030B141F04001A162002184F8241010BD6B
:1021800021F4885141F00101F5E770B500B3F9B1D0
:102190004379012B1ED00126467102230371056885
:1021A0002C6802F0100340F6FE729A409443D1E985
:1021B00000210A439A4022432A6001680A68C02429
:1021C0009C40A2430A60067100214171084670BD1F
:1021D000012070BD022070BD70B5040003D02079CD
:1021E000002510B105E0012070BD6571204600F0AA
:1021F00007F802202071256101202071002070BDA8
:1022000000B585B000210091019102910391006811
:102210000E49884218D10E48C16941F00051C16190
:10222000C16901F000510491816941F004018161AB
:102230008069694600F0040004903020009003207B
:102240000190044800F0BEFA05B000BD00740040E3
:10225000001002400008014010B590F82110002243
:10226000022905D00421816380F82020012010BDBF
:1022700001680B6823F00E030B6001680B6823F004
:1022800001030B6090F84030C46B012101FA03F3A5
:10229000636080F8211080F82020104610BD0000F7
:1022A0002DE9F05F90F821100024022903D00421C9
:1022B0008163012485E001680A6822F00E020A6049
:1022C00001680A6822F001020A603F4E3E4FB215D3
:1022D000DFF8F4C0DFF8F090DFF8ECA0DFF8E8B04A
:1022E000DFF8E4E00168783F13011502ACF1640CFB
:1022F000A9F15009AAF13C0AABF1280BAEF1140E7A
:102300004FF48018B14227D9B9420ED0614512D09E
:1023100049451DD0514518D0594518D0714501D1B6
:10232000424615E0294EB14201D1012210E0274E6C
:102330001436B14201D110220AE0244E2836B142AF
:1023400006D0224A3C32914201D11A4600E02A4688
:102350001E49091F0A602BE0B94213D0614517D00E
:10236000494522D051451DD059451DD0714501D157
:1023700042461AE0B14202D14FF0807215E0134E8E
:10238000B14201D1012210E0104E1436B14201D108
:1023900010220AE00D4E2836B14206D00B4A3C32DC
:1023A000914201D11A4600E02A46074980394A6025
:1023B000012180F82110002180F82010416B01B12B
:1023C00088472046BDE8F09F800002400804024094
:1023D0002DE9F05FC16B0A6801680B68046C4FF06F
:1023E000040808FA04F8844D844E854FDFF814C2BF
:1023F000DFF81492DFF814A2DFF814B2DFF814E269
:1024000018EA020F65D05FEA437862D50A6892063F
:1024100003D40A6822F004020A60DFF8F0814FF466
:102420008062016808F1140813011402414524D99F
:10243000A9420DD0B1420FD0B9421AD0614515D092
:10244000494515D0514501D1120312E0594501D13A
:1024500004220EE0714501D140220AE06D4D143591
:10246000A94206D06B4A2832914201D11A4600E0B7
:1024700022466749091F0A6029E0A94213D0B142E8
:1024800015D0B94220D061451BD049451BD05145DC
:1024900002D14FF4800217E0414502D14FF0806233
:1024A00012E0594501D104220EE0714501D14022CC
:1024B0000AE0584D1435A94206D0564A28329142B6
:1024C00001D11A4600E022464B4908394A60C16AE8
:1024D00071E04FF0020808FA04F818EA020F70D011
:1024E0005FEA83786DD50A68920606D40A6822F0FE
:1024F0000A020A60012180F82110DFF810814FF4F0
:102500000072016808F1140813011402414524D92E
:10251000A9420DD0B1420FD0B9421AD0614515D0B1
:10252000494515D0514501D1120312E0594501D159
:1025300002220EE0714501D120220AE0354D14350A
:10254000A94206D0334A2832914201D11A4600E00E
:1025500022462F49091F0A6029E0A94213D0B1423F
:1025600015D0B94220D061451BD049451BD05145FB
:1025700002D14FF4001217E0414502D14FF0007232
:1025800012E0594501D102220EE0714501D120220D
:102590000AE0204D1435A94206D01E4A2832914245
:1025A00001D11A4600E02246134908394A60002149
:1025B00080F82010816A00291CD0BDE8F05F084730
:1025C000FFE70825A540154214D01A0712D50A685E
:1025D00022F00E020A6090F84020C36B012101FA3C
:1025E00002F25A60816380F82110002180F82010E7
:1025F000016BE0E7BDE8F09F080002401C000240CC
:102600003000024044000240580002406C0002408A
:10261000080402401C04024030B560B11A4B026845
:1026200014219A4209D2194B1344B3FBF1F18900EA
:10263000016417490AE0012030BD134B5B4213448B
:10264000B3FBF1F1890001640F490839C16302212C
:1026500080F82110136843F6F0718B43F0E9011400
:102660002143D0E902452C432143046921434469B5
:1026700021438469214319431160002141630122F0
:1026800042770177084630BD08040240F8FFFDBFDD
:102690000000024070B5044690F820000025012893
:1026A0000CD0012084F8200094F821600020012E35
:1026B00006D084F820000225284670BD022070BD97
:1026C000022684F82160A0632068066826F00106CF
:1026D00006602046FFF754FAE06A00282068016887
:1026E00002D041F00E0106E021F0040101602068F3
:1026F000016841F00A0101602068016841F00101B0
:102700000160D9E770B5044600F066F90546601C23
:1027100002D004480078044400F05EF9401BA04257
:10272000FAD370BD4C00002030B585B00020009079
:1027300001900290039017480168002927D10121D8
:1027400001601548416941F480714161406902248A
:1027500000F48070049041F20100CDE900040325EB
:10276000694603950D4800F02DF84FF68070CDE9CD
:102770000004694603950A4800F024F84CF23370CF
:10278000CDE9000469460395064800F01BF805B042
:1027900030BD000044000020001002400020014035
:1027A000001801400014014070470000044910B5B2
:1027B0000A68024202D00860FFF7F6FF10BD000071
:1027C000140401402DE9F84FDFF8C8910024A9F165
:1027D000040B23460F2709F1040AABF1040ED1E0E4
:1027E0000125A54006EA0502AA4276D1DFF8A8C174
:1027F0004E68A6EB0C0866452BD00DDC032E34D0BA
:1028000005DC36B3012E19D0022E2FD11BE0112E7C
:1028100016D0122E2AD119E0B8F5881F19D006DC7F
:10282000B8F5803F15D0B8F5801F1FD111E0B8F57D
:10283000001F0ED0B8F5041F18D10AE0CB6815E0D0
:10284000CB681B1D12E0CB6808330FE0CB680C335C
:102850000CE08B682BB1012B4FF0080303D04561CE
:1028600004E0042302E0056100E00023FF2A01D810
:10287000064601E000F104064FEA840501D9A5F1FE
:102880002005D6F8008007FA05FC28EA0C0803FAB0
:1028900005F548EA0508C6F800804D68ED0070D5DA
:1028A0003E4DAE6946F00106AE61AD6924F0030607
:1028B00005F0010500953A4D06EB050CDCF80850D3
:1028C000A607360F07FA06F825EA0805DFF8D480D0
:1028D000404503D14FF0000825E052E0DFF8C88002
:1028E000404502D14FF001081DE0DFF8C0804045AF
:1028F00002D14FF0020816E0DFF8B480404502D163
:102900004FF003080FE0DFF8AC80404502D14FF0F4
:10291000040808E0DFF8A080404502D14FF0050828
:1029200001E04FF0060808FA06F848EA0508CCF876
:1029300008804D68D9F80060ED024D4601D5164378
:1029400000E096432E604D68DAF80060AD0255460F
:1029500001D5164300E096432E604D68DBF8006019
:10296000AD035D4601D5164300E096432E604D68E9
:10297000DEF80060ED03754601D5164300E096438E
:102980002E60641C0A681646E2407FF429AFBDE859
:10299000F88F0000080401400000111000100240F0
:1029A0000000014000080140000C014000100140FF
:1029B0000014014000180140001C0140C26821EAD7
:1029C00002030A4043EA0241016170470AB1016112
:1029D00070470904FBE70000014880687047000069
:1029E0004C000020024881680278114481607047E1
:1029F0004C000020074810B5016841F0100101604B
:102A0000032000F08FF80F2000F006F800F03EF8E9
:102A1000002010BD0020024000B5014687B0002212
:102A2000192000F05FF8192000F04EF81348816972
:102A300041F400618161806905A900F4006006909D
:102A4000684600F08DF900F0BBF90D490D4AB0FB66
:102A5000F1F10D48491E0260416040F2E732002169
:102A6000C0E90321816000F0A7FB10B1012007B08D
:102A700000BD054800F0CEFBF9E700000010024061
:102A800040420F00002C0140883100200C4808B55E
:102A9000816941F001018161816901F001010091C9
:102AA000C16941F08051C161C06900F0805000905F
:102AB0000448416821F0E06141F00071416008BDC7
:102AC0000010024000000140002809DB00F01F0256
:102AD000012191404009800000F1E020C0F8001180
:102AE00070470000F0B40E4B1B680C46C3F3022382
:102AF000C3F10705042D00D90425191D072901D2AA
:102B0000002300E0DB1E012606FA05F1491E2140E4
:102B100099409E40761E16403143F0BC03F087BEBC
:102B20000CED00E0064900F0070208684FF6FF03CD
:102B3000184040EA0220034A104308607047000032
:102B40000CED00E00000FA052DE9F8430546007899
:102B5000354CC00754D0E0690026C00008D4E069B5
:102B600040F08050E061E069012600F08050009064
:102B70002E480168C90512D40168804641F480716D
:102B80000160FFF729FF074605E000BFFFF724FFBC
:102B9000C01B642823D8D8F80000C005F6D5206AE9
:102BA00010F4407021D0A98801F4407181421CD0FA
:102BB000206A1F49012220F440700A6000220A6046
:102BC0002062C00711D0FFF707FF074641F288389F
:102BD00008E000BFFFF700FFC11B414502D90320F9
:102BE000BDE8F883206A8007F4D5206A696820F47C
:102BF0004070084320621EB1E06920F08050E0611F
:102C00002878800705D56068A96820F4404008430B
:102C100060602878C00605D56068696920F4800086
:102C2000084360600020DBE70010024000700040B5
:102C3000400442422DE9F0470F46050061D0434E63
:102C4000306800F00700B84209D2306820F0070071
:102C500038433060306800F00700B84251D128682E
:102C60003B4C810712D5400703D5606840F4E06013
:102C700060602878000703D5606840F460506060A9
:102C80006068A96820F0F000084360602878C007F9
:102C900028D06868012810D02168022810D0890740
:102CA00000292EDA616821F0030101436160FFF71A
:102CB00093FE804641F288390DE021688903EFE7F1
:102CC0008901EDE7FFF788FEA0EB0801494502D92D
:102CD0000320BDE8F0876068696800F00C00B0EB85
:102CE000810FEFD1306800F00700B8420BD930688F
:102CF00020F0070038433060306800F00700B84229
:102D000001D00120E5E72878400705D56068E9682B
:102D100020F4E060084360602878000706D560680A
:102D2000296920F4605040EAC100606000F058F862
:102D30006168084AC1F30311515CC8400649086044
:102D400006480068FFF768FE0020C2E70020024046
:102D500000100240C6B400085800002050000020B7
:102D60000F2202600C4A536803F003034360536868
:102D700003F0F0038360536803F4E063C3605268B8
:102D80004FF4E06303EAD20202610448006800F0F5
:102D90000700086070470000001002400020024059
:102DA0000448054900684968044AC1F30221515C9E
:102DB000C84070475800002000100240D6B40008F8
:102DC0000448054900684968044AC1F3C221515CBE
:102DD000C84070475800002000100240D6B40008D8
:102DE0000E4A51680E4801F00C03042B11D0082B39
:102DF0000FD10C48C1F38343C903C05C0AD55168A5
:102E0000084AC1F34041921E515C054A5043B0FB51
:102E1000F1F0704704494843704700000010024039
:102E200000127A00B6B4000800093D002DE9F84F01
:102E3000040070D02078C04DC00749D06868C0F346
:102E40008100012807D06868C0F38100022809D1F9
:102E50006868C00306D52868800339D560680028F3
:102E6000E7D035E06068B0F5803F0BD010B1B0F529
:102E7000A02F11D0286820F480302860286820F422
:102E8000802002E0286840F480302860606890B1BB
:102E9000FFF7A2FD06460AE0286840F4802028607B
:102EA000F0E700BFFFF798FD801B642873D82868FF
:102EB0008003F7D50CE0FFF78FFD064605E000BF65
:102EC000FFF78AFD801B6428F0D828688003F7D4B8
:102ED00020789A4E80074FF001094FF0000839D54D
:102EE000686810F00C0F07D06868C0F381000228F2
:102EF00009D16868C00306D42868800714D5206902
:102F0000012808D110E02069B0B1C6F80090FFF7A1
:102F100063FD074605E00AE1FFF75EFDC01B0228DE
:102F2000C4D828688007F7D52868616920F0F800C0
:102F300040EAC10028600DE0C6F80080FFF74CFDB4
:102F4000074604E0FFF748FDC01B022823D8286885
:102F50008007F7D4207800072CD57948A169D9B12A
:102F6000C0F80090FFF738FD074604E0FFF734FD96
:102F7000C01B02280FD8686A8007F7D571484FF444
:102F8000FA510068B0FBF1F0009000BF0098411EBC
:102F90000091FAD20EE080E0C0F80080FFF71CFD3F
:102FA000074604E0FFF718FDC01B022875D8686AC1
:102FB0008007F7D42078400760D5E8690027C00073
:102FC00008D4E86940F08050E861E869012700F022
:102FD000805000905C480168C90513D4016883469D
:102FE00041F480710160FFF7F7FC824606E000BF04
:102FF000FFF7F2FCA0EB0A0064284ED8DBF80000D3
:10300000C005F5D5E06801280AD008B1052813D01D
:10301000286A20F001002862286A20F0040002E0FB
:10302000286A40F001002862E06841F2883B98B1CC
:10303000FFF7D2FC82460BE0286A40F004002862C9
:10304000EEE700BFFFF7C8FCA0EB0A0159455AD8CC
:10305000286A8007F6D50CE0FFF7BEFC824605E043
:10306000FFF7BAFCA0EB0A0159454CD8286A800743
:10307000F6D41FB1E86920F08050E861E06988B3B8
:103080006968C1F38101022944D00228C6F8608032
:1030900004D0FFF7A1FC044638E034E0FFF79CFCC5
:1030A000074604E0FFF798FCC01B02282BD82868CD
:1030B0008001F7D4206AB0F5803F05D16868A16827
:1030C00020F4003008436860D4E9080108436968C7
:1030D00021F4741108436860C6F86090FFF77CFC27
:1030E000044606E025E000BFFFF776FC001B02283F
:1030F00009D828688001F7D51BE000BFFFF76CFCFA
:10310000001B022802D90320BDE8F88F286880013F
:10311000F4D40EE00128F7D06868226A00F4803108
:10312000914204D1616A00F47010884201D00120FC
:10313000EAE70020E8E700000010024000004242F9
:1031400080044242580000200070004070B51546CF
:103150000E46040007D0A069B0F5807F03D094F834
:10316000410010B107E0012070BD002084F840004C
:10317000204600F01DF804F108012068FEF73CFD30
:103180003146A2682068FEF76BFDD4E901022946AA
:10319000236BFEF713FDA168206850F8212042F050
:1031A000010240F82120012084F84100002070BD78
:1031B000FFF7BABA7047704710B5040003D094F80F
:1031C0003D0010B107E0012010BD002084F83C0054
:1031D000204600F01EF8022084F83D00211D2068E2
:1031E00003F0ECF9012084F8460084F83E0084F8EE
:1031F0003F0084F8400084F8410084F8420084F8DD
:10320000430084F8440084F8450084F83D00002021
:1032100010BD704790F83D10012901D00120704782
:10322000022180F83D100168CA6842F00102CA60BC
:1032300000680E4988420ED00D4988420BD0B0F18B
:10324000804F08D00B49884205D00B49884202D0F4
:103250000A49884204D1816801F00701062903D098
:10326000016841F00101016000207047002C01401D
:10327000003401400004004000080040000C004001
:10328000704770B50446006801694FF00005C943F6
:10329000890715D4C168C943890711D4E91E0161A2
:1032A00001202077206880698007204602D0FFF740
:1032B000E7FF04E000F098F8204600F096F8257744
:1032C00020680169C943490717D4C168C943490740
:1032D00013D46FF004010161022020772068806917
:1032E00010F4407F204602D0FFF7CAFF04E000F050
:1032F0007BF8204600F079F8257720680169C943FA
:10330000090716D4C168C943090712D46FF0080130
:103310000161042020772068C0698007204602D020
:10332000FFF7AEFF04E000F05FF8204600F05DF824
:10333000257720680169C943C90617D4C168C94304
:10334000C90613D46FF010010161082020772068AE
:10335000C06910F4407F204602D0FFF791FF04E0DF
:1033600000F042F8204600F040F825772068016917
:10337000C943C90708D1C168C943C90704D1891E17
:103380000161204600F032F820680169C94309064E
:1033900009D4C168C943090605D46FF080010161F1
:1033A0002046FFF707FF20680169C943490609D491
:1033B000C168C943490605D46FF040010161204648
:1033C00000F01EF820680169C94389060BD4C16862
:1033D000C943890607D46FF0200101612046BDE88A
:1033E0007040FFF7E8BE70BD704770470068034942
:1033F000884201D1FFF7F6BA70470000002C014067
:103400007047704770470000F8B5016804460868C7
:10341000CA684B6910F00F0F4FF0000559D003F048
:10342000010602F49077374365D0C10705D0D10576
:1034300003D5616C41F001016164410705D5D907ED
:1034400003D0616C41F002016164810705D5D907A1
:1034500003D0616C41F004016164010707D502F0FB
:103460002001314303D0616C41F008016164616C5B
:1034700000293AD0800604D5900602D5204603F0F4
:1034800012F920684069616CC0F38010090700D40C
:1034900060B3204603F0E0F820684069400621D57B
:1034A0002068143050E8001F21F0400140E800126D
:1034B000002AF5D1E06BA8B16D494163E06BFEF7DE
:1034C000EFFE002811D0E06B416B01B0BDE8F04089
:1034D000084783060FD593060DD52046BDE8F84072
:1034E00003F0E1B82046FFF78DFFF8BD2046FFF757
:1034F00089FF6564F8BD266B2023012E7CD1C606AA
:103500007AD5D60678D508684868009048694FF0A3
:103510000206400640D5E16B086840680004000CD4
:10352000E8D0A28D8242E5D9E085886920282DD097
:1035300020680C3050E8001F21F4807140E8001230
:10354000002AF5D12068143050E8001F21F0010155
:1035500040E80012002AF5D12068143050E8001F1E
:1035600021F0400140E80012002AF5D184F84230F1
:10357000256320680C3050E8001F21F0100140E85E
:103580000012002AF5D1E06BFEF766FE6663A08D9F
:10359000E18D401A81B22AE0A08DE18D401A81B2FE
:1035A000E08D0028A6D00029A4D022680C3252E871
:1035B000000F20F4907042E80007002FF5D120683A
:1035C000143050E8002F22F0010240E80027002FBD
:1035D000F5D184F84230256320680C3050E8002F84
:1035E00022F0100240E80023002BF5D1666320464C
:1035F000FFF707FFF8BDFFE705062BD5150629D510
:1036000094F841002128F5D1A068B0F5805F01D180
:103610002069B0B1206A411C2162216800784860AD
:10362000E08C401E0004000CE084E3D12068C168F7
:1036300021F08001C1602068C16841F04001C16093
:10364000D8E7206A0088C0F308004860206A801C20
:103650002062E5E74006CDD55006CBD5CA682046A6
:1036600022F04002CA6084F8413000F076F8C1E7E9
:103670004966000870B5040004D094F841000025A4
:1036800010B106E0012070BD84F84050204600F0E3
:1036900023F8242084F841002068C16821F40051F7
:1036A000C160204603F060F82068016921F4904170
:1036B00001612068416921F02A0141612068C168E7
:1036C00041F40051C1606564202084F8410084F811
:1036D00042006563002070BD30B585B000240094C1
:1036E0000194029403940068184988422CD1184828
:1036F000816941F480418161816901F480410491D3
:10370000816941F0040181618069124D00F004007B
:1037100004904FF400700090022001900320039069
:1037200069462846FFF74EF82815CDE9000469469A
:1037300028460294FFF746F8002211462520FFF79D
:10374000D1F92520FFF7C0F905B030BD00380140A0
:10375000001002400008014070477047FEE700007B
:1037600070B50A490646002408884D88214645431D
:10377000204600F079FA00F0E9FBB0B2044901E01C
:103780000880641CAC42FBD370BD000060000020C8
:103790000008006C2DE9F04F33492C240A4688714B
:1037A0002A2592882B2645F2105B4FF4305E4FF4A9
:1037B00048774FF0F00949F2413A4FF4A07845F2CA
:1037C000103C4FF4F07358B1A1F80080A1F80290BA
:1037D000524501D0624529D10C814D818E8139E05D
:1037E000A1F80090A1F80280524501D0624508D1AD
:1037F0000C814D818E81624531D1A1F800804B80D2
:103800002DE05A4508D1A1F808E04FF4285048812E
:103810004FF42C50888106E0A2F5C85063381ED1C1
:103820000C814E818D810B804F8018E05A4508D164
:10383000A1F808E04FF4285048814FF42C508881BB
:1038400006E0A2F5C850633804D10C814D818E8109
:103850000F804B80624502D10B80A1F80280BDE849
:10386000F04F002000F024B9600000202DE9FE4F49
:10387000161ACDE900104FF000085D1A47464FF0C8
:10388000FF30002E02DD4FF0010102E003D14FF0C6
:1038900000018B4602E08346C6F10006002D02DDE2
:1038A0004FF0010002E003D14FF00000824602E039
:1038B0008246C5F10005AE4201DD344600E02C46EB
:1038C000601C4FF00009029018E0009881B2019846
:1038D00080B200F019F8B0442F44A04504DD0198EF
:1038E000A8EB040858440190A74203DD00983F1B51
:1038F0005044009009F101001FFA80F902998945AE
:10390000E3DDBDE8FE8F000000B500F0ADF900F08A
:103910001DFB024802490088088000BD000000200D
:103920000008006C2DE9F043434C91460246A08804
:1039300023460D464FEA1128160A5B89A0F513416C
:10394000413917D0A0F5A641103913D0A0F5AA41EE
:10395000103914D02646A0F5C857B1793688B61A62
:10396000761E633F25D0A0F5D047043F3DD0012906
:1039700051D051E0184600F0DDFA30463CE01846E0
:1039800000F0D8FA304600F0C9FA6089401C80B2D5
:1039900000F0D0FAD0B200F0C1FAA08900F0CAFA63
:1039A000404600F0BBFAA089401C80B200F0C2FA89
:1039B0002DE001B9B2B2184600F0BCFA160A304642
:1039C00000F0ACFAD0B200F0A9FA304600F0A6FA46
:1039D000D0B200F0A3FAA08900F0ACFA404600F0A3
:1039E0009DFAE8B200F09AFA0EE0012900D1B2B2D5
:1039F000184600F09FFA100A00F090FAD0B200F0DA
:103A00008DFAA08900F096FA404600F087FAE8B2F5
:103A100000F084FA08E0B2B21146184600F0A0FAAD
:103A2000A089294600F09CFA044920890880891C55
:103A3000A1F80090BDE8F08360000020FE07006C54
:103A40000246012000E05043491EC9B2FBD2704734
:103A5000034808B50088ADF80000BDF8000008BDB7
:103A60000008006C10B50246BE2000F063FA052085
:103A700000F054FA1046FDF74EFE4FF066320B4B45
:103A8000FDF7B7FDFDF768FE80B200F047FA0120B0
:103A900000F044FAFF2000F041FA002000F03EFA66
:103AA000BDE81040002000F039BA0000666604400E
:103AB000F0B56C4C00232146A279898841F6631643
:103AC000012A01D01AB11BE0B14202D118E0B14283
:103AD00016D1082814D2DFE800F00406080A0C0EFC
:103AE000101206200CE007200AE0042008E0052060
:103AF00006E0012004E0002002E0032000E00220B4
:103B0000A1F5134745F2103245F21055413F05D05B
:103B1000914203D0A94201D0B14277D1082812D2F4
:103B2000DFE800F0110406080A0C0E1080230AE0FA
:103B3000402308E0C02306E0202304E0602302E0E5
:103B4000A02300E0E023A94202D14FF4585000E046
:103B50003620914205D0A94203D0B14201D043F0B2
:103B60000803194600F0FCF9A188B1420AD0980672
:103B70002088628802D5904202D303E0904201D9A6
:103B8000228060806089A94241D100F0D3F90020F1
:103B900000F0C4F96089401C80B200F0CBF900202D
:103BA00000F0BCF96089801C80B200F0C3F9208865
:103BB000401EC0F30F2000F0B1F96089C01C80B234
:103BC00000F0B8F92078401EC0B200F0A7F9A08933
:103BD00000F0B0F9002000F0A1F9A089401C80B2EB
:103BE00000F0A8F9002000F099F9A089801C80B2AB
:103BF00000F0A0F96088401EC0F30F2000F08EF99D
:103C0000A089C01C80B200F095F922E028E000F005
:103C100091F9002000F082F9002000F07FF920885F
:103C2000401EC0F30F2000F079F92078401EC0B28A
:103C300000F074F9A08900F07DF9002000F06EF921
:103C4000002000F06BF96088401EC0F30F2000F0E8
:103C500065F9A078BDE8F040401EC0B200F05EB942
:103C6000F0BD000060000020F0B53F4A0D4604465C
:103C7000060A918810462F0A4089A1F51343413B5B
:103C800028D0A1F5A643103B24D0A1F5C853633B2F
:103C90002FD0A1F5AA43103B64D100F04BF9304678
:103CA00000F03CF95089401C80B200F043F9E0B2CA
:103CB00000F034F9908900F03DF9384600F02EF913
:103CC0009089401C80B200F035F9E8B2BDE8F040C0
:103CD00000F024B900F02EF9304600F01FF9E0B2F0
:103CE00000F01CF9908900F025F9384600F016F92B
:103CF000EBE7917929B300F01DF9304600F00EF999
:103D0000E0B200F00BF91088401EC0F30F2000F065
:103D100005F91078401EC0B200F000F9908900F05B
:103D200009F9384600F0FAF8E8B200F0F7F85088E0
:103D3000401EC0F30F2000F0F1F89078401EC0B292
:103D4000C4E71188091B491E8CB200F0F3F800206B
:103D500000F0E4F8002000F0E1F8200A00F0DEF8BE
:103D6000E0B2D9E7F0BD0000600000202DE9FF4F70
:103D70001D460C468A46580700D0012000EBD500AE
:103D800069084843203A00F0FF09D0B20026DFF866
:103D9000A8B002904BE00C2D11D0102D14D0182D8E
:103DA00017D0202D45D12549029801EBC0104FF0C6
:103DB0000008875D380613D52148026814E0029890
:103DC000204900EB400008E01F49029801EB001079
:103DD000EDE702981D4900EBC00001EB8000E6E72B
:103DE0000D9828B91648426821460098FFF79AFDB9
:103DF0007806070E641CBBF80200A4B2A04218D9D2
:103E0000A4EB0A00A84209D100985446401C80B295
:103E10000090BBF8001081420BD906E008F10100C8
:103E200000F0FF08B8F1080FC4D3761CF6B24E4577
:103E3000B1D3BDE8FF8F000060000020348500088A
:103E400000000020746D0008E8710008D8770008B1
:103E50002DE9FF4F81B00026DDF838A01D469346BE
:103E600081463446B0464FEA5A0727E0281B401ED9
:103E7000C1B20A20FFF7E4FDBBFBF0F00A21B0FB62
:103E8000F1F201FB120026B9691E8C4201DA48B139
:103E900001263030C2B207FB049080B25346CDF801
:103EA000008006E007FB049080B253462022CDF844
:103EB00000800299FFF75AFF641CE4B2AC42D5D3EC
:103EC00005B0BDE8F08F2DE9F84F044600F0FF097A
:103ED00010190D46DDE90AB61FFA80F8581987B2A5
:103EE0004FF0000A12E0444503D305EB0B004C46AB
:103EF00085B2BD420FD25B4629462046CDF800A0D0
:103F0000FFF734FF04EB5B0084B2761C3278A2F139
:103F100020005E28E7D9BDE8F88F000001B5BDF8A4
:103F20000000ADF80000BDF800000149088008BDA0
:103F30000008006C01B5BDF80000ADF80000BDF848
:103F400000000149088008BDFE07006C02480349D3
:103F5000008908807047000060000020FE07006CA8
:103F6000024A1080901C018070470000FE07006C20
:103F7000FEB500241F48009401941D49029401607D
:103F800089158160012505730475042606614FF4C7
:103F900060214460C161FDF76FFF08B1FDF70CFEC1
:103FA00005200094CDE9015069461248FDF7DAFE7C
:103FB00008B1FDF701FE0220CDE9010469460D4874
:103FC000FDF7D0FE08B1FDF7F7FD0320019069462B
:103FD0000848FDF7C7FE08B1FDF7EEFD6946054844
:103FE0000196FDF7BFFE002801D0FDF7E5FDFEBDFF
:103FF00000240140703000201CB5002410490094BA
:104000000E48019408600846FEF7E6F808B1FDF78F
:10401000D3FD0220CDE90040002269460848FEF7A2
:10402000B4F808B1FDF7C8FD102269460448FEF750
:10403000ACF8002801D0FDF7BFFD1CBD00740040A6
:10404000E4300020094808B5416941F001014161AF
:104050004069002200F00100009011460B20FEF79D
:1040600041FDBDE808400B20FEF72EBD00100240C8
:1040700000B58FB01C216846FDF77FF91C2107A809
:10408000FDF77BF91C484FF02041102201601B49CD
:104090004160062181600021C160C0E90412816194
:1040A000C16113020162C0E909139302C0E90B1355
:1040B000416381631A230F20CDE90231CDE900105D
:1040C00004921123CDE90531CDE907100DF1240C3F
:1040D00001208CE80F000D9107AA69460648FFF7FA
:1040E00035F808B1FDF768FD0548C16941F4806104
:1040F000C1610FB000BD0000F8300020040100A035
:10410000000001402DE9F04186B0002434480094BD
:10411000019402940394816941F0400181618169B5
:1041200001F040010491816941F0040181618169DC
:1041300001F004010491816941F008018161816904
:1041400001F008010491816941F480718161816904
:1041500001F480710491816941F0200181618069DD
:10416000204F00F020000490002220213846FEF766
:104170002DFCDFF87480002221214046FEF726FC4A
:10418000182000901948CDE9010469463846FEF729
:1041900019FB202001250226CDE90005CDE90246C4
:1041A00069463846FEF70EFB2120CDE90005CDE932
:1041B000024669464046FEF705FB002211460920EB
:1041C000FEF790FC0920FEF77FFC002211460A2032
:1041D000FEF788FC0A20FEF777FC06B0BDE8F08108
:1041E0000010024000180140000C014000002110A6
:1041F0000C4810B50A4901604FF4E13141600021DB
:1042000081600C22C160C0E904128161C161FFF7C5
:1042100031FA002803D0BDE81040FDF7CDBC10BD39
:104220000038014040310020FEE7FEE7704770474C
:10423000704730B595B028216846FDF79EF81421E7
:104240000AA8FDF79AF818210FA8FDF796F80121A2
:104250000804CDE900100025029502240491CDE95F
:1042600007404FF4E01009906846FEF7DFFD08B103
:1042700072B6FEE70AA90F2081E831004FF4806092
:10428000CDE90D0502210AA8FEF7D4FC08B172B6EB
:10429000FEE74FF4004011900F940FA8FEF754FC76
:1042A000002801D072B6FEE715B030BD704700009F
:1042B0002DE9F05F3220FEF725FAD320FFF73AFE12
:1042C000FFF7C6FBFE4CA080FFF7C2FBA080FFF704
:1042D000BFFB4FF6FF7909EA0020A080FFF7B8FB8B
:1042E000A18849F241360843A08045F2103745F2D3
:1042F000105541F66318B04247D0D420FFF71AFE9C
:10430000FFF7A6FBA080FFF7A3FBA080FFF7A0FBB1
:1043100009EA00204A46A080FFF79AFBA1880843DB
:10432000A080B84231D04FF45A40FFF703FEFFF7A8
:104330008FFBA0804FF45B40FFF7FCFDFFF788FB8D
:1043400002EA0020A0804FF45C40FFF7F3FDFFF786
:104350007FFBA1880843A080B0F5004F7DD0A84224
:1043600013D0A120FFF7E6FDFFF772FBA080FFF757
:104370006FFB02EA0020A080FFF76AFBA1880843D8
:10438000A0F5AE41A080613968D080B2B04266D15C
:10439000CF20FFF7CFFD0020FFF7C0FDC120FFF7C2
:1043A000BDFD3020FFF7BAFDED20FFF7C3FD64200F
:1043B000FFF7B4FD0320FFF7B1FD1220FFF7AEFDBC
:1043C0008120FFF7ABFDE820FFF7B4FD8520FFF764
:1043D000A5FD1020FFF7A2FD7A20FFF79FFDCB205F
:1043E000FFF7A8FD3920FFF799FD2C20FFF796FD78
:1043F0000020FFF793FD3420FFF790FD0220FFF728
:104400008DFDF720FFF796FD2020FFF787FDEA20BE
:10441000FFF790FD0020FFF781FD0020FFF77EFDF4
:10442000C020FFF787FD1B20FFF778FDC120FFF7B5
:1044300081FD0120FFF772FDC520FFF77BFD3020D5
:10444000FFF76CFD3020FFF769FDC720FFF772FD15
:10445000B720FFF763FD362002E0B5E0B0E0B5E03D
:10446000FFF768FD4820FFF759FD3A20FFF762FD8E
:104470005520FFF753FDB120FFF75CFD0020FFF74B
:104480004DFD1A20FFF74AFDB620FFF753FD0A2025
:10449000FFF744FDA220FFF741FDF220FFF74AFDA0
:1044A0000020FFF73BFD2620FFF744FD0120FFF72A
:1044B00035FDE020FFF73EFD0F20FFF72FFD2A20FE
:1044C000FFF72CFD2820FFF729FD0820FFF726FD28
:1044D0000E20FFF723FD0820FFF720FD5420FFF7F3
:1044E0001DFDA920FFF71AFD4320FFF717FD0A2045
:1044F000FFF714FD0F20FFF711FD0020FFF70EFD61
:104500000020FFF70BFD0020FFF708FD0020FFF75C
:1045100005FDE120FFF70EFD0020FFF7FFFC152051
:10452000FFF7FCFC1720FFF7F9FC0720FFF7F6FC6C
:104530001120FFF7F3FC0620FFF7F0FC2B20FFF71C
:10454000EDFC5620FFF7EAFC3C20FFF7E7FC0520D6
:10455000FFF7E4FC1020FFF7E1FC0F20FFF7DEFC83
:104560003F20FFF7DBFC3F20FFF7D8FC0F20FFF7D1
:10457000D5FC2B20FFF7DEFC0020FFF7CFFC00204E
:10458000FFF7CCFC0120FFF7C9FC3F20FFF7C6FC7A
:104590002A20FFF7CFFC0020FFF7C0FC0020FFF728
:1045A000BDFC0020FFF7BAFCEF20FFF7B7FC11209D
:1045B000FFF7C0FC7820FEF7A5F8292001F009BF1D
:1045C000A4F8048001F00ABFA580FDE3B84276D1CB
:1045D000ED20FFF7AFFC0120FFF7A0FCFE20FFF766
:1045E0009DFCEE20FFF7A6FCDE20FFF797FC2120C4
:1045F000FFF794FCF120FFF79DFC0120FFF78EFCF4
:10460000DF20FFF797FC1020FFF788FCC420FFF79E
:1046100091FC8F20FFF782FCC620FFF78BFC002067
:10462000FFF77CFCE220FFF779FCE220FFF776FC45
:10463000E220FFF773FCBF20FFF77CFCAA20FFF706
:104640006DFCB020FFF776FC0D20FFF767FC002023
:10465000FFF764FC0D20FFF761FC0020FFF75EFC14
:104660001120FFF75BFC0020FFF758FC1920FFF733
:1046700055FC0020FFF752FC2120FFF74FFC0020E3
:10468000FFF74CFC2D20FFF749FC0020FFF746FC0C
:104690003D20FFF743FC0020FFF740FC5D20FFF7C3
:1046A0003DFC0020FFF73AFC5D20FFF737FC0020BF
:1046B000FFF734FCB120FFF73DFC802002E0FDE372
:1046C00060000020FFF72AFC0020FFF727FC8B206A
:1046D000FFF724FC0020FFF721FC9620FFF71EFCCB
:1046E0000020FFF71BFCB220FFF724FC0020FFF79F
:1046F00015FC0020FFF712FC0220FFF70FFC002042
:10470000FFF70CFC0320FFF709FC0020FFF706FC75
:10471000B320FFF70FFC0020FFF700FC0020FFF79D
:10472000FDFB0020FFF7FAFB0020FFF7F7FB00205E
:10473000FFF7F4FB0020FFF7F1FB0020FFF7EEFB93
:104740000020FFF7EBFB0020FFF7E8FB0020FFF75E
:10475000E5FB0020FFF7E2FB0020FFF7DFFB002076
:10476000FFF7DCFB0020FFF7D9FB0020FFF7D6FBAB
:104770000020FFF7D3FB0020FFF7D0FB0020FFF75E
:10478000CDFB0020FFF7CAFB0020FFF7C7FB00208E
:10479000FFF7C4FB0020FFF7C1FB0020FFF7BEFBC3
:1047A0000020FFF7BBFBB420FFF7C4FB8B20FFF713
:1047B000B5FB0020FFF7B2FB9620FFF7AFFB002010
:1047C000FFF7ACFBA120FFF7A9FB0020FFF7A6FB3A
:1047D000B520FFF7AFFB0220FFF7A0FB0020FFF79B
:1047E0009DFB0320FFF79AFB0020FFF797FB0420B7
:1047F000FFF794FB0020FFF791FBB620FFF79AFB31
:104800000020FFF78BFB0020FFF788FBB720FFF7A6
:1048100091FB0020FFF782FB0020FFF77FFB3F208A
:10482000FFF77CFB0020FFF779FB5E20FFF776FBAC
:104830000020FFF773FB6420FFF770FB0020FFF7F9
:104840006DFB8C20FFF76AFB0020FFF767FBAC20B5
:10485000FFF764FB0020FFF761FBDC20FFF75EFB46
:104860000020FFF75BFB7020FFF758FB0020FFF7ED
:1048700055FB9020FFF752FB0020FFF74FFBEB208A
:10488000FFF74CFB0020FFF749FBDC20FFF746FB5E
:104890000020FFF743FBB820FFF74CFB0020FFF799
:1048A0003DFB0020FFF73AFB0020FFF737FB00201D
:1048B000FFF734FB0020FFF731FB0020FFF72EFB52
:1048C0000020FFF72BFB0020FFF728FBBA20FFF7A3
:1048D00031FB2420FFF722FB0020FFF71FFB002005
:1048E000FFF71CFB0020FFF719FBC120FFF722FB9D
:1048F0002020FFF713FB0020FFF710FB5420FFF7E9
:104900000DFB0020FFF70AFBFF20FFF707FB00204D
:10491000FFF704FBC220FFF70DFB0A20FFF7FEFAAA
:104920000020FFF7FBFA0420FFF7F8FA0020FFF75A
:10493000F5FAC320FFF7FEFA3C20FFF7EFFA00205C
:10494000FFF7ECFA3A20FFF7E9FA0020FFF7E6FA62
:104950003920FFF7E3FA0020FFF7E0FA3720FFF7EE
:10496000DDFA0020FFF7DAFA3C20FFF7D7FA002043
:10497000FFF7D4FA3620FFF7D1FA0020FFF7CEFA7E
:104980003220FFF7CBFA0020FFF7C8FA2F20FFF7FD
:10499000C5FA0020FFF7C2FA2C20FFF7BFFA00206B
:1049A000FFF7BCFA2920FFF7B9FA0020FFF7B6FAA3
:1049B0002620FFF7B3FA0020FFF7B0FA2420FFF714
:1049C000ADFA0020FFF7AAFA2420FFF7A7FA00208B
:1049D000FFF7A4FA2320FFF7A1FA0020FFF79EFAC1
:1049E0003C20FFF79BFA0020FFF798FA3620FFF7EC
:1049F00095FA0020FFF792FA3220FFF78FFA002095
:104A0000FFF78CFA2F20FFF789FA0020FFF786FACC
:104A10002C20FFF783FA0020FFF780FA2920FFF708
:104A20007DFA0020FFF77AFA2620FFF777FA0020B8
:104A3000FFF774FA2420FFF771FA0020FFF76EFAEF
:104A40002420FFF76BFA0020FFF768FA2320FFF716
:104A500065FA0020FFF762FAC420FFF76BFA6220C4
:104A6000FFF75CFA0020FFF759FA0520FFF756FA26
:104A70000020FFF753FA8420FFF750FA0020FFF7D9
:104A80004DFAF020FFF74AFA0020FFF747FA182006
:104A9000FFF744FA0020FFF741FAA420FFF73EFA9F
:104AA0000020FFF73BFA1820FFF738FA0020FFF745
:104AB00035FA5020FFF732FA0020FFF72FFA0C20CA
:104AC000FFF72CFA0020FFF729FA1720FFF726FA44
:104AD0000020FFF723FA9520FFF720FA0020FFF7C8
:104AE0001DFAF320FFF71AFA0020FFF717FAE62065
:104AF000FFF714FA0020FFF711FAC520FFF71AFAA2
:104B00003220FFF70BFA0020FFF708FA4420FFF7E6
:104B100005FA0020FFF702FA6520FFF7FFF90020F1
:104B2000FFF7FCF97620FFF7F9F90020FFF7F6F917
:104B30008820FFF7F3F90020FFF7F0F9C620FFF710
:104B4000F9F92020FFF7EAF90020FFF7E7F917202D
:104B5000FFF7E4F90020FFF7E1F90120FFF7DEF9A4
:104B60000020FFF7DBF9C720FFF7E4F90020FFF78B
:104B7000D5F90020FFF7D2F90020FFF7CFF9002088
:104B8000FFF7CCF9C820FFF7D5F90020FFF7C6F9E9
:104B90000020FFF7C3F90020FFF7C0F90020FFF75E
:104BA000BDF9C920FFF7C6F90020FFF7B7F90020CB
:104BB000FFF7B4F90020FFF7B1F90020FFF7AEF9D5
:104BC0000020FFF7ABF90020FFF7A8F90020FFF75E
:104BD000A5F90020FFF7A2F90020FFF79FF90020B8
:104BE000FFF79CF90020FFF799F90020FFF796F9ED
:104BF0000020FFF793F90020FFF790F90020FFF75E
:104C00008DF90020FFF78AF9E020FFF793F91620CD
:104C1000FFF784F90020FFF781F91C20FFF77EF9E8
:104C20000020FFF77BF92120FFF778F90020FFF73C
:104C300075F93620FFF772F90020FFF76FF946206B
:104C4000FFF76CF90020FFF769F95220FFF766F9CA
:104C50000020FFF763F96420FFF760F90020FFF7F9
:104C60005DF97A20FFF75AF90020FFF757F98B20FA
:104C7000FFF754F90020FFF751F99920FFF74EF99B
:104C80000020FFF74BF9A820FFF748F90020FFF7B5
:104C900045F9B920FFF742F90020FFF73FF9C4209A
:104CA000FFF73CF90020FFF739F9CA20FFF736F982
:104CB0000020FFF733F9D220FFF730F90020FFF78B
:104CC0002DF9D920FFF72AF90020FFF727F9E02076
:104CD000FFF724F90020FFF721F9F320FFF71EF971
:104CE0000020FFF71BF9E120FFF724F91620FFF75A
:104CF00015F90020FFF712F91C20FFF70FF900202B
:104D0000FFF70CF92220FFF709F90020FFF706F959
:104D10003620FFF703F90020FFF700F94520FFF7E1
:104D2000FDF80020FFF7FAF85220FFF7F7F800200F
:104D3000FFF7F4F86420FFF7F1F80020FFF7EEF832
:104D40007A20FFF7EBF80020FFF7E8F88B20FFF759
:104D5000E5F80020FFF7E2F89920FFF7DFF80020E0
:104D6000FFF7DCF8A820FFF7D9F80020FFF7D6F806
:104D7000B920FFF7D3F80020FFF7D0F8C420FFF7E1
:104D8000CDF80020FFF7CAF8CA20FFF7C7F80020C7
:104D9000FFF7C4F8D220FFF7C1F80020FFF7BEF8F4
:104DA000D820FFF7BBF80020FFF7B8F8E020FFF7A6
:104DB000B5F80020FFF7B2F8F320FFF7AFF80020B6
:104DC000FFF7ACF8E22000E082E3FFF7B3F805203C
:104DD000FFF7A4F80020FFF7A1F80B20FFF79EF8DB
:104DE0000020FFF79BF81B20FFF798F80020FFF743
:104DF00095F83420FFF792F80020FFF78FF8442051
:104E0000FFF78CF80020FFF789F84F20FFF786F8AE
:104E10000020FFF783F86120FFF780F80020FFF7FC
:104E20007DF87920FFF77AF80020FFF777F88820DF
:104E3000FFF774F80020FFF771F89720FFF76EF87E
:104E40000020FFF76BF8A620FFF768F80020FFF7B7
:104E500065F8B720FFF762F80020FFF75FF8C2207F
:104E6000FFF75CF80020FFF759F8C720FFF756F866
:104E70000020FFF753F8D120FFF750F80020FFF78C
:104E80004DF8D620FFF74AF80020FFF747F8DD205D
:104E9000FFF744F80020FFF741F8F320FFF73EF852
:104EA0000020FFF73BF8E320FFF744F80520FFF769
:104EB00035F80020FFF732F80A2000E006E3FFF79C
:104EC0002DF80020FFF72AF81C20FFF727F8002014
:104ED000FFF724F83320FFF721F80020FFF71EF832
:104EE0004420FFF71BF80020FFF718F85020FFF7C9
:104EF00015F80020FFF712F86220FFF70FF80020E6
:104F0000FFF70CF87820FFF709F80020FFF706F804
:104F10008820FFF703F80020FFF700F89720FEF73E
:104F2000FDFF0020FEF7FAFFA620FEF7F7FF0020A6
:104F3000FEF7F4FFB720FEF7F1FF0020FEF7EEFFCB
:104F4000C220FEF7EBFF0020FEF7E8FFC720FEF7C8
:104F5000E5FF0020FEF7E2FFD120FEF7DFFF002093
:104F6000FEF7DCFFD520FEF7D9FF0020FEF7D6FFC5
:104F7000DD20FEF7D3FF0020FEF7D0FFF320FEF781
:104F8000CDFF0020FEF7CAFFE420FEF7D3FF01208B
:104F9000FEF7C4FF0020FEF7C1FF0120FEF7BEFFB1
:104FA0000020FEF7BBFF0220FEF7B8FF0020FEF74F
:104FB000B5FF2A20FEF7B2FF0020FEF7AFFF3C202E
:104FC000FEF7ACFF0020FEF7A9FF4B20FEF7A6FF7F
:104FD0000020FEF7A3FF5D20FEF7A0FF0020FEF7F4
:104FE0009DFF7420FEF79AFF0020FEF797FF8420B4
:104FF000FEF794FF0020FEF791FF9320FEF78EFF4F
:105000000020FEF78BFFA220FEF788FF0020FEF7AE
:1050100085FFB320FEF782FF0020FEF77FFFBE2052
:10502000FEF77CFF0020FEF779FFC420FEF776FF35
:105030000020FEF773FFCD20FEF770FF0020FEF783
:105040006DFFD320FEF76AFF0020FEF767FFDD202B
:10505000FEF764FF0020FEF761FFF320FEF75EFF1E
:105060000020FEF75BFFE520FEF764FF0020FEF75F
:1050700055FF0020FEF752FF0020FEF74FFF0020F3
:10508000FEF74CFF0220FEF749FF0020FEF746FF27
:105090002920FEF743FF0020FEF740FF3C20FEF7EB
:1050A0003DFF0020FEF73AFF4B20FEF737FF0020C0
:1050B000FEF734FF5D20FEF731FF0020FEF72EFFE4
:1050C0007420FEF72BFF0020FEF728FF8420FEF758
:1050D00025FF0020FEF722FF9320FEF71FFF002090
:1050E000FEF71CFFA220FEF719FF0020FEF716FFB7
:1050F000B320FEF713FF0020FEF710FFBE20FEF7DF
:105100000DFF0020FEF70AFFC420FEF707FF002076
:10511000FEF704FFCD20FEF701FF0020FEF7FEFEA4
:10512000D320FEF7FBFE0020FEF7F8FEDC20FEF7A2
:10513000F5FE0020FEF7F2FEF320FEF7EFFE002062
:10514000FEF7ECFEE620FEF7F5FE1120FEF7E6FE88
:105150000020FEF7E3FE3420FEF7E0FE0020FEF71D
:10516000DDFE5620FEF7DAFE0020FEF7D7FE7620A1
:10517000FEF7D4FE0020FEF7D1FE7720FEF7CEFE2C
:105180000020FEF7CBFE6620FEF7C8FE0020FEF7EB
:10519000C5FE8820FEF7C2FE0020FEF7BFFE992064
:1051A000FEF7BCFE0020FEF7B9FEBB20FEF7B6FE00
:1051B0000020FEF7B3FE9920FEF7B0FE0020FEF7B8
:1051C000ADFE6620FEF7AAFE0020FEF7A7FE5520E2
:1051D000FEF7A4FE0020FEF7A1FE5520FEF79EFE7E
:1051E0000020FEF79BFE4520FEF798FE0020FEF70C
:1051F00095FE4320FEF792FE0020FEF78FFE44202E
:10520000FEF78CFE0020FEF789FEE720FEF792FEF7
:105210003220FEF783FE0020FEF780FE5520FEF7C9
:105220007DFE0020FEF77AFE7620FEF777FE002056
:10523000FEF774FE6620FEF771FE0020FEF76EFE9C
:105240006720FEF76BFE0020FEF768FE6720FEF782
:1052500065FE0020FEF762FE8720FEF75FFE00205D
:10526000FEF75CFE9920FEF759FE0020FEF756FE81
:10527000BB20FEF753FE0020FEF750FE9920FEF7FC
:105280004DFE0020FEF74AFE7720FEF747FE002085
:10529000FEF744FE4420FEF741FE0020FEF73EFEEE
:1052A0005620FEF73BFE0020FEF738FE2320FEF7D7
:1052B00035FE0020FEF732FE3320FEF72FFE0020E1
:1052C000FEF72CFE4520FEF729FE0020FEF726FE05
:1052D000E820FEF72FFE0020FEF720FE0020FEF75C
:1052E0001DFE9920FEF71AFE0020FEF717FE87200C
:1052F000FEF714FE0020FEF711FE8820FEF70EFEDA
:105300000020FEF70BFE7720FEF708FE0020FEF7D8
:1053100005FE6620FEF702FE0020FEF7FFFD882056
:10532000FEF7FCFD0020FEF7F9FDAA20FEF7F6FDD2
:105330000020FEF7F3FDBB20FEF7F0FD0020FEF796
:10534000EDFD9920FEF7EAFD0020FEF7E7FD66205F
:10535000FEF7E4FD0020FEF7E1FD5520FEF7DEFD3F
:105360000020FEF7DBFD5520FEF7D8FD0020FEF7FC
:10537000D5FD4420FEF7D2FD0020FEF7CFFD4420EE
:10538000FEF7CCFD0020FEF7C9FD5520FEF7C6FD57
:105390000020FEF7C3FDE920FEF7CCFDAA20FEF7B2
:1053A000BDFD0020FEF7BAFD0020FEF7B7FD00208E
:1053B000FEF7B4FD0020FEF7BDFDAA20FEF7AEFD0E
:1053C000CF20FEF7B7FD0020FEF7A8FD0020FEF776
:1053D000A5FD0020FEF7A2FD0020FEF79FFD0020A6
:1053E000FEF79CFD0020FEF799FD0020FEF796FDDC
:1053F0000020FEF793FD0020FEF790FD0020FEF751
:105400008DFD0020FEF78AFD0020FEF787FD0020BD
:10541000FEF784FD0020FEF781FD0020FEF77EFDF3
:105420000020FEF77BFD0020FEF778FDF020FEF760
:1054300081FD0020FEF772FD5020FEF76FFD002079
:10544000FEF76CFD0020FEF769FD0020FEF766FD0B
:10545000F320FEF76FFD0020FEF760FDF920FEF758
:1054600069FD0620FEF75AFD1020FEF757FD2920A2
:10547000FEF754FD0020FEF751FD3A20FEF75AFDDD
:105480005520FEF74BFD1120FEF754FD6420FDF77B
:1054900039F92920FEF74EFD3520FEF74BFD00209F
:1054A000FEF73CFD5120FEF745FDFF20FEF736FDDF
:1054B0005320FEF73FFD2C20FEF730FD5520FEF770
:1054C00039FD8220FEF72AFD2C20FCE3A8427CD186
:1054D0004FF4704355211846FEF742FD4FF2010A82
:1054E000AA215046FEF73CFD4FF2020B52215846CE
:1054F000FEF736FD08214FF20300FEF731FD0121D2
:105500004FF20400FEF72CFD0D214FF43040FEF762
:1055100027FD0D214BF20100FEF722FD0D214BF27C
:105520000200FEF71DFD34214FF43640FEF718FD52
:1055300034214BF20160FEF713FD34214BF202607F
:10554000FEF70EFD0D214FF43140FEF709FD0D2150
:105550004BF20110FEF704FD0D214BF20210FEF795
:10556000FFFC34214FF43740FEF7FAFC34214BF2B4
:105570000170FEF7F5FC34214BF20270FEF7F0FCEF
:1055800000214FF43240FEF7EBFC00214BF20120EA
:10559000FEF7E6FC00214BF20220FEF7E1FC24219D
:1055A0004FF43840FEF7DCFC24214BF60100FEF7F7
:1055B000D7FC24214BF60200FEF7D2FC01214FF468
:1055C0003F40FEF7CDFC0F2100E0FDE34FF43340F8
:1055D000FEF7C6FC0F214BF20130FEF7C1FC0F2194
:1055E0004BF20230FEF7BCFC34214FF43940FEF799
:1055F000B7FC34214BF60110FEF7B2FC34214BF618
:105600000210FEF7ADFC08214FF43540FEF7A8FC70
:1056100008214BF20150FEF7A3FC08214BF2025087
:10562000FEF79EFC03214FF44240FEF799FC242133
:105630004FF43A40FEF794FC24214BF60120FEF78C
:105640008FFC24214BF60220FEF78AFC00214FF448
:105650003C40FEF785FC78214BF60140FEF780FCCC
:1056600000214BF60240FEF77BFC00214FF43D4049
:10567000FEF776FC78214BF60150FEF771FC002115
:105680004BF60250FEF76CFC00214FF43E40FEF753
:1056900067FC64214BF60160FEF762FC00214FF4C9
:1056A0005140FEF75DFC33214DF20110FEF758FC2E
:1056B00000214DF20210FEF753FC34214DF203108D
:1056C000FEF74EFC00214DF20410FEF749FC3A2192
:1056D0004DF20510FEF744FC00214DF20610FEF7D6
:1056E0003FFC4A214DF20710FEF73AFC00214DF233
:1056F0000810FEF735FC5C214DF20910FEF730FC76
:1057000000214DF20A10FEF72BFC81214DF20B1007
:10571000FEF726FC00214DF20C10FEF721FCA6211D
:105720004DF20D10FEF71CFC00214DF20E10FEF79D
:1057300017FCE5214DF20F10FEF712FC01214DF28E
:105740001010FEF70DFC13214DF21110FEF708FCAE
:1057500001214DF21210FEF703FC54214DF21310FB
:10576000FEF7FEFB01214DF21410FEF7F9FB82213A
:105770004DF21510FEF7F4FB01214DF21610FEF765
:10578000EFFBCA214DF21710FEF7EAFB02214DF2A2
:105790001810FEF7E5FB00214DF21910FEF7E0FBB3
:1057A00002214DF21A10FEF7DBFB01214DF21B1016
:1057B000FEF7D6FB02214DF21C10FEF7D1FB34217F
:1057C0004DF21D10FEF7CCFB02214DF21E10FEF72C
:1057D000C7FB67214DF21F10FEF7C2FB02214DF2FD
:1057E0002010FEF7BDFB84214DF22110FEF7B8FB1F
:1057F00002214DF22210FEF7B3FBA4214DF223103B
:10580000FEF7AEFB02214DF22410FEF7A9FBB721F3
:105810004DF22510FEF7A4FB02214DF22610FEF7F3
:105820009FFBCF214DF22710FEF79AFB02214DF28C
:105830002810FEF795FBDE214DF22910FEF790FBB4
:1058400002214DF22A10FEF78BFBF2214DF22B10B4
:10585000FEF786FB02214DF22C10FEF781FBFE21A4
:105860004DF22D10FEF77CFB03214DF22E10FEF7BA
:1058700077FB10214DF22F10FEF772FB03214DF242
:105880003010FEF76DFB33214DF23110FEF768FB4F
:1058900003214DF23210FEF763FB6D214DF2331000
:1058A000FEF75EFB00214FF45240FEF759FB332117
:1058B0004DF20120FEF754FB00214DF20220FEF7CD
:1058C0004FFB34214DF20320FEF74AFB00214DF23D
:1058D0000420FEF745FB3A214DF20520FEF740FB80
:1058E00000214DF20620FEF73BFB4A214DF2072036
:1058F000FEF736FB00214DF20820FEF731FB5C215C
:105900004DF20920FEF72CFB00214DF20A20FEF794
:1059100027FB81214DF20B20FEF722FB00214DF2E7
:105920000C20FEF71DFBA6214DF20D20FEF718FB03
:1059300000214DF20E20FEF713FBE5214DF20F2062
:10594000FEF70EFB01214DF21020FEF709FB13219B
:105950004DF21120FEF704FB01214DF21220FEF75B
:10596000FFFA54214DF21320FEF7FAFA01214DF20D
:105970001420FEF7F5FA82214DF21520FEF7F0FA19
:1059800001214DF21620FEF7EBFACA214DF2172045
:10599000FEF7E6FA02214DF21820FEF7E1FA0021A7
:1059A0004DF21920FEF7DCFA02214DF21A20FEF723
:1059B000D7FA01214DF21B20FEF7D2FA02214DF257
:1059C0001C20FEF7CDFA34214DF21D20FEF7C8FA57
:1059D00002214DF21E20FEF7C3FA67214DF21F206F
:1059E000FEF7BEFA02214DF22020FEF7B9FA84211B
:1059F0004DF22120FEF7B4FA02214DF22220FEF7EB
:105A0000AFFAA4214DF22320FEF7AAFA02214DF2AB
:105A10002420FEF7A5FAB7214DF22520FEF7A0FAC3
:105A200002214DF22620FEF79BFACF214DF22720CE
:105A3000FEF796FA02214DF22820FEF791FADE21B8
:105A40004DF22920FEF78CFA02214DF22A20FEF7B2
:105A500087FAF2214DF22B20FEF782FA02214DF255
:105A60002C20FEF77DFAFE214DF22D20FEF778FA6C
:105A700003214DF22E20FEF773FA10214DF22F2054
:105A8000FEF76EFA03214DF23020FEF769FA33215A
:105A90004DF23120FEF764FA03214DF23220FEF779
:105AA0005FFA6D214DF23320FEF75AFA00214FF4D0
:105AB0005340FEF755FA33214DF20130FEF750FA0C
:105AC00000214DF20230FEF74BFA34214DF2033043
:105AD000FEF746FA00214DF20430FEF741FA3A2172
