:020000040800F2
:1000000060140020E1010008ED110008030F000852
:10001000B91100087102000839140008000000003E
:10002000000000000000000000000000490100087E
:1000300073020008000000008D010008F91100089B
:10004000FB010008FB010008FB010008FB010008A0
:10005000FB010008FB010008FB010008FB01000890
:10006000FB010008FB010008FB010008FB01000880
:10007000FB010008FB010008FB010008FB01000870
:10008000FB010008FB010008FB010008FB01000860
:10009000FB010008FB010008FB010008FB01000850
:1000A000FB01000885120008FB010008FB010008A5
:1000B000FB010008FB010008FB010008FB01000830
:1000C000FB010008FB010008FB010008FB01000820
:1000D000FB010008FB010008FB010008FB01000810
:1000E000FB010008FB010008FB010008FB01000800
:1000F000FB010008FB010008FB010008FB010008F0
:10010000FB010008FB010008FB010008FB010008DF
:10011000FB010008FB010008FB010008FB010008CF
:10012000FB010008FB010008FB010008FB010008BF
:10013000DFF810D000F08AF800480047D11400081A
:10014000AFF3008060140020224B19680868B0E803
:10015000F00F80F30988BFF36F8F4FF0000080F33A
:1001600011884EF00D0E7047000000000648006830
:10017000006880F3088862B661B6BFF34F8FBFF3A3
:100180006F8F00DF00BF00BF08ED00E0EFF30980D4
:10019000BFF36F8F0F4B1A6820E9F00F106008B59E
:1001A0004FF0500080F31188BFF34F8FBFF36F8F74
:1001B00001F0D6FE4FF0000080F31188BDE8084042
:1001C00019680868B0E8F00F80F30988BFF36F8FF3
:1001D000704700BF28000020EFF305807047000043
:1001E0000648804706480047FEE7FEE7FEE7FEE7D1
:1001F000FEE7FEE7FEE7FEE7FEE7FEE78312000804
:100200003101000840EA01039B0703D009E008C957
:10021000121F08C0042AFAD203E011F8013B00F8CB
:10022000013B521EF9D27047D2B201E000F8012B17
:10023000491EFBD270470022F6E710B513460A4666
:1002400004461946FFF7F0FF204610BD064C074D47
:1002500006E0E06840F0010394E807009847103496
:10026000AC42F6D3FFF768FF002B0008202B0008F4
:10027000FEE7704772B6FEE72DE9F84FDFF8C89148
:10028000002409F1040A0AF1040B23460F270BF19D
:10029000040ED1E00125A54006EA0502AA4276D166
:1002A000DFF8A8C14E68A6EB0C0866452BD00DDC24
:1002B000032E34D005DC36B3012E19D0022E2FD1F7
:1002C0001BE0112E16D0122E2AD119E0B8F5881F86
:1002D00019D006DCB8F5803F15D0B8F5801F1FD1C6
:1002E00011E0B8F5001F0ED0B8F5041F18D10AE0D0
:1002F000CB6815E0CB681B1D12E0CB6808330FE01C
:10030000CB680C330CE08B682BB1012B4FF008034A
:1003100003D0456104E0042302E0056100E000230E
:10032000FF2A01D8064601E000F104064FEA8405E1
:1003300001D9A5F12005D6F8008007FA05FC28EAC6
:100340000C0803FA05F548EA0508C6F800804D6870
:10035000ED0070D53E4DAE6946F00106AE61AD6967
:1003600024F0030605F0010500953A4D06EB050C57
:10037000DCF80850A607360F07FA06F825EA080544
:10038000DFF8D480404503D14FF0000825E052E06B
:10039000DFF8C880404502D14FF001081DE0DFF8CA
:1003A000C080404502D14FF0020816E0DFF8B4806B
:1003B000404502D14FF003080FE0DFF8AC80404524
:1003C00002D14FF0040808E0DFF8A080404502D1D8
:1003D0004FF0050801E04FF0060808FA06F848EA71
:1003E0000508CCF808804D68D9F80060ED034D464B
:1003F00001D5164300E096432E604D68DAF80060A0
:10040000AD03554601D5164300E096432E604D6876
:10041000DBF80060ED025D4601D5164300E096432F
:100420002E604D68DEF80060AD02754601D51643BA
:1004300000E096432E60641C0A681646E2407FF492
:1004400029AFBDE8F88F0000000401400000111042
:10045000001002400000014000080140000C014073
:10046000001001400014014000180140001C014030
:100470000AB1016170470904FBE700000148806888
:10048000704700001800002002488168027811447B
:100490008160704718000020074810B5016841F0DE
:1004A00010010160032000F095F80F2000F006F81D
:1004B00000F03EF8002010BD0020024000B50146CB
:1004C00087B00022192000F065F8192000F054F8D8
:1004D0001348816941F400618161806905A900F4D4
:1004E00000600690684600F01DF900F04BF90D49D8
:1004F0000D4AB0FBF1F10D48491E0260416040F227
:10050000E7320021C0E90321816000F013FB10B144
:10051000012007B000BD054800F03AFBF9E70000F4
:100520000010024040420F00002C01402403002034
:100530000F4808B5816941F001018161816901F0CD
:1005400001010091C16941F08051C161C06900227F
:1005500000F0805000900F21901E00F01BF805481D
:10056000416821F0E06141F00071416008BD000088
:100570000010024000000140002809DB00F01F02CB
:10058000012191404009800000F1E020C0F80011F5
:1005900070470000F0B40E4B1B680C46C3F30223F7
:1005A000C3F10705042D00D90425191D072901D21F
:1005B000002300E0DB1E012606FA05F1491E21405A
:1005C00099409E40761E16403143F0BC00F03EBF7D
:1005D0000CED00E0064900F0070208684FF6FF0343
:1005E000184040EA0220034A1043086070470000A8
:1005F0000CED00E00000FA052DE9F0470F4605007C
:1006000061D0434E306800F00700B84209D230682C
:1006100020F0070038433060306800F00700B8422F
:1006200051D128683B4C810712D5400703D560683B
:1006300040F4E06060602878000703D5606840F40B
:10064000605060606068A96820F0F0000843606056
:100650002878C00728D06868012810D021680228AF
:1006600010D0890700292EDA616821F003010143C7
:100670006160FFF703FF804641F288390DE0216891
:100680008903EFE78901EDE7FFF7F8FEA0EB08012A
:10069000494502D90320BDE8F0876068696800F029
:1006A0000C00B0EB810FEFD1306800F00700B842CA
:1006B0000BD9306820F0070038433060306800F014
:1006C0000700B84201D00120E5E72878400705D5AA
:1006D0006068E96820F4E0600843606028780007FB
:1006E00006D56068296920F4605040EAC100606066
:1006F00000F058F86168084AC1F30311515CC84022
:100700000649086006480068FFF7D8FE0020C2E7E7
:100710000020024000100240B82A000824000020F7
:100720001C0000200F2202600C4A536803F00303F0
:100730004360536803F0F0038360536803F4E0639D
:10074000C36052684FF4E06303EAD20202610448D6
:10075000006800F0070008607047000000100240C9
:10076000002002400448054900684968044AC1F372
:100770000221515CC8407047240000200010024054
:10078000C82A00080448054900684968044AC1F3BA
:10079000C221515CC8407047240000200010024074
:1007A000C82A000812A185B00FC98DE80F0014A057
:1007B000144A006804905168134801F00C03042B9C
:1007C00010D0082B0ED1C1F38343C9031DF80300D9
:1007D0000AD5516804AAC1F34041515C0A4A50430A
:1007E000B0FBF1F005B0704708494843FAE7000054
:1007F00002030405060708090A0B0C0D0E0F101062
:10080000010200000010024000127A0000093D00C1
:100810002DE9F84F040070D02078C04DC00749D0B2
:100820006868C0F38100012807D06868C0F38100C0
:10083000022809D16868C00306D52868800339D525
:1008400060680028E7D035E06068B0F5803F0BD0E5
:1008500010B1B0F5A02F11D0286820F480302860A6
:10086000286820F4802002E0286840F48030286066
:10087000606890B1FFF702FE06460AE0286840F47F
:1008800080202860F0E700BFFFF7F8FD801B642898
:1008900073D828688003F7D50CE0FFF7EFFD064614
:1008A00005E000BFFFF7EAFD801B6428F0D8286848
:1008B0008003F7D420789A4E80074FF001094FF05B
:1008C000000839D5686810F00C0F07D06868C0F3CD
:1008D0008100022809D16868C00306D4286880070F
:1008E00014D52069012808D110E02069B0B1C6F8FC
:1008F0000090FFF7C3FD074605E00AE1FFF7BEFDE4
:10090000C01B0228C4D828688007F7D52868616909
:1009100020F0F80040EAC10028600DE0C6F8008031
:10092000FFF7ACFD074604E0FFF7A8FDC01B022857
:1009300023D828688007F7D4207800072CD5794879
:10094000A169D9B1C0F80090FFF798FD074604E00F
:10095000FFF794FDC01B02280FD8686A8007F7D5FF
:1009600071484FF4FA510068B0FBF1F0009000BFFD
:100970000098411E0091FAD20EE080E0C0F800809D
:10098000FFF77CFD074604E0FFF778FDC01B022857
:1009900075D8686A8007F7D42078400760D5E86981
:1009A0000027C00008D4E86940F08050E861E86999
:1009B000012700F0805000905C480168C90513D4FD
:1009C0000168834641F480710160FFF757FD82465C
:1009D00006E000BFFFF752FDA0EB0A0064284ED8E6
:1009E000DBF80000C005F5D5E06801280AD008B1A1
:1009F000052813D0286A20F001002862286A20F018
:100A0000040002E0286A40F001002862E06841F238
:100A1000883B98B1FFF732FD82460BE0286A40F030
:100A200004002862EEE700BFFFF728FDA0EB0A01F3
:100A300059455AD8286A8007F6D50CE0FFF71EFD05
:100A4000824605E0FFF71AFDA0EB0A0159454CD894
:100A5000286A8007F6D41FB1E86920F08050E86169
:100A6000E06988B36968C1F38101022944D0022892
:100A7000C6F8608004D0FFF701FD044638E034E09A
:100A8000FFF7FCFC074604E0FFF7F8FCC01B022858
:100A90002BD828688001F7D4206AB0F5803F05D1B3
:100AA0006868A16820F4003008436860D4E9080150
:100AB0000843696821F4741108436860C6F86090BF
:100AC000FFF7DCFC044606E025E000BFFFF7D6FC9C
:100AD000001B022809D828688001F7D51BE000BF59
:100AE000FFF7CCFC001B022802D90320BDE8F88FD9
:100AF00028688001F4D40EE00128F7D06868226AE3
:100B000000F48031914204D1616A00F4701088428F
:100B100001D00120EAE70020E8E7000000100240D1
:100B20000000424280044242240000200070004045
:100B30007047704710B5040003D094F83D0010B121
:100B400007E0012010BD002084F83C00204600F0A2
:100B50001EF8022084F83D00211D206800F098FB5B
:100B6000012084F8460084F83E0084F83F0084F8B1
:100B7000400084F8410084F8420084F8430084F87F
:100B8000440084F8450084F83D00002010BD704703
:100B900090F83D10012901D001207047022180F812
:100BA0003D100168CA6842F00102CA6000680E493F
:100BB00088420ED00D4988420BD0B0F1804F08D04A
:100BC0000B49884205D00B49884202D00A49884225
:100BD00004D1816801F00701062903D0016841F0C2
:100BE0000101016000207047002C014000340140E9
:100BF0000004004000080040000C0040704770B541
:100C00000446006801694FF00005C943890715D4FF
:100C1000C168C943890711D4E91E01610120207709
:100C2000206880698007204602D0FFF7E7FF04E0D4
:100C300000F098F8204600F096F8257720680169C2
:100C4000C943490717D4C168C943490713D46FF092
:100C500004010161022020772068806910F4407F40
:100C6000204602D0FFF7CAFF04E000F07BF82046E0
:100C700000F079F8257720680169C943090716D47F
:100C8000C168C943090712D46FF00801016104204B
:100C900020772068C0698007204602D0FFF7AEFFAA
:100CA00004E000F05FF8204600F05DF8257720684A
:100CB0000169C943C90617D4C168C943C90613D419
:100CC0006FF010010161082020772068C06910F4DE
:100CD000407F204602D0FFF791FF04E000F042F889
:100CE000204600F040F8257720680169C943C9070C
:100CF00008D1C168C943C90704D1891E01612046D2
:100D000000F032F820680169C943090609D4C168B6
:100D1000C943090605D46FF0800101612046FFF741
:100D200007FF20680169C943490609D4C168C9435E
:100D3000490605D46FF040010161204600F01EF81D
:100D400020680169C94389060BD4C168C943890673
:100D500007D46FF0200101612046BDE87040FFF725
:100D6000E8BE70BD7047704700680349884201D1F2
:100D7000FFF78ABB70470000002C0140704770B538
:100D8000040004D094F83D00002510B106E00120D5
:100D900070BD84F83C50204600F022F8242084F8EE
:100DA0003D002068C16821F40051C160204600F078
:100DB000B5FA2068016921F4904101612068416918
:100DC00021F02A0141612068C16841F40051C160ED
:100DD0002564202084F83D0084F83E00002070BD8A
:100DE00030B585B000240094019402940394006807
:100DF0001449884224D11448816941F480418161B9
:100E0000816901F480410491816941F004018161AB
:100E100080690E4D00F0040004904FF400700090C3
:100E2000022001900320039069462846FFF724FA28
:100E30002815CDE90004694628460294FFF71CFAFC
:100E400005B030BD003801400010024000080140EC
:100E50002DE9F843044690F83D001F4616460D461E
:100E600020284CD1C5B1BEB194F83C00012846D031
:100E7000012084F83C004FF00008C4F84080212095
:100E800084F83D00FFF7FAFAA6848146E684A0685C
:100E9000B0F5805F03D004E00120BDE8F88320694D
:100EA00028B12E465FF0000584F83C800EE0002655
:100EB000FAE78021204600F08DFAA0B9AEB116F80D
:100EC000010B21684860E08C401EE084E08C4B46BA
:100ED0004FF0000200970028EBD14FF04001204670
:100EE00000F078FA30B10320D7E735F8020BC0F3F1
:100EF0000800E6E7202084F83D000020CDE702202E
:100F0000CBE7FEE70C4C4FF0FF354FF47A760BA0A1
:100F100000F094FA2946606900F02AFB10B90FA08E
:100F200000F08CFA14A000F089FA606900F0F8FA79
:100F3000304600F0E0FAEAE7000000204869676800
:100F40005072696F726974795F5461736B20476581
:100F500074204D757465780D0A0000004869676853
:100F60005072696F726974795F5461736B20527546
:100F70006E696E670D0A0000486967685072696F94
:100F8000726974795F5461736B2052656C6561732B
:100F900065204D757465780D0A000000154E164FDA
:100FA000164C4FF0FF394FF000084FF080554FF4CA
:100FB0007A7A13A000F042FA4946606900F0D8FA44
:100FC00010B917A000F03AFAC4F800803560BFF3FA
:100FD0004F8FBFF36F8F2068401C2060B842F5D35D
:100FE00016A000F02BFA606900F09AFA504600F063
:100FF00082FADEE704ED00E080841E00000000209D
:101000004C6F775072696F726974795F5461736B5A
:1010100020476574204D757465780D0A0000000046
:101020004C6F775072696F726974795F5461736B3A
:101030002052756E696E670D0A0000004C6F775084
:1010400072696F726974795F5461736B2052656C59
:1010500065617365204D757465780D0A00000000A8
:1010600010B59EB000201C901D901CA800F04FFAF7
:10107000174C1C22174960616846FFF7C3F800212E
:10108000684600F0A7FA134960601C221C3107A8CB
:10109000FFF7B8F8002107A800F09CFA0D49A060FE
:1010A0001C2238310EA8FFF7ADF800210EA800F081
:1010B00091FA0849E0601C22543115A8FFF7A2F804
:1010C000002115A800F086FA20611EB010BD0000B6
:1010D00000000020482A00082DE9F04385B00024D4
:1010E00024480094019402940394816941F04001E2
:1010F0008161816901F040010491816941F004013D
:101100008161816901F004010491816941F0080164
:1011100081618069DFF8608000F00800049000229F
:1011200020214046FFF7A4F9DFF85090002220214B
:101130004846FFF79DF91820CDE90004694640466E
:101140000294FFF799F820250227012603970095BE
:10115000CDE9016469464046FFF78EF80397009594
:10116000CDE9016469464846FFF786F805B0BDE859
:10117000F08300000010024000180140000C014004
:101180000C4810B50A4901604FF4E131416000217B
:1011900081600C22C160C0E904128161C161FFF766
:1011A000EEFD002803D0BDE81040FFF763B810BD86
:1011B00000380140E0020020FEE700004FF47A749E
:1011C00003A000F03BF9204600F095F9F8E7000095
:1011D0004D69645072696F726974795F5461736BA1
:1011E0002052756E696E670D0A000000FEE701204F
:1011F00000F081F9FBE7000010B5502080F3118862
:10120000BFF34F8FBFF36F8F01F088FA18B1044915
:101210004FF080500860002080F3118810BD00005E
:1012200004ED00E030B58FB028216846FFF703F8E1
:1012300014210AA8FEF7FFFF01210804CDE90010E0
:101240000024029402250491CDE907504FF4E010E8
:1012500009906846FFF7DCFA08B172B6FEE70F2086
:10126000CDE90A054FF48060CDE90C4002210AA8BF
:101270000E94FFF7C1F9002801D072B6FEE70FB057
:1012800030BD70470148FFF7BABC000024030020BE
:10129000F0B502681C4B1D4D1D4E1E4F1E4C4FF0ED
:1012A000804C984209D0A04207D0604505D0A842A2
:1012B00003D0B04201D0B84204D122F0700E4A6887
:1012C00042EA0E02984209D0A04207D0604505D0FC
:1012D000A84203D0B04201D0B84203D122F44075F5
:1012E000CA682A434D6922F080022A4302608A6854
:1012F000C2620A688262984201D0A04201D10969A3
:10130000016301214161F0BD002C01400004004057
:1013100000080040000C00400034014070B5044655
:1013200000680169E26821F44051114301612169BB
:10133000A0680843616908432168CA6841F20C63E8
:101340009A430243CA6020684169A26921F440714E
:10135000114341611E492068884202D1FFF712FA09
:1013600001E0FFF7FFF900EBC00101EB001260683C
:1013700064218000B2FBF0F3B3FBF1F36FF01806C9
:101380007343B2FBF0F5B2FBF0F605EB83053223B5
:1013900003EB0515B5FBF1F5B6FBF1F605F0F0052D
:1013A00005EB0615B2FBF0F6B2FBF0F0B0FBF1F086
:1013B0006FF01802504306EB800003EB0010B0FB07
:1013C000F1F0216800F00F002844886070BD000033
:1013D000003801402DE9F041984617460E46044674
:1013E000069D1DE0681C1BD02DB1FFF747F8A0EB50
:1013F0000800A84214D92068C16821F4D071C160E6
:101400002068416921F001014161202084F83D00FC
:1014100084F83E00002084F83C000320BDE8F08101
:101420002068006836EA000004D00020B842D9D015
:101430000020F3E70120F9E7FEE70000014A024936
:1014400000F023B8AD140008880000200907090E39
:10145000002804DB00F1E02080F80014704700F061
:101460000F0000F1E02080F8141D704702E008C86A
:10147000121F08C1002AFAD170477047002001E00E
:1014800001C1121F002AFBD170472DE9F041164619
:101490000F460446002503E03946B047641C6D1C26
:1014A00020780028F8D12846BDE8F08113B54FF622
:1014B000FF73012269460248FFF7CAFC00981CBD71
:1014C000E0020020EFF30580002800D001207047E3
:1014D000FEF7E2FFFFF7A6FEFFF7FEFDFFF750FE67
:1014E000FFF7BEFD00F00EF8FEE70146002084295C
:1014F00000D0C81C704710B500B9012000F052FCA4
:10150000002010BD10B500F0EDFC002010BD4168BA
:101510004FF0010009B100F0B0BD00F0A3BD000024
:1015200038B5002405460094FFF7CCFF90B169461A
:10153000284600F0FBFE012801D0FF2038BD0098AE
:1015400088B10A494FF080500860BFF34F8FBFF356
:101550006F8F08E000231A461946284600F036FE31
:10156000012800D0FF24204638BD000004ED00E033
:1015700038B505004FF0000000900FD00024481C43
:101580000ED001B10C46FFF79DFFB8B16A460021AD
:10159000284600F019FF012816D104E0802038BD4C
:1015A0004FF0FF34EFE7009880B109494FF08050C9
:1015B0000860BFF34F8FBFF36F8F07E021462846C7
:1015C00000F050FF012801D0FF2038BD002038BDB9
:1015D00004ED00E07FB50D4604464169B0F908000E
:1015E00081B1A16971B1FFF780FFD4E905128DE8DF
:1015F0000700D4E900102B46226901F056F8039049
:1016000004B070BDFFF771FF03A9CDE90001208A86
:101610002B4682B2D4E9001001F01AF8012801D05B
:101620000020EDE70398EBE72DE9F041184C0F4659
:10163000054666692068001D00F0C6FA38B92068C2
:1016400090F82C1001208840A1698143A161681C99
:1016500007D137B12168BDE8F0410E48091D00F0FF
:10166000F7BA20683544B5424560216805D2A068C4
:10167000BDE8F041091D00F0D3BA6068091D00F013
:10168000CFFA206B854200D22563BDE8F0810000CF
:1016900028000020480400202DE9F041054600F014
:1016A000E3FA2E4C2069401C206120682C4F10B1B9
:1016B000E06940B32DE025602069012829D100268A
:1016C00006EB860007EB800000F09CFA761C072EE4
:1016D000F6D323488C3000F095FA2148A03000F072
:1016E00091FA1F48B43000F08DFA1D48C83000F060
:1016F00089FA1B48DC3000F085FA19488C306060AC
:101700001430A06005E02068E96AC06A884200D809
:101710002560E06A401CE062E96A0120A269884015
:101720001043A06101EB810007EB8000291D00F050
:101730008FFA00F0B9FAE06900280CD02068E96A55
:10174000C06A884207D207494FF080500860BFF353
:101750004F8FBFF36F8FBDE8F0810000280000209D
:101760006C03002004ED00E030B4026C0B46002A4C
:101770000BD0C1681144C1604468A14201D3016823
:10178000C16030BC1846FEF73DBD30BC70472DE946
:10179000F041856B174604460026026C82B1C7B142
:1017A000E068FEF72FFDE168206C091AE16022680D
:1017B000914202D26168081AE060022F16D017E049
:1017C0002068A8B9606801F00DF806460020606046
:1017D0000EE0A068FEF716FD216CA0680844A0602A
:1017E0006168884204D32068A06001E005B16D1EE5
:1017F0006D1CA5633046BDE8F08110B5044690F835
:10180000510058B101280CD002280FD0502080F38D
:101810001188BFF34F8FBFF36F8FFEE7206B00F08F
:1018200057FA2046BDE8104000F052BA10BD000043
:1018300010484FF44061420706D0C01D0D4920F00A
:101840000700411AC1F540610B4A00230144C2E977
:1018500000030839103A21F0070111604B600B605A
:101860000B1AC0E9001393604FF000405360D06042
:10187000704700005C04002074000020144E154CDA
:10188000A6F1C8074FF08058DFF84C9012E000BF77
:1018900000F0EAF9F068C568281D00F095F92069A4
:1018A000401E2061E068401EE06000F0FDF928461F
:1018B000FFF7A3FFE0680028EAD138680128F9D9CA
:1018C000C9F80080BFF34F8FBFF36F8FF2E70000BE
:1018D000340400202800002004ED00E0002807D098
:1018E0000021416001600B460A46C16000F06EBCF9
:1018F00070470346009829B10260C0E90F31012109
:1019000000F020BC0060F8E72DE9F0479A46DDE9D9
:10191000098481466FF00303206B03EB82021044BD
:10192000089D20F00706700707D0502080F311882B
:10193000BFF34F8FBFF36F8FFEE723180A5C83F866
:1019400034200A5C12B1401C1028F6D3002784F81A
:101950004370072D00D30625E562C4E91157201D09
:1019600000F05BF904F1180000F057F92461C5F1AB
:1019700007006462A061E76484F8507052464946EB
:10198000304600F00FF92060B8F1000F01D0C8F820
:101990000040BDE8F087000030B5114900E0114675
:1019A0000A688242FBD34B685C18844203D14068CA
:1019B00018444860084643681C18944209D1084CF2
:1019C000103C2468A24209D052681A4442600A6856
:1019D00012680260814200D0086030BD0460F9E7FF
:1019E0007400002010B5044600F03EF9A06B28B149
:1019F0005FF0000400F058F9204610BD0124F9E71B
:101A000006484168096829B14168C968C9684968D8
:101A1000016370474FF0FF31FAE700002800002013
:101A200008484068401C4FF0500080F3118804D0F3
:101A3000BFF34F8FBFF36F8FFEE7BFF34F8FBFF33F
:101A40006F8FFEE77C0000202DE9F041044600F096
:101A50000BF994F9455004F1240609E0606A48B195
:101A6000304600F055FF08B100F0CAF96D1E6DB2A6
:101A7000002DF3DC4FF0FF3684F8456000F014F9D8
:101A800000F0F2F894F9445004F1100709E02069DD
:101A900048B1384600F03CFF08B100F0B1F96D1EC6
:101AA0006DB2002DF3DC84F84460BDE8F04100F035
:101AB000FBB800002DE9F0410546002700F048FA88
:101AC000314E306808B9FFF7B3FEF06805424BD1DC
:101AD000C5B3083568070ED005F00700C0F108004F
:101AE0000544680707D0502080F31188BFF34F8F5B
:101AF000BFF36F8FFEE72DB37068854234D822485C
:101B0000103001460C6801E020460C466168A9428D
:101B100002D221680029F7D131688C4224D00768AD
:101B20002168016060680837411B10290FD96019CE
:101B3000420708D0502080F31188BFF34F8FBFF3C6
:101B40006F8FFEE710E041606560FFF725FF616879
:101B50007068401A7060B268904200D2B060F0685D
:101B600001430020C4E9000100F00CFF780707D012
:101B7000502080F31188BFF34F8FBFF36F8FFEE7C4
:101B80003846BDE8F0810000640000200449086880
:101B900018B10868826C521C8264086870470000A3
:101BA0002800002010B5031F4FF080741C601B1F1D
:101BB00021F001011960191F024B0B6014394038E4
:101BC0000A6010BD211A0008D0E9013201699A604B
:101BD000D0E901235A604A68824201D182684A6092
:101BE000002202610868401E086008687047000013
:101BF000034B036003F154000860802010607047BD
:101C00008C00002000F108014FF0FF32C0E9011202
:101C1000C1600161002101607047002101617047CE
:101C200030B50B685A1C02D000F1080202E00269CC
:101C300004E02246546825689D42FAD953684B60F7
:101C400099608A60516008610168491C016030BD7B
:101C500042684A6093688B6093685960916008613C
:101C60000168491C01607047502080F31188BFF360
:101C70004F8FBFF36F8F0A494868401C48600128A6
:101C80000CD10848006810F0FF0F07D0502080F3F7
:101C90001188BFF34F8FBFF36F8FFEE770470000CF
:101CA0007C00002004ED00E00849486828B1401E8F
:101CB000486001D180F311887047502080F311886B
:101CC000BFF34F8FBFF36F8FFEE700007C00002053
:101CD00070B5002827D0144DA0F108046168E868A9
:101CE000014207D1502080F31188BFF34F8FBFF31B
:101CF0006F8FFEE722683AB1502080F31188BFF35E
:101D00004F8FBFF36F8FFEE78143616000F020F9D2
:101D100060686968084468602046FFF73DFEBDE8DA
:101D2000704000F02FBE70BD640000204FF0E02036
:101D300000210161816105494FF47A720968B1FBA4
:101D4000F2F1491E41610721016170472400002022
:101D500010B5FEF741FA114910280ED300F1E0202A
:101D600090F8F0030A78904207D2502080F311884F
:101D7000BFF34F8FBFF36F8FFEE709480068896894
:101D800000F4E060884207D9502080F31188BFF347
:101D90004F8FBFF36F8FFEE710BD00007C00002067
:101DA0000CED00E010B5020014D00F48806B38B184
:101DB000502080F31188BFF34F8FBFF36F8FFEE782
:101DC00000F0C6F800211046FFF72EFC00F0DAFD07
:101DD000002807D105494FF080500860BFF34F8FAE
:101DE000BFF36F8F10BD00002800002004ED00E05D
:101DF00002498A6A026049694160704728000020F0
:101E000001490120486270472800002010B50C46A7
:101E100050B1094909681831FFF702FF2046BDE8B3
:101E200010400121FFF700BC502080F31188BFF360
:101E30004F8FBFF36F8FFEE72800002070B50400BE
:101E40004BD0A26CA2B1606C884200D30146E06A1C
:101E5000884242D0012A40D1204D2A6894420FD1B5
:101E6000502080F31188BFF34F8FBFF36F8FFEE7D1
:101E7000502080F31188BFF34F8FBFF36F8FFEE7C1
:101E8000E162A269002A02DBC1F10701A161144EDF
:101E900000EB8000616906EB800081421DD1201DAE
:101EA000FFF792FE012150B9E06A00EB800256F87C
:101EB000222022B9AA6901FA00F08243AA61E06AED
:101EC000AA6981401143A96100EB800006EB800004
:101ED000211DBDE87040FFF7BBBE70BD280000208B
:101EE0006C03002010B586B00024039405AA04A951
:101EF00003A80494FFF77CFEDDE903010094CDE91B
:101F0000011000230EA11048059A00F0CEFB0F49E6
:101F10000028486311D0502080F31188BFF34F8F01
:101F2000BFF36F8F4FF0FF3008630120C8614C6131
:101F300006B0BDE8104000F041B806B010BD00008A
:101F400049444C45000000007D180008280000208E
:101F50000248816B491C8163704700002800002003
:101F60001448816B11B10121416270470021416227
:101F70008169B1FA81F1C1F11F0101EB81020E49C2
:101F800051F822306BB101EB820101F108034A687C
:101F900052684A609A4201D152684A60D168016031
:101FA0007047502080F31188BFF34F8FBFF36F8FBE
:101FB000FEE70000280000206C0300201CB5264925
:101FC00008780190FF20087008788DF800009DF8CF
:101FD00000009DF8002000F0F000904207D0502053
:101FE00080F31188BFF34F8FBFF36F8FFEE79DF82B
:101FF00000001A4B00F0500018700720986005E0B0
:102000009DF8002052008DF80020401E9DF8002011
:102010001206F5D49860032807D0502080F3118869
:10202000BFF34F8FBFF36F8FFEE74FF440709860A0
:10203000019808700A48016841F470010160016864
:1020400041F070410160FFF771FE00205860FEF71B
:102050008DF800201CBD000000E400E07C000020A2
:1020600020ED00E010B502460021012000F012F83A
:102070000446FFF733FC204610BD38B50B4600225E
:1020800000901146012000F029F80446FFF726FCD5
:10209000204638BDF8B517460E46050014D0DEB10F
:1020A00005FB06F04830FFF705FD04000AD00020CC
:1020B00084F8460004F148023B4631462846009425
:1020C000FFF717FC2046F8BD502080F31188BFF3BE
:1020D0004F8FBFF36F8FFEE70020E3E738B5049D15
:1020E00018B153B1CAB181B120E0502080F31188FA
:1020F000BFF34F8FBFF36F8FFEE7502080F311883F
:10210000BFF34F8FBFF36F8FFEE7502080F311882E
:10211000BFF34F8FBFF36F8FFEE739B1502080F3CD
:102120001188BFF34F8FBFF36F8FFEE748241C4623
:10213000012384F846302B460094FFF7DAFB204653
:1021400038BD000070B50D46040025D0FFF78CFDAA
:10215000D4E90F20216802FB001161600021A16316
:102160002168A1600A46D4E90F01401E00FB01214D
:10217000E16021464FF0FF3001F8440F487004F150
:1021800010008DB1FFF73EFD04F12400FFF73AFD8A
:10219000FFF78AFD012070BD502080F31188BFF346
:1021A0004F8FBFF36F8FFEE721690029F0D000F059
:1021B000AFFB0028ECD004494FF080500860BFF31B
:1021C0004F8FBFF36F8FE3E704ED00E02DE9FF478A
:1021D00082B01D468A464FF00008040003D0BAF1D1
:1021E000000F08D011E0502080F31188BFF34F8F0B
:1021F000BFF36F8FFEE7206C38B1502080F3118859
:10220000BFF34F8FBFF36F8FFEE7022D0AD1E06B54
:10221000012807D0502080F31188BFF34F8FBFF300
:102220006F8FFEE700F06CFA3F4F4FF000094FF060
:10223000805648B9049838B1502080F31188BFF314
:102240004F8FBFF36F8FFEE7FFF70EFDA06BE16BC3
:10225000884207D3022D05D00498D0B1B8F1000F01
:102260001AD01EE02A4651462046FFF790FA616ACE
:1022700019B104F1240000F04BFB20B13E60BFF324
:102280004F8FBFF36F8FFFF70FFD012006B0BDE842
:10229000F087FFF709FD22E06846FFF7A9FD4FF040
:1022A0000108FFF701FDFFF753FEFFF7DDFC94F98E
:1022B0004400401C01D184F8449094F94500401C2E
:1022C00001D184F84590FFF7EFFC04A9684600F0BF
:1022D00085F930B12046FFF7B7FB00F053FB002033
:1022E000D4E7FFF7C1FCA06BE16B884213D1FFF785
:1022F000DBFC04F110000499FFF788FD2046FFF78E
:10230000A3FB00F03FFB00289ED13E60BFF34F8F40
:10231000BFF36F8F98E7FFF7C7FC2046FFF794FBEA
:1023200000F030FB90E7000004ED00E070B50E46D1
:10233000040009D0206C78B1502080F31188BFF3DD
:102340004F8FBFF36F8FFEE7502080F31188BFF3EC
:102350004F8FBFF36F8FFEE7206848B9606838B1D0
:10236000502080F31188BFF34F8FBFF36F8FFEE7CC
:10237000FFF7EEFC5020EFF3118580F31188BFF3D7
:102380004F8FBFF36F8FA16BE06B884218D994F920
:102390004500491CA163411C04D0401C84F8450041
:1023A00001200EE0606A0028FAD004F1240000F059
:1023B000AFFA0028F4D0002EF2D001203060EFE711
:1023C000002085F3118870BD2DE9F04790468946BD
:1023D000040003D0B9F1000F08D011E0502080F3C1
:1023E0001188BFF34F8FBFF36F8FFEE7206C38B1BA
:1023F000502080F31188BFF34F8FBFF36F8FFEE73C
:10240000FFF7A6FC5020EFF3118680F31188BFF38D
:102410004F8FBFF36F8FA76BF7B194F944504946C4
:102420002046FFF7A1F97F1EA763681C04D06D1C2E
:1024300084F84450012010E020690028FAD004F10B
:10244000100000F065FA0028F4D0B8F1000FF1D0C8
:102450000121C8F80010EDE7002086F31188BDE8DF
:10246000F08700002DE9F343002683B004003546D1
:1024700009D0206C78B1502080F31188BFF34F8FC2
:10248000BFF36F8FFEE7502080F31188BFF34F8FAB
:10249000BFF36F8FFEE700F033F9DFF83C814FF0B8
:1024A00000094FF0805748B9049838B1502080F3A4
:1024B0001188BFF34F8FBFF36F8FFEE7FFF7D4FB99
:1024C000A06BC8B1401EA063206810B9FFF75EFB87
:1024D0006060206950B104F1100000F019FA28B1D1
:1024E000C8F80070BFF34F8FBFF36F8FFFF7DCFBAF
:1024F000012005B0BDE8F083049808B166B10FE093
:102500003DB1502080F31188BFF34F8FBFF36F8F21
:10251000FEE7FFF7C9FB5DE06846FFF769FC0126AF
:10252000FFF7C2FBFFF714FDFFF79EFB94F9440091
:10253000401C01D184F8449094F94500401C01D11D
:1025400084F84590FFF7B0FB04A9684600F046F810
:102550000028204612D0FFF777FA00F013FA204641
:10256000FFF740FA0028A9D09DB3FFF77DFB606A12
:1025700050B3206B0068C0F1070126E0FFF732FA84
:10258000E0B1206838B9FFF76FFB606800F076F9BA
:102590000546FFF789FB04F124000499FFF736FC98
:1025A0002046FFF751FA00F0EDF9002886D1C8F86F
:1025B0000070BFF34F8FBFF36F8F7FE72046FFF7A9
:1025C00043FA00F0DFF979E700216068FFF736FC95
:1025D0009FE7FFE700208CE704ED00E02DE9F041E4
:1025E0000C46050011D0C4B1FFF73EFB174B5A69EA
:1025F0006E682068911B471C17D02F689B6A9F420A
:1026000019D0964217D8012410E0502080F3118889
:10261000BFF34F8FBFF36F8FFEE7502080F3118819
:10262000BFF34F8FBFF36F8FFEE70024FFF73CFB34
:102630002046BDE8F081884205D9401A206028462E
:10264000FFF7D6FBF1E700202060DCE72800002040
:102650002DE9FF5F8346DDE90E87994616468A46D7
:102660009000FFF727FA05001CD05420FFF722FA4C
:10267000040014D00020256384F85100CDE9024005
:10268000CDE900874B46324651465846FFF73CF9A4
:102690002046FFF701F8012004B0BDE8F09F28466E
:1026A000FFF716FB4FF0FF30F6E7F0B585B0DDE938
:1026B0000B640A9DA6B1DCB154270097266302265D
:1026C00084F85160002604AFCDE90246CDE90057F9
:1026D000FFF71AF92046FEF7DFFF049805B0F0BDBA
:1026E000502080F31188BFF34F8FBFF36F8FFEE749
:1026F000502080F31188BFF34F8FBFF36F8FFEE739
:102700000548C16919B1806B18B1002070470120DC
:102710007047022070470000280000202DE9F0419A
:102720002E4C0027A06B40B1206A401C2062606ADA
:1027300000B101273846BDE8F0816669761C666104
:1027400013D16068006838B1502080F31188BFF35E
:102750004F8FBFF36F8FFEE76068A1686160A06074
:10276000A06A401CA062FFF74BF9206BDFF8708075
:10277000864209D36068006880B16068C068C56837
:10278000686886420DD220632068C06A00EB800131
:1027900058F821000128CAD90127C8E74FF0FF30B7
:1027A000F1E7281DFFF710FAA86A18B105F1180023
:1027B000FFF70AFAE86A0121A26981401143A16189
:1027C00000EB800108EB8100291DFFF741FAE86A60
:1027D0002168C96A8842CDD30127CBE728000020B1
:1027E0006C03002070B504004FF0000140D0214D73
:1027F0002868844207D0502080F31188BFF34F8FA0
:10280000BFF36F8FFEE7A06C38B1401EA064636C0D
:10281000E26A9A422CD040B12AE0502080F311881D
:10282000BFF34F8FBFF36F8FFEE7201DFFF7CCF98B
:10283000114A012150B9E06A00EB800352F82330BD
:1028400023B9AB6901FA00F08343AB61606CE062CD
:10285000C0F10700A061E06AAB6981401943A9613A
:1028600000EB800002EB8000211DFFF7F1F9012150
:10287000084670BD280000206C03002070B50400DD
:102880004FF0000038D0204DE16A2A68D26A9142A8
:1028900033D2A069002804DB2868C06AC0F10700B1
:1028A000A0611A4E01EB8101606906EB810188424B
:1028B0001ED1201DFFF788F9012150B9E06A00EB15
:1028C000800256F8222022B9AA6901FA00F0824358
:1028D000AA612868C06AE062AA6981401143A961BF
:1028E00000EB800006EB8000211DFFF7B1F902E04C
:1028F0002868C06AE062012070BD616C2A68D26AF3
:102900009142F8D370BD0000280000206C03002025
:102910002DE9F041C068C468ACB104F11800074665
:10292000FFF752F9154DA86B0126A0B1394614489E
:10293000FFF78EF9E06A2968C96A88421CD901202C
:102940006E62BDE8F081502080F31188BFF34F8F95
:10295000BFF36F8FFEE7201DFFF736F9E16AAA6922
:1029600006FA01F01043A86101EB81000449B43973
:1029700001EB8000211DDBE70020E2E728000020BA
:10298000200400202DE9F0472C4D00242746A86B99
:1029900038B1FFF769F9A86B401EA863A86B40B176
:1029A00046E0502080F31188BFF34F8FBFF36F8F45
:1029B000FEE72969224E0120D1B3A6F1B409804671
:1029C0003068E8B1F068C46804F11800FFF7FCF85B
:1029D000201DFFF7F9F8E06AAA6908FA00F111432F
:1029E000A96100EB800109EB8100211DFFF730F99F
:1029F000E06A2968C96A8842E2D3C5F82480DFE723
:102A00000CB1FEF7FDFF2C6A44B14646FFF786FE87
:102A100000B16E62641EF9D100202862686A38B184
:102A20000849012738070860BFF34F8FBFF36F8F46
:102A3000FFF73AF93846BDE8F0870000280000208B
:102A40002004002004ED00E0E82A0008EF1100084F
:102A500000000000000000008000000000000000F6
:102A600000000000F42A00089D0F0008FDFF000090
:102A700000000000800000000000000000000000D6
:102A8000D02A0008BD110008FDFF00000000000072
:102A9000800000000000000000000000DC2A0008A8
:102AA000050F0008FDFF000000000000800000008E
:102AB0000000000000000000000000000000000016
:102AC00001020304060708090000000001020304D4
:102AD0006D794D69645461736B0000006D794869CC
:102AE00067685461736B000064656661756C74544B
:102AF00061736B006D794C6F775461736B000000EC
:102B0000202B0008000000208C0000006C1400083E
:102B1000AC2B00088C000020D41300007C140008AB
:102B200000000000000000000000000000000000A5
:102B30000000000000000000010000001000000084
:102B4000000000000024F40000000000000000006D
:102B50000000000000000000000000000000000075
:102B60000000000000000000000000000000000065
:102B70000000000000000000000000000000000055
:102B80000000000000000000000000000000000045
:102B90000000000000000000000000000000000035
:0C2BA000AAAAAAAA000000000000000081
:0400000508000131BD
:00000001FF
