:020000040800F2
:10000000B0170020E1010008772B0008DD2300086D
:10001000752B0008170C0008492F0008000000008D
:10002000000000000000000000000000490100087E
:10003000190C0008000000008D010008792B000851
:10004000FB010008FB010008FB010008FB010008A0
:10005000FB010008FB010008FB010008FB01000890
:10006000FB010008FB010008FB010008FB01000880
:10007000FB010008FB010008FB010008FB01000870
:10008000FB010008FB010008FB010008FB01000860
:10009000FB010008FB010008FB010008FB01000850
:1000A000FB010008052C0008FB010008FB0100080B
:1000B000FB010008FB010008FB010008FB01000830
:1000C000FB010008FB010008FB010008FB01000820
:1000D000FB010008252F0008312F00083D2F0008E4
:1000E000FB010008FB010008FB010008FB01000800
:1000F000FB010008FB010008FB010008FB010008F0
:10010000FB010008FB010008FB010008FB010008DF
:10011000FB010008FB010008FB010008FB010008CF
:10012000FB010008FB010008FB010008FB010008BF
:10013000DFF810D000F00CFD00480047974E000893
:10014000AFF30080B0170020224B19680868B0E8B0
:10015000F00F80F30988BFF36F8F4FF0000080F33A
:1001600011884EF00D0E7047000000000648006830
:10017000006880F3088862B661B6BFF34F8FBFF3A3
:100180006F8F00DF00BF00BF08ED00E0EFF30980D4
:10019000BFF36F8F0F4B1A6820E9F00F106008B59E
:1001A0004FF0500080F31188BFF34F8FBFF36F8F74
:1001B00006F094FA4FF0000080F31188BDE8084083
:1001C00019680868B0E8F00F80F30988BFF36F8FF3
:1001D000704700BF24000020EFF305807047000047
:1001E0000648804706480047FEE7FEE7FEE7FEE7D1
:1001F000FEE7FEE7FEE7FEE7FEE7FEE7032C00086A
:10020000310100082DE9F0410024061B254671F15B
:10021000000605DA01240027D0EB070067EB010197
:10022000161E73F1000605DA0027D2EB070201253E
:1002300067EB030300F046FB86460E4617469C46D6
:10024000AC4204D00025D0EB050E65EB010624B1CD
:100250000020D2EB000760EB030C704631463A46B3
:100260006346BDE8F081202A04DB203A21FA02F03F
:100270000021704721FA02F3D040C2F120029140E0
:1002800008431946704740EA01039B0703D009E081
:1002900008C9121F08C0042AFAD203E011F8013B72
:1002A00000F8013B521EF9D27047D2B201E000F8CB
:1002B000012B491EFBD270470022F6E710B513460A
:1002C0000A4604461946FFF7F0FF204610BD30B538
:1002D00005462A460B4612F8010B13F8014B08B1EC
:1002E000A042F8D01CB1002802D06D1CF1E72846CE
:1002F00030BD30B504460020034600E05B1C93424D
:1003000003D2E05CCD5C401BF8D030BDF0B480EA95
:100310000102D40F4200B2EB410F02D2024608465E
:1003200011464A0042D0C30DDDB2C1F3C752AD1A27
:10033000202D35DAC1F3160141F4000204B1524216
:10034000C5F1200602FA06F12A411044B3EBD05F52
:1003500023D0C4B1012DA0EBC35009DCF0BC4FF099
:10036000004202EAC352DBB200F5000000F005BB18
:10037000400000F1807000EBC350A0F1807040EAB3
:10038000D170490009E0490841EAC071A0EBC350AF
:1003900000F50000400800EBC350F0BC00F0E4BAE8
:1003A0006142012202EB4101001BF6E7F0BC7047FD
:1003B00081F00041AAE780F00040A7E780EA01024F
:1003C00010B502F00043400022D04A001FD0010EB9
:1003D00001EB1261C0F35600C2F3560240F4000074
:1003E00042F40002A0FB022000047F39140400D074
:1003F000401C50EA124001D44000491EC2B20C0613
:1004000004EBD010401C4008802A02D003E00020FA
:1004100010BD20F00100002900DA0020184310BDB3
:1004200030B480EA010202F0004530F0004221F0D1
:10043000004013D090B1C30DD40DC2F31601C0F328
:100440001600E41A41F4000140F400027D349142A8
:1004500001D3641C00E04900002C02DA30BC00200B
:1004600070474FF400000023914201D3891A0343DF
:1004700040084FEA4101F7D151B1914202D14FF00A
:10048000004105E002D24FF0010101E06FF00101EF
:1004900003EBC450284430BC00F066BA420005D0DB
:1004A000C0F3C7525242914201DC0020704700EB7A
:1004B000C15070472DE9FE4F804681EA0300C00F0E
:1004C0000C46009021F0004123F00045B8EB0200FB
:1004D000A94105D24046214690461C460B4602469D
:1004E00023F00040104347D0270DC7F30A00C3F3A1
:1004F0000A510290401A019040286BDAC3F31300AE
:1005000040F4801B0098924620B10023D2EB030AEE
:1005100063EB0B0B01985946C0F14002504600F0C6
:1005200002FA06460D4650465946019A00F00AFA6C
:1005300010EB08006141002487EA115284EAE77356
:100540001A4340D0009A62B3019A012A4FEA075237
:1005500015DC001B61EB02014FF0004202EA07527A
:10056000CDE90042001C41F5801132462B4600F0D7
:1005700041FA03B0BDE8F08F40462146F9E7001B81
:1005800061EB0201001C41F5801300185B4120184B
:10059000A2F5001747EB030140EAD570B6196D418B
:1005A00011E06D084FEA360645EAC0754FEA07527A
:1005B000001B61EB0201001C41F5801149084FEA64
:1005C00030000019514132462B4603B0BDE8F04FD0
:1005D00000F001BA0098012240000023D0EB020293
:1005E00063EBE073009821464FEAE074B8EB00003B
:1005F00061EB0401E9E783F000435BE781F0004130
:1006000058E72DE9FE4F81EA030404F0004421F08D
:10061000004100944FF0000B23F0004350EA010426
:100620005ED052EA03045BD0C3F30A54C1F30A5507
:100630002C44A4F2F3340194A0FB0254C1F313013F
:1006400041F48011C3F3130343F4801301FB02440C
:1006500000FB034E840A970A44EA815447EA835711
:10066000A4FB076802958D0A05FB07854FEA932CCA
:1006700004FB0C542705029D4FEA065847EA16373B
:10068000B5EB08056EEB070C870E920E47EA811753
:1006900042EA8312A7FB0201B6EB0B0164EB0004F4
:1006A0002B0D43EA0C335E1844EB1C50DA465146DE
:1006B000E7FB0201C5F313044FEA0B3343EA14537B
:1006C0004FEA0432019C43EA0603A4F10C040294AD
:1006D000009CCDE900B400F08DF903B0BDE8F08FC7
:1006E00000200146F9E72DE9F04D81EA030404F00A
:1006F000004B21F0004514464FF0000A23F0004162
:1007000050EA050220D054EA01021DD0C5F30A5771
:100710000246C5F31303C1F31300C1F30A5640F4B4
:10072000801543F48013A7EB0608101BD64608F289
:10073000FD3873EB050002D308F1010801E09218BF
:100740005B41B8F1000F03DA00200146BDE8F08DEF
:1007500000204FF48011064684460EE0171B73EB11
:10076000050705D3121B63EB050306434CEA010C96
:1007700049084FEA300092185B4150EA0107EDD179
:1007800052EA030012D082EA040083EA050108431A
:1007900005D0101BAB4106D20122002306E0002247
:1007A0004FF0004302E06FF0010253101AEB060015
:1007B0004CEB085110EB0A0041EB0B01BDE8F04D8A
:1007C00000F009B9C10F80EAE0700844CA07962317
:1007D000002100F0D2B896230022114600F0CDB8D7
:1007E00000F0004220F00040C10DC0F3160040F4BC
:1007F00000007F2901DA00207047962903DCC1F14F
:100800009601C84001E096398840002AF4D0404261
:10081000704720F00040C10DC0F3160040F4000006
:100820007F2901DA00207047962903DCC1F1960187
:10083000C840704796398840704700F0004230F059
:1008400000400AD0C10D01F56071C0F3160042EA04
:100850000151C2084007114370470020014670470C
:1008600001F0004330B421F0004150EA010206D00B
:100870000A0DA2F56072C1F31301002A02DC30BC3C
:1008800000207047440F44EAC104C100E01830BCA6
:1008900000EBC25000F068B830B50B4601460020AE
:1008A0002022012409E021FA02F59D4205D303FA32
:1008B00002F5491B04FA02F52844151EA2F10102B3
:1008C000F1DC30BD2DE9F05F0546002092469B46E5
:1008D00088460646814640241BE028464146474656
:1008E0002246FFF7C0FC53465A46C01A914110D326
:1008F00011461846224600F016F82D1A67EB01083B
:100900004F4622460120002100F00DF817EB0009A8
:100910004E41201EA4F10104DFDC484631462A4640
:100920004346BDE8F09F202A04DB203A00FA02F19A
:10093000002070479140C2F1200320FA03F31943CD
:1009400090407047202A06DBCB17203A41FA02F08C
:1009500043EAE07306E041FA02F3D040C2F120021C
:1009600091400843194670470029A8BF7047401CB2
:10097000490008BF20F00100704710B4B0FA80FCB5
:1009800000FA0CF050EA010404BF10BC704749B1F2
:10099000CCF1200421FA04F411FA0CF118BF012162
:1009A00021430843A3EB0C01CB1D4FEA00614FEA42
:1009B000102042BF002010BC704700EBC350104411
:1009C0000029A4BF10BC7047401C490008BF20F09C
:1009D000010010BC704710B5141E73F1000408DA52
:1009E000401C41F1000192185B411A4301D120F0F3
:1009F000010010BD2DE9F04D92469B4611B1B1FAB0
:100A000081F202E0B0FA80F220329046FFF78BFFCD
:100A100004460F4640EA0A0041EA0B0153465A4693
:100A2000084313D0114653EA010019D0C8F140021F
:100A30005046FFF718FC05460E46504659464246BA
:100A4000FFF771FF084305D0012004E02046394636
:100A5000BDE8F08D0020054346EAE0762C4337439D
:100A60000A986305E40AA0EB08000022FD0A44EAA4
:100A700047540A3002D500200146E9E70105101964
:100A80006941DDE9084500196941BDE8F04DA2E77B
:100A900070B521F0004303430CD0C1F30A55002484
:100AA000D5EB040564EB0403D617AD1AB34102DBA2
:100AB0000020014670BD201841EB025170BDC1F30A
:100AC0000A52C1F3130140F2FF3341F480119A42FC
:100AD00002DA00200146704740F233439A42A2F204
:100AE000334202DC5242FFF7BEBBFFF71CBF0000DF
:100AF00030B5041E71F1000404DB4FF000444042A5
:100B000064EB0101141E73F1000405DB1C464FF079
:100B10000043524263EB04038B4208BF824230BD64
:100B200030B5041E71F1000404DB4FF00044404274
:100B300064EB0101141E73F1000405DB1C464FF049
:100B40000043524263EB0403994208BF904230BD18
:100B5000064C074D06E0E06840F0010394E807000A
:100B600098471034AC42F6D3FFF7E6FA4C78000809
:100B70006C7800082DE9F04D00231A461B1A8A41B3
:100B800003DB00200146BDE8F08DC1F30A52C1F33A
:100B9000130141F480154FF0000BD10702D100186A
:100BA0006D41521E0027044640F2FF11384601EB0A
:100BB000620A3E468046024600204FF48011FFF74D
:100BC00052FBC2197141BB1846EB0100B4EB030C98
:100BD00075EB000C04D3E41A65EB000517460E46CE
:100BE000241908F101006D4180463428E3DDF9192C
:100BF00046EB0600091BA84103D24FF0FF32134613
:100C000001E0002213461BEB070046EB0A51BDE84A
:100C1000F04DFFF7E0BEFEE7704772B6FEE710B595
:100C200090F821100022022905D00421816380F868
:100C30002020012010BD01680B6823F00E030B601B
:100C400001680B6823F001030B6090F84030C46B1F
:100C5000012101FA03F3636080F8211080F820205D
:100C6000104610BD2DE9F05F90F8211000240229F4
:100C700003D004218163012485E001680A6822F021
:100C80000E020A6001680A6822F001020A603F4E03
:100C90003E4FB215DFF8F4C0DFF8F090DFF8ECA0BB
:100CA000DFF8E8B0DFF8E4E00168783F13011502EF
:100CB000ACF1640CA9F15009AAF13C0AABF1280B84
:100CC000AEF1140E4FF48018B14227D9B9420ED0BC
:100CD000614512D049451DD0514518D0594518D00D
:100CE000714501D1424615E0294EB14201D10122A0
:100CF00010E0274E1436B14201D110220AE0244EF2
:100D00002836B14206D0224A3C32914201D11A46DD
:100D100000E02A461E49091F0A602BE0B94213D0A1
:100D2000614517D0494522D051451DD059451DD0A8
:100D3000714501D142461AE0B14202D14FF08072B2
:100D400015E0134EB14201D1012210E0104E1436CD
:100D5000B14201D110220AE00D4E2836B14206D030
:100D60000B4A3C32914201D11A4600E02A4607491B
:100D700080394A60012180F82110002180F820107C
:100D8000416B01B188472046BDE8F09F80000240DA
:100D90000804024070B5054600F012F94FEA00045D
:100DA00000F00EF9001BA842FAD370BD2DE9F84FF0
:100DB000DFF8C8910024A9F1040B23460F2709F19D
:100DC000040AABF1040ED1E00125A54006EA0502B4
:100DD000AA4276D1DFF8A8C14E68A6EB0C0866459A
:100DE0002BD00DDC032E34D005DC36B3012E19D008
:100DF000022E2FD11BE0112E16D0122E2AD119E06F
:100E0000B8F5881F19D006DCB8F5803F15D0B8F5C5
:100E1000801F1FD111E0B8F5001F0ED0B8F5041FD8
:100E200018D10AE0CB6815E0CB681B1D12E0CB6837
:100E300008330FE0CB680C330CE08B682BB1012B2F
:100E40004FF0080303D0456104E0042302E005618C
:100E500000E00023FF2A01D8064601E000F1040665
:100E60004FEA840501D9A5F12005D6F8008007FADC
:100E700005FC28EA0C0803FA05F548EA0508C6F857
:100E800000804D68ED0070D53E4DAE6946F001061C
:100E9000AE61AD6924F0030605F0010500953A4DF9
:100EA00006EB050CDCF80850A607360F07FA06F823
:100EB00025EA0805DFF8D480404503D14FF000084B
:100EC00025E052E0DFF8C880404502D14FF001082C
:100ED0001DE0DFF8C080404502D14FF0020816E067
:100EE000DFF8B480404502D14FF003080FE0DFF88F
:100EF000AC80404502D14FF0040808E0DFF8A08044
:100F0000404502D14FF0050801E04FF0060808FA0D
:100F100006F848EA0508CCF808804D68D9F8006062
:100F2000ED024D4601D5164300E096432E604D6814
:100F3000DAF80060AD02554601D5164300E096434D
:100F40002E604D68DBF80060AD035D4601D51643A9
:100F500000E096432E604D68DEF80060ED037546B4
:100F600001D5164300E096432E60641C0A681646BD
:100F7000E2407FF429AFBDE8F88F0000080401408B
:100F80000000111000100240000001400008014064
:100F9000000C014000100140001401400018014005
:100FA000001C0140C26821EA02030A4043EA0241F0
:100FB000016170470AB1016170470904FBE7000055
:100FC00001488068704700001400002070B50400DC
:100FD00025D094F83D00002520B984F83C502046E7
:100FE00000F078FA242084F83D002068016821F0A0
:100FF000010101602068016841F40041016020683E
:10100000016821F40041016000F000FC4D4A616874
:10101000914201D84C4900E04C49884201D201205C
:1010200070BD4B492368B0FBF1F15E6826F03F06C6
:101030000E435E606368934206D94FF4967359433A
:101040004FF47A73B1FBF3F12368491C1E6A26F052
:101050003F06314319626168914210D84900401E31
:10106000B0FBF1F2521CC2F30B02042A01D204209D
:1010700022E0B0FBF1F0401CC0F30B001CE0A268C2
:10108000F2B301EBC10303EB0116431EB3FBF6F30E
:101090005B1C43F480431B0549D092B301EBC102B2
:1010A00002EB0111401EB0FBF1F0401CC0F30B003D
:1010B00040F4804040F400402168CA694CF6FF7358
:1010C0009A431043C861D4E90710014320680268BD
:1010D00022F0C00211430160D4E9030101432068FA
:1010E000826848F2FF339A4311438160D4E90501D5
:1010F00008432168CA6822F0FF021043C86001E07B
:101100000EE016E02068016841F0010101602564ED
:10111000202084F83D00256384F83E50002070BDF7
:1011200001EB4106431EB3FBF6F35B1CB3E7012062
:10113000C2E701EB4101401EB0FBF1F0401CC0F3DF
:101140000B00B7E7A086010080841E0000093D0067
:1011500040420F002DE9FF4F83B00025DDE91079F3
:101160009A4693460446DDF848800095FFF728FF2D
:10117000064694F83D0020287CD119230122854998
:101180002046009601F040FA0028F5D194F83C0082
:1011900001286FD0012084F83C0020680168C9074D
:1011A00003D1016841F0010101602068016821F468
:1011B00000610160222084F83D00402084F83E0058
:1011C00025646762A4F82A90608D20857248E062E9
:1011D000CDE9008653465A462046049901F016F997
:1011E00000287DD1208DDFF8B491202768B1012837
:1011F00014D00228206801681ED041F4806101608B
:101200002068416980690090B6E020684169816981
:101210000091016841F400710160ADE0206801684F
:1012200021F48061016072B6206841698169009192
:10123000016841F400710AE041F40061016072B696
:101240002068416981690091016821F48061016031
:1012500062B691E0032868D801280CD002284346E2
:101260004FF000024946204600960FD001F0CCF91D
:10127000B0BB10E08BE032464146204601F06AFAEE
:1012800070BB20680069616A08706CE001F0BCF90D
:1012900030BB72B634E02068016821F480610160DF
:1012A00072B620680069616A0870606A401C6062FA
:1012B000208D401E2085608D401E6085384846F296
:1012C000A8110068B0FBF1F0C0EBC00000EB80009B
:1012D0000090401E009008D020684069C04300E0A4
:1012E00029E040070CD50098F3E744F8305F6773B6
:1012F000A573206940F02000206162B625731AE0D2
:101300002068016841F40071016020680069616A29
:101310000870606A401C6062218D491E2185618DC4
:10132000491E618562B621681BE03246414620466F
:1013300001F010FA18B1012007B0BDE8F08F206865
:101340000069616A0870606A401C6062218D491EF4
:101350002185618D491E618521684A69D243520702
:101360000AD409690170606A401C6062208D401EC9
:101370002085608D401E6085208D00287FF46AAF37
:1013800084F83D7084F83E5084F83C50D4E7022045
:10139000D2E70000020010000000FFFF040001007F
:1013A000200000202DE9FF4F83B09A46DDE9119718
:1013B00093460446DDF84080FFF702FE054694F8A8
:1013C0003D0020287FD11923012240492046009565
:1013D00001F01AF9002876D194F83C00012872D067
:1013E000012084F83C0020680168C90703D1016826
:1013F00041F0010101602068016821F40061016091
:10140000212084F83D00402084F83E000026266418
:10141000C4F82480A4F82A90608D20852C48E062CE
:10142000CDE9007553465A462046049901F06CF800
:1014300070B930E02A463946204601F0C3F958B168
:10144000206C042804D12068016841F40071016017
:10145000012007B0BDE8F08F606A2168007808615C
:10146000606A401C6062218D491E89B22185628DAF
:10147000521E628522685369DB435B070BD469B156
:1014800000781061606A401C6062208D401E2085DB
:10149000608D401E6085208D0028CBD12A463946BC
:1014A000204601F085F80028CAD154F83D0B0168A8
:1014B00041F400710160202004F81E09E677667788
:1014C0000020C6E7FFE70220C3E70000020010008B
:1014D0000000FFFF10B586B000210091019102913C
:1014E000039100680F4988421AD10F4CA06940F05F
:1014F0000800A061A069694600F008000490C020BF
:10150000009012200190032003900848FFF74EFC42
:10151000E06940F40010E061E06900F4001004901C
:1015200006B010BD0054004000100240000C014005
:1015300002488168027811448160704714000020DD
:10154000074810B5016841F010010160032000F068
:1015500095F80F2000F006F800F03EF8002010BDCE
:101560000020024000B5014687B00022192000F09B
:1015700065F8192000F054F81348816941F40061BE
:101580008161806905A900F400600690684600F05A
:101590001DF900F04BF90D490D4AB0FBF1F10D4872
:1015A000491E0260416040F2E7320021C0E9032198
:1015B000816000F003FB10B1012007B000BD0548B9
:1015C00000F02AFBF9E700000010024040420F0043
:1015D000002C0140500600200F4808B5816941F0F9
:1015E00001018161816901F001010091C16941F04E
:1015F0008051C161C069002200F0805000900F212D
:10160000901E00F01BF80548416821F0E06141F0B0
:101610000071416008BD0000001002400000014060
:10162000002809DB00F01F020121914040098000E1
:1016300000F1E020C0F8001170470000F0B40E4B3C
:101640001B680C46C3F30223C3F10705042D00D920
:101650000425191D072901D2002300E0DB1E012605
:1016600006FA05F1491E214099409E40761E16401B
:101670003143F0BC01F0A8BC0CED00E0064900F0DD
:10168000070208684FF6FF03184040EA0220034AA9
:1016900010430860704700000CED00E00000FA0500
:1016A0002DE9F0470F46050061D0434E306800F049
:1016B0000700B84209D2306820F007003843306094
:1016C000306800F00700B84251D128683B4C8107D0
:1016D00012D5400703D5606840F4E0606060287868
:1016E000000703D5606840F4605060606068A968D6
:1016F00020F0F000084360602878C00728D06868B0
:10170000012810D02168022810D0890700292EDA7C
:10171000616821F0030101436160FFF751FC8046DD
:1017200041F288390DE021688903EFE78901EDE78F
:10173000FFF746FCA0EB0801494502D90320BDE8AC
:10174000F0876068696800F00C00B0EB810FEFD1A2
:10175000306800F00700B8420BD9306820F007006D
:1017600038433060306800F00700B84201D00120F3
:10177000E5E72878400705D56068E96820F4E0606F
:10178000084360602878000706D56068296920F45E
:10179000605040EAC100606000F058F86168084A93
:1017A000C1F30311515CC84006490860064800684F
:1017B000FFF7D8FE0020C2E70020024000100240E0
:1017C000826A000820000020180000200F2202601A
:1017D0000C4A536803F003034360536803F0F003BB
:1017E0008360536803F4E063C36052684FF4E063BE
:1017F00003EAD20202610448006800F007000860B2
:1018000070470000001002400020024004480549D3
:1018100000684968044AC1F30221515CC84070471E
:101820002000002000100240926A00080448054988
:1018300000684968044AC1F3C221515CC84070473E
:101840002000002000100240926A00080E4A5168F1
:101850000E4801F00C03042B11D0082B0FD10C48BB
:10186000C1F38343C903C05C0AD55168084AC1F378
:101870004041921E515C054A5043B0FBF1F0704765
:1018800004494843704700000010024000127A00EB
:10189000726A000800093D002DE9F84F040070D07D
:1018A0002078C04DC00749D06868C0F38100012886
:1018B00007D06868C0F38100022809D16868C003B6
:1018C00006D52868800339D560680028E7D035E060
:1018D0006068B0F5803F0BD010B1B0F5A02F11D0EB
:1018E000286820F480302860286820F4802002E0F6
:1018F000286840F480302860606890B1FFF760FB92
:1019000006460AE0286840F480202860F0E700BF1F
:10191000FFF756FB801B642873D828688003F7D52F
:101920000CE0FFF74DFB064605E000BFFFF748FB64
:10193000801B6428F0D828688003F7D420789A4E5A
:1019400080074FF001094FF0000839D5686810F0A2
:101950000C0F07D06868C0F38100022809D16868BD
:10196000C00306D42868800714D52069012808D14F
:1019700010E02069B0B1C6F80090FFF721FB0746E0
:1019800005E00AE1FFF71CFBC01B0228C4D8286849
:101990008007F7D52868616920F0F80040EAC100A7
:1019A00028600DE0C6F80080FFF70AFB074604E058
:1019B000FFF706FBC01B022823D828688007F7D44E
:1019C000207800072CD57948A169D9B1C0F80090DA
:1019D000FFF7F6FA074604E0FFF7F2FAC01B022809
:1019E0000FD8686A8007F7D571484FF4FA5100683C
:1019F000B0FBF1F0009000BF0098411E0091FAD2B8
:101A00000EE080E0C0F80080FFF7DAFA074604E055
:101A1000FFF7D6FAC01B022875D8686A8007F7D48A
:101A20002078400760D5E8690027C00008D4E8693D
:101A300040F08050E861E869012700F08050009094
:101A40005C480168C90513D40168834641F480717C
:101A50000160FFF7B5FA824606E000BFFFF7B0FA73
:101A6000A0EB0A0064284ED8DBF80000C005F5D5CD
:101A7000E06801280AD008B1052813D0286A20F0B0
:101A800001002862286A20F0040002E0286A40F081
:101A900001002862E06841F2883B98B1FFF790FAB4
:101AA00082460BE0286A40F004002862EEE700BF9F
:101AB000FFF786FAA0EB0A0159455AD8286A800731
:101AC000F6D50CE0FFF77CFA824605E0FFF778FADE
:101AD000A0EB0A0159454CD8286A8007F6D41FB1FB
:101AE000E86920F08050E861E06988B36968C1F373
:101AF0008101022944D00228C6F8608004D0FFF793
:101B00005FFA044638E034E0FFF75AFA074604E08B
:101B1000FFF756FAC01B02282BD828688001F7D49B
:101B2000206AB0F5803F05D16868A16820F40030D4
:101B300008436860D4E908010843696821F4741116
:101B400008436860C6F86090FFF73AFA044606E07A
:101B500025E000BFFFF734FA001B022809D82868E7
:101B60008001F7D51BE000BFFFF72AFA001B02280F
:101B700002D90320BDE8F88F28688001F4D40EE074
:101B80000128F7D06868226A00F48031914204D1BC
:101B9000616A00F47010884201D00120EAE7002059
:101BA000E8E7000000100240000042428004424288
:101BB00020000020007000407047704710B50400FE
:101BC00003D094F83D0010B107E0012010BD0020C3
:101BD00084F83C00204600F01EF8022084F83D0006
:101BE000211D206801F014F8012084F8460084F8D3
:101BF0003E0084F83F0084F8400084F8410084F8F7
:101C0000420084F8430084F8440084F8450084F8D6
:101C10003D00002010BD704790F83D10012901D013
:101C200001207047022180F83D100168CA6842F027
:101C30000102CA6000680E4988420ED00D498842F0
:101C40000BD0B0F1804F08D00B49884205D00B492A
:101C5000884202D00A49884204D1816801F0070114
:101C6000062903D0016841F001010160002070479E
:101C7000002C0140003401400004004000080040F6
:101C8000000C0040704770B50446006801694FF0D1
:101C90000005C943890715D4C168C943890711D410
:101CA000E91E0161012020772068806980072046B5
:101CB00002D0FFF7E7FF04E000F098F8204600F0BC
:101CC00096F8257720680169C943490717D4C16888
:101CD000C943490713D46FF0040101610220207742
:101CE0002068806910F4407F204602D0FFF7CAFFC9
:101CF00004E000F07BF8204600F079F825772068B2
:101D00000169C943090716D4C168C943090712D438
:101D10006FF008010161042020772068C069800706
:101D2000204602D0FFF7AEFF04E000F05FF8204647
:101D300000F05DF8257720680169C943C90617D40A
:101D4000C168C943C90613D46FF0100101610820AE
:101D500020772068C06910F4407F204602D0FFF74A
:101D600091FF04E000F042F8204600F040F82577AB
:101D700020680169C943C90708D1C168C943C907B7
:101D800004D1891E0161204600F032F82068016903
:101D9000C943090609D4C168C943090605D46FF0CF
:101DA000800101612046FFF707FF20680169C943F0
:101DB000490609D4C168C943490605D46FF04001FA
:101DC0000161204600F01EF820680169C9438906B8
:101DD0000BD4C168C943890607D46FF020010161A3
:101DE0002046BDE87040FFF7E8BE70BD7047704701
:101DF00000680349884201D1FFF79ABB7047000091
:101E0000002C01407047704770470000F8B501682A
:101E100004460868CA684B6910F00F0F4FF00005C0
:101E200059D003F0010602F49077374365D0C1071B
:101E300005D0D10503D5616C41F001016164410712
:101E400005D5D90703D0616C41F0020161648107B7
:101E500005D5D90703D0616C41F004016164010725
:101E600007D502F02001314303D0616C41F0080135
:101E70006164616C00293AD0800604D5900602D5D1
:101E8000204600F03AFF20684069616CC0F3801082
:101E9000090700D460B3204600F008FF20684069BD
:101EA000400621D52068143050E8001F21F0400181
:101EB00040E80012002AF5D1E06BA8B16D494163FA
:101EC000E06BFEF7CFFE002811D0E06B416B01B054
:101ED000BDE8F040084783060FD593060DD5204690
:101EE000BDE8F84000F009BF2046FFF78DFFF8BDC0
:101EF0002046FFF789FF6564F8BD266B2023012E7D
:101F00007CD1C6067AD5D60678D508684868009090
:101F100048694FF00206400640D5E16B086840680A
:101F20000004000CE8D0A28D8242E5D9E0858869E2
:101F300020282DD020680C3050E8001F21F480713B
:101F400040E80012002AF5D12068143050E8001F44
:101F500021F0010140E80012002AF5D12068143078
:101F600050E8001F21F0400140E80012002AF5D19E
:101F700084F84230256320680C3050E8001F21F0BF
:101F8000100140E80012002AF5D1E06BFEF747FE91
:101F90006663A08DE18D401A81B22AE0A08DE18DAB
:101FA000401A81B2E08D0028A6D00029A4D0226872
:101FB0000C3252E8000F20F4907042E80007002F26
:101FC000F5D12068143050E8002F22F0010240E8DB
:101FD0000027002FF5D184F84230256320680C30AB
:101FE00050E8002F22F0100240E80023002BF5D12A
:101FF00066632046FFF707FFF8BDFFE705062BD510
:10200000150629D594F841002128F5D1A068B0F52E
:10201000805F01D12069B0B1206A411C2162216832
:1020200000784860E08C401E0004000CE084E3D19E
:102030002068C16821F08001C1602068C16841F05A
:102040004001C160D8E7206A0088C0F308004860FA
:10205000206A801C2062E5E74006CDD55006CBD52E
:10206000CA68204622F04002CA6084F8413000F07D
:10207000B4F9C1E79D2C000870B5040004D094F8B1
:102080004100002510B106E0012070BD84F84050E9
:10209000204600F023F8242084F841002068C1681D
:1020A00021F40051C160204600F088FE20680169DB
:1020B00021F4904101612068416921F02A014161C8
:1020C0002068C16841F40051C1606564202084F833
:1020D000410084F842006563002070BDF0B585B012
:1020E000002400940194029403940368424F022058
:1020F00042490322424D4602BB4225D18B6943F43B
:1021000080438B618B6903F4804304938B6943F0B4
:1021100004038B618969039201F0040104910102B7
:10212000CDE9001069462846FEF740FECDE900647F
:10213000694628460294FEF739FE00220521252033
:10214000FFF77CFA252028E02E4FBB4229D1CB692E
:1021500043F40033CB61CB6903F4003304938B6900
:1021600043F004038B618969039201F00401049137
:102170000421CDE9001069462846FEF717FE082025
:10218000CDE90004694628460294FEF70FFE0022BE
:1021900005212620FFF752FA2620FFF741FA05B065
:1021A000F0BD194DAB42FAD1CB6943F48023CB612A
:1021B000CB6903F4802304938B6943F008038B619C
:1021C0008969124D01F00801CDE90321CDE90060D4
:1021D00069462846FEF7EAFDE814CDE900046946A1
:1021E00028460294FEF7E2FD002205212720FFF792
:1021F00025FA2720D1E700000038014000100240F6
:10220000000801400044004000480040000C01402C
:1022100090F84230202B01D00220704721B11AB132
:102220000023036300F026BE012070472DE9F04132
:1022300005463349006800268F15324C884232D15A
:1022400031492078A2780A54401CC0B2207008445A
:1022500010F8011C0A2920D110F8020C0D281CD1FD
:1022600026702AA12848FEF732F830B10120A0805C
:10227000024620212748FEF79DFE27A12248FEF7AF
:1022800026F830B10220A080012220212448FEF748
:1022900091FE39461C48FEF70FF81A490122891CA5
:1022A0002048FFF7B5FF20492868884225D11F49FB
:1022B0006078E2780A54401CC0B26070084410F89C
:1022C000011C0A2910D110F8020C0D280CD16670DF
:1022D00017A11648FDF7FBFF17A11448FDF7F7FFFC
:1022E00039461248FDF7E8FFBDE8F04105490D48C1
:1022F0000122C91C4830FFF78BBFBDE8F081000008
:10230000003801400C000020780300206C65643127
:1023100000000000001801406C65643200000000FD
:10232000000C0140780500200044004078040020A3
:102330006F756461666131006F756461666132005A
:102340002DE9F843044690F841001F4616460D4615
:10235000202802D00220BDE8F8837DB176B10020AC
:102360006064212084F84100FEF72AFEA68480469E
:10237000E684A068B0F5805F02D003E00120EAE7C0
:10238000206910B12E4600250EE000260CE08021C9
:10239000204600F08AFDA0B9AEB116F8010B216805
:1023A0004860E08C401EE084E08C43464FF0000221
:1023B00000970028EBD14FF04001204600F075FD5A
:1023C00030B10320C7E735F8020BC0F30800E6E799
:1023D000202084F841000020BDE77047FEE7016837
:1023E0004A69D24352050FD46FF480624A610021DA
:1023F00040F8301F202242738173026942F00402C8
:102400000261017301207047002070472DE9F84FE9
:102410000446006889460B9D01689846174641F4BA
:10242000806101602068016841F48071016000955D
:102430004FF0011B0022594620460A9B00F0E4F8A9
:102440004FF4007A40B120680068C00501D5C4F897
:1024500040A00320BDE8F88F216809F0FE00086164
:102460002B46284920460A9A00F016F9F0BB20684E
:102470004169806900902A4620460A9900F0A2F935
:1024800040B1206C04283AD12068016841F4007101
:10249000016034E0FEB2B8F1010F09D02168380ABA
:1024A00008612A4620460A9900F08CF90028E8D1F4
:1024B000206806612A4620460A9900F083F9002820
:1024C000DFD12068016841F480710160009500222D
:1024D000594620460A9B00F097F80028B3D121689E
:1024E00009F0FF0040F00100086100E007E02B4622
:1024F000044920460A9A00F0CFF80028AAD001200B
:10250000A8E70000020001002DE9F8430446006836
:102510000D46DDE9089701689846164641F480713A
:1025200001604B4600224FF001112046009700F059
:102530006BF848B120680068C00502D54FF4007000
:1025400020640320BDE8F883216805F0FE000861DF
:102550003B464A461549204600F09EF888B9206857
:102560004169806900903A464946204600F02AF9C0
:1025700048B1206C042804D12068016841F400713E
:1025800001600120DEE7F5B2B8F1010F09D0216842
:10259000300A08613A464946204600F013F90028FF
:1025A000E7D1206805610020CCE7000002000100AF
:1025B00070B516460D4604461EE02046FFF70FFF95
:1025C00008B1012070BD681C16D0FEF7F9FC801B15
:1025D000A84200D885B920684069C04340070BD5A0
:1025E000002044F8300F20216173A073216941F06D
:1025F000200121612073E4E720684069C04340075F
:10260000DBD4002070BD00002DE9F0479846174646
:102610000D460446C1F30746DDF820902AE000BFCE
:10262000B8F1FF3F26D0FEF7CBFCA0EB09014145F6
:1026300002D8B8F1000F1DD12068012E16D0806994
:1026400025EA00000004000C12D00020B84211D18D
:10265000002044F8300F20216173A073216941F0FC
:102660002001216120730120BDE8F0874069E7E780
:102670000120EBE72068012E0AD0806925EA0000DE
:102680000004000C06D00020B842C9D00020EBE7BF
:102690004069F3E70120F7E72DE9F0479846164631
:1026A0000D4604464FF000094FF0200AC1F30747DA
:1026B00023E020684069C043400515D420680168C4
:1026C00041F40071016021686FF480604861C4F8D2
:1026D000309084F83DA084F83E90216C41F00401D4
:1026E000216484F83C9021E0701C06D0FEF768FC61
:1026F000A0EB0800B04203D816B1012F1FD021E093
:102700002068012F15D0806925EA00000004000C24
:1027100018D000BF44F8309F84F80DA084F80E90C4
:10272000216941F02001216184F80C900120BDE86D
:10273000F087406925EA00000004000CEAD1206817
:10274000406901E02068806925EA00000004000C6F
:10275000AFD1ECE72DE9F041002590460E46044646
:10276000202728E04069C043C0060CD454F8301B31
:102770006FF01000486144F810596777A577206A18
:102780002062257714E0FEF71BFCA0EB0800B042A6
:1027900000D886B920684069C04340060BD544F88C
:1027A000305F6773A573206940F0200020612573B6
:1027B0000120BDE8F08120684169C9434906D1D4B0
:1027C0000020F6E770B516460D4604461EE020468A
:1027D000FFF705FE08B1012070BD681C16D0FEF79A
:1027E000EFFB801BA84200D885B920684069C04330
:1027F00000060BD5002044F8300F20216173A07330
:10280000216941F0200121612073E4E720684069DB
:10281000C0430006DBD4002070BD00F035F802F0A4
:1028200055FB002003F0C6FE012003F0F1FAF4E7A7
:102830002DE9F0418846044601690068FDF766FD10
:10284000606007466169FDF761FD01463846FDF7A6
:10285000E7FDE060A568064629464046FDF7A8FD6D
:102860003146FDF7ABFD2946FDF750FD0546A0605A
:1028700031464FF07E50FDF79BFD3946FDF79EFD3A
:1028800020602846BDE8F08106484FF07E51016087
:10289000002141608160C1600349016103494161D8
:1028A00070470000981300200AD7233C6F12833A28
:1028B000054C4FF4FA7520212046FEF773FB28469D
:1028C00003F0A6FAF7E70000000C01401FB5DFF89F
:1028D00064A0DFF864B0DFF864906420FEF75AFA71
:1028E000144A1549154802F05DFBF0B94C461448EE
:1028F000D9F80010FFF79CFF80462060DAF800004E
:10290000FDF79BFF06460F46DBF80000FDF795FF3D
:1029100004460D464046FDF790FF8DE8F000024664
:102920000B4608A1012003F04BFA012003F070FAD6
:10293000D3E700008C0000208800002084000020E5
:1029400098130020252E32662C252E32662C252E3B
:10295000326600003EB54000CDE900320A4640F63E
:10296000FF740146029401230148FEF7F3FB3EBDCC
:10297000240300203EB54000CDE900320A4640F66F
:10298000FF740146029401230148FEF70BFD3EBD92
:102990002403002010B596B01C2211496846FDF7AB
:1029A00072FC0021684603F03FFA0E4C0C491C22D1
:1029B00020601C3107A8FDF766FC002107A803F082
:1029C00033FA074960601C2238310EA8FDF75BFC22
:1029D00000210EA803F028FAA06016B010BD000078
:1029E0001C6A0008000000202DE9F04385B0002497
:1029F00023480094019402940394816941F04001BA
:102A00008161816901F040010491816941F0040113
:102A10008161816901F004010491816941F008013B
:102A200081618069DFF85C8000F00800049000227A
:102A300020214046FEF7BEFADFF84C90002220210C
:102A40004846FEF7B7FA1C2001258DE8310069469B
:102A50004046FEF7ABF92026022703970096CDE902
:102A6000015469464046FEF7A1F903970096CDE967
:102A7000015469464846FEF799F905B0BDE8F08370
:102A80000010024000180140000C01400D4810B534
:102A90000B4901600C49416000214FF48042816084
:102AA000C0E9031241618161C1610162FEF78EFAE2
:102AB000002803D0BDE81040FEF7AFB810BD0000FD
:102AC0000054004024030020801A06000C4810B572
:102AD0000A4901604FF4E1314160002181600C221C
:102AE000C160C0E904128161C161FFF7C5FA002825
:102AF00003D0BDE81040FEF790B810BD003801408B
:102B0000780500200C4810B50A4901604FF4E13106
:102B10004160002181600C22C160C0E90412816122
:102B2000C161FFF7A9FA002803D0BDE81040FEF705
:102B300074B810BD00440040C00500200C4810B51A
:102B40000A4901604FF4E1314160002181600C22AB
:102B5000C160C0E904128161C161FFF78DFA0028EC
:102B600003D0BDE81040FEF758B810BD0048004043
:102B700008060020FEE7FEE710B5502080F311881C
:102B8000BFF34F8FBFF36F8F03F082FE18B104497C
:102B90004FF080500860002080F3118810BD0000C5
:102BA00004ED00E030B58FB028216846FDF784FBC6
:102BB00014210AA8FDF780FB01210804CDE90010CB
:102BC0000024029402250491CDE907504FF4E0104F
:102BD00009906846FEF760FE08B172B6FEE70F2066
:102BE000CDE90A054FF48060CDE90C4002210AA826
:102BF0000E94FEF755FD002801D072B6FEE70FB027
:102C000030BD70470148FFF73EB800005006002075
:102C1000F0B502681C4B1D4D1D4E1E4F1E4C4FF053
:102C2000804C984209D0A04207D0604505D0A84208
:102C300003D0B04201D0B84204D122F0700E4A68ED
:102C400042EA0E02984209D0A04207D0604505D062
:102C5000A84203D0B04201D0B84203D122F440755B
:102C6000CA682A434D6922F080022A4302608A68BA
:102C7000C2620A688262984201D0A04201D1096909
:102C8000016301214161F0BD002C014000040040BE
:102C900000080040000C00400034014010B5406ABC
:102CA0000021C185C184FFF7AFF810BD01680C3168
:102CB00051E8002F22F4907241E80023002BF5D157
:102CC0000168143151E8002F22F0010241E800238D
:102CD000002BF5D1016B012909D101680C3151E8B4
:102CE000002F22F0100241E80023002BF5D1202113
:102CF00080F8421000210163704708B590F8421037
:102D0000222901D0022008BD82684FF480539A42E4
:102D100001D1016921B1816A9A421BD04AB10AE00E
:102D20000268816A5268C2F308020A80816A891CBB
:102D300008E0026972B10268526802F07F020A700C
:102D4000816A491C8162C18D491E0904090CC18533
:102D500003D01BE002685268F1E70168CA6822F0FC
:102D60002002CA600168CA6822F48072CA600168E1
:102D70004A6922F001024A61202180F842100021B4
:102D80004163026B012A03D0FFF750FA002008BD0F
:102D9000016301680C3151E8002F22F0100241E874
:102DA0000023002BF5D101680A68D20602D50A6813
:102DB00049680091818DFFF726F8E7E770B5044672
:102DC00000680169E26821F4405111430161216901
:102DD000A0680843616908432168CA6841F20C632E
:102DE0009A430243CA6020684169A26921F4407194
:102DF000114341611E492068884202D1FEF716FD49
:102E000001E0FEF703FD00EBC00101EB001260687A
:102E100064218000B2FBF0F3B3FBF1F36FF018060E
:102E20007343B2FBF0F5B2FBF0F605EB83053223FA
:102E300003EB0515B5FBF1F5B6FBF1F605F0F00572
:102E400005EB0615B2FBF0F6B2FBF0F0B0FBF1F0CB
:102E50006FF01802504306EB800003EB0010B0FB4C
:102E6000F1F0216800F00F002844886070BD000078
:102E70000038014081628285C2850021416422219F
:102E800080F84210016921B10168CA6842F4807279
:102E9000CA6001684A6942F001024A610068C1687B
:102EA00041F02001C160002070472DE9F0419846B3
:102EB00017460E460446069D27E0681C25D02DB116
:102EC000FEF77EF8A0EB0800A8421ED920680C305F
:102ED00050E8001F21F4D07140E80012002AF5D11B
:102EE0002068143050E8001F21F0010140E8001272
:102EF000002AF5D1202084F8410084F84200002007
:102F000084F840000320BDE8F0812068006836EABC
:102F1000000004D00020B842CFD00020F3E7012009
:102F2000F9E700000148FEF771BF000078050020B6
:102F30000148FEF76BBF0000C00500200148FEF706
:102F400065BF000008060020FEE700000FB4054B37
:102F500010B503A9044A029800F086F910BC5DF888
:102F600014FB000085490008C80000207CB50C0057
:102F70001D461646014601D0601E00E00020CDE946
:102F80000010064B6A462946304600F06DF9002CC9
:102F900002D0009A002111707CBD00006F3900083A
:102FA000490050EAC12018BF04204A0D18BF40F064
:102FB000010040F2FF72B2EB515F08BF40F0020027
:102FC000012808BF052070470907090E002804DB07
:102FD00000F1E02080F80014704700F00F0000F1CD
:102FE000E02080F8141D70472DE9F0414F1E00EBE2
:102FF000C7010446D1E9000115461E4637F0060216
:103000000DD02A463346FDF7FCFA7F1E04EBC703BA
:10301000D3E90023FDF74EFA37F00602F1D1022F73
:1030200025D0042F13D0062F18BFBDE8F0812A4603
:103030003346FDF7E6FAD4E90A23FDF73BFA2A46C0
:103040003346FDF7DEFAD4E90823FDF733FA2A46C2
:103050003346FDF7D6FAD4E90623FDF72BFA2A46C4
:103060003346FDF7CEFAD4E90423FDF723FA2A46C6
:103070003346FDF7C6FAD4E90223FDF71BFA2A46C8
:103080003346FDF7BEFAD4E90023BDE8F041FDF771
:1030900011BA0122FDF7FCBCFDF70CBA0022134661
:1030A00010461146FDF71FBB024A00201107FDF72D
:1030B000EFBC000001FDFFFF02E008C8121F08C1BD
:1030C000002AFAD170477047002001E001C1121FA9
:1030D000002AFBD1704700000149086070470000DA
:1030E000CC0000202DE9FF5F82B00021DDE9043033
:1030F000020DDDF840B0034318D044F61050A2F2A0
:10310000FF3242431514119801281FD0A5EB0B0084
:10311000401C5FEA000A4FF000064E4FDFF838917E
:10312000B046504615D5CAF1000413E011980124A9
:103130004AA3012801D16FEA0B010298119AC0E954
:103140000031C0E9024206B0BDE8F09FCBF10000BB
:10315000DFE704460021404A491842EB0450CDE91C
:10316000001012E0E00707D032463B464046494691
:10317000FDF747FA8046894632463B4610461946D7
:10318000FDF73FFA06460F466410002CEAD1DDE950
:103190000401DDE90023BAF1000F06DAFDF731FA88
:1031A00042464B46FDF72DFA05E0FDF79CFA4246F4
:1031B0004B46FDF798FA04460E460022284BFDF7D1
:1031C000AFFC03D84FF0FF30014607E00022254B4B
:1031D00020463146FDF76EF9FDF771FC102409E039
:1031E000002C0ADB0A220023FDF76CFB039B303224
:1031F0001A55641E50EA0102F2D1641C039AC4F10C
:1032000011031444119A012A03D0012208430DD15D
:103210000AE0084304D000204FF0110B119072E730
:10322000A3EB0B056D1E0DE05B4504DD4FF00002C6
:1032300005F1010504E003DA4FF00002A5F10105F4
:10324000002AECD002981199C0E90231C0E900458A
:1032500079E70000000014400000F03F300000005B
:103260000000F0430000E03F2DE9FF4F95B09A4683
:10327000884606460025EEE1252877D1002427461A
:10328000F94A0121039400E0044316F8013F203B72
:1032900001FA03F01042F7D130782A2811D06FF0EC
:1032A0002F033078A0F13002092A16D8039A44F08F
:1032B000020402EB820203EB42021044761C0390EC
:1032C000EFE758F8042B0392002A03DA504244F443
:1032D0000054039044F00204761C30782E2816D156
:1032E00016F8010F44F004042A280DD06FF02F02C5
:1032F0003078A0F13003092B09D807EB870302EBE4
:103300004303C718761CF3E758F8047B761C307823
:103310006C280FD006DC4C2817D068280DD06A28FE
:1033200014D104E0742810D07A280FD10DE044F4B1
:1033300000140AE044F4801401E044F4401472786C
:10334000824202D104F58014761C761C30786628FF
:103350000BD013DC582877D009DC002875D045281D
:10336000F6D04628F4D047281AD193E118E0632814
:1033700035D0642879D0652812D18BE1702873D0BC
:1033800008DC6728F1D069286FD06E280DD06F282F
:1033900006D1ACE073282CD0752874D0782853D08F
:1033A0005246179990476D1C54E1C4F3025002280D
:1033B00009D003280DD0D8F8001004280DD00D60D6
:1033C00008F1040846E1D8F80010EA17C1E90052F4
:1033D000F6E7D8F800100D80F2E70D70F0E718F866
:1033E000041B8DF8001000208DF80100EB46012031
:1033F00003E058F804BB4FF0FF3061074FF00001C5
:1034000002D40DE009F101018946B9420FDA814584
:10341000F8DB1BF809100029F4D108E009F10101DB
:1034200089468142FADB1BF809100029F6D103987E
:103430005346A0EB090721463846179A00F080FA58
:10344000284400EB090507E044E008E10DE01BF823
:10345000010B524617999047B9F10109F7D253462B
:1034600021463846179AF2E039E00A21C4F30252A5
:103470004FF0000B0091022A06D058F8040BC11738
:10348000032A09D00AE023E008F1070020F0070230
:10349000F2E80201904605E000B2C117042A01D10A
:1034A00040B2C117002906DA0A460021404261EB0A
:1034B00002012D2202E0220504D52B228DF80420E2
:1034C000012203E0E20701D02022F7E7914657E00E
:1034D0000A2100E010214FF0000B00910BE01021B9
:1034E0004FF0000B44F004040827009103E008208B
:1034F0004FF0000B0090C4F30252022A05D058F896
:10350000040B0021032A08D008E008F1070020F08E
:103510000702F2E80201904603E080B2042A00D1DB
:10352000C0B24FF0000922072AD53278702A07D09E
:10353000DDF800C08CF0100C5CEA0B0C05D00EE03E
:1035400040228DF80420012208E050EA010306D051
:1035500030238DF804308DF8052002229146009B1F
:1035600083F0080353EA0B030AD150EA010201D1A8
:10357000620705D530228DF804204FF001097F1E27
:103580003278582A04D039A20C920CAA02920BE08D
:103590003BA2F9E75B46009AFDF794F90C9B9B5C14
:1035A000029A521E0292137050EA0102F2D102985E
:1035B00004A9081A00F1200B600702D524F4803416
:1035C00000E001275F4502DDA7EB0B0000E00020D3
:1035D00000EB0B01009003984944401A0390E0036C
:1035E00006D453462146179A039800F0A9F90544DA
:1035F000002706E001A85246C05D179990476D1C50
:103600007F1C4F45F6DBE0030CD553462146179A45
:10361000039800F095F9054404E0302052461799CC
:1036200090476D1C0099481E00900029F5DC08E0C9
:103630000298029952460078491C029117999047C6
:103640006D1CBBF10001ABF1010BF1DC5BE100F0A3
:1036500065F90544761C307800287FF40DAE19B06A
:103660002846BDE8F08F00000928010030313233D0
:1036700034353637383961626364656600000000AE
:103680003031323334353637383941424344454698
:1036900000000000600700D4062708F1070020F0B2
:1036A0000700F0E80223804603F0004C5FEA0C00BC
:1036B00001D097A009E0200501D596A005E0E0071C
:1036C00001D095A001E0AFF24C001390307823F0C8
:1036D000004365280CD006DC452809D046281DD0BB
:1036E00047287FD13BE0662818D067287AD136E09A
:1036F0000021112F01DB112000E0781CCDE9000131
:1037000004A90CA8FFF7EEFCDDE90D010C9A4FF0BF
:10371000000B07F10109109200914EE04FF00040BC
:103720000097CDE9011004A90CA8FFF7DBFCDDE947
:103730000D020C9B0F994FF0000B914610930092D5
:1037400011B9791C00EB0109B7EB090003D4C0F1F2
:10375000FF3B07F10109A9EB0700019042E0012FAF
:1037600000DA01270021112F01DD112000E0384689
:10377000CDE9000104A90CA8FFF7B4FCDDE90D01B7
:103780000C9A00914FF0000BB946109221070FD40C
:10379000009A4A4503DA914601E0A9F10109B9F11D
:1037A000010F05DD109AA9F10101515C3029F4D017
:1037B000B84202DA10F1040F03DA0121CDE9011059
:1037C00010E0002803DC8344A9EB000102E0411C67
:1037D000494500DD8946A0EB0B00401C01904FF0ED
:1037E00000400290200705D40198484502DB4FF0C5
:1037F000FF30019000208DF84B0002980DF14B072F
:10380000B0F1004F25D002200C902B200D90029893
:1038100000280CDA404202902D200D9007E00A218A
:103820000298FDF739F83031029007F8011D0C9924
:10383000481E0C900029F2DC02980028EFD1791E76
:103840000D980870307800F0200040F0450007F82F
:10385000020D11A8C01BC01D02901398007800B182
:10386000012000EB0901019801EBE071029801448D
:103870000398401A401E0390E00306D453462146A5
:10388000179A039800F05CF805441398007818B173
:103890005246179990476D1CE00323D553462146A5
:1038A000179A039800F04CF805441BE0BBF1000F99
:1038B00007DB0098584504DD1098179910F80B00A5
:1038C00001E0179930205246904701980BF1010B07
:1038D000401E05F10105019004D12E205246179992
:1038E00090476D1CB9F10001A9F10109DEDC05E08A
:1038F00017F8010B5246179990476D1C0299481E04
:1039000002900029F4DC53462146179A03989EE65C
:103910002D0000002B000000200000002DE9F041E8
:10392000044600251E461746880404D405E039469F
:103930002020B0476D1C641EF9D52846BDE8F081F3
:103940002DE9F041044600251E469046C80301D5E6
:10395000302700E02027880404D505E0414638469A
:10396000B0476D1C641EF9D52846BDE8F0814A6851
:10397000002A06D00A68531C0B6010704868401E6D
:10398000486070472DE9FE4F07460E460025684601
:1039900001F002F800246FF00F0AE8464FF0010929
:1039A00057F8240056F82410401A00D54042FCF77E
:1039B00009FF5146FCF772FD58F8241011F0FF4F33
:1039C0000BD0FCF72DFD4FF07E51FCF7F1FC0A49BE
:1039D00020F00040884205DC07E008490844084917
:1039E000884202D309FA04F00543641C032CD7DB98
:1039F0002846BDE8FE8F0000295C0F3E666666C162
:103A00009A99D9002DE9F04D8D4F21F0004A86B0EA
:103A100005460C46BA452ADBAAEB070028430AD024
:103A20008848824501DC1AD1CDB106B02846BDE8F0
:103A3000F04DFFF72EBB844A844B2846FCF7E1FD8E
:103A400007460E46824A834B28462146FCF7D9FD9D
:103A500006B03A463346BDE8F04DFCF72BBD0120D9
:103A6000FFF73AFB06B0BDE8F04DFFF717BB7A4809
:103A7000824542DABAF1795F0BDA2846FFF790FA0D
:103A8000042808BFFFF710FB284606B02146BDE812
:103A9000F08D2A460B461046FCF7B3FD83460246DE
:103AA0006E480E460B4606217844FFF79DFA5A46AB
:103AB0003346FCF7A6FD804669488A465A46334697
:103AC00004217844FFF790FA5A463346FCF799FDF3
:103AD00000223B46FCF7EEFC02460B4640465146B0
:103AE000FCF701FE2A462346FCF78BFD06B02A466A
:103AF0002346BDE8F04DFCF7DDBC284624F000412C
:103B000000223D463B46FCF779FD4FF0FF32FCF7C3
:103B1000BFFF0646024653480F460B46062178442F
:103B2000FFF762FA32463B46FCF76BFDCDE9000138
:103B30004D4832463B4604217844FFF755FA324659
:103B40003B46FCF75EFD00222B46FCF7B3FC8346A8
:103B500002913046394602F01DFC804643480D462E
:103B6000504517DCDDE900015A46029BFCF7BBFD1E
:103B700042462B46FCF745FD42462B46FCF79AFC95
:103B80000122FCF785FF304A304BFCF734FD304A08
:103B9000304B4CE04FF0000A52460B464046FCF7D3
:103BA00089FCCDE9031052462B4610461946FCF716
:103BB00028FD32463B46FCF721FDDDE90332FCF7E8
:103BC00092FD06460F46DDE900015A46029BFCF7CE
:103BD0008AFD83460091012230463946FCF758FFA2
:103BE000194A1A4BFCF70AFD06460F4601224046C9
:103BF0002946FCF74DFF5A46009BFCF702FD324672
:103C00003B46FCF7F8FC06460F4601225046294683
:103C1000FCF73EFF0E4DDFF858802A464346FCF77E
:103C2000EDFC32463B46FCF7E9FC2A464346FCF7EE
:103C3000E5FC002CD8BF81F0004106B0BDE8F08D56
:103C40000000F03F0000F07F075C143326A6913C93
:103C5000182D4454FB21F93F0000E03F3C3C00009C
:103C6000523C0000C63B0000DC3B00003333EF3F1A
:103C7000FB21E93F2DE9F84F04460D4621F00040B5
:103C800000917349814211DC7249884201DC06D1FE
:103C90002CB120462946BDE8F84FFFF7FAB96E4827
:103CA000002DCCBF6D496E49BDE8F88F6D4981424A
:103CB00011DD6D498142D8BF4FF0FF366DDD2046E2
:103CC0002946FFF76DF9042808BFFFF7EDF92046F4
:103CD0002946BDE8F88F6549654F25F000458142CA
:103CE00033DD6449814219DD002632464FF08043BE
:103CF00020462946FCF7DEFB80468A460122204604
:103D00002946FCF7C5FE00223B46FCF774FC424600
:103D10005346FCF7E8FC04460D463EE0012600222F
:103D2000BA463B4620462946FCF7C4FB80460F4670
:103D30000022534620462946FCF75DFC42463B469E
:103D4000FCF7D1FC04460D4627E04B4981421BDDC0
:103D5000DFF828A102260022534620462946FCF718
:103D600050FC00223B46FCF7A5FB80460F46002294
:103D7000534620462946FCF73EFC42463B46FCF7AC
:103D8000B2FC04460D4608E0032622462B460020DE
:103D90003B49FCF7A8FC04460D4622462B4610463C
:103DA0001946FCF72EFC8B46824602460B46FCF772
:103DB00028FC07460246334888460B4606217844CD
:103DC000FFF712F952465B46FCF71BFC82462E4871
:103DD0008B463A46434605217844FFF705F93A46B3
:103DE0004346FCF70EFC02460B46002E5046594651
:103DF0000CDAFCF75FFB22462B46FCF702FC01B015
:103E000022462B46BDE8F04FFCF7F8BBFCF752FB0F
:103E100022462B46FCF7F5FB1C4A7A4402EBC6030C
:103E2000D3E90023FCF7E7FB22462B46FCF7E3FB34
:103E3000174A7A4402EBC603D3E90023FCF7DEFB02
:103E4000009A002AB8BF81F00041BDE8F88F000059
:103E5000000010440000F07F182D4454FB21F93F6E
:103E6000FB21F9BF0000DC3F0000203E0000F33FD3
:103E70000000F03F0000E63F008003400000F83FF4
:103E80000000F0BFDE3900009C3900003A39000024
:103E9000023900002DE9F04D9446CCF1000423F0E6
:103EA00000464CEA0404594F46EAD4749A468846C0
:103EB00021F00042BC4206D8454240EA050442EAED
:103EC000D474BC4204D9BDE8F04D6246FFF7E4B8B3
:103ED000AAF14055A5F17F6555EA0C040BD00224E8
:103EE00004EAAA744A4DDFF82CE144EAD87452EA95
:103EF000000B04D00CE0BDE8F04DFFF7BBBE002C7A
:103F000014BF012CBDE8F08D022C30D0032C32D030
:103F100056EA0C0B0AD0BE4220D1BA4209D126F093
:103F2000804622F080423346114617E000291ADB12
:103F300025E0DFF8E4B0FB44002C04BFDBE900011E
:103F4000BDE8F08D012C02BFDBE9000181F00041EA
:103F5000BDE8F08D022C0AD0032C0CD0BA4212D14D
:103F6000B8F1000F0BDA2A482C49BDE8F08D28463D
:103F70002B49BDE8F08D28467146BDE8F08D2448F8
:103F80002849BDE8F08D921B12153C2AC4BF204F72
:103F9000244E10DCBAF1000FBEBF12F13C0F002717
:103FA0003E4608DB6246FCF79EFB21F00041FFF72E
:103FB00061FE07460E4694B1012C08BF86F000460C
:103FC0000DD0194A194B022C3846314615D0FCF752
:103FD00012FB2A46BDE8F04D114BFCF70CBB00224A
:103FE000134638463146FCF783FD04BF0220FFF735
:103FF00073F838463146BDE8F08DFCF7FCFA2A46E6
:10400000BDE8F04D064BFCF7F9BA00000000F07F68
:10401000182D4454FB2109C096380000FB21F9BF3C
:10402000FB210940FB21F93F075C143326A6A13C84
:1040300008B560B120208DF8000028208DF801001F
:1040400030208DF8020038208DF8030004E0A32210
:1040500004216846FCF729F96A46042140F69E20AF
:1040600001F084FE01F042FB08BD00003EB50446AD
:1040700002208DF80000CA208DF80100E3208DF8A1
:10408000020009208DF803006A460421682001F02F
:104090006DFEA3208DF80000610609D5C0218DF8C2
:1040A0000110C8218DF80210C2218DF8031005E01F
:1040B0008DF801008DF802008DF8030014F4C07F24
:1040C00009D0C4218DF80410CC218DF80510C6212B
:1040D0008DF8061005E08DF804008DF805008DF8C8
:1040E00006008DF808008DF807008DF809006A4673
:1040F0000A2140F6A72001F039FEA0074FF0D805AD
:1041000003D020208DF8000001E08DF800506A46B1
:10411000012140F6B62001F029FEA00601D50120BC
:1041200000E0002000F08EF814F4C07F1ED0E005FF
:104130000AD5B2208DF800008B208DF80100B62042
:104140008DF802009B2009E0B0208DF8000080204F
:104150008DF80100B4208DF8020090208DF8030046
:104160006A46042140F6A22001F000FEE1074FF468
:104170000B6022D0F8218DF800106A46012101F071
:10418000F5FDFA21072000F049FB072000F014FBA1
:10419000012000F031FB642000F0D4FB4FF4FA70F2
:1041A00000F0E0FBC821254800F0CEFA282000F0FE
:1041B000E3FA0A2000F0F0FA05E08DF800506A46B4
:1041C000012101F0D3FDA00703D5D9208DF800000F
:1041D00001E08DF800506A46012140F23D7001F087
:1041E000C5FD600701D5012000E0002000F048F87F
:1041F000E00601D5012000E00020FFF719FF104D77
:1042000044F00800688101F071FA0020A87360068C
:1042100001D50620A87314F4C07F02D0A87B801DAE
:10422000A87314F0140F02D0A87B1030A873A00755
:1042300002D0A87B001DA87300203EBD09E3CA027E
:10424000881300200EB54FF4976310B106A107C97B
:1042500001E008A207CA8DE807006A46092118464E
:1042600001F084FD0EBD0000B8AAB38DB4980D35E1
:104270005D000000B8AAAAAAB088C3C5C7000000A4
:1042800008B560B1C0208DF80000C2208DF8010093
:10429000C4208DF80200C6208DF8030004E08B22B4
:1042A00004216846FCF701F86A46042140F698208C
:1042B00001F05CFD01F01AFA08BD0000C8234FF4BC
:1042C0008062024940F6F63001F0F2B8EC6A00086C
:1042D0002DE9FF4F89B01746DDE916520024544EF0
:1042E000884681462C80A246B07B694601F08CF955
:1042F0004FF0FF3B18B158460DB0BDE8F08F708904
:1043000010F0140F4CD0BDF800109DF8022049BAEF
:10431000090441EA02239DF803100B433B60BDF8FA
:1043200004109DF8062049BA090441EA02229DF8CA
:1043300007101B140A437A60BDF808109DF80A4064
:1043400049BA090441EA04219DF80B4012142143A3
:10435000B960BDF80C409DF80EC064BA240444EA6C
:104360000C2C9DF80F4009144CEA040CC7F80CC043
:104370004FEA2C475B43494302FB023207FB07111C
:1043800011441024A1F17061B1F1007F04D901F052
:10439000ADF9A5F800A0AEE7298841F48071298025
:1043A0004206694611D50A19A41D13885BBAA8F8FC
:1043B000003053885BBAA8F80230928852BAA8F845
:1043C00004202A8842F008022A8010F4C07F11D00D
:1043D0000A19A41D13885BBAA9F8003053885BBA88
:1043E000A9F80230928852BAA9F804202A8842F02B
:1043F00070022A80800716D00C44E07800F0C005D7
:1044000000F03F016078C00706D0C80801F007013E
:104410003268491C02B190476078000703D5716883
:1044200009B1A80988470C9800F04EFD002063E709
:10443000881300202DE9FF41044603A800F0EEFE9A
:10444000BDF80C00410CC3032F48008900F00302A3
:1044500054F82250420700D56D42C0F3C1028606CF
:1044600054F8222000D55242C0F38116C00554F8FA
:10447000264000D56442A5FB0367E81700FB0370E4
:1044800005FB0100850045EA9670A2FB0367D5177E
:1044900005FB037502FB0152950045EA9672A4FBE9
:1044A0000367E51705FB037304FB01318B0043EA47
:1044B0009671030E8DF80030030C8DF80130030A5D
:1044C0008DF802308DF80300100E8DF80400100CEA
:1044D0008DF80500100A8DF80600080E8DF808000A
:1044E000080C8DF80900080A8DF80A008DF80720DD
:1044F0008DF80B106A460C214FF4257001F036FC44
:1045000004B0BDE8F08100008813002030B50446F7
:1045100013A285B007CA8DE807004FF0FF35C82CFD
:1045200016D8C820B0FBF4F1491E080A8DF80C001B
:104530008DF80D1003AA022140F2162001F016FC9E
:1045400030B96A460C2140F6C12001F00FFC10B1D1
:10455000284605B030BD054884810020F9E70000F9
:10456000FEF2ABC4AAF1DFDFBBAFDFDF88130020B0
:10457000F8B53049098901F0030250F822404A0792
:1045800000D56442C1F3C1028B0650F8222000D549
:104590005242C1F3811350F82330C80500D55B4265
:1045A000254984FB0140850045EA947082FB014265
:1045B000A40F44EA820483FB0121950F45EA81059B
:1045C000010E8DF80010010C8DF80110010A8DF814
:1045D00002108DF803006A4604214FF4747001F054
:1045E000C5FB4FF0FF3688B9200E8DF80000200C77
:1045F0008DF80100200A8DF802008DF803406A460C
:1046000004214FF4757001F0B1FB08B13046F8BDDC
:10461000280E8DF80000280C8DF80100280A8DF86E
:1046200002008DF803506A4604214FF4767001F0C1
:104630009DFBF8BD8813002009E3CA022DE9FF4164
:1046400004463CA004F00303006802903AA000680E
:1046500003903AA006683AA0056802A8C15C8DF8EC
:104660000010C4F3C101425C8DF80120C4F3811233
:10467000805C8DF8020003A8C35C8DF80430415CB7
:104680008DF80510805C8DF806006A46032140F223
:10469000264001F06BFB4FF0FF37E0BB01AA03217E
:1046A00040F22A4001F062FBA8BBCDE9006560073B
:1046B0000BD59DF8000040F001008DF800009DF83A
:1046C000040040F001008DF80400A0060BD59DF811
:1046D000010040F001008DF801009DF8050040F058
:1046E00001008DF80500E0050BD59DF8020040F0B3
:1046F00001008DF802009DF8060040F001008DF8E1
:1047000006006A4603214FF4886001F02FFB10B9C0
:1047100001AA032100E004E040F2314001F026FB51
:1047200018B1384604B0BDE8F08106480481002085
:10473000F8E700004CCD6C000CC92C003656760012
:1047400026466600881300204FF47A7290FBF2F040
:1047500008B54843010E8DF80010010C8DF80110CA
:10476000010A8DF802108DF803006A4604214FF407
:10477000AE7001F0FBFA08BD0521B0FBF1F008B501
:10478000010A8DF800108DF801006A4602214FF4ED
:10479000AD7001F0EBFA08BD0521B0FBF1F008B5F2
:1047A000010A8DF800108DF801006A4602214FF4CD
:1047B000AC7001F0DBFA08BD08B500218DF80010DF
:1047C000C10702D030218DF80010810705D59DF872
:1047D000001041F00C018DF80010400705D59DF840
:1047E000000040F003008DF800006A4601214FF4FC
:1047F000A47001F0BBFA08BD08B560B1042800D967
:104800000420401E8DF800006A46012140F24F103E
:1048100001F0ACFA08BD0120F3E700002DE9FC41EE
:10482000054640074FF0FF367CD0B1F5C86F79D808
:104830000846FBF7D0FF3E49FBF7F2FD074601A80B
:1048400000F0CEFC9DF80400022806D004280DD00C
:1048500008282ED0102865D134E00E213846FBF709
:104860001DFEFBF7D6FF84B2324907E00D21384622
:10487000FBF714FEFBF7CDFF2F4984B23846FBF758
:104880009DFDFBF7C6FF210A8DF8001080B28DF860
:104890000140010A8DF802108DF80300E8076C460C
:1048A00020D0224602214FF4EA7001F05FFAC8BB23
:1048B00011E00C213846FBF7F1FDFBF7AAFF84B2AB
:1048C0001E49DBE70B213846FBF7E8FDFBF7A1FFAC
:1048D00084B21B49D2E7A21C02214FF4927001F06E
:1048E00045FAF8B9A8070DD56A4602214FF4EC70D5
:1048F00001F03CFAB0B9A21C02214FF4947001F00F
:1049000035FA78B9680710D56A4602214FF4EE707F
:1049100001F02CFA30B9A21C02214FF4967001F07C
:1049200025FA10B13046BDE8FC810020FBE700000D
:1049300000004843000040460000C04500004045DC
:104940000000C0440521B0FBF1F008B5010A8DF864
:1049500000108DF801006A4602214FF4EF7001F05B
:1049600005FA08BD0521B0FBF1F008B5010A8DF884
:1049700000108DF801006A4602214FF4ED7001F03D
:10498000F5F908BD38B504468DF8000069460320E6
:10499000ABBE204638BD00002DE9FE430646264842
:1049A00001AB042240680D210078FDF7D3FF10B160
:1049B0000720BDE8FE839DF804101C2000EAD10208
:1049C0009DF80710DFF87490C1F301131A438DF8B6
:1049D00000209DF80520C1F3810300EAD2021A43AA
:1049E0008DF801209DF8062001F0030100EAD200B5
:1049F00008430024124F8DF80200A0466D46285D42
:104A000010B146F824900AE046F824800DE000BF7B
:104A100056F824003946FBF7D1FC46F82400285DFF
:104A2000401E10F0FF002855F2D1641CE4B2032CA4
:104A3000E5D30020BDE70000900000207B14AE3ECF
:104A40001D5A843F2DE9FE4F05460120C14E8DF8C9
:104A500000004FF000088DF8018030680C461746C2
:104A6000817C70686B4602220078FDF783FF4FF06F
:104A7000FF3A00287AD1C820FCF78CF98DF8008025
:104A800030686B460122C17B70680078FDF772FFC9
:104A90000028EFD130686B460122417970680078B8
:104AA000FDF768FF0028E5D130686B460122817C64
:104AB00070680078FDF75EFF0028DBD130686B4638
:104AC0000122C17D70680078FDF754FF0028D1D124
:104AD00030686B460122017970680078FDF74AFF63
:104AE0000028C7D14FF00C098DF8009030686B4654
:104AF0000122017970680078FDF73CFF002835D16C
:104B00000F20FCF747F9B06A6B460122407A8DF816
:104B100000003068817870680078FDF72BFF00286E
:104B200024D1B06A6B460122007A8DF8000030680B
:104B3000417870680078FDF71DFF002873D1B06AD6
:104B4000807A0FB140F0E0008DF8000030686B46CD
:104B50000122817970680078FDF70CFF002862D18E
:104B60002FB1B06AC07A40F0E00001E04AE01820BE
:104B70008DF8000030686B460122C17970680078BA
:104B8000FDF7F8FEF0BB17B1C820FCF703F9402091
:104B90008DF8000030686B4601220179706800785A
:104BA000FDF7E8FE70BB78208DF8000030686B469A
:104BB0000122417970680078FDF7DCFE10BB3220DD
:104BC000FCF7E8F88DF80080306847466B4641797D
:104BD000706801220078FDF7CDFE98B931687068E1
:104BE000B046897A00786B460222FDF7B3FE48B9D9
:104BF000BDF80000AF6040BAB0FBF9F06F60C6B21C
:104C00002F6000E00FE0A76067602760002739E0B1
:104C1000D8F80010D8F804006B46C97A00780C2246
:104C2000FDF798FE10B15046BDE8FE8FBDF80000BC
:104C3000236840BA00B2BDF80210BDF80420184441
:104C4000206049BA606809B20844606052BAA0683E
:104C500012B21044A060BDF806002B6840BA01B241
:104C6000BDF80800BDF80A201944296040BA6968F7
:104C700000B20844686052BAA86812B210447F1C9F
:104C8000FFB2A860B742C3D328688322C1170904C2
:104C900041EA104100040023FBF7B4FA3246002336
:104CA000FBF7B0FA286068688322C117090441EA5B
:104CB000104100040023FBF7A5FA32460023FBF75E
:104CC000A1FA6860A8688322C117090441EA10416B
:104CD00000040023FBF796FA32460023FBF792FA12
:104CE000A86020684FF40065C117090441EA10412B
:104CF00000042A460023FBF785FA32460023FBF71F
:104D000081FA206060682A46C117090441EA10410F
:104D100000040023FBF776FA32460023FBF772FA11
:104D20006060A0682A46C117090441EA10410004E6
:104D30000023FBF767FA32460023FBF763FAA06013
:104D4000002802DDA0F5803001E000F58030A06091
:104D5000002069E7900000202DE9F84F81462E4899
:104D60008846002540686B46032200780D21FDF738
:104D7000F1FD10B10720BDE8F88F9DF80000002478
:104D800000F01F008DF800009DF801006FF00F0B80
:104D900000F01F008DF801009DF802006E4600F043
:104DA0001F008DF802004FF0010A00BF59F82410CF
:104DB00058F82400081A00D54042FBF703FD594675
:104DC000FBF76CFB0746305DC0B1144802E01449A4
:104DD000FBF7F4FA315D491E11F0FF013155F6D1B0
:104DE00001463846FBF71CFB4FF07E51FBF7E0FA1B
:104DF0000C4920F00040884205DC07E00A483844AE
:104E0000B0F1D97F02D90AFA04F00543641C032CDF
:104E1000CCDB2846AFE70000900000200000C8412E
:104E200054E3853F295C0F3E0000E0BE00B502461A
:104E300000F00DF80346D01C00F009F843EAC00367
:104E4000901D00F004F843EA801080B200BD90F994
:104E50000010002902DD4FF00000704702DA4FF029
:104E60000400704790F90110002902DD4FF00100A5
:104E7000704702DA4FF00500704790F902000028F1
:104E800002DD4FF00200704702DA4FF00600704773
:104E90004FF007007047FCF753FBFDF783FEFDF76B
:104EA000A3FDFDF7F3FDFDF711FEFDF72BFEFDF76A
:104EB00045FEFDF76FFD00F0B2FFFEE70146002062
:104EC000842900D0C81C7047704700001FB500201F
:104ED0008DF80C00012140F6FF7203A88DE8070051
:104EE0000B467522D0210C48FCF734F99DF80C20B4
:104EF000682A04D009A1012000F062FF07E00CA19C
:104F0000012000F05DFF02E0C820FBF743FF00F046
:104F100017F90028F8D11FBD240300204572722024
:104F20006D70752069643A307825780D0A000000AC
:104F30006D70753630353020494420526561643AD1
:104F4000204F4B20617420307836380D0A00000065
:104F50002DE9F041124C20F00101002594F82400C5
:104F600010B10020BDE8F081A07A4FF0FF3668B1A3
:104F70000840277C2074884200D0354641B101208A
:104F800001F0DCF900F0B2FB38B127743046E9E7F4
:104F9000207D00B1012001F0D1F92846E2E70000B0
:104FA000900000202DE9F74F8EB00CA902A8CDE9A2
:104FB00000010BAB03AA09A907A8FFF789F918B1EB
:104FC000012011B0BDE8F08FBDF80800C0057DD507
:104FD0000398FBF7F7FB6FF01D042146FBF75EFA21
:104FE00082460498FBF7EEFB2146FBF757FA814611
:104FF0000598FBF7E7FB2146FBF750FA8046069839
:10500000FBF7E0FB2146FBF749FA05460121504634
:10501000FBF744FA06464146FBF7D0F904464FF049
:1050200040414846FBF7CAF907462946FBF7C6F94F
:105030002146FBF76BF9FBF700FCFEF7E3FC4FF0B2
:10504000663B5A463D4BFBF7DCFAFBF709FC0E9931
:10505000086001214046FBF721FA41460090FBF72A
:10506000ADF9044638464946FBF7A8F92146FBF757
:105070009FF94FF07E51FBF749F9FBF7DEFB07463E
:105080000C4630464946FBF799F9064629460098F2
:10509000FBF794F93146FBF739F9FBF7CEFB3A46BB
:1050A0002346FEF7F7FE5A46244BFBF7AAFAFBF716
:1050B000D7FB0F99086029460846FBF77FF907469A
:1050C00041460846FBF77AF9064600E034E04946D7
:1050D0000846FBF773F9044651460846FBF76EF99C
:1050E0002146FBF713F93146FBF762F93946FBF726
:1050F0005FF9FBF7A2FB06460C4629465046FBF734
:105100005DF9054641464846FBF758F92946FBF745
:10511000FDF80121FBF7C2F9FBF78FFB324623466E
:10512000FEF7B8FE5A46054BFBF76BFAFBF798FB08
:1051300010990860002044E7022042E766A64C4030
:1051400010B500F0F1F808B10A2010BD782000F089
:10515000B1FD10F0FF0F01D0012010BD7820FFF746
:10516000F7FE10F0FF0F01D0022010BD642000F008
:1051700061FD10F0FF0F01D0032010BDFFF79EF876
:1051800010F0FF0F01D0042010BD1448FFF74EFEB1
:10519000FFF754FA10F0FF0F01D0052010BD40F2C8
:1051A0007310FEF763FF10F0FF0F01D0062010BD53
:1051B0006420FFF7ABF910F0FF0F01D0072010BDFE
:1051C00001F07CF808B1082010BD012000F058FC67
:1051D00010F0FF00F8D0092010BD0000BC00002036
:1051E0000D494A7A42B1012A08D0022A0FD0032A77
:1051F0000FD04FF0FF307047022200E0042202700F
:10520000C97C11B11106C90D017000207047082238
:10521000F5E71022F3E70000900000200F494A7ADA
:1052200042B1012A09D0022A11D0032A12D04FF02C
:10523000FF3070474FF4804201E041F69C720280DB
:10524000C97C11B1C2F34E010180002070474FF4B8
:105250008052F4E74FF40062F1E700009000002074
:105260000B49097A39B1012907D002290AD003294B
:105270000BD0002103E0FA2101E04FF4FA71018024
:10528000002070474FF47A71F9E74FF4FA61F6E7BE
:10529000900000200A49097A41B1012908D0022969
:1052A0000AD003290AD04FF0FF307047054900E0CB
:1052B00005490160002070470449FAE70449F8E70E
:1052C0009000002000000343000083423333034278
:1052D000333383410C49C97A072913D2DFE801F03F
:1052E0001204060A0C0E1000BC2100E062210180AD
:1052F000002070472A21FAE71421F8E70A21F6E78F
:105300000521F4E70021F2E790000020054991F81B
:10531000242012B14FF0FF307047C989018000206E
:1053200070470000900000202DE9FC414C4C80208B
:105330008DF8000020686B460122817C606800784F
:10534000FDF718FB4FF0FF37002832D16420FBF740
:1053500021FD00258DF8005020686B460122817CDC
:1053600060680078FDF706FB002870D120686B4666
:105370000622817D60680078FDF7ECFA002866D18E
:105380009DF805009DF80310C007400F01F00101D2
:1053900040EA41019DF801004FF0010600F00100D4
:1053A000014309D0012905D0022915D02DA0FDF710
:1053B000CDFD4CE0E67410E020686B460122C17818
:1053C00060680078FDF7C6FA40BB9DF8000010F059
:1053D0000F0020D0042822D0E574FF2004F80A0F23
:1053E0004FF6FF7104F8020C04F8010C6070A18004
:1053F000A0712072A67026766576E572A572E560CA
:1054000025616561A576E576A5834FF4FA6000F025
:1054100073FB18B907E01D48FDF798FD17E01CA0C5
:10542000FDF794FDC6E7022000F088FA78B92A203B
:1054300000F0CAFB58B9322000F0FCFB38B900205C
:10544000FFF786FD18B9002000F0ACFA10B138461D
:10545000BDE8FC81002000F02DFC0020F8E70000F2
:1054600090000020556E737570706F7274656420C3
:10547000736F6674776172652070726F64756374A0
:10548000207265762025642E0A000000FC77000853
:1054900048616C662073656E7369746976697479A6
:1054A000207061727420666F756E642E0A000000B1
:1054B0002DE9FF4FDFF89480064685B098F8250067
:1054C00015460F464FF0FF39B0BBAFB3002420E0C4
:1054D000301B102800DD102080B283463A190146A7
:1054E0009246204600F042FC30BB6A4659462046B0
:1054F00000F0D2F800BB50465A466946FAF7F9FE6A
:1055000020B16FF0010009B0BDE8F08F04EB0B0093
:1055100084B2B442DCD3280A8DF810008DF8115003
:10552000D8F80000444604AB817ED8F8040002227B
:105530000078FDF71FFA08B14846E4E7012084F837
:1055400025000898E0840020DDE70000900000209E
:105550002DE9F84305464FF0FF39282844D807279E
:10556000284C00267DB1012000F0FCFA20208DF8A7
:1055700000004FF00108012D17D0052D18D88DF827
:10558000018005201FE0002000F0ECFA8DF800609B
:105590008DF8017020686B460222817C606800787B
:1055A000FDF7E8F900BB267529E08DF80160E8E712
:1055B000142D04D802208DF801000A2003E00320F6
:1055C0008DF80100142000F0FFFA9DF801006B46F1
:1055D00007EB80108DF8010020680222817C606852
:1055E0000078FDF7C7F910B14846BDE8F8830820F8
:1055F000A072267384F814800020FFF7A9FC002015
:10560000F3E70000900000202DE9F843214C064606
:10561000174694F8240089464FF0FF3890B3A07ADB
:1056200080B320686B460222817A60680078FDF7BB
:1056300091F938BBBDF8000045BAB54202D200204E
:1056400038701FE060684188B5EB510F11D92168AF
:1056500000786B46497C0122FDF77CF990B99DF8F2
:105660000000C00605D500F041F86FF00100BDE86C
:10567000F8832068F2B24B46C17A60680078FDF783
:1056800069F908B14046F2E7B5FBF6F0401E387004
:105690000020ECE790000020F8B516000D464FF012
:1056A000FF371FD0104CA17AE1B1010A8DF800102C
:1056B000C0B28DF80100411960684289914211D849
:1056C000216800786B46097E0222FDF753F948B93C
:1056D0002068EAB23346417D60680078FDF73AF908
:1056E000002800D03846F8BD90000020F8B5564C90
:1056F0004FF0FF36A07A00287DD000258DF80050AD
:1057000020686B460122C17B60680078FDF732F9A2
:10571000002870D120686B460122417960680078CA
:10572000FDF728F9002866D120686B46012201792F
:1057300060680078FDF71EF900285CD194F8240019
:10574000E0B30C208DF8000020686B46012201793F
:1057500060680078FDF70EF9002872D13220FBF75F
:1057600019FBC0208DF80000A07AC00702D0E0200D
:105770008DF8000020686B4601220179606800788E
:10578000FDF7F8F800285CD1607C18B102208DF894
:10579000000001E08DF8005020686B460122C17BBB
:1057A00060680078FDF7E6F828BB8DF800502068A7
:1057B0006B4601224179606800783EE0FFE70420F3
:1057C0008DF8000020686B4601220179606800783E
:1057D000FDF7D0F878B9A07C90B9A07AC0070FD0B7
:1057E0005FF060008DF8000020686B4601220179AF
:1057F0006068007800E024E0FDF7BCF808BB01E039
:105800004020EFE73220FBF7C5FA607C18B1012099
:105810008DF8000001E08DF8005020686B460122F1
:10582000C17B60680078FDF7A5F850B92068064B89
:1058300001224179606810330078FDF79BF8002859
:1058400000D03046F8BD0000900000202DE9F04760
:10585000394C82468AB094F824000F4620B10020CB
:1058600000F00EF9012600E0002607A8FFF7F8FC7B
:1058700006A8FFF7B5FC09A8FFF72CFD08A8FFF75D
:1058800045FD94F80A9094F81080002500223946CE
:105890005046FFF7D7F810B16D1C022DF6DB022D34
:1058A0001AD00025012203A96846FFF7CBF810B1F2
:1058B0006D1C022DF6DB022D0ED003A93846FEF733
:1058C00061F8C7B269465046FFF746FA10F0FF0F7D
:1058D0004FF0000502D002E0002503E001250FB9DA
:1058E00045F00205FF2020726072E0724FF6FF71F2
:1058F000E181A072207401202073BDF81C0000F02B
:10590000FBF89DF8180000F019F8BDF8240000F02D
:105910005BF9BDF8200000F08DF9484600F0CAF9A7
:105920004046FFF715FB16B1012000F0A9F80AB0B8
:105930002846BDE8F08700009000002038B5184CDC
:105940004FF0FF35A17A19B3022806D0042806D0FB
:1059500008280ED010281BD10DE0002000E0082000
:105960008DF80000607A9DF80010B0EBD10F04D0E4
:1059700005E01020F4E71820F2E7002038BD206889
:105980006B460122C17960680078FCF7F3FF08B12B
:10599000284638BD9DF80000C0086072EDE70000A1
:1059A00090000020F8B5354C0546A07CA84201D1F6
:1059B0000020F8BD31484FF0FF366B46D0E90010AB
:1059C0004FF001020979007835B3FCF7C3FF70BBD3
:1059D0009DF800006B4620F020008DF80000206844
:1059E0000122017960680078FCF7C4FFF8B9032050
:1059F000FBF7D0F902208DF8000094F8220078B36C
:105A000082202BE020686B460122017D60680078CF
:105A1000FCF7B0FF58B92EE0FCF79CFF38B9A07A2C
:105A2000C0079DF8000003D040F0200002E00CE029
:105A300020F020008DF8000020686B4601220179DB
:105A400060680078FCF796FF08B13046F8BD032087
:105A5000FBF7A0F994F8220000B180208DF8000037
:105A600094F823000028CDD09DF8000040F03000CD
:105A70008DF80000C6E7A5749AE7000090000020AA
:105A800038B51C4C94F8241081421DD0002500B379
:105A900094F82500D0B1002000F050FC0020FFF762
:105AA00081FFE08C00F0C6F88DF8005060686B460E
:105AB000012200782321FCF75DFF012084F82400F7
:105AC00000F03CFCFFF712FE002038BD4FF0FF3025
:105AD00038BD002000F032FC207C8DF800006068AA
