:020000040800F2
:1000000018050020050100084B3100089D2000085C
:1000100049310008130B0008D53300080000000028
:100020000000000000000000000000004F31000848
:10003000150B0008000000004D3100085131000888
:100040001F0100081F0100081F0100081F01000810
:100050001F0100081F0100081F0100081F01000800
:100060001F0100081F0100081F0100081F010008F0
:100070001F0100081F0100081F0100081F010008E0
:100080001F0100081F0100081F0100081F010008D0
:100090001F0100081F0100081F0100081F010008C0
:1000A0001F0100081F0100081F0100081F010008B0
:1000B0001F0100081F0100081F010008AD200008F3
:1000C000A12000081F0100081F0100081F010008EF
:1000D0001F010008C93300081F0100081F010008A4
:1000E0001F0100081F0100081F010008DFF810D0E1
:1000F00000F0ACFC0048004745530008AFF3008017
:10010000180500200648804706480047FEE7FEE73E
:10011000FEE7FEE7FEE7FEE7FEE7FEE7FEE7FEE7B7
:10012000B3310008ED0000082DE9F0410024061B62
:10013000254671F1000605DA01240027D0EB0700FF
:1001400067EB0101161E73F1000605DA0027D2EBFA
:100150000702012567EB030300F033FB86460E46DA
:1001600017469C46AC4204D00025D0EB050E65EB4B
:10017000010624B10020D2EB000760EB030C7046AF
:1001800031463A466346BDE8F081202A04DB203A36
:1001900021FA02F00021704721FA02F3D040C2F1A7
:1001A00020029140084319467047D2B201E000F89E
:1001B000012B491EFBD270470022F6E710B513460B
:1001C0000A4604461946FFF7F0FF204610BD30B539
:1001D00004460020034600E05B1C934203D2E05C2F
:1001E000CD5C401BF8D030BDF0B480EA0102D40FE2
:1001F0004200B2EB410F02D20246084611464A00C5
:1002000042D0C30DDDB2C1F3C752AD1A202D35DA8D
:10021000C1F3160141F4000204B15242C5F12006B7
:1002200002FA06F12A411044B3EBD05F23D0C4B1E7
:10023000012DA0EBC35009DCF0BC4FF0004202EAF4
:10024000C352DBB200F5000000F016BB400000F125
:10025000807000EBC350A0F1807040EAD17049007B
:1002600009E0490841EAC071A0EBC35000F5000065
:10027000400800EBC350F0BC00F0F5BA6142012227
:1002800002EB4101001BF6E7F0BC704781F0004132
:10029000AAE780F00040A7E780EA010210B502F06B
:1002A0000043400022D04A001FD0010E01EB126132
:1002B000C0F35600C2F3560240F4000042F40002BC
:1002C000A0FB022000047F39140400D0401C50EA37
:1002D000124001D44000491EC2B20C0604EBD010FB
:1002E000401C4008802A02D003E0002010BD20F00E
:1002F0000100002900DA0020184310BD30B480EA64
:10030000010202F0004530F0004221F0004013D01D
:1003100090B1C30DD40DC2F31601C0F31600E41A58
:1003200041F4000140F400027D34914201D3641C89
:1003300000E04900002C02DA30BC002070474FF486
:1003400000000023914201D3891A034340084FEA79
:100350004101F7D151B1914202D14FF0004105E086
:1003600002D24FF0010101E06FF0010103EBC45034
:10037000284430BC00F077BA420005D0C0F3C75221
:100380005242914201DC0020704700EBC15070479F
:100390002DE9FE4F804681EA0300C00F0C46009015
:1003A00021F0004123F00045B8EB0200A94105D23D
:1003B0004046214690461C460B46024623F000402C
:1003C000104347D0270DC7F30A00C3F30A51029028
:1003D000401A019040286BDAC3F3130040F4801BED
:1003E0000098924620B10023D2EB030A63EB0B0B7B
:1003F00001985946C0F14002504600F013FA0646F3
:100400000D4650465946019A00F01BFA10EB0800C1
:100410006141002487EA115284EAE7731A4340D00D
:10042000009A62B3019A012A4FEA075215DC001BB9
:1004300061EB02014FF0004202EA0752CDE90042AF
:10044000001C41F5801132462B4600F052FA03B0F1
:10045000BDE8F08F40462146F9E7001B61EB020141
:10046000001C41F5801300185B412018A2F500170D
:1004700047EB030140EAD570B6196D4111E06D08F4
:100480004FEA360645EAC0754FEA0752001B61EB9A
:100490000201001C41F5801149084FEA30000019A3
:1004A000514132462B4603B0BDE8F04F00F012BA7E
:1004B0000098012240000023D0EB020263EBE073BE
:1004C000009821464FEAE074B8EB000061EB0401AC
:1004D000E9E783F000435BE781F0004158E72DE94D
:1004E000FE4F81EA030404F0004421F0004100942F
:1004F0004FF0000B23F0004350EA01045ED052EAB3
:1005000003045BD0C3F30A54C1F30A552C44A4F28C
:10051000F3340194A0FB0254C1F3130141F48011A0
:10052000C3F3130343F4801301FB024400FB034EA7
:10053000840A970A44EA815447EA8357A4FB076870
:1005400002958D0A05FB07854FEA932C04FB0C549A
:100550002705029D4FEA065847EA1637B5EB08050E
:100560006EEB070C870E920E47EA811742EA831260
:10057000A7FB0201B6EB0B0164EB00042B0D43EA71
:100580000C335E1844EB1C50DA465146E7FB02017F
:10059000C5F313044FEA0B3343EA14534FEA043212
:1005A000019C43EA0603A4F10C040294009CCDE9EB
:1005B00000B400F09EF903B0BDE8F08F00200146C2
:1005C000F9E72DE9F04D81EA030404F0004B21F036
:1005D000004514464FF0000A23F0004150EA05029E
:1005E00020D054EA01021DD0C5F30A570246C5F3D4
:1005F0001303C1F31300C1F30A5640F4801543F40A
:100600008013A7EB0608101BD64608F2FD3873EBE3
:10061000050002D308F1010801E092185B41B8F12E
:10062000000F03DA00200146BDE8F08D00204FF4F2
:100630008011064684460EE0171B73EB050705D3B1
:10064000121B63EB050306434CEA010C49084FEA11
:10065000300092185B4150EA0107EDD152EA0300E5
:1006600012D082EA040083EA0501084305D0101B7A
:10067000AB4106D20122002306E000224FF00043E6
:1006800002E06FF0010253101AEB06004CEB085128
:1006900010EB0A0041EB0B01BDE8F04D00F01AB978
:1006A000C10F80EAE0700844CA079623002100F0D9
:1006B000E3B896230022114600F0DEB80EB5C10F54
:1006C00080EAE0700844CA07002140F233438DE815
:1006D0000E000A460B4600F00CF903B000BD00F016
:1006E000004220F00040C10DC0F3160040F40000AD
:1006F0007F2901DA00207047962903DCC1F19601B9
:10070000C84001E096398840002AF4D04042704742
:1007100020F00040C10DC0F3160040F400007F2916
:1007200001DA00207047962903DCC1F19601C84028
:10073000704796398840704700F0004230F0004022
:100740000AD0C10D01F56071C0F3160042EA0151F3
:10075000C20840071143704700200146704701F06E
:10076000004330B421F0004150EA010206D00A0DE6
:10077000A2F56072C1F31301002A02DC30BC002034
:100780007047440F44EAC104C100E01830BC00EBDC
:10079000C25000F068B830B50B4601460020202258
:1007A000012409E021FA02F59D4205D303FA02F57E
:1007B000491B04FA02F52844151EA2F10102F1DCDE
:1007C00030BD2DE9F05F0546002092469B468846E5
:1007D0000646814640241BE02846414647462246BD
:1007E000FFF7D3FC53465A46C01A914110D3114625
:1007F0001846224600F016F82D1A67EB01084F46FE
:1008000022460120002100F00DF817EB00094E41AF
:10081000201EA4F10104DFDC484631462A46434647
:10082000BDE8F09F202A04DB203A00FA02F1002004
:1008300070479140C2F1200320FA03F3194390401E
:100840007047202A06DBCB17203A41FA02F043EA30
:10085000E07306E041FA02F3D040C2F12002914079
:100860000843194670470029A8BF7047401C49003B
:1008700008BF20F00100704710B4B0FA80FC00FA05
:100880000CF050EA010404BF10BC704749B1CCF130
:10089000200421FA04F411FA0CF118BF01212143BC
:1008A0000843A3EB0C01CB1D4FEA00614FEA102077
:1008B00042BF002010BC704700EBC3501044002919
:1008C000A4BF10BC7047401C490008BF20F00100C5
:1008D00010BC704710B5141E73F1000408DA401CF8
:1008E00041F1000192185B411A4301D120F001004F
:1008F00010BD2DE9F04D92469B4611B1B1FA81F23F
:1009000002E0B0FA80F220329046FFF78BFF0446F7
:100910000F4640EA0A0041EA0B0153465A46084393
:1009200013D0114653EA010019D0C8F140025046D5
:10093000FFF72BFC05460E46504659464246FFF748
:1009400071FF084305D0012004E020463946BDE888
:10095000F08D0020054346EAE0762C4337430A98A1
:100960006305E40AA0EB08000022FD0A44EA4754AC
:100970000A3002D500200146E9E701051019694156
:10098000DDE9084500196941BDE8F04DA2E770B501
:1009900021F0004303430CD0C1F30A550024D5EBEA
:1009A000040564EB0403D617AD1AB34102DB002043
:1009B000014670BD201841EB025170BDC1F30A52CF
:1009C000C1F3130140F2FF3341F480119A4202DA7D
:1009D00000200146704740F233439A42A2F233426C
:1009E00002DC5242FFF7D1BBFFF71CBF30B5041E3B
:1009F00071F1000404DB4FF00044404264EB01015C
:100A0000141E73F1000405DB1C464FF000435242F4
:100A100063EB04038B4208BF824230BD30B5041E35
:100A200071F1000404DB4FF00044404264EB01012B
:100A3000141E73F1000405DB1C464FF000435242C4
:100A400063EB0403994208BF904230BD064C074D4A
:100A500006E0E06840F0010394E80700984710348E
:100A6000AC42F6D3FFF746FBF87300081874000891
:100A70002DE9F04D00231A461B1A8A4103DB0020A2
:100A80000146BDE8F08DC1F30A52C1F3130141F4F0
:100A900080154FF0000BD10702D100186D41521E96
:100AA0000027044640F2FF11384601EB620A3E4639
:100AB0008046024600204FF48011FFF766FBC21902
:100AC0007141BB1846EB0100B4EB030C75EB000C55
:100AD00004D3E41A65EB000517460E46241908F105
:100AE00001006D4180463428E3DDF91946EB06002C
:100AF000091BA84103D24FF0FF32134601E0002248
:100B000013461BEB070046EB0A51BDE8F04DFFF71B
:100B1000E1BEFEE7704772B6FEE710B590F821100F
:100B20000022022905D00421816380F820200120C1
:100B300010BD01680B6823F00E030B6001680B68A1
:100B400023F001030B6090F84030C46B012101FADF
:100B500003F3636080F8211080F82020104610BD58
:100B600010B590F821100024022903D004218163DC
:100B700001243DE001680A6822F00E020A60016863
:100B80000A6822F001020A601A4A0168914201D102
:100B9000012121E0174A1432914201D110211BE0BA
:100BA000144A2832914201D1891515E0114A3C328C
:100BB000914201D189140FE00E4A5032914202D184
:100BC0004FF4803108E00B4A6432914202D14FF475
:100BD000801101E04FF08071064A083A516001210E
:100BE00080F82110002180F82010416B01B1884766
:100BF000204610BD0800024090F821007047000018
:100C000070B5044600F0FEF80546601C02D00448AA
:100C10000078044400F0F6F8401BA042FAD370BDFF
:100C2000580000202DE9F84FDFF8B891002409F1B1
:100C3000040A0AF1040B23460F270BF1040EC9E046
:100C40000125A5402A40AA427DD1674ED1F804C0B3
:100C5000ACEB0608B44532D014DCBCF1030F3AD03B
:100C600009DCBCF1000F2AD0BCF1010F1CD0BCF193
:100C7000020F31D11DE0BCF1110F17D0BCF1120FE2
:100C80002AD119E0B8F5881F19D006DCB8F5803FE5
:100C900015D0B8F5801F1FD111E0B8F5001F0ED098
:100CA000B8F5041F18D10AE0CB6815E0CB681B1D0E
:100CB00012E0CB6808330FE0CB680C330CE08B6894
:100CC0002BB1012B4FF0080303D0456104E004234E
:100CD00002E0056100E00023FF2A01D8064601E09A
:100CE00000F104064FEA840501D9A5F12005D6F8E4
:100CF000008007FA05FC28EA0C0803FA05F548EA23
:100D00000508C6F800804D68ED0062D5374DAE6924
:100D100046F00106AE61AD6924F0030605F0010559
:100D20000095334D06EB050CDCF80850A607360F8E
:100D300007FA06F825EA0805DFF8B880404503D130
:100D40004FF0000817E044E0DFF8AC80404502D1E6
:100D50004FF001080FE0DFF8A480404502D14FF0CA
:100D6000020808E0DFF89880404502D14FF0030800
:100D700001E04FF0040808FA06F848EA0508CCF844
:100D800008804D68D9F80060ED034D4601D5164343
:100D900000E096432E604D68DAF80060AD035546DA
:100DA00001D5164300E096432E604D68DBF80060E5
:100DB000ED025D4601D5164300E096432E604D6876
:100DC000DEF80060AD02754601D5164300E096439B
:100DD0002E60641C0D682A46E5407FF431AFBDE803
:100DE000F88F0000000401400000111000100240C4
:100DF0000000014000080140000C014000100140CB
:100E0000001401400148806870470000580000202D
:100E1000704770472DE9F041016804464A694E6801
:100E200090F83E000025D743FA050BD4F243D205D3
:100E300008D46FF4807201254A6121680A6842F47F
:100E400000420A60B90508D4F143C90505D42268F7
:100E50006FF4007145F002055161790525D4F14325
:100E6000C90522D4638D94F83D10226B202808D147
:100E70003BB9212910D029290ED0282901D1212AB6
:100E80000AD022686FF48061516145F00405102892
:100E900006D0402804D008E0204601F0E1FD04E03F
:100EA0002068016841F400710160380508D4F043FE
:100EB000C00505D421686FF4006045F0080548615D
:100EC000002D07D0206C284320642046BDE8F04167
:100ED00001F050B9BDE8F0812DE9F047026800212A
:100EE0005368C66A90F83E4090F83D50102C12D0DE
:100EF000402C10D0046C002C7DD05469E443A6072C
:100F00007AD4DE43B60577D4036C03B19169BDE8AA
:100F1000F04701F081BD976951694FF42A0CC9432C
:100F20005FEAC1784FF02A4904D066452AD04E4581
:100F300028D010E0DE43B6050DD4C16A614501D169
:100F4000012103E0C16A494501D10821C162BDE820
:100F5000F04701F0F9BB0E0716D4DE43B60513D4F3
:100F6000416CC9B21161416B09B1896A29B9816BC0
:100F7000002907D0896A002904D00068416841F43B
:100F800000614160BDE8F0878E0706D4DE43B605F8
:100F900003D4BDE8F04701F02BBBFE43526876074F
:100FA0004FEA02521DD4002AECDB0A0608D4DA43C9
:100FB000520505D4490705D5BDE8F04701F0BCBA94
:100FC0004907DFD4D9438905DCD4212D05D0402C35
:100FD000D8D1BDE8F04701F0FDBBBDE8F04701F016
:100FE00069BA002ACEDB4A060BD4DA43520508D48C
:100FF000490708D501E00DE00EE0BDE8F04701F03B
:10100000E5B94907BED4D9438905BBD4BDE8F0474B
:1010100001F073B9916970E7E10606D4D9438905F7
:1010200003D4BDE8F04701F05DBD2821212D27D074
:10103000292D25D0650655D4DD436D0552D46407AE
:1010400052D590F83D30448D002C9BD01269446AF3
:101050002270426A521C4262428D521E4285428D6B
:10106000002A8FD12A2B8DD10268536823F4806324
:1010700053602222026380F83D1000F00FFB81E7ED
:10108000250623D4DD436D0520D4640720D590F8D0
:101090003D30448D002CF2D0446A24781461426AB9
:1010A000521C4262428D521E4285428D002AE6D178
:1010B000292BE4D10268536823F480635360212212
:1010C000026380F83D1000F0EAFA5BE76107D6D4CE
:1010D000D9438905D3D4418D0029D0D0416A0978FC
:1010E00011610AE06107CAD4D9438905C7D4418D8B
:1010F0000029C4D01169426A1170416A491C4162D9
:10110000418D491E41853DE77047000070B50400E0
:1011100025D094F83D00002520B984F83C502046A5
:1011200000F07EFA242084F83D002068016821F058
:10113000010101602068016841F4004101602068FC
:10114000016821F40041016000F0D8FB4D4A61685C
:10115000914201D84C4900E04C49884201D201201B
:1011600070BD4B492368B0FBF1F15E6826F03F0685
:101170000E435E606368934206D94FF496735943F9
:101180004FF47A73B1FBF3F12368491C1E6A26F011
:101190003F06314319626168914210D84900401EF0
:1011A000B0FBF1F2521CC2F30B02042A01D204205C
:1011B00022E0B0FBF1F0401CC0F30B001CE0A26881
:1011C000F2B301EBC10303EB0116431EB3FBF6F3CD
:1011D0005B1C43F480431B0549D092B301EBC10271
:1011E00002EB0111401EB0FBF1F0401CC0F30B00FC
:1011F00040F4804040F400402168CA694CF6FF7317
:101200009A431043C861D4E907100143206802687B
:1012100022F0C00211430160D4E9030101432068B8
:10122000826848F2FF339A4311438160D4E9050193
:1012300008432168CA6822F0FF021043C86001E039
:101240000EE016E02068016841F0010101602564AC
:10125000202084F83D00256384F83E50002070BDB6
:1012600001EB4106431EB3FBF6F35B1CB3E7012021
:10127000C2E701EB4101401EB0FBF1F0401CC0F39E
:101280000B00B7E7A086010080841E0000093D0026
:1012900040420F007047704770477047704700002A
:1012A0002DE9FF4F83B00025DDE910799A4693467A
:1012B0000446DDF848800095FFF7A4FD064694F843
:1012C0003D0020287CD11923012285492046009623
:1012D00001F0DCFC0028F5D194F83C0001286FD027
:1012E000012084F83C0020680168C90703D1016827
:1012F00041F0010101602068016821F40061016092
:10130000222084F83D00402084F83E002564676276
:10131000A4F82A90608D20857248E062CDE90086AD
:1013200053465A462046049901F0A4FA00287DD17C
:10133000208DDFF8B491202768B1012814D002284D
:10134000206801681ED041F4806101602068416915
:1013500080690090B6E02068416981690091016868
:1013600041F400710160ADE02068016821F4806102
:10137000016072B62068416981690091016841F499
:1013800000710AE041F40061016072B620684169B1
:1013900081690091016821F48061016062B691E089
:1013A000032868D801280CD0022843464FF00002D9
:1013B0004946204600960FD001F068FCB0BB10E013
:1013C0008BE032464146204601F0DFFC70BB2068CE
:1013D0000069616A08706CE001F058FC30BB72B6BD
:1013E00034E02068016821F48061016072B62068F1
:1013F0000069616A0870606A401C6062208D401E4E
:101400002085608D401E6085384846F2A81100682E
:10141000B0FBF1F0C0EBC00000EB80000090401E7C
:10142000009008D020684069C04300E029E04007F0
:101430000CD50098F3E744F8305F6773A573206913
:1014400040F02000206162B625731AE02068016830
:1014500041F40071016020680069616A0870606A87
:10146000401C6062218D491E2185618D491E618568
:1014700062B621681BE032464146204601F085FCF9
:1014800018B1012007B0BDE8F08F20680069616ADB
:101490000870606A401C6062218D491E2185618D43
:1014A000491E618521684A69D24352070AD40969F5
:1014B0000170606A401C6062208D401E2085608D36
:1014C000401E6085208D00287FF46AAF84F83D704F
:1014D00084F83E5084F83C50D4E70220D2E7000064
:1014E000020010000000FFFF040001006400002063
:1014F0002DE9FF4F83B09A46DDE9119793460446E4
:10150000DDF84080FFF77EFC054694F83D0020287A
:101510007FD11923012240492046009501F0B6FBF6
:10152000002876D194F83C00012872D0012084F87C
:101530003C0020680168C90703D1016841F001013E
:1015400001602068016821F400610160212084F8B5
:101550003D00402084F83E0000262664C4F8248024
:10156000A4F82A90608D20852C48E062CDE90075B2
:1015700053465A462046049901F0FAF970B930E012
:101580002A463946204601F033FC58B1206C042825
:1015900004D12068016841F400710160012007B0A6
:1015A000BDE8F08F606A216800780861606A401CBD
:1015B0006062218D491E89B22185628D521E62852D
:1015C00022685369DB435B070BD469B10078106173
:1015D000606A401C6062208D401E2085608D401E28
:1015E0006085208D0028CBD12A463946204601F05F
:1015F00027FB0028CAD154F83D0B016841F4007163
:101600000160202004F81E09E67766770020C6E70F
:10161000FFE70220C3E70000020010000000FFFF08
:1016200010B586B0002100910191029103910068EC
:10163000174988422AD1174CA06940F00800A061E0
:10164000A069694600F008000490C02000901220B4
:101650000190032003901048FFF7E4FAE06940F49A
:101660000010E061E069002200F4001004901146CF
:101670001F2000F07BF81F2000F06AF800221146BE
:10168000202000F073F8202000F062F806B010BDB2
:101690000054004000100240000C014070477047A9
:1016A0000248816802781144816070475800002028
:1016B000074810B5016841F010010160032000F0F7
:1016C00075F80F2000F006F800F024F8002010BD97
:1016D0000020024070B50D4D04464FF47A71287811
:1016E000B1FBF0F00A490968B1FBF0F000F0ECFA48
:1016F00048B9102C07D200222146501E00F036F8BF
:1017000000206C6070BD012070BD000058000020FA
:10171000640000200C4808B5816941F00101816135
:10172000816901F001010091C16941F08051C161FD
:10173000C06900F0805000900448416821F0E061E9
:1017400041F00071416008BD0010024000000140FE
:10175000002809DB00F01F020121914040098000B0
:1017600000F1E020C0F8001170470000F0B40E4B0B
:101770001B680C46C3F30223C3F10705042D00D9EF
:101780000425191D072901D2002300E0DB1E0126D4
:1017900006FA05F1491E214099409E40761E1640EA
:1017A0003143F0BC01F03CBE0CED00E0064900F016
:1017B000070208684FF6FF03184040EA0220034A78
:1017C00010430860704700000CED00E00000FA05CF
:1017D0002DE9F0470F46050061D0434E306800F018
:1017E0000700B84209D2306820F007003843306063
:1017F000306800F00700B84251D128683B4C81079F
:1018000012D5400703D5606840F4E0606060287836
:10181000000703D5606840F4605060606068A968A4
:1018200020F0F000084360602878C00728D068687E
:10183000012810D02168022810D0890700292EDA4B
:10184000616821F0030101436160FFF7DBFA804624
:1018500041F288390DE021688903EFE78901EDE75E
:10186000FFF7D0FAA0EB0801494502D90320BDE8F3
:10187000F0876068696800F00C00B0EB810FEFD171
:10188000306800F00700B8420BD9306820F007003C
:1018900038433060306800F00700B84201D00120C2
:1018A000E5E72878400705D56068E96820F4E0603E
:1018B000084360602878000706D56068296920F42D
:1018C000605040EAC100606000F038F86168084A82
:1018D000C1F30311515CC84006490860064800681E
:1018E000FFF7F8FE0020C2E700200240001002408F
:1018F000A0720008640000205C0000200448054934
:1019000000684968044AC1F30221515CC84070472D
:101910006400002000100240B0720008044805492D
:1019200000684968044AC1F3C221515CC84070474D
:101930006400002000100240B072000812A185B0BF
:101940000FC98DE80F0014A0144A00680490516874
:10195000134801F00C03042B10D0082B0ED1C1F357
:101960008343C9031DF803000AD5516804AAC1F3D3
:101970004041515C0A4A5043B0FBF1F005B070475A
:1019800008494843FAE7000002030405060708096E
:101990000A0B0C0D0E0F1010010200000010024087
:1019A00000127A0000093D002DE9F84F040070D0C4
:1019B0002078C04DC00749D06868C0F38100012875
:1019C00007D06868C0F38100022809D16868C003A5
:1019D00006D52868800339D560680028E7D035E04F
:1019E0006068B0F5803F0BD010B1B0F5A02F11D0DA
:1019F000286820F480302860286820F4802002E0E5
:101A0000286840F480302860606890B1FFF7FAF9E8
:101A100006460AE0286840F480202860F0E700BF0E
:101A2000FFF7F0F9801B642873D828688003F7D586
:101A30000CE0FFF7E7F9064605E000BFFFF7E2F923
:101A4000801B6428F0D828688003F7D420789A4E49
:101A500080074FF001094FF0000839D5686810F091
:101A60000C0F07D06868C0F38100022809D16868AC
:101A7000C00306D42868800714D52069012808D13E
:101A800010E02069B0B1C6F80090FFF7BBF9074637
:101A900005E00AE1FFF7B6F9C01B0228C4D82868A0
:101AA0008007F7D52868616920F0F80040EAC10096
:101AB00028600DE0C6F80080FFF7A4F9074604E0AF
:101AC000FFF7A0F9C01B022823D828688007F7D4A5
:101AD000207800072CD57948A169D9B1C0F80090C9
:101AE000FFF790F9074604E0FFF78CF9C01B0228C6
:101AF0000FD8686A8007F7D571484FF4FA5100682B
:101B0000B0FBF1F0009000BF0098411E0091FAD2A6
:101B10000EE080E0C0F80080FFF774F9074604E0AB
:101B2000FFF770F9C01B022875D8686A8007F7D4E0
:101B30002078400760D5E8690027C00008D4E8692C
:101B400040F08050E861E869012700F08050009083
:101B50005C480168C90513D40168834641F480716B
:101B60000160FFF74FF9824606E000BFFFF74AF930
:101B7000A0EB0A0064284ED8DBF80000C005F5D5BC
:101B8000E06801280AD008B1052813D0286A20F09F
:101B900001002862286A20F0040002E0286A40F070
:101BA00001002862E06841F2883B98B1FFF72AF90A
:101BB00082460BE0286A40F004002862EEE700BF8E
:101BC000FFF720F9A0EB0A0159455AD8286A800787
:101BD000F6D50CE0FFF716F9824605E0FFF712F99B
:101BE000A0EB0A0159454CD8286A8007F6D41FB1EA
:101BF000E86920F08050E861E06988B36968C1F362
:101C00008101022944D00228C6F8608004D0FFF781
:101C1000F9F8044638E034E0FFF7F4F8074604E04A
:101C2000FFF7F0F8C01B02282BD828688001F7D4F2
:101C3000206AB0F5803F05D16868A16820F40030C3
:101C400008436860D4E908010843696821F4741105
:101C500008436860C6F86090FFF7D4F8044606E0D1
:101C600025E000BFFFF7CEF8001B022809D828683E
:101C70008001F7D51BE000BFFFF7C4F8001B022866
:101C800002D90320BDE8F88F28688001F4D40EE063
:101C90000128F7D06868226A00F48031914204D1AB
:101CA000616A00F47010884201D00120EAE7002048
:101CB000E8E7000000100240000042428004424277
:101CC000640000200070004010B5401EB0F1807F1D
:101CD00001D3012010BD4FF0E02460610F21601797
:101CE00001F09EFB0020A06107202061002010BDB4
:101CF00070477047F8B5026804461068D1685369A8
:101D000010F00F0F4FF0000553D003F0010601F45F
:101D1000907737435FD0C20705D0CA0503D5226C40
:101D200042F001022264420705D5DA0703D0226C93
:101D300042F002022264820705D5DA0703D0226C42
:101D400042F004022264020707D501F02002324368
:101D500003D0226C42F008022264226C002A34D0A4
:101D6000800604D5880602D5204601F043FA206893
:101D70004069216CC0F38010090700D430B32046BD
:101D800001F020FA2068416949061BD5416921F01C
:101D900040014161A06BA8B158494163A06BFEF7B7
:101DA000DFFE002811D0A06B416B01B0BDE8F04010
:101DB000084783060FD58B060DD52046BDE8F840B1
:101DC00001F018BA2046FFF794FFF8BD2046FFF750
:101DD00090FF2564F8BD266B2023012E52D1C60644
:101DE00050D5CE064ED51068506800905069400618
:101DF0002AD5A16B086840680004000CEAD0A68DC3
:101E00008642E7D9E0858869202818D0D06820F478
:101E10008070D0602068416921F001014161206833
:101E2000416921F04001416184F83E30256320681A
:101E3000C16821F01001C160A06BFEF76EFEA08D9D
:101E4000E18D401A81B219E0A08DE18D401A81B276
:101E5000E08D0028BED00029BCD0D06820F490705E
:101E6000D0602068426922F00102426184F83E306D
:101E700025632068C26822F01002C2602046FFF786
:101E800037FFF8BD05062BD50D0629D594F83D0082
:101E90002128F6D1A068B0F5805F01D12069B0B1EA
:101EA000206A411C2162216800784860E08C401E55
:101EB0000004000CE084E4D12068C16821F08001B6
:101EC000C1602068C16841F04001C160F8BD206A6E
:101ED0000088C0F308005060206A801C2062E5E79B
:101EE0004006F3D54806F1D5D168204621F04001DF
:101EF000D16084F83D3000F0D0F8F8BDB53100086D
:101F000070B5040004D094F83D00002510B106E03F
:101F1000012070BD84F83C50204600F023F82420B6
:101F200084F83D002068C16821F40051C16020465A
:101F300001F0BCF92068016921F490410161206839
:101F4000416921F02A0141612068C16841F40051D2
:101F5000C1602564202084F83D0084F83E00002004
:101F600070BD000030B585B0002400940194029447
:101F700003940068184988422CD11848816941F4BB
:101F800080418161816901F480410491816941F05E
:101F9000040181618069124D00F0040004904FF447
:101FA00000700090022001900320039069462846AB
:101FB000FEF738FE2815CDE900046946284602944C
:101FC000FEF730FE002211462520FFF7CFFB25202B
:101FD000FFF7BEFB05B030BD0038014000100240E5
:101FE00000080140704700002DE9F843044690F8CE
:101FF0003D001F4616460D4620284CD1C5B1BEB146
:1020000094F83C00012846D0012084F83C004FF0B1
:102010000008C4F84080212084F83D00FEF7F2FE5D
:10202000A6848146E684A068B0F5805F03D004E012
:102030000120BDE8F883206928B12E465FF0000535
:1020400084F83C800EE00026FAE78021204601F06B
:1020500089F9A0B9AEB116F8010B21684860E08C8F
:10206000401EE084E08C4B464FF0000200970028B1
:10207000EBD14FF04001204601F074F930B103205C
:10208000D7E735F8020BC0F30800E6E7202084F814
:102090003D000020CDE70220CBE77047FEE70000BF
:1020A0000148FEF7B7BE0000700000200148FEF7AF
:1020B00013BF00007000002038B5406A002190F87E
:1020C0003D202B4B46F2A8141B68B3FBF4F3C3EB83
:1020D000C30303EB830300933BB15B1E00930368D0
:1020E0001B689B0505D5009BF6E7036C43F02003B6
:1020F0000364436B03B19962836B03B19962036814
:102100001C6824F480641C604185436B03B15963EF
:10211000836B03B1596303681C6824F001041C60DD
:1021200090F83D402023602C0BD0282434EA020292
:102130000FD080F83D3080F83E1000BFFEF7E4FF7E
:1021400038BD80F83D3080F83E100164FEF760FE37
:1021500038BD0268136843F0010313600268136816
:1021600043F480631360016380F83D40E6E70000BC
:102170006400002070B5044690F83D0094F83E10CD
:10218000102901D0402906D1222804D121680A68EB
:1021900022F400620A60282131EA00024FF00005B3
:1021A0004FF0200626D021684968090505D460282B
:1021B00003D084F83D6084F83E5025632068416870
:1021C000090537D5416821F400614160606B3D49E4
:1021D00090F82120012A11D04163606BFEF7C0FC0A
:1021E00038B32068016821F00101016084F83D6086
:1021F000606B1CE0256384F83D10DFE7A06B416352
:10220000A06BFEF7ADFCA0B120684169C943490647
:1022100005D40069616A0870606A401C60622068C9
:10222000016821F00101016084F83D60A06B416B01
:10223000884710E094F83D10602910D04169C943E7
:10224000490605D40069616A0870606A401C6062D2
:102250002046FEF759FF206CC1071CD115E084F819
:102260003D6025644169C943490605D40069616A36
:102270000870606A401C60622068016821F00101FA
:1022800001602046FEF7C4FDE5E7810703D441075E
:1022900001D4000704D52068416821F4E061416061
:1022A00094F83D00216C49070BD5282809D1064830
:1022B000E062256384F83D6084F83E502046FEF7D6
:1022C000E9FF70BDB92000080000FFFF01684A69FE
:1022D000D24352050FD46FF480624A61002140F866
:1022E000301F202242738173026942F004020261AE
:1022F0000173012070470020704710B5C26A438DFA
:102300000168042B06D0438D032B08D0438D022B8C
:102310001DD012E04A6822F480624A600CE04B68EB
:1023200023F480634B60042A06D0022A04D001689B
:102330000A6822F480620A6001680969426A1170C1
:10234000416A491C4162418D491E418510BD012AE7
:1023500030D0102A2ED0042A30D0022A2ED00A687B
:1023600042F400720A6001680969426A1170416AA8
:10237000491C4162428D521E4285026812690A70F0
:10238000416A491C4162418D491E418501684A6884
:1023900022F440724A60202180F83D1090F83E20DF
:1023A0000021402A80F83E100CD012210163FEF774
:1023B00072FF10BD0A6822F48062D3E70A6842F413
:1023C0008062CFE70163FEF768FF10BD38B590F873
:1023D0003D10222914D1418D032912D901680969C0
:1023E000426A1170416A491C4162418D491E418512
:1023F000418D032904D10068416821F48061416066
:1024000038BDC26A022AFBD0012901D00029F7D1C8
:10241000274946F2A81300220968B1FBF3F101EB4A
:102420008101009101682023009C641E009422D049
:102430000C68A405F8D40C6824F480640C6001686E
:102440004C6824F4E0644C6001680969446A2170B6
:10245000416A491C4162418D491E418580F83D30E9
:1024600090F83E1080F83E2040291DD012210163D3
:10247000FEF711FF38BD046C44F0200404644C687E
:1024800024F4E0644C6001680969446A2170416A7F
:10249000491C4162418D491E418580F83D3080F8DC
:1024A0003E20FEF731FE38BD0263FEF7F6FE38BD72
:1024B0006400002010B5C26A90F83D1021290BD1AC
:1024C000418D51B1416A026809781161416A491C24
:1024D0004162418D491E418510BD20230021082AFB
:1024E00013D0202A11D012F5803F0ED00268546814
:1024F00024F4E06454601122026380F83E1080F8F6
:102500003D3000BFFEF7C8FE10BD0268546824F4D9
:10251000E06454600268146844F400741460016359
:1025200080F83D3090F83E2080F83E10402AE9D1F6
:10253000FEF7B4FE10BD000010B590F83D1090F805
:102540003E30C26A048DB4B1212903D0402B11D191
:1025500022290FD1418DE1B390F83E10402942D09D
:10256000416A026809781161416A491C4162418DE2
:10257000491E418510BD2129E8D120230021082AC8
:1025800013D0202A11D012F5803F0ED00268546873
:1025900024F4E06454601122026380F83E1080F855
:1025A0003D3000BFFEF778FE10BD0268546824F489
:1025B000E06454600268146844F4007414600163B9
:1025C00080F83D3090F83E2080F83E10402AE9D156
:1025D00000E002E0FEF762FE10BD0068416821F4F1
:1025E0008061416010BDBDE8104000F0F3B800000C
:1025F00078B590F83E50C26A046B90F83D600023B5
:102600000168222E73D1066D0EB9402D6FD0056D75
:102610001DB90569B5F5404F1BD0458D95B3468D65
:10262000484D012E20D0448D022C4DD00C6844F42E
:1026300080640C6001684C68240579D5AA4273D087
:10264000012A71D0082A6FD0102A6DD0202A6BD0B1
:102650006EE04A698A6900920A6842F480720A60F0
:10266000016D491C016578BDAA4214D10A6822F4A3
:1026700080620A6001684A68120504D50A6822F47B
:10268000806217E0FFE74A698A6900920A6842F4AB
:1026900000720A6050E0082A10D0202A0ED0122CB6
:1026A0000AD0042A03D0022A01D0102AE6D10A68EF
:1026B00042F480620A603BE0012ADFD00A6822F41B
:1026C00080620A600168DEE7042A11D0022A0FD076
:1026D000102A0DD00C6844F400640C6001684C6949
:1026E0008C6900940C6824F480640C6008E025E098
:1026F0000C6844F480640C6001684C69896900913D
:1027000001684C68240517D5AA4207D0012A05D0D4
:10271000082A03D0102A01D0202A0DD14A6842F499
:1027200080524A6008E0FFE74A6842F480524A60FB
:1027300001684A6989690091036578BD48698869BB
:10274000009078BD0000FFFF90F83E10402910D0A7
:102750000169B1F5804F19D0016DA9B3016D01294F
:1027600010D1416C5FF0F10201F4407142EAD111E5
:1027700006E0016D0029416C05D0C9B241F00101AC
:1027800000680161704701F0FE01F9E790F83D1023
:102790002129416C09D0C9B241F0010102681161DF
:1027A000416B29B1896A49B902E001F0FE01F5E700
:1027B000816B0029E6D0896A0029E3D0006841686E
:1027C00041F4006141607047FFE7416CF02201F481
:1027D0004071CBE710B590F83D10026D22B3026D49
:1027E000012A2FD0026D022A1DD122292FD0428D1D
:1027F0000AB1212933D0428D002A14D1212912D1C6
:1028000001684A6822F4E0624A6001680A6842F49A
:1028100000720A6000210163202280F83D2080F8C8
:102820003E10FEF73BFD10BDC16C0129816C02D04A
:10283000C1F3072108E00268C9B21161016D891C6A
:10284000016510BD816CC9B20268116104E00168C4
:102850000A6842F480720A60016D491CF0E7416A1F
:10286000026809781161416A491C4162418D491E23
:10287000418510BD2DE9F84F0446006889460B9D3F
:1028800001689846174641F480610160206801683C
:1028900041F48071016000954FF0011B0022594600
:1028A00020460A9B00F0F2F94FF4007A40B120680C
:1028B0000068C00501D5C4F840A00320BDE8F88F2A
:1028C000216809F0FE0008612B46284920460A9A33
:1028D00000F010FAF0BB20684169806900902A4638
:1028E00020460A9900F084FA40B1206C04283AD1BD
:1028F0002068016841F40071016034E0FEB2B8F173
:10290000010F09D02168380A08612A4620460A9931
:1029100000F06EFA0028E8D1206806612A462046B9
:102920000A9900F065FA0028DFD12068016841F4B7
:102930008071016000950022594620460A9B00F0F4
:10294000A5F90028B3D1216809F0FF0040F001008B
:10295000086100E007E02B46044920460A9A00F08F
:10296000C9F90028AAD00120A8E700000200010050
:102970002DE9F843044600680D46DDE90897016833
:102980009846164641F4807101604B4600224FF094
:1029900001112046009700F079F948B120680068DD
:1029A000C00502D54FF4007020640320BDE8F88311
:1029B000216805F0FE0008613B464A46154920465D
:1029C00000F098F988B920684169806900903A461A
:1029D0004946204600F00CFA48B1206C042804D186
:1029E0002068016841F4007101600120DEE7F5B262
:1029F000B8F1010F09D02168300A08613A4649460A
:102A0000204600F0F5F90028E7D120680561002094
:102A1000CCE700000200010038B50C4690F83D20DC
:102A200000212825954302680B4605D0516991691C
:102A3000009180F83C3038BD556825F480655560BC
:102A4000E243540700D50121120601D5828900E036
:102A5000028B80F83C3092B2FEF7DBF938BD000003
:102A60002DE9F04190F83D40C26A002320261C4F1A
:102A700001686FF48065082A01D0202A01D1282C32
:102A800004D0212C16D04D61BDE8F081C7624A68A0
:102A900022F4E0624A6001684D6101680A6822F42C
:102AA00080620A60036380F83D6080F83E30FEF784
:102AB000F1FBE9E7C7622122026380F83D6080F8FC
:102AC0003E304A6822F4E0624A6001684D61016864
:102AD0000A6822F480620A60FEF7E1FDD4E7000094
:102AE0000000FFFFF8B590F83D60044600684168BB
:102AF00021F4E0614160206800254169009101688E
:102B000041F0010101602068016821F480610160E9
:102B100020684168090520D5474F222E48D02A2E2B
:102B200046D0616B096849686185618D19B1216C76
:102B300041F004012164416821F400614160606B4F
:102B4000FEF75AF8012808D0606B4763606BFEF708
:102B500007F810B1606B416B8847608D08B320683F
:102B60004169C943490708D40069616A0870606A0D
:102B7000401C6062608D401E608520684169C943C9
:102B8000490608D40069616A0870606A401C606286
:102B9000608D401E6085608D18B1206C40F004008F
:102BA0002064206C00B32046BDE8F840FFF7E2BA8D
:102BB000A16B096849686185618D19B1216C41F08B
:102BC00004012164416821F400614160A06BFEF7BB
:102BD00013F80128C1D0A06B4763A06BFDF7C0FFBD
:102BE0000028BAD0A06BB6E72A2E06D1256328208C
:102BF00084F83D002046FEF751FD94F83D1020205A
:102C000028290DD0216B222901D0222E07D125633E
:102C100084F83D0084F83E502046FEF73FFDF8BDA5
:102C20000649E162256384F83D0084F83E50204661
:102C3000FEF730FBF8BD0000B92000080000FFFFE0
:102C400070B516460D4604460DE02046FFF73EFBE4
:102C500008B1012070BD681C05D0FEF7D3F8801BB9
:102C6000A84207D835B120684069C0434007ECD47A
:102C7000002070BD002044F8300F20216173A07344
:102C8000216941F0200121612073E2E72DE9F0473D
:102C90001E4690460D460446C1F30747DDF82090D6
:102CA00008E0701C06D0FEF7ADF8A0EB0900B042BA
:102CB0000FD876B12068012F18D0806925EA00006E
:102CC0000004000C14D000214145EAD00020BDE8EA
:102CD000F087002044F8300F20216173A073216930
:102CE00041F02001216120730120F0E74069E5E710
:102CF0000121E9E72DE9F0479A4691460E46044640
:102D000000254FF02008C1F3074725E020684069FF
:102D1000C043400514D42068016841F4007101608B
:102D200021686FF480604861256384F83D8084F8F1
:102D30003E50206C40F00400206484F83C501FE0BA
:102D4000B9F1FF3F08D0FEF75DF8A0EB0A01494555
:102D50000CD8B9F1000F09D02068012F13D0806979
:102D600026EA00000004000C0BD0CFE744F8305FE7
:102D700084F80D80A573206940F020002061257340
:102D80000120BDE8F0874069EAE72DE9F041002520
:102D900090460E460446202717E04069C043C0060F
:102DA0000CD454F8301B6FF01000486144F81059EF
:102DB0006777A577206A2062257717E0FEF722F86B
:102DC000A0EB0800B04208D83EB120684169C94371
:102DD0004906E2D40020BDE8F08144F8305F677313
:102DE000A573206940F02000206125730120F2E7DF
:102DF00070B516460D4604460DE02046FFF766FA0C
:102E000008B1012070BD681C05D0FDF7FBFF801BD9
:102E1000A84207D835B120684069C0430006ECD409
:102E2000002070BD002044F8300F20216173A07392
:102E3000216941F0200121612073E2E77CB514464D
:102E40000D4606466A4606213B2000F0A9F80028F8
:102E50000BD1BDF8001049BA3180BDF8021049BA53
:102E60002980BDF8041049BA21807CBD7CB5144688
:102E70000D4606466A460621432000F091F80028D8
:102E80000BD1BDF8001049BA3180BDF8021049BA23
:102E90002980BDF8041049BA21807CBD08B56A4676
:102EA0000221412000F07CF8BDF8000040BA00B2D9
:102EB000FDF704FC0022094BFDF783FB084A094B90
:102EC000FDF766FA0022084BFDF709FBFDF747FC0A
:102ED000BDE808400549FDF711BA00000040754003
:102EE000A4703D0AD7434240000059400000C84248
:102EF00010B51D48FEF70AF980216B2000F09EF8FE
:102F00006420FDF77DFE00216B2000F097F8032080
:102F100000F05FF8002000F057F8322000F076F85B
:102F20000021382000F08AF800216A2000F086F89D
:102F30000021232000F082F88021372000F07EF865
:102F4000752000F013F8682801D0012010BD012180
:102F50006B2000F073F800216C2000F06FF8322035
:102F600000F054F8002010BD700000201FB50021B3
:102F70008DF80C1040F6FF73012203A98DE80E00B6
:102F800013460246D1210548FEF78AF90120FDF7D4
:102F900037FE9DF80C0004B010BD0000700000204A
:102FA0000EB540F6FF730092CDE9011302460123EE
:102FB000D1210448FEF774F90120FDF721FE00201D
:102FC0000EBD000070000020C006010E1C2000F0A5
:102FD00035B8C006010E1B2000F030B8BC2801D364
:102FE000012110E0622801D302210CE02A2801D33C
:102FF000032108E0142801D3042104E00A2801D3A6
:10300000052100E006211A2000F018B810B504468A
:103010004FF47A70844201D9044602E0042C00D2B5
:103020000424B0FBF4F0401EC1B2192000F006F8F1
:103030006008BDE81040FFF7D1BF00001FB540F6A3
:10304000FF738DF80C10012203A98DE80E001346C2
:103050000246D0210448FEF74BFA0120FDF7D0FDCF
:1030600004B0002010BD0000700000200EB540F636
:10307000FF730092CDE9011302460123D0210448D9
:10308000FEF736FA0120FDF7BBFD00200EBD000063
:10309000700000200D4808B5816941F02001816170
:1030A000816901F020010091816941F00401816191
:1030B000816901F004010091816941F00801816199
:1030C000806900F00800009008BD00000010024078
:1030D0000D4810B50B4901600C49416000214FF4C7
:1030E00080428160C0E9031241618161C161016276
:1030F000FEF70CF8002803D0BDE81040FDF70BBD2B
:1031000010BD00000054004070000020A0860100A7
:103110000C4810B50A4901604FF4E13141600021CB
:1031200081600C22C160C0E904128161C161FEF7B7
:10313000E7FE002803D0BDE81040FDF7ECBC10BD51
:1031400000380140C4000020FEE7FEE770477047EA
:10315000FEF7A6BA30B58FB028216846FDF72CF8E7
:1031600014210AA8FDF728F801210804CDE9001070
:103170000024029402250491CDE907504FF4E01099
:1031800009906846FEF710FC08B172B6FEE70F2002
:10319000CDE90A054FF48060CDE90C4002210AA870
:1031A0000E94FEF715FB002801D072B6FEE70FB0B3
:1031B00030BD704710B5406A0021C185C184FEF75B
:1031C00098FD10BD0168CA6822F49072CA60016857
:1031D0004A6922F001024A61016B012904D10168A8
:1031E000CA6822F01002CA60202180F83E10002137
:1031F0000163704708B590F83E10222901D00220E3
:1032000008BD82684FF480539A4201D1016921B10F
:10321000816A9A421BD04AB10AE00268816A526808
:10322000C2F308020A80816A891C08E0026972B14F
:103230000268526802F07F020A70816A491C81624A
:10324000C18D491E0904090CC18503D019E002682B
:103250005268F1E70168CA6822F02002CA6001687A
:10326000CA6822F48072CA6001684A6922F00102C9
:103270004A61202180F83E10016B012903D0FEF73E
:10328000B1FE002008BD002101630168CA6822F078
:103290001002CA6001680A68D20602D50A68496845
:1032A0000091818DFEF724FDEBE7000070B5044628
:1032B00000680169E26821F440511143016121690C
:1032C000A0680843616908432168CA6841F20C6339
:1032D0009A430243CA6020684169A26921F440719F
:1032E000114341611E492068884202D1FEF716FB56
:1032F00001E0FEF703FB00EBC00101EB0012606888
:1033000064218000B2FBF0F3B3FBF1F36FF0180619
:103310007343B2FBF0F5B2FBF0F605EB8305322305
:1033200003EB0515B5FBF1F5B6FBF1F605F0F0057D
:1033300005EB0615B2FBF0F6B2FBF0F0B0FBF1F0D6
:103340006FF01802504306EB800003EB0010B0FB57
:10335000F1F0216800F00F002844886070BD000083
:10336000003801402DE9F041984617460E460446C4
:10337000069D1DE0681C1BD02DB1FDF743FDA0EBA1
:103380000800A84214D92068C16821F4D071C16036
:103390002068416921F001014161202084F83D004D
:1033A00084F83E00002084F83C000320BDE8F08152
:1033B0002068006836EA000004D00020B842D9D066
:1033C0000020F3E70120F9E70148FEF793BC000075
:1033D000C4000020FEE700000FB4054B10B503A9A0
:1033E000044A029800F06CF910BC5DF814FB000070
:1033F000814E000868000020490050EAC12018BF33
:1034000004204A0D18BF40F0010040F2FF72B2EBF9
:10341000515F08BF40F00200012808BF0520704737
:103420000907090E002804DB00F1E02080F80014F1
:10343000704700F00F0000F1E02080F8141D704785
:103440002DE9F0414F1E00EBC7010446D1E9000110
:1034500015461E4637F006020DD02A463346FDF7C4
:103460003EF87F1E04EBC703D3E90023FCF790FF6F
:1034700037F00602F1D1022F25D0042F13D0062FEA
:1034800018BFBDE8F0812A463346FDF728F8D4E995
:103490000A23FCF77DFF2A463346FDF720F8D4E9DE
:1034A0000823FCF775FF2A463346FDF718F8D4E9E0
:1034B0000623FCF76DFF2A463346FDF710F8D4E9E2
:1034C0000423FCF765FF2A463346FDF708F8D4E9E4
:1034D0000223FCF75DFF2A463346FDF700F8D4E9E6
:1034E0000023BDE8F041FCF753BF0122FDF74FBABE
:1034F000FCF74EBF0022134610461146FDF761B897
:10350000024A00201107FDF742BA000001FDFFFF4B
:1035100002E008C8121F08C1002AFAD1704770479C
:10352000002001E001C1121F002AFBD170470000FA
:1035300001490860704700006C0000202DE9FF5F22
:1035400082B00021DDE90430020DDDF840B0034314
:1035500018D044F61050A2F2FF32424315141198CD
:1035600001281FD0A5EB0B00401C5FEA000A4FF0BA
:1035700000064E4FDFF83891B046504615D5CAF1D7
:10358000000413E0119801244AA3012801D16FEA35
:103590000B010298119AC0E90031C0E9024206B05D
:1035A000BDE8F09FCBF10000DFE704460021404A70
:1035B000491842EB0450CDE9001012E0E00707D0B3
:1035C00032463B4640464946FCF789FF80468946DD
:1035D00032463B4610461946FCF781FF06460F4629
:1035E0006410002CEAD1DDE90401DDE90023BAF121
:1035F000000F06DAFCF773FF42464B46FCF76FFFFD
:1036000005E0FCF7DEFF42464B46FCF7DAFF0446D6
:103610000E460022284BFDF701FA03D84FF0FF3089
:10362000014607E00022254B20463146FCF7B0FE5C
:10363000FDF7C4F9102409E0002C0ADB0A2200235C
:10364000FDF7BFF8039B30321A55641E50EA0102A1
:10365000F2D1641C039AC4F111031444119A012A93
:1036600003D0012208430DD10AE0084304D0002012
:103670004FF0110B119072E7A3EB0B056D1E0DE0DF
:103680005B4504DD4FF0000205F1010504E003DABB
:103690004FF00002A5F10105002AECD00298119923
:1036A000C0E90231C0E9004579E70000000014409C
:1036B0000000F03F300000000000F0430000E03F59
:1036C0002DE9FF4F95B09A46884606460025EEE163
:1036D000252877D100242746F94A0121039400E0E8
:1036E000044316F8013F203B01FA03F01042F7D1E2
:1036F00030782A2811D06FF02F033078A0F13002F3
:10370000092A16D8039A44F0020402EB820203EB62
:1037100042021044761C0390EFE758F8042B039202
:10372000002A03DA504244F40054039044F00204A7
:10373000761C30782E2816D116F8010F44F00404B8
:103740002A280DD06FF02F023078A0F13003092B1A
:1037500009D807EB870302EB4303C718761CF3E78E
:1037600058F8047B761C30786C280FD006DC4C2887
:1037700017D068280DD06A2814D104E0742810D01E
:103780007A280FD10DE044F400140AE044F48014C8
:1037900001E044F440147278824202D104F58014AE
:1037A000761C761C307866280BD013DC582877D02E
:1037B00009DC002875D04528F6D04628F4D04728E3
:1037C0001AD193E118E0632835D0642879D06528B0
:1037D00012D18BE1702873D008DC6728F1D06928FA
:1037E0006FD06E280DD06F2806D1ACE073282CD096
:1037F000752874D0782853D05246179990476D1C7D
:1038000054E1C4F30250022809D003280DD0D8F89F
:10381000001004280DD00D6008F1040846E1D8F826
:103820000010EA17C1E90052F6E7D8F800100D8041
:10383000F2E70D70F0E718F8041B8DF80010002077
:103840008DF80100EB46012003E058F804BB4FF06F
:10385000FF3061074FF0000102D40DE009F10101D2
:103860008946B9420FDA8145F8DB1BF809100029B7
:10387000F4D108E009F1010189468142FADB1BF825
:1038800009100029F6D103985346A0EB09072146F9
:103890003846179A00F080FA284400EB090507E043
:1038A00044E008E10DE01BF8010B524617999047E0
:1038B000B9F10109F7D2534621463846179AF2E08A
:1038C00039E00A21C4F302524FF0000B0091022AA2
:1038D00006D058F8040BC117032A09D00AE023E0E8
:1038E00008F1070020F00702F2E80201904605E027
:1038F00000B2C117042A01D140B2C117002906DA6B
:103900000A460021404261EB02012D2202E022051D
:1039100004D52B228DF80420012203E0E20701D018
:103920002022F7E7914657E00A2100E010214FF0EE
:10393000000B00910BE010214FF0000B44F0040449
:103940000827009103E008204FF0000B0090C4F31B
:103950000252022A05D058F8040B0021032A08D08D
:1039600008E008F1070020F00702F2E802019046A3
:1039700003E080B2042A00D1C0B24FF00009220750
:103980002AD53278702A07D0DDF800C08CF0100CF0
:103990005CEA0B0C05D00EE040228DF804200122D9
:1039A00008E050EA010306D030238DF804308DF88A
:1039B000052002229146009B83F0080353EA0B0383
:1039C0000AD150EA010201D1620705D530228DF8F3
:1039D00004204FF001097F1E3278582A04D039A202
:1039E0000C920CAA02920BE03BA2F9E75B46009A0C
:1039F000FCF7E7FE0C9B9B5C029A521E029213702E
:103A000050EA0102F2D1029804A9081A00F1200B31
:103A1000600702D524F4803400E001275F4502DD11
:103A2000A7EB0B0000E0002000EB0B0100900398D7
:103A30004944401A0390E00306D453462146179A9E
:103A4000039800F0A9F90544002706E001A85246B2
:103A5000C05D179990476D1C7F1C4F45F6DBE00356
:103A60000CD553462146179A039800F095F9054462
:103A700004E030205246179990476D1C0099481E6B
:103A800000900029F5DC08E002980299524600787F
:103A9000491C0291179990476D1CBBF10001ABF1D5
:103AA000010BF1DC5BE100F065F90544761C307830
:103AB00000287FF40DAE19B02846BDE8F08F000055
:103AC00009280100303132333435363738396162F4
:103AD00063646566000000003031323334353637B8
:103AE000383941424344454600000000600700D495
:103AF000062708F1070020F00700F0E802238046BF
:103B000003F0004C5FEA0C0001D097A009E020050B
:103B100001D596A005E0E00701D095A001E0AFF245
:103B20004C001390307823F0004365280CD006DC5D
:103B3000452809D046281DD047287FD13BE066287C
:103B400018D067287AD136E00021112F01DB11202F
:103B500000E0781CCDE9000104A90CA8FFF7EEFCF9
:103B6000DDE90D010C9A4FF0000B07F101091092ED
:103B700000914EE04FF000400097CDE9011004A9FC
:103B80000CA8FFF7DBFCDDE90D020C9B0F994FF051
:103B9000000B91461093009211B9791C00EB0109BA
:103BA000B7EB090003D4C0F1FF3B07F10109A9EB12
:103BB0000700019042E0012F00DA01270021112FB8
:103BC00001DD112000E03846CDE9000104A90CA870
:103BD000FFF7B4FCDDE90D010C9A00914FF0000BEA
:103BE000B946109221070FD4009A4A4503DA91464C
:103BF00001E0A9F10109B9F1010F05DD109AA9F160
:103C00000101515C3029F4D0B84202DA10F1040FFE
:103C100003DA0121CDE9011010E0002803DC834420
:103C2000A9EB000102E0411C494500DD8946A0EBFB
:103C30000B00401C01904FF000400290200705D47B
:103C40000198484502DB4FF0FF30019000208DF8CD
:103C50004B0002980DF14B07B0F1004F25D0022028
:103C60000C902B200D90029800280CDA4042029014
:103C70002D200D9007E00A210298FCF78CFD3031D1
:103C8000029007F8011D0C99481E0C900029F2DCE7
:103C900002980028EFD1791E0D980870307800F056
:103CA000200040F0450007F8020D11A8C01BC01D00
:103CB00002901398007800B1012000EB09010198EF
:103CC00001EBE071029801440398401A401E0390F2
:103CD000E00306D453462146179A039800F05CF897
:103CE00005441398007818B15246179990476D1CF7
:103CF000E00323D553462146179A039800F04CF869
:103D000005441BE0BBF1000F07DB0098584504DDBC
:103D10001098179910F80B0001E0179930205246BF
:103D2000904701980BF1010B401E05F10105019030
:103D300004D12E205246179990476D1CB9F100010D
:103D4000A9F10109DEDC05E017F8010B52461799CD
:103D500090476D1C0299481E02900029F4DC5346DE
:103D60002146179A03989EE62D0000002B000000C4
:103D7000200000002DE9F041044600251E461746AC
:103D8000880404D405E039462020B0476D1C641E29
:103D9000F9D52846BDE8F0812DE9F041044600251B
:103DA0001E469046C80301D5302700E0202788042E
:103DB00004D505E041463846B0476D1C641EF9D570
:103DC0002846BDE8F08100002DE9F04788B007469D
:103DD00000240E46254604A801F05EF86FF00F0A95
:103DE0000DF110084FF0010957F8240056F824107F
:103DF000401A00D54042FCF753FC5146FCF7BCFA90
:103E000058F8241011F0FF4F17D0FCF777FA4FF055
:103E10007E51FCF73BFA194A20F00041914225DD22
:103E2000FCF78AFC164B4FF00052CDE90023024606
:103E30000B4614A0FFF7D0FA15E01849184A0144C0
:103E4000914213D3FCF778FC164B4FF0C042CDE9FA
:103E50000223154B4FF08042CDE9002302460B466A
:103E600012A0FFF7B9FA09FA04F00543641C032C09
:103E7000BADB08B02846BDE8F0870000295C0F3E99
:103E800085EBC13F73745F73686966745F766172B6
:103E90003A2566203E2025660A000000666666C157
:103EA0009A99D9006666EE3F3333D33F73745F73DC
:103EB000686966745F637573743A256620282566A1
:103EC0002C256629000000002DE9F04D8D4F21F0D2
:103ED000004A86B005460C46BA452ADBAAEB070025
:103EE00028430AD08848824501DC1AD1CDB106B0FA
:103EF0002846BDE8F04DFFF7F8BA844A844B2846BF
:103F0000FCF7EDFA07460E46824A834B28462146C7
:103F1000FCF7E5FA06B03A463346BDE8F04DFCF74B
:103F200037BA0120FFF704FB06B0BDE8F04DFFF7FC
:103F3000E1BA7A48824542DABAF1795F0BDA28466B
:103F4000FFF75AFA042808BFFFF7DAFA284606B046
:103F50002146BDE8F08D2A460B461046FCF7BFFA15
:103F6000834602466E480E460B4606217844FFF70C
:103F700067FA5A463346FCF7B2FA804669488A46E1
:103F80005A46334604217844FFF75AFA5A463346D4
:103F9000FCF7A5FA00223B46FCF7FAF902460B466D
:103FA00040465146FCF70DFB2A462346FCF797FA9C
:103FB00006B02A462346BDE8F04DFCF7E9B928468D
:103FC00024F0004100223D463B46FCF785FA4FF0C5
:103FD000FF32FCF7DCFC0646024653480F460B4610
:103FE00006217844FFF72CFA32463B46FCF777FA75
:103FF000CDE900014D4832463B4604217844FFF7A5
:104000001FFA32463B46FCF76AFA00222B46FCF7C1
:10401000BFF9834602913046394602F0F7FA8046EE
:1040200043480D46504517DCDDE900015A46029B26
:10403000FCF7C7FA42462B46FCF751FA42462B469C
:10404000FCF7A6F90122FCF7A2FC304A304BFCF742
:1040500040FA304A304B4CE04FF0000A52460B46D3
:104060004046FCF795F9CDE9031052462B46104621
:104070001946FCF734FA32463B46FCF72DFADDE9E7
:104080000332FCF79EFA06460F46DDE900015A4668
:10409000029BFCF796FA834600910122304639468E
:1040A000FCF775FC194A1A4BFCF716FA06460F4640
:1040B000012240462946FCF76AFC5A46009BFCF761
:1040C0000EFA32463B46FCF704FA06460F4601223A
:1040D00050462946FCF75BFC0E4DDFF858802A4617
:1040E0004346FCF7F9F932463B46FCF7F5F92A4618
:1040F0004346FCF7F1F9002CD8BF81F0004106B02F
:10410000BDE8F08D0000F03F0000F07F075C143345
:1041100026A6913C182D4454FB21F93F0000E03FB6
:10412000483300005E330000D2320000E832000065
:104130003333EF3FFB21E93F2DE9F84F04460D46AD
:1041400021F0004000917349814211DC724988429C
:1041500001DC06D12CB120462946BDE8F84FFFF717
:10416000C4B96E48002DCCBF6D496E49BDE8F88FCB
:104170006D49814211DD6D498142D8BF4FF0FF3654
:104180006DDD20462946FFF737F9042808BFFFF701
:10419000B7F920462946BDE8F88F6549654F25F0F7
:1041A0000045814233DD6449814219DD00263246F3
:1041B0004FF0804320462946FCF7EAF880468A46BD
:1041C000012220462946FCF7E2FB00223B46FCF791
:1041D00080F942465346FCF7F4F904460D463EE0AA
:1041E00001260022BA463B4620462946FCF7D0F875
:1041F00080460F460022534620462946FCF769F9BF
:1042000042463B46FCF7DDF904460D4627E04B49A4
:1042100081421BDDDFF828A10226002253462046FA
:104220002946FCF75CF900223B46FCF7B1F88046D2
:104230000F460022534620462946FCF74AF94246DB
:104240003B46FCF7BEF904460D4608E0032622462D
:104250002B4600203B49FCF7B4F904460D462246A4
:104260002B4610461946FCF73AF98B468246024621
:104270000B46FCF734F907460246334888460B469E
:1042800006217844FFF7DCF852465B46FCF727F935
:1042900082462E488B463A46434605217844FFF72E
:1042A000CFF83A464346FCF71AF902460B46002E71
:1042B000504659460CDAFCF76BF822462B46FCF7C1
:1042C0000EF901B022462B46BDE8F04FFCF704B9C9
:1042D000FCF75EF822462B46FCF701F91C4A7A44AB
:1042E00002EBC603D3E90023FCF7F3F822462B4682
:1042F000FCF7EFF8174A7A4402EBC603D3E9002330
:10430000FCF7EAF8009A002AB8BF81F00041BDE846
:10431000F88F0000000010440000F07F182D445476
:10432000FB21F93FFB21F9BF0000DC3F0000203EEC
:104330000000F33F0000F03F0000E63F0080034034
:104340000000F83F0000F0BFEA300000A830000095
:10435000463000000E3000002DE9F04D9446CCF1BF
:10436000000423F000464CEA0404594F46EAD47492
:104370009A46884621F00042BC4206D8454240EAAF
:10438000050442EAD474BC4204D9BDE8F04D62464B
:10439000FFF7AEB8AAF14055A5F17F6555EA0C04C8
:1043A0000BD0022404EAAA744A4DDFF82CE144EA57
:1043B000D87452EA000B04D00CE0BDE8F04DFFF7D2
:1043C000BBBE002C14BF012CBDE8F08D022C30D0F8
:1043D000032C32D056EA0C0B0AD0BE4220D1BA428E
:1043E00009D126F0804622F080423346114617E07C
:1043F00000291ADB25E0DFF8E4B0FB44002C04BF01
:10440000DBE90001BDE8F08D012C02BFDBE9000112
:1044100081F00041BDE8F08D022C0AD0032C0CD0B5
:10442000BA4212D1B8F1000F0BDA2A482C49BDE884
:10443000F08D28462B49BDE8F08D28467146BDE831
:10444000F08D24482849BDE8F08D921B12153C2AB6
:10445000C4BF204F244E10DCBAF1000FBEBF12F1D2
:104460003C0F00273E4608DB6246FCF7AAF821F025
:104470000041FFF761FE07460E4694B1012C08BFCC
:1044800086F000460DD0194A194B022C38463146A9
:1044900015D0FCF71EF82A46BDE8F04D114BFCF78D
:1044A00018B80022134638463146FCF79FFA04BF7D
:1044B0000220FFF73DF838463146BDE8F08DFCF7A5
:1044C00008F82A46BDE8F04D064BFCF705B8000099
:1044D0000000F07F182D4454FB2109C0A22F0000DA
:1044E000FB21F9BFFB210940FB21F93F075C143395
:1044F00026A6A13C08B560B120208DF80000282038
:104500008DF8010030208DF8020038208DF803006E
:1045100004E0A32204216846FBF747FE6A46042113
:1045200040F69E2001F0CAFF01F094FC08BD000097
:104530003EB5044602208DF80000CA208DF8010027
:10454000E3208DF8020009208DF803006A4604215B
:10455000682001F0B3FFA3208DF80000610609D5A3
:10456000C0218DF80110C8218DF80210C2218DF8EC
:10457000031005E08DF801008DF802008DF80300AE
:1045800014F4C07F09D0C4218DF80410CC218DF81B
:104590000510C6218DF8061005E08DF804008DF891
:1045A00005008DF806008DF808008DF807008DF8DD
:1045B00009006A460A2140F6A72001F07FFFA00704
:1045C0004FF0D80503D020208DF8000001E08DF8D1
:1045D00000506A46012140F6B62001F06FFFA006A8
:1045E00001D5012000E0002000F08EF814F4C07F17
:1045F0001ED0E0050AD5B2208DF800008B208DF882
:104600000100B6208DF802009B2009E0B0208DF853
:10461000000080208DF80100B4208DF80200902069
:104620008DF803006A46042140F6A22001F046FFFF
:10463000E1074FF40B6022D0F8218DF800106A4694
:10464000012101F03BFFFA21072000F065FB072064
:1046500000F030FB012000F04DFB642000F0F0FB87
:104660004FF4FA7000F0FCFBC821254800F0EAFA8C
:10467000282000F0FFFA0A2000F00CFB05E08DF87E
:1046800000506A46012101F019FFA00703D5D92087
:104690008DF8000001E08DF800506A46012140F2DB
:1046A0003D7001F00BFF600701D5012000E0002004
:1046B00000F048F8E00601D5012000E00020FFF7F7
:1046C00019FF104D44F00800688101F0C3FB002081
:1046D000A873600601D50620A87314F4C07F02D029
:1046E000A87B801DA87314F0140F02D0A87B103093
:1046F000A873A00702D0A87B001DA87300203EBDB0
:1047000009E3CA02080100200EB54FF4976310B107
:1047100006A107C901E008A207CA8DE807006A469A
:104720000921184601F0CAFE0EBD0000B8AAB38DDB
:10473000B4980D355D000000B8AAAAAAB088C3C518
:10474000C700000008B560B1C0208DF80000C2208D
:104750008DF80100C4208DF80200C6208DF80300FA
:1047600004E08B2204216846FBF71FFD6A46042102
:1047700040F6982001F0A2FE01F06CFB08BD38B5B0
:1047800004004FF0FF3506D06A4604214FF45870FC
:1047900001F038FB08B1284638BDBDF800009DF88F
:1047A000021040BA000440EA01209DF803100843BB
:1047B0002060002038BD0000C8234FF48062024909
:1047C00040F6F63001F036BA586600082DE9FF4F82
:1047D00089B01746DDE916520024544E88468146BA
:1047E0002C80A246B07B694601F0C8FA4FF0FF3B2F
:1047F00018B158460DB0BDE8F08F708910F0140F55
:104800004CD0BDF800109DF8022049BA090441EAD5
:1048100002239DF803100B433B60BDF804109DF884
:10482000062049BA090441EA02229DF807101B1428
:104830000A437A60BDF808109DF80A4049BA090495
:1048400041EA04219DF80B4012142143B960BDF8E0
:104850000C409DF80EC064BA240444EA0C2C9DF868
:104860000F4009144CEA040CC7F80CC04FEA2C475F
:104870005B43494302FB023207FB0711114410243A
:10488000A1F17061B1F1007F04D901F0E3FAA5F85C
:1048900000A0AEE7298841F480712980420669466C
:1048A00011D50A19A41D13885BBAA8F800305388E3
:1048B0005BBAA8F80230928852BAA8F804202A8875
:1048C00042F008022A8010F4C07F11D00A19A41DFA
:1048D00013885BBAA9F8003053885BBAA9F8023094
:1048E000928852BAA9F804202A8842F070022A80DD
:1048F000800716D00C44E07800F0C00500F03F01BE
:104900006078C00706D0C80801F007013268491C6A
:1049100002B190476078000703D5716809B1A80912
:1049200088470C9800F0CCFD002063E708010020C8
:104930002DE9FF41044603A801F03AF8BDF80C0048
:10494000410CC3032F48008900F0030254F82250A1
:10495000420700D56D42C0F3C102860654F82220FA
:1049600000D55242C0F38116C00554F8264000D548
:104970006442A5FB0367E81700FB037005FB010019
:10498000850045EA9670A2FB0367D51705FB037502
:1049900002FB0152950045EA9672A4FB0367E517F6
:1049A00005FB037304FB01318B0043EA9671030E90
:1049B0008DF80030030C8DF80130030A8DF80230B9
:1049C0008DF80300100E8DF80400100C8DF8050012
:1049D000100A8DF80600080E8DF80800080C8DF8F6
:1049E0000900080A8DF80A008DF807208DF80B10D1
:1049F0006A460C214FF4257001F060FD04B0BDE85B
:104A0000F08100000801002030B5044613A285B0F3
:104A100007CA8DE807004FF0FF35C82C16D8C8200C
:104A2000B0FBF4F1491E080A8DF80C008DF80D104A
:104A300003AA022140F2162001F040FD30B96A4677
:104A40000C2140F6C12001F039FD10B1284605B017
:104A500030BD054884810020F9E70000FEF2ABC4B8
:104A6000AAF1DFDFBBAFDFDF08010020F8B5304976
:104A7000098901F0030250F822404A0700D5644238
:104A8000C1F3C1028B0650F8222000D55242C1F377
:104A9000811350F82330C80500D55B42254984FBBB
:104AA0000140850045EA947082FB0142A40F44EA6C
:104AB000820483FB0121950F45EA8105010E8DF8E3
:104AC0000010010C8DF80110010A8DF802108DF80C
:104AD00003006A4604214FF4747001F0EFFC4FF0BC
:104AE000FF3688B9200E8DF80000200C8DF80100EB
:104AF000200A8DF802008DF803406A4604214FF425
:104B0000757001F0DBFC08B13046F8BD280E8DF859
:104B10000000280C8DF80100280A8DF802008DF89D
:104B200003506A4604214FF4767001F0C7FCF8BDCB
:104B30000801002009E3CA022DE9FF4104463CA018
:104B400004F00303006802903AA0006803903AA0C2
:104B500006683AA0056802A8C15C8DF80010C4F38D
:104B6000C101425C8DF80120C4F38112805C8DF894
:104B7000020003A8C35C8DF80430415C8DF8051079
:104B8000805C8DF806006A46032140F2264001F061
:104B900095FC4FF0FF37E0BB01AA032140F22A4009
:104BA00001F08CFCA8BBCDE9006560070BD59DF832
:104BB000000040F001008DF800009DF8040040F076
:104BC00001008DF80400A0060BD59DF8010040F00F
:104BD00001008DF801009DF8050040F001008DF8FE
:104BE0000500E0050BD59DF8020040F001008DF8AE
:104BF00002009DF8060040F001008DF806006A46AC
:104C000003214FF4886001F059FC10B901AA032177
:104C100000E004E040F2314001F050FC18B13846A9
:104C200004B0BDE8F081064804810020F8E70000E8
:104C30004CCD6C000CC92C0036567600264666001A
:104C4000080100204FF47A7290FBF2F008B5484357
:104C5000010E8DF80010010C8DF80110010A8DF87D
:104C600002108DF803006A4604214FF4AE7001F083
:104C700025FC08BD0521B0FBF1F008B5010A8DF84F
:104C800000108DF801006A4602214FF4AD7001F06A
:104C900015FC08BD0521B0FBF1F008B5010A8DF83F
:104CA00000108DF801006A4602214FF4AC7001F04B
:104CB00005FC08BD08B500218DF80010C10702D021
:104CC00030218DF80010810705D59DF8001041F0C6
:104CD0000C018DF80010400705D59DF8000040F04C
:104CE00003008DF800006A4601214FF4A47001F022
:104CF000E5FB08BD08B560B1042800D90420401EBA
:104D00008DF800006A46012140F24F1001F0D6FBF9
:104D100008BD0120F3E700002DE9FC4105464007EE
:104D20004FF0FF367CD0B1F5C86F79D80846FBF755
:104D3000C0FC3E49FBF7E2FA074601A800F01AFE64
:104D40009DF80400022806D004280DD008282ED093
:104D5000102865D134E00E213846FBF70DFBFBF738
:104D6000D7FC84B2324907E00D213846FBF704FB3B
:104D7000FBF7CEFC2F4984B23846FBF78DFAFBF7E0
:104D8000C7FC210A8DF8001080B28DF80140010A9D
:104D90008DF802108DF80300E8076C4620D02246FB
:104DA00002214FF4EA7001F089FBC8BB11E00C212D
:104DB0003846FBF7E1FAFBF7ABFC84B21E49DBE7B0
:104DC0000B213846FBF7D8FAFBF7A2FC84B21B494B
:104DD000D2E7A21C02214FF4927001F06FFBF8B9E8
:104DE000A8070DD56A4602214FF4EC7001F066FB6E
:104DF000B0B9A21C02214FF4947001F05FFB78B9A6
:104E0000680710D56A4602214FF4EE7001F056FB98
:104E100030B9A21C02214FF4967001F04FFB10B183
:104E20003046BDE8FC810020FBE70000000048435D
:104E3000000040460000C045000040450000C0445E
:104E40000521B0FBF1F008B5010A8DF800108DF8CE
:104E500001006A4602214FF4EF7001F02FFB08BDFC
:104E60000521B0FBF1F008B5010A8DF800108DF8AE
:104E700001006A4602214FF4ED7001F01FFB08BDEE
:104E800013B54FF6FF73012269460248FDF7ACF8EF
:104E900000981CBDC40000202DE9FE43064601AA6F
:104EA00004210D20FEF77CF810B10720BDE8FE8339
:104EB0009DF804101C2000EAD1029DF80710DFF8CD
:104EC0007090C1F301131A438DF800209DF805205E
:104ED000C1F3810300EAD2021A438DF801209DF844
:104EE000062001F0030100EAD20008430024114F1C
:104EF0008DF80200A0466D46285D10B146F824905A
:104F000009E046F824800CE056F824003946FBF707
:104F1000C3F946F82400285D401E10F0FF00285514
:104F2000F2D1641CE4B2032CE6D30020BEE70000FB
:104F30007B14AE3E1D5A843F2DE9FE4F05460120ED
:104F4000DFF8C8928DF8000000268DF80160D9F8CE
:104F5000000017460C46807C6A460221FEF786F860
:104F60004FF0FF3A00287DD1C820FBF749FE8DF8AD
:104F70000060D9F80000B0464E46C07B6A46012169
:104F8000FEF774F80028EED130686A4601214079B6
:104F9000FEF76CF80028E6D130686A460121807C73
:104FA000FEF764F800285DD130686A460121C07DB3
:104FB000FEF75CF8002855D130686A460121007977
:104FC000FEF754F800284DD14FF00C098DF80090F1
:104FD00030686A4601210079FEF748F800287DD143
:104FE0000F20FBF70DFEB06A6A460121407A8DF86A
:104FF000000030688078FEF739F800286ED1B06A7A
:105000006A460121007A8DF8000030684078FEF78A
:105010002DF8002862D1B06A807A0FB140F0E0002C
:105020008DF8000030686A4601218079FEF71EF88D
:10503000C0B927B1B06AC07A40F0E00000E01820A3
:105040008DF8000030686A460121C079FEF70EF83D
:1050500040B917B1C820FBF7D3FD40208DF8000000
:10506000306800E03AE000796A460121FDF7FEFF72
:10507000A0BB78208DF8000030686A460121407995
:10508000FDF7F4FF50BB3220FBF7BAFD8DF800802E
:10509000306847466A4640790121FDF7E7FFE8B9E5
:1050A0003068B0466A46807A0221FDF779FFA8B9D8
:1050B000BDF80000AF6040BAB0FBF9F06F602F6040
:1050C000A76067602760C6B2002736E0D8F8000006
:1050D0006A460C21C07AFDF763FF10B15046BDE867
:1050E000FE8FBDF80000236840BA02B2BDF802008E
:1050F0001A4440BA01B2BDF804002260626840BAA6
:1051000011446160A16800B20844A060BDF80600C7
:105110002B6840BA02B2BDF80800BDF80A101A4464
:105120002A6040BA6A6800B21044686049BAA86848
:1051300009B208447F1CFFB2A860B742C6D32868F2
:105140008322C117090441EA104100040023FAF741
:10515000EBFF32460023FAF7E7FF286068688322F6
:10516000C117090441EA104100040023FAF7DCFFEB
:1051700032460023FAF7D8FF6860A8688322C11777
:10518000090441EA104100040023FAF7CDFF32463A
:105190000023FAF7C9FFA86020684FF40065C11723
:1051A000090441EA104100042A460023FAF7BCFF33
:1051B00032460023FAF7B8FF206060682A46C1171C
:1051C000090441EA104100040023FAF7ADFF32461A
:1051D0000023FAF7A9FF6060A0682A46C1170904F6
:1051E00041EA104100040023FAF79EFF32460023F3
:1051F000FAF79AFFA060002802DDA0F5803001E0F8
:1052000000F58030A060002069E700002000002049
:105210002DE9F84F8846814600256A4603210D2076
:10522000FDF7BEFE10B10720BDE8F88F9DF8000025
:10523000002400F01F008DF800009DF801006FF0C1
:105240000F0B00F01F008DF801009DF802006E4664
:1052500000F01F008DF802004FF0010A59F82410E9
:1052600058F82400081A00D54042FBF719FA5946AD
:10527000FBF782F80746305DC0B1134802E01349DE
:10528000FBF70AF8315D491E11F0FF013155F6D1E7
:1052900001463846FBF732F84FF07E51FAF7F6FF39
:1052A0000B4920F00040884205DC07E009483844FB
:1052B000B0F1D97F02D90AFA04F00543641C032C2B
:1052C000CCDB2846B0E700000000C84154E3853F2E
:1052D000295C0F3E0000E0BE00B5024600F00DF86C
:1052E0000346D01C00F009F843EAC003901D00F00B
:1052F00004F843EA801080B200BD90F90010002944
:1053000002DD4FF00000704702DA4FF004007047F2
:1053100090F90110002902DD4FF00100704702DA18
:105320004FF00500704790F90200002802DD4FF0B1
:105330000200704702DA4FF0060070474FF0070096
:10534000704700001FB5FCF7B3F9FDF703FFFDF749
:10535000A1FEFDF7BDFEFDF7DBFE00BFFDF7C8FDBA
:105360000028FBD12EA103E0C820FBF749FC31A1A6
:1053700035A0FEF731F800F09DF90028F4D134A1F2
:1053800031A0FEF729F84FF47A793648FFF7F7F99C
:10539000344A0C32111F081F00F0BEF800283BD120
:1053A000FDF77CFDFBF79BF92E4C103C221DA081E4
:1053B000911E881EFDF742FD04F10A02911E881E0F
:1053C000FDF754FDE069FBF7B7F907468846A06989
:1053D000FBF7B2F905460E466069FBF7ADF98DE8BB
:1053E000E00102460B4620A0FDF7F6FFB4F90430B9
:1053F000B4F90220B4F9001021A0FDF7EDFFB4F9D3
:105400000A30B4F90820B4F9061023A0FDF7E4FF30
:1054100027A02169FDF7E0FF4846FBF7F1FBB4E761
:105420004D70753630353020496E6974206F6B21B0
:10543000000000004D70753630353020496E6974BB
:105440002057726F6E67210025730D0A000000005F
:105450004D70753630353020496E6974204F4B21C0
:105460000000000010000020C8FDD6E1BDC7B6C88E
:10547000A3BA25662D25662D25660D0A00000000BD
:10548000C8FDD6E1BCD3CBD9B6C8A3BA25642D25B7
:10549000642D25640D0A0000C8FDD6E1BDC7BDC757
:1054A000B6C8A3BA25642D25642D25640D0A000015
:1054B000BCC6B2BDC6F7A3BA256C640D0A000000D5
:1054C000704700002DE9F041124C20F00101002549
:1054D00094F8240010B10020BDE8F081A07A4FF0CC
:1054E000FF3668B10840277C2074884200D03546DA
:1054F00041B1012001F060F800F0ACFC38B1277434
:105500003046E9E7207D00B1012001F055F828463A
:10551000E2E70000200000202DE9F74F8EB00CA933
:1055200002A8CDE900010BAB03AA09A907A8FFF760
:105530004DF918B1012011B0BDE8F08FBDF8080099
:10554000C0057DD50398FBF7ABF86FF01D0421462D
:10555000FAF712FF82460498FBF7A2F82146FAF701
:105560000BFF81460598FBF79BF82146FAF704FFED
:1055700080460698FBF794F82146FAF7FDFE0546AB
:1055800001215046FAF7F8FE06464146FAF784FE36
:1055900004464FF040414846FAF77EFE074629464A
:1055A000FAF77AFE2146FAF71FFEFBF7C5F8FEF779
:1055B0008BFC4FF0663B5A463D4BFAF790FFFBF7EA
:1055C000CEF80E99086001214046FAF7D5FE414613
:1055D0000090FAF761FE044638464946FAF75CFE49
:1055E0002146FAF753FE4FF07E51FAF7FDFDFBF727
:1055F000A3F807460C4630464946FAF74DFE0646E4
:1056000029460098FAF748FE3146FAF7EDFDFBF718
:1056100093F83A462346FEF79FFE5A46244BFAF784
:105620005EFFFBF79CF80F99086029460846FAF7D9
:1056300033FE074641460846FAF72EFE064600E0CE
:1056400034E049460846FAF727FE04465146084624
:10565000FAF722FE2146FAF7C7FD3146FAF716FEA1
:105660003946FAF713FEFBF767F806460C4629465B
:105670005046FAF711FE054641464846FAF70CFE39
:105680002946FAF7B1FD0121FAF776FEFBF754F847
:1056900032462346FEF760FE5A46054BFAF71FFFD7
:1056A000FBF75DF810990860002044E7022042E70C
:1056B00066A64C4010B54348FBF728FD6420FBF775
:1056C0009FFA00F0FBF9002877D1782000F09EFEC9
:1056D00010F0FF0F04D03CA0FDF77EFE012010BDAE
:1056E0003FA0FDF779FE7820FFF7ECFE10F0FF0FEA
:1056F00004D042A0FDF770FE022010BD44A0FDF7CB
:105700006BFE642000F044FE10F0FF0F04D046A0B2
:10571000FDF762FE032010BD4AA0FDF75DFEFFF716
:105720004BF810F0FF0F04D04EA0FDF755FE0420FB
:1057300010BD51A0FDF750FE5548FFF7CDFDFFF716
:10574000FBF910F0FF0F04D052A0FDF745FE052035
:1057500010BD57A0FDF740FE40F27310FEF7E8FEC3
:1057600010F0FF0F04D05AA0FDF736FE062010BD42
:105770005CA0FDF731FE1420FFF746F910F0FF0F93
:1057800001D0072010BD00F0C1FE20B15BA0FDF7E5
:1057900023FE082010BD5EA0FDF71EFE012000F0D4
:1057A00027FD10F0FF0F05D05FA0FDF715FE0920C3
:1057B00010BD02E061A0FDF70FFE66A0FDF70CFE34
:1057C0000020F5E7700000207365742073656E7328
:1057D0006F7273206661696C6564200A00000000C6
:1057E0007365742073656E736F7273207375636372
:1057F00065737366756C200A000000007365742081
:105800004649464F206661696C6564200A000000C5
:10581000736574204649464F2073756363657373DF
:1058200066756C200A0000007365742073616D70EA
:105830006C652072617465206661696C6564200A1C
:10584000000000007365742073616D706C652072D8
:10585000617465207375636365737366756C200A84
:10586000000000006C6F616420444D502066616947
:105870006C6564200A0000006C6F616420444D5028
:10588000207375636365737366756C200A0000008E
:105890004C000020736574206F7269656E746174CA
:1058A000696F6E206661696C6564200A0000000003
:1058B000736574206F7269656E746174696F6E20B0
:1058C0007375636365737366756C200A000000006E
:1058D00073657420444D50206661696C6564200ACC
:1058E0000000000073657420444D5020737563639D
:1058F00065737366756C200A0000000073656C6642
:105900002074657374206661696C6564200A000008
:1059100073656C6620746573742073756363657357
:105920007366756C200A0000656E61626C652044C8
:105930004D50206661696C6564200A00656E616285
:105940006C6520444D502073756363657373667591
:105950006C200A00696E697469616C697A65204D12
:1059600050553630353020737563636573736675D3
:105970006C200A000D494A7A42B1012A08D0022A55
:105980000FD0032A0FD04FF0FF307047022200E003
:1059900004220270C97C11B11106C90D01700020EA
:1059A00070470822F5E71022F3E7000020000020EE
:1059B0000F494A7A42B1012A09D0022A11D0032A9A
:1059C00012D04FF0FF3070474FF4804201E041F6B3
:1059D0009C720280C97C11B1C2F34E01018000208B
:1059E00070474FF48052F4E74FF40062F1E7000093
:1059F000200000200B49097A39B1012907D002297A
:105A00000AD003290BD0002103E0FA2101E04FF472
:105A1000FA710180002070474FF47A71F9E74FF472
:105A2000FA61F6E7200000200A49097A41B101290C
:105A300008D002290AD003290AD04FF0FF3070475E
:105A4000054900E005490160002070470449FAE774
:105A50000449F8E7200000200000034300008342CF
:105A600033330342333383410C49C97A072913D2B4
:105A7000DFE801F01204060A0C0E1000BC2100E061
:105A800062210180002070472A21FAE71421F8E7FB
:105A90000A21F6E70521F4E70021F2E720000020C3
:105AA000054991F8242012B14FF0FF307047C989A1
:105AB0000180002070470000200000202DE9FC41FB
:105AC000484C80208DF8000020686A460121807CC7
:105AD000FDF7CCFA4FF0FF3700287AD16420FBF7AE
