:020000040800F2
:10000000201C002065020008E70C0008F50B000822
:10001000E50C0008CF0300087D0D0008000000007B
:10002000000000000000000000000000CD010008FA
:10003000D10300080000000011020008050D0008AF
:100040007F0200087F0200087F0200087F0200088C
:100050007F0200087F0200087F0200087F0200087C
:100060007F0200087F0200087F0200087F0200086C
:100070007F0200087F0200087F0200087F0200085C
:100080007F0200087F0200087F0200087F0200084C
:100090007F0200087F0200087F0200087F0200083C
:1000A0007F0200087F0200087F0200087F0200082C
:1000B0007F0200087F0200087F0200087F0200081C
:1000C0007F0200087F0200087F0200087F0200080C
:1000D0007F0200087F0200087F0200087F020008FC
:1000E0007F0200087F0200087F0200087F020008EC
:1000F0007F0200087F0200087F0200087F020008DC
:100100007F0200087F0200087F0200087F020008CB
:100110007F0200087F0200087F0200087F020008BB
:100120007F0200087F0200087F0200087F020008AB
:1001300000F002F800F03AF80AA090E8000C8244BF
:100140008344AAF10107DA4501D100F02FF8AFF29C
:10015000090EBAE80F0013F0010F18BFFB1A43F0A5
:1001600001031847F817000018180000103A24BFC0
:1001700078C878C1FAD8520724BF30C830C144BF0C
:1001800004680C607047000000230024002500264E
:10019000103A28BF78C1FBD8520728BF30C148BFEA
:1001A0000B6070471FB51FBD10B510BD00F0D6F82D
:1001B0001146FFF7F7FF00F0F2FD00F0F4F803B48A
:1001C000FFF7F2FF03BC00F0FBF80000224B1968B8
:1001D0000868B0E8F00F80F30988BFF36F8F4FF025
:1001E000000080F311884EF00D0E704700000000F3
:1001F00006480068006880F3088862B661B6BFF3FD
:100200004F8FBFF36F8F00DF00BF00BF08ED00E02E
:10021000EFF30980BFF36F8F0F4B1A6820E9F00FDF
:10022000106008B54FF0500080F31188BFF34F8F76
:10023000BFF36F8F01F0A0F94FF0000080F3118839
:10024000BDE8084019680868B0E8F00F80F3098835
:10025000BFF36F8F704700BF18000020EFF30580D9
:10026000704700000948804709480047FEE7FEE75D
:10027000FEE7FEE7FEE7FEE7FEE7FEE7FEE7FEE756
:1002800004480549054A064B704700007B0D0008ED
:100290003101000820160020201C0020201800201A
:1002A0002018002010B5203AC0F00B80B1E818509B
:1002B000203AA0E81850B1E81850A0E81850BFF450
:1002C000F5AF5FEA027C24BFB1E81850A0E81850EF
:1002D00044BF18C918C0BDE810405FEA827C24BF43
:1002E00051F8043B40F8043B08BF7047D20728BFD1
:1002F00031F8023B48BF11F8012B28BF20F8023B20
:1003000048BF00F8012B70474FF0000200B51346BC
:1003100094469646203922BFA0E80C50A0E80C5025
:10032000B1F12001BFF4F7AF090728BFA0E80C50D6
:1003300048BF0CC05DF804EB890028BF40F8042BCF
:1003400008BF704748BF20F8022B11F0804F18BF3C
:1003500000F8012B7047704770477047754600F0F2
:100360002BF8AE4605006946534620F00700854647
:1003700018B020B5FFF784FFBDE820404FF000061D
:100380004FF000074FF000084FF0000B21F007017D
:10039000AC46ACE8C009ACE8C009ACE8C009ACE8C0
:1003A000C0098D46704710B50446AFF30080204663
:1003B000BDE81040FFF703BF00487047BC150020A0
:1003C00001491820ABBEFEE7260002007047FEE799
:1003D000704700002DE9F84FDFF8C891002409F1BB
:1003E000040A0AF1040B23460F270BF1040ED1E097
:1003F0000125A54006EA0502AA4276D1DFF8A8C188
:100400004E68A6EB0C0866452BD00DDC032E34D0CD
:1004100005DC36B3012E19D0022E2FD11BE0112E90
:1004200016D0122E2AD119E0B8F5881F19D006DC93
:10043000B8F5803F15D0B8F5801F1FD111E0B8F591
:10044000001F0ED0B8F5041F18D10AE0CB6815E0E4
:10045000CB681B1D12E0CB6808330FE0CB680C3370
:100460000CE08B682BB1012B4FF0080303D04561E2
:1004700004E0042302E0056100E00023FF2A01D824
:10048000064601E000F104064FEA840501D9A5F112
:100490002005D6F8008007FA05FC28EA0C0803FAC4
:1004A00005F548EA0508C6F800804D68ED0070D5EE
:1004B0003E4DAE6946F00106AE61AD6924F003061B
:1004C00005F0010500953A4D06EB050CDCF80850E7
:1004D000A607360F07FA06F825EA0805DFF8D480E4
:1004E000404503D14FF0000825E052E0DFF8C88016
:1004F000404502D14FF001081DE0DFF8C0804045C3
:1005000002D14FF0020816E0DFF8B480404502D176
:100510004FF003080FE0DFF8AC80404502D14FF008
:10052000040808E0DFF8A080404502D14FF005083C
:1005300001E04FF0060808FA06F848EA0508CCF88A
:1005400008804D68D9F80060ED034D4601D516438B
:1005500000E096432E604D68DAF80060AD03554622
:1005600001D5164300E096432E604D68DBF800602D
:10057000ED025D4601D5164300E096432E604D68BE
:10058000DEF80060AD02754601D5164300E09643E3
:100590002E60641C0A681646E2407FF429AFBDE86D
:1005A000F88F00000004014000001110001002400C
:1005B0000000014000080140000C01400010014013
:1005C0000014014000180140001C0140C26821EAEB
:1005D00002030A4043EA0241016170470AB1016126
:1005E00070470904FBE7000001488068704700007D
:1005F0000800002002488168027811448160704739
:1006000008000020074810B5016841F010010160A2
:10061000032000F06DF80F2000F006F800F024F839
:10062000002010BD0020024070B50D4D04464FF46F
:100630007A712878B1FBF0F00A490968B1FBF0F053
:1006400000F0C4FA48B9102C07D200222146501EEF
:1006500000F02EF800206C6070BD012070BD00001D
:1006600008000020140000200F4808B5816941F0FF
:1006700001018161816901F001010091C16941F0CD
:100680008051C161C069002200F0805000900F21AC
:10069000901E00F00DF80548416821F0E06141F03E
:1006A0008061416008BD0000001002400000014070
:1006B000F0B40E4B1B680C46C3F30223C3F10705CD
:1006C000042D00D90425191D072901D2002300E0BB
:1006D000DB1E012606FA05F1491E214099409E4085
:1006E000761E16403143F0BC00F049BB0CED00E033
:1006F000064900F0070208684FF6FF03184040EA79
:100700000220034A10430860704700000CED00E02F
:100710000000FA052DE9F0470F46050061D0434E71
:10072000306800F00700B84209D2306820F00700B6
:1007300038433060306800F00700B84251D1286873
:100740003B4C810712D5400703D5606840F4E06058
:1007500060602878000703D5606840F460506060EE
:100760006068A96820F0F000084360602878C0073E
:1007700028D06868012810D02168022810D0890785
:1007800000292EDA616821F0030101436160FFF75F
:100790002BFF804641F288390DE021688903EFE79D
:1007A0008901EDE7FFF720FFA0EB0801494502D9D9
:1007B0000320BDE8F0876068696800F00C00B0EBCA
:1007C000810FEFD1306800F00700B8420BD93068D4
:1007D00020F0070038433060306800F00700B8426E
:1007E00001D00120E5E72878400705D56068E96871
:1007F00020F4E060084360602878000706D5606850
:10080000296920F4605040EAC100606000F018F8E7
:100810006168084AC1F30311515CC8400649086089
:1008200006480068FFF700FF0020C2E700200240F2
:100830000010024038190008140000200C000020AD
:1008400012A185B00FC98DE80F0014A0144A0068EA
:1008500004905168134801F00C03042B10D0082BAE
:100860000ED1C1F38343C9031DF803000AD55168B3
:1008700004AAC1F34041515C0A4A5043B0FBF1F075
:1008800005B0704708494843FAE700000203040531
:10089000060708090A0B0C0D0E0F101001020000CC
:1008A0000010024000127A0000093D002DE9F84FC7
:1008B000040070D02078C04DC00749D06868C0F3EC
:1008C0008100012807D06868C0F38100022809D19F
:1008D0006868C00306D52868800339D56068002899
:1008E000E7D035E06068B0F5803F0BD010B1B0F5CF
:1008F000A02F11D0286820F480302860286820F4C8
:10090000802002E0286840F480302860606890B160
:10091000FFF76AFE06460AE0286840F48020286057
:10092000F0E700BFFFF760FE801B642873D82868DB
:100930008003F7D50CE0FFF757FE064605E000BF41
:10094000FFF752FE801B6428F0D828688003F7D494
:1009500020789A4E80074FF001094FF0000839D5F2
:10096000686810F00C0F07D06868C0F38100022897
:1009700009D16868C00306D42868800714D52069A7
:10098000012808D110E02069B0B1C6F80090FFF747
:100990002BFE074605E00AE1FFF726FEC01B0228F2
:1009A000C4D828688007F7D52868616920F0F80066
:1009B00040EAC10028600DE0C6F80080FFF714FE91
:1009C000074604E0FFF710FEC01B022823D8286862
:1009D0008007F7D4207800072CD57948A169D9B1D0
:1009E000C0F80090FFF700FE074604E0FFF7FCFDAB
:1009F000C01B02280FD8686A8007F7D571484FF4EA
:100A0000FA510068B0FBF1F0009000BF0098411E61
:100A10000091FAD20EE080E0C0F80080FFF7E4FD1C
:100A2000074604E0FFF7E0FDC01B022875D8686A9E
:100A30008007F7D42078400760D5E8690027C00018
:100A400008D4E86940F08050E861E869012700F0C7
:100A5000805000905C480168C90513D40168834642
:100A600041F480710160FFF7BFFD824606E000BFE0
:100A7000FFF7BAFDA0EB0A0064284ED8DBF80000AF
:100A8000C005F5D5E06801280AD008B1052813D0C3
:100A9000286A20F001002862286A20F0040002E0A1
:100AA000286A40F001002862E06841F2883B98B172
:100AB000FFF79AFD82460BE0286A40F004002862A6
:100AC000EEE700BFFFF790FDA0EB0A0159455AD8A9
:100AD000286A8007F6D50CE0FFF786FD824605E020
:100AE000FFF782FDA0EB0A0159454CD8286A800720
:100AF000F6D41FB1E86920F08050E861E06988B35E
:100B00006968C1F38101022944D00228C6F86080D7
:100B100004D0FFF769FD044638E034E0FFF764FDD8
:100B2000074604E0FFF760FDC01B02282BD82868A9
:100B30008001F7D4206AB0F5803F05D16868A168CC
:100B400020F4003008436860D4E90801084369686C
:100B500021F4741108436860C6F86090FFF744FD03
:100B6000044606E025E000BFFFF73EFD001B02281B
:100B700009D828688001F7D51BE000BFFFF734FDD6
:100B8000001B022802D90320BDE8F88F28688001E5
:100B9000F4D40EE00128F7D06868226A00F48031AE
:100BA000914204D1616A00F47010884201D00120A2
:100BB000EAE70020E8E7000000100240000042429F
:100BC00080044242140000200070004010B5401E16
:100BD000B0F1807F01D3012010BD4FF0E0246061AF
:100BE0000F21601700F0CBF80020A06107202061E2
:100BF000002010BDFEE70000074D084E4FF496742C
:100C0000204600F0DDF820212846FFF7DFFC3068A1
:100C100000F04CFCF4E70000001801400000002048
:100C200010B58EB01C220B496846FFF73BFB002134
:100C3000684600F0D1F8084C06491C2220601C319F
:100C400007A8FFF72FFB002107A800F0C5F8606098
:100C50000EB010BD00190008000000202DE9F0437F
:100C600085B000241C480094019402940394816987
:100C700041F040018161816901F040010491816985
:100C800041F0080181618069DFF8508000F00800C0
:100C90000490002220214046FFF7A0FCDFF840909E
:100CA000002220214846FFF799FC20250227012633
:100CB00003970095CDE9016469464046FFF78AFB3A
:100CC00003970095CDE9016469464846FFF782FB2A
:100CD00005B0BDE8F083000000100240001801409C
:100CE000000C0140FEE7FEE7054D4FF496742046E8
:100CF00000F066F820212846FFF768FCF7E70000BF
:100D0000000C014010B5FFF775FC00F025FD01282F
:100D100003D0BDE8104000F0B1BC10BD30B58FB0BD
:100D200028216846FFF7F0FA14210AA8FFF7ECFA29
:100D300001210804CDE90010002402940225049149
:100D4000CDE907504FF4E01009906846FFF7AEFD7B
:100D500008B172B6FEE70F20CDE90A054FF48060B6
:100D6000CDE90C4002210AA80E94FFF7D3FC00281D
:100D700001D072B6FEE70FB030BD7047FEE709073D
:100D8000090E002804DB00F1E02080F80014704711
:100D900000F00F0000F1E02080F8141D7047FFF70D
:100DA00031FCFFF7BBFFFFF759FFFFF739FF00F0FA
:100DB0000EF8FEE701460020842900D0C81C7047C9
:100DC00010B500B9012000F015FB002010BD10B5D2
:100DD00000F036FB002010BD7FB50D46044641698A
:100DE000B0F9080081B1A16971B1FFF7E3FFD4E95F
:100DF00005128DE80700D4E900102B46226900F0A7
:100E000080FC039004B070BDFFF7D4FF03A9CDE9C7
:100E10000001208A2B4682B2D4E9001000F044FC85
:100E2000012801D00020EDE70398EBE72DE9F04120
:100E3000184C0F46054666692068001D00F016FA3A
:100E400038B9206890F82C1001208840A1698143AE
:100E5000A161681C07D137B12168BDE8F0410E4897
:100E6000091D00F047BA20683544B5424560216845
:100E700005D2A068BDE8F041091D00F023BA606802
:100E8000091D00F01FFA206B854200D22563BDE8E2
:100E9000F081000018000020A80300202DE9F04197
:100EA000054600F033FA2E4C2069401C2061206872
:100EB0002C4F10B1E06940B32DE025602069012876
:100EC00029D1002606EB860007EB800000F0ECF944
:100ED000761C072EF6D323488C3000F0E5F9214824
:100EE000A03000F0E1F91F48B43000F0DDF91D48F2
:100EF000C83000F0D9F91B48DC3000F0D5F91948AA
:100F00008C3060601430A06005E02068E96AC06A37
:100F1000884200D82560E06A401CE062E96A01204E
:100F2000A26988401043A06101EB810007EB8000BB
:100F3000291D00F0DFF900F009FAE06900280CD063
:100F40002068E96AC06A884207D207494FF080509A
:100F50000860BFF34F8FBFF36F8FBDE8F0810000D3
:100F600018000020CC02002004ED00E010B504467B
:100F700090F8510058B101280CD002280FD0502011
:100F800080F31188BFF34F8FBFF36F8FFEE7206BA5
:100F900000F0F0F92046BDE8104000F0EBB910BDBC
:100FA00010484FF49051420706D0C01D0D4920F063
:100FB0000700411AC1F590510B4A00230144C2E9D0
:100FC00000030839103A21F0070111604B600B60F3
:100FD0000B1AC0E9001393604FF000405360D060DB
:100FE00070470000BC03002064000020144E154C24
:100FF000A6F1C8074FF08058DFF84C9012E000BF10
:1010000000F084F9F068C568281D00F02FF9206908
:10101000401E2061E068401EE06000F097F928461D
:10102000FFF7A4FFE0680028EAD138680128F9D961
:10103000C9F80080BFF34F8FBFF36F8FF2E7000056
:10104000940300201800002004ED00E02DE9F04793
:101050009A46DDE9098481466FF00303206B03EBB8
:1010600082021044089D20F00706700707D0502028
:1010700080F31188BFF34F8FBFF36F8FFEE7231804
:101080000A5C83F834200A5C12B1401C1028F6D3A5
:10109000002784F84370072D00D30625E562C4E9D4
:1010A0001157201D00F00BF904F1180000F007F9AA
:1010B0002461C5F107006462A061E76484F85070A0
:1010C00052464946304600F0BFF82060B8F1000FA4
:1010D00001D0C8F80040BDE8F087000030B51149E4
:1010E00000E011460A688242FBD34B685C188442D8
:1010F00003D1406818444860084643681C1894426D
:1011000009D1084C103C2468A24209D052681A4404
:1011100042600A6812680260814200D0086030BDF7
:101120000460F9E76400002006484168096829B1B5
:101130004168C968C9684968016370474FF0FF3169
:10114000FAE700001800002008484068401C4FF0F3
:10115000500080F3118804D0BFF34F8FBFF36F8F1F
:10116000FEE7BFF34F8FBFF36F8FFEE76C000020E9
:101170002DE9F0410546002700F0F6F9314E3068C0
:1011800008B9FFF70DFFF06805424BD1C5B308352C
:1011900068070ED005F00700C0F108000544680795
:1011A00007D0502080F31188BFF34F8FBFF36F8FAC
:1011B000FEE72DB37068854234D8224810300146CE
:1011C0000C6801E020460C466168A94202D2216801
:1011D0000029F7D131688C4224D00768216801606A
:1011E00060680837411B10290FD96019420708D0E1
:1011F000502080F31188BFF34F8FBFF36F8FFEE74E
:1012000010E041606560FFF769FF61687068401A2F
:101210007060B268904200D2B060F0680143002074
:10122000C4E9000100F00AFB780707D0502080F3E2
:101230001188BFF34F8FBFF36F8FFEE73846BDE8CD
:10124000F08100005400002010B5031F4FF080749F
:101250001C601B1F21F001011960191F024B0B605C
:10126000143940380A6010BD49110008D0E9013234
:1012700001699A60D0E901235A604A68824201D12B
:1012800082684A60002202610868401E086008689F
:1012900070470000034B036003F154000860802096
:1012A000106070477800002000F108014FF0FF3215
:1012B000C0E90112C1600161002101607047002195
:1012C0000161704730B50B685A1C02D000F108026A
:1012D00002E0026904E02246546825689D42FAD97A
:1012E00053684B6099608A60516008610168491CCD
:1012F000016030BD42684A6093688B6093685960B2
:10130000916008610168491C01607047502080F3BA
:101310001188BFF34F8FBFF36F8F0A494868401C95
:10132000486001280CD10848006810F0FF0F07D072
:10133000502080F31188BFF34F8FBFF36F8FFEE70C
:10134000704700006C00002004ED00E00849486888
:1013500028B1401E486001D180F3118870475020A9
:1013600080F31188BFF34F8FBFF36F8FFEE700004C
:101370006C00002070B5002827D0144DA0F108049F
:101380006168E868014207D1502080F31188BFF3FB
:101390004F8FBFF36F8FFEE722683AB1502080F382
:1013A0001188BFF34F8FBFF36F8FFEE781436160FA
:1013B00000F0DAF860686968084468602046FFF762
:1013C0008DFEBDE8704000F039BA70BD54000020B9
:1013D0004FF0E02000210161816105494FF47A72EC
:1013E0000968B1FBF2F1491E4161072101617047B3
:1013F0001400002010B5020014D00F48806B38B1E3
:10140000502080F31188BFF34F8FBFF36F8FFEE73B
:1014100000F0AAF800211046FFF708FD00F00EFAD0
:10142000002807D105494FF080500860BFF34F8F67
:10143000BFF36F8F10BD00001800002004ED00E026
:1014400010B586B00024039405AA04A903A8049447
:10145000FFF720FFDDE903010094CDE9011000232F
:101460000EA11048059A00F04CF90F490028486376
:1014700011D0502080F31188BFF34F8FBFF36F8FCF
:101480004FF0FF3008630120C8614C6106B0BDE831
:10149000104000F09FB806B010BD000049444C4514
:1014A00000000000ED0F00081800002070B5044691
:1014B000FFF72CFF294D04B92C68201DFFF7D6FE3D
:1014C00058B9E06A264A00EB800152F8211021B990
:1014D00001218140A8698843A861A06A18B104F17C
:1014E0001800FFF7C3FE1E48211DDC30FFF702FF86
:1014F00094F850000026012801D184F85060FFF7CD
:1015000025FFE86928B1FFF701FFFFF70DFEFFF7A0
:101510001DFF2868844213D1E86990B1A86B38B1E7
:10152000502080F31188BFF34F8FBFF36F8FFEE71A
:101530000C494FF080500860BFF34F8FBFF36F8F9F
:1015400070BD0748DC3000682969884201D12E60EF
:1015500070BDBDE8704000F00FB80000180000201A
:10156000CC02002004ED00E00248816B491C81633D
:1015700070470000180000201448816B11B1012150
:1015800041627047002141628169B1FA81F1C1F184
:101590001F0101EB81020E4951F822306BB101EBC2
:1015A000820101F108034A6852684A609A4201D1F7
:1015B00052684A60D16801607047502080F31188FA
:1015C000BFF34F8FBFF36F8FFEE7000018000020BE
:1015D000CC0200201CB5264908780190FF20087035
:1015E00008788DF800009DF800009DF8002000F0BC
:1015F000F000904207D0502080F31188BFF34F8F46
:10160000BFF36F8FFEE79DF800001A4B00F050000B
:1016100018700720986005E09DF8002052008DF8B2
:101620000020401E9DF800201206F5D49860032883
:1016300007D0502080F31188BFF34F8FBFF36F8F17
:10164000FEE74FF440709860019808700A480168FE
:1016500041F470010160016841F070410160FFF7E1
:10166000B7FE00205860FEF7C3FD00201CBD00003F
:1016700000E400E06C00002020ED00E010B55020F8
:1016800080F31188BFF34F8FBFF36F8F00F072F8B4
:1016900018B104494FF080500860002080F3118891
:1016A00010BD000004ED00E02DE9FF5F8346DDE999
:1016B0000E87994616468A469000FFF759FD0500A9
:1016C0001CD05420FFF754FD040014D000202563E3
:1016D00084F85100CDE90240CDE900874B463246FF
:1016E00051465846FFF7B2FC2046FFF7D7FB0120D2
:1016F00004B0BDE8F09F2846FFF73CFE4FF0FF30F6
:10170000F6E7F0B585B0DDE90B640A9DA6B1DCB162
:10171000542700972663022684F85160002604AF00
:10172000CDE90246CDE90057FFF790FC2046FFF7D0
:10173000B5FB049805B0F0BD502080F31188BFF3CD
:101740004F8FBFF36F8FFEE7502080F31188BFF3F8
:101750004F8FBFF36F8FFEE70548C16919B1806BEA
:1017600018B1002070470120704702207047000028
:10177000180000202DE9F0412E4C0027A06B40B14D
:10178000206A401C2062606A00B101273846BDE82B
:10179000F0816669761C666113D16068006838B1B3
:1017A000502080F31188BFF34F8FBFF36F8FFEE798
:1017B0006068A1686160A060A06A401CA062FFF739
:1017C000B3FC206BDFF87080864209D36068006844
:1017D00080B16068C068C568686886420DD22063C1
:1017E0002068C06A00EB800158F821000128CAD99E
:1017F0000127C8E74FF0FF30F1E7281DFFF736FD5E
:10180000A86A18B105F11800FFF730FDE86A012158
:10181000A26981401143A16100EB800108EB8100C6
:10182000291DFFF767FDE86A2168C96A8842CDD3A0
:101830000127CBE718000020CC0200202DE9F0475B
:101840002C4D00242746A86B38B1FFF75FFDA86B2D
:10185000401EA863A86B40B146E0502080F3118879
:10186000BFF34F8FBFF36F8FFEE72969224E012030
:10187000D1B3A6F1B40980463068E8B1F068C46815
:1018800004F11800FFF7F2FC201DFFF7EFFCE06AFF
:10189000AA6908FA00F11143A96100EB800109EB84
:1018A0008100211DFFF726FDE06A2968C96A884288
:1018B000E2D3C5F82480DFE70CB1FFF735FC2C6AD2
:1018C00044B14646FFF756FF00B16E62641EF9D17F
:1018D00000202862686A38B1084901273807086083
:1018E000BFF34F8FBFF36F8FFFF730FD3846BDE872
:1018F000F0870000180000208003002004ED00E0C5
:1019000050190008E90C0008000000000000000069
:1019100080000000000000000000000048190008DE
:10192000F90B0008FEFF000000000000800000002E
:1019300000000000000000000000000000000000A7
:1019400001020304060708096D795461736B3100C5
:1019500064656661756C745461736B007C19000872
:1019600000000020780000006C010008F419000855
:1019700078000020A81B000088010008000000007B
:101980000000000001000000100000000000000046
:101990000024F4000000000000000000000000002F
:1019A0000000000000000000000000000000000037
:1019B0000000000000000000000000000000000027
:1019C0000000000000000000000000000000000017
:1019D0000000000000000000000000000000000007
:1019E000000000000000000000000000AAAAAAAA4F
:0419F00000000000F3
:0400000508000131BD
:00000001FF
